:0200000470008A
:10000000464346420004015600000000010303007D
:1000100000000000000000000000000000000000E0
:1000200000000000000000000000000000000000D0
:1000300000000000000000000000000000000000C0
:1000400000000000000408000000000000000000A4
:100050000000400000000000000000000000000060
:100060000000000000000000000000000000000090
:100070000000000000000000000000000000000080
:10008000EB04180A063204260000000000000000FD
:100090000000000000000000000000000000000060
:1000A0000000000000000000000000000000000050
:1000B0000000000000000000000000000000000040
:1000C0000000000000000000000000000000000030
:1000D0000000000000000000000000000000000020
:1000E0000000000000000000000000000000000010
:1000F0000000000000000000000000000000000000
:1001000000000000000000000000000000000000EF
:1001100000000000000000000000000000000000DF
:1001200000000000000000000000000000000000CF
:1001300000000000000000000000000000000000BF
:1001400000000000000000000000000000000000AF
:10015000000000000000000000000000000000009F
:10016000000000000000000000000000000000008F
:10017000000000000000000000000000000000007F
:10018000000000000000000000000000000000006F
:10019000000000000000000000000000000000005F
:1001A000000000000000000000000000000000004F
:1001B000000000000000000000000000000000003F
:1001C000000100000010000000000000000000001E
:1001D000000001000000000000000000000000001E
:1001E000000000000000000000000000000000000F
:1001F00000000000000000000000000000000000FF
:10100000D10020410020007000000000301000706E
:1010100020100070001000700000000000000000B0
:10102000000000700000400000000000FFFFFFFF14
:10103000D2043041CC03AC04400FC068FFFFFFFF77
:10104000400FC06CFFFFFFFF400FC070FFFFFFFFAE
:10105000400FC074FFFFFFFF400FC078FFFFFFFF8E
:10106000400FC07CFFFFFFFF400FC080FFFFFFFF6E
:10107000400D803000002001400D8100001D000067
:10108000400FC01400010D40401F801400000000FC
:10109000401F801800000000401F801C000000005E
:1010A000401F802000000000401F8024000000003E
:1010B000401F802800000000401F802C000000001E
:1010C000401F803000000000401F803400000000FE
:1010D000401F803800000000401F803C00000000DE
:1010E000401F804000000000401F804400000000BE
:1010F000401F804800000000401F804C000000009E
:10110000401F805000000000401F8054000000007D
:10111000401F805800000000401F805C000000005D
:10112000401F806000000000401F8064000000003D
:10113000401F806800000000401F806C000000001D
:10114000401F807000000000401F807400000000FD
:10115000401F807800000000401F807C00000000DD
:10116000401F808000000000401F808400000000BD
:10117000401F808800000000401F808C000000009D
:10118000401F809000000000401F8094000000007D
:10119000401F809800000000401F809C000000005D
:1011A000401F80A000000000401F80A4000000003D
:1011B000401F80A800000000401F80AC000000001D
:1011C000401F80B000000010401F80B400000000ED
:1011D000401F80B800000000401F8204000110F989
:1011E000401F8208000110F9401F820C000110F915
:1011F000401F8210000110F9401F8214000110F9F5
:10120000401F8218000110F9401F821C000110F9D4
:10121000401F8220000110F9401F8224000110F9B4
:10122000401F8228000110F9401F822C000110F994
:10123000401F8230000110F9401F8234000110F974
:10124000401F8238000110F9401F823C000110F954
:10125000401F8240000110F9401F8244000110F934
:10126000401F8248000110F9401F824C000110F914
:10127000401F8250000110F9401F8254000110F9F4
:10128000401F8258000110F9401F825C000110F9D4
:10129000401F8260000110F9401F8264000110F9B4
:1012A000401F8268000110F9401F826C000110F994
:1012B000401F8270000110F9401F8274000110F974
:1012C000401F8278000110F9401F827C000110F954
:1012D000401F8280000110F9401F8284000110F934
:1012E000401F8288000110F9401F828C000110F914
:1012F000401F8290000110F9401F8294000110F9F4
:10130000401F8298000110F9401F829C000110F9D3
:10131000401F82A0000110F9401F82A4000110F9B3
:10132000401F82A8000110F9402F000010000004A7
:10133000402F000800030524402F000C060305245D
:10134000402F00108000001B402F00148200001B63
:10135000402F00188400001B402F001C8600001B3B
:10136000402F002090000021402F0024A0000019F1
:10137000402F0028A8000017402F002CA900001BB8
:10138000402F003000000021402F0004000079A809
:10139000402F004000000F31402F004400652922FB
:1013A000402F004800010920402F004C50210A081E
:1013B000402F008000000021402F00840088888892
:1013C000402F009400000002402F00980000000011
:1013D000402F009080000000402F009CA55A000F75
:1013E000CF000C1C402F003C00000001CC00140476
:1013F000402F009080000000402F009CA55A000C58
:10140000CF000C1C402F003C00000001CC00140455
:10141000402F009080000000402F009CA55A000C37
:10142000CF000C1C402F003C00000001CC001C042D
:10143000402F00A000000033402F009080000000EB
:10144000402F009CA55A000ACF000C1C402F003CE6
:1014500000000001CC000C04402F004C50210A0970
:1020000000000220BD240070B96B0070BB6B007033
:10201000BD6B0070BF6B0070C16B007000000000F2
:10202000000000000000000000000000C36B007012
:10203000C56B007000000000C76B0070A95C0070E9
:102040001D250070212500702525007029250070B0
:102050002D25007031250070352500703925007060
:102060003D25007041250070452500704925007010
:102070004D250070512500705525007059250070C0
:102080005D25007005250070052500700525007090
:102090006125007065250070692500706D25007050
:1020A0007125007075250070792500707D25007000
:1020B0008125007085250070892500708D250070B0
:1020C0009125007095250070992500709D25007060
:1020D000A1250070A525007005250070052500705C
:1020E0000525007005250070052500707D35007000
:1020F0000525007005250070052500700525007078
:102100000525007005250070052500700525007067
:102110000525007005250070052500700525007057
:10212000A9250070AD250070B1250070B52500709F
:10213000B925007005250070052500700525007083
:102140000525007005250070052500700525007027
:102150000525007005250070052500700525007017
:102160000525007005250070052500700525007007
:1021700005250070052500700525007005250070F7
:1021800005250070052500700525007005250070E7
:10219000015D0070052500700525007005250070A3
:1021A0000525007005250070BD250070C125007053
:1021B00005250070052500700525007005250070B7
:1021C00005250070052500700525007005250070A7
:1021D0000525007005250070052500700525007097
:1021E000052500700525007005250070C5250070C7
:1021F000C925007005250070CD250070D12500701F
:10220000C1A90070B1A90070D52500705D470070AC
:102210000525007005250070052500700525007056
:1022200005250070052500708935007005250070B2
:102230000525007005250070052500700525007036
:102240000525007005250070052500700525007026
:102250000525007005250070052500700525007016
:102260000525007005250070052500700525007006
:1022700005250070052500700525007005250070F6
:1022800005250070052500700525007005250070E6
:1022900005250070052500700525007005250070D6
:1022A000DD250070E1250070E52500700525007032
:1022B000E9250070052500700525007005250070D2
:1022C00005250070052500700525007005250070A6
:1022D0000525007005250070052500700525007096
:1022E0000525007005250070052500700525007086
:1022F0000525007005250070052500700525007076
:102300000525007005250070052500700525007065
:102310000525007005250070052500700525007055
:102320000525007005250070052500700525007045
:102330000525007005250070052500700525007035
:102340000525007005250070052500700525007025
:102350000525007005250070052500700525007015
:102360000525007005250070052500700525007005
:1023700005250070052500700525007005250070F5
:1023800005250070052500700525007005250070E5
:1023900005250070052500700525007005250070D5
:1023A00005250070052500700525007005250070C5
:1023B00005250070052500700525007005250070B5
:1023C00005250070052500700525007005250070A5
:1023D0000525007005250070052500700525007095
:1023E0000525007005250070052500700525007085
:1023F000052500700525007005250070FFFFFFFF13
:1024000010B5054C237833B9044B13B10448AFF32E
:1024100000800123237010BDC404002000000000D0
:10242000ECC1007008B5034B1BB103490348AFF37F
:10243000008008BD00000000C8040020ECC100704E
:10244000A3F5803A704700BF174B002B08BF134B12
:102450009D46FFF7F5FF00218B460F461348144AAF
:10246000121A08F08DFC0E4B002B00D098470D4B34
:10247000002B00D098470020002104000D000D48DB
:10248000002802D00C4808F03BFD08F055FC200065
:10249000290001F0ABF808F03FFC00BF0000080085
:1024A000000000000000000000000220C404002022
:1024B0002408002001AF00700DAF007072B60A480A
:1024C0000A4901600A6882F3088809488047094977
:1024D000094A0A4B9A42BEBF51F8040B42F8040B5A
:1024E000F8E762B60648804708ED00E0002000707B
:1024F0000D38007018C2007000000020C4040020D5
:1025000049240070FFF7FEBF3848004738480047AD
:10251000384800473848004738480047384800479F
:10252000384800473848004738480047384800478F
:10253000384800473848004738480047384800477F
:10254000384800473848004738480047384800476F
:10255000384800473848004738480047384800475F
:10256000384800473848004738480047384800474F
:10257000384800473848004738480047384800473F
:10258000384800473848004738480047384800472F
:10259000384800473848004738480047384800471F
:1025A000384800473848004738480047384800470F
:1025B00038480047384800473848004738480047FF
:1025C00038480047384800473848004738480047EF
:1025D00038480047384800473848004738480047DF
:1025E000384800473848004738480047B96B007002
:1025F000BB6B0070C36B0070C76B0070A95C007090
:10260000F14200702D43007069430070A5430070D3
:10261000E14300701D4400705944007095440070FF
:10262000D14400700D45007049450070854500702B
:10263000C1450070FD450070394600707546007058
:1026400005250070B5500070D1500070ED5000703D
:102650000951007025510070415100705D510070AA
:1026600079510070614C0070714C0070814C0070A9
:10267000914C0070C54C0070F94C00702D4D0070ED
:10268000614D007095470070CD470070A15A0070F1
:10269000295B0070E95B0070B15B0070215C007029
:1026A000754800707D480070052500700525007094
:1026B000555C0070715C00707547007005250070F6
:1026C000854700700525007005480070854800703A
:1026D00081F0004102E000BF83F0004330B54FEAD3
:1026E00041044FEA430594EA050F08BF90EA020F40
:1026F0001FBF54EA000C55EA020C7FEA645C7FEAD3
:10270000655C00F0E2804FEA5454D4EB5555B8BFF5
:102710006D420CDD2C4480EA020281EA030382EA66
:10272000000083EA010180EA020281EA0303362DF8
:1027300088BF30BD11F0004F4FEA01314FF4801CCB
:102740004CEA113102D0404261EB410113F0004FDD
:102750004FEA03334CEA133302D0524263EB430394
:1027600094EA050F00F0A780A4F10104D5F1200E32
:102770000DDB02FA0EFC22FA05F2801841F100018D
:1027800003FA0EF2801843FA05F359410EE0A5F161
:1027900020050EF1200E012A03FA0EFC28BF4CF092
:1027A000020C43FA05F3C01851EBE37101F0004548
:1027B00007D54FF0000EDCF1000C7EEB00006EEB55
:1027C0000101B1F5801F1BD3B1F5001F0CD34908DF
:1027D0005FEA30004FEA3C0C04F101044FEA445236
:1027E00012F5800F80F09A80BCF1004F08BF5FEABD
:1027F000500C50F1000041EB045141EA050130BD9D
:102800005FEA4C0C404141EB0101013C28BFB1F5AE
:10281000801FE9D291F0000F04BF01460020B1FAF9
:1028200081F308BF2033A3F10B03B3F120020CDACC
:102830000C3208DD02F1140CC2F10C0201FA0CF0AA
:1028400021FA02F10CE002F11402D8BFC2F1200C0F
:1028500001FA02F120FA0CFCDCBF41EA0C019040C5
:10286000E41AA2BF01EB0451294330BD6FEA04040E
:102870001F3C1CDA0C340EDC04F11404C4F12002F9
:1028800020FA04F001FA02F340EA030021FA04F30B
:1028900045EA030130BDC4F10C04C4F1200220FA62
:1028A00002F001FA04F340EA0300294630BD21FAA0
:1028B00004F0294630BD94F0000F83F4801306BF66
:1028C00081F480110134013D4EE77FEA645C18BF5A
:1028D0007FEA655C29D094EA050F08BF90EA020FF1
:1028E00005D054EA000C04BF1946104630BD91EAE9
:1028F000030F1EBF0021002030BD5FEA545C05D1EC
:102900004000494128BF41F0004130BD14F580042A
:102910003CBF01F5801130BD01F0004545F0FE419E
:1029200041F470014FF0000030BD7FEA645C1ABFD3
:10293000194610467FEA655C1CBF0B46024650EA0A
:10294000013406BF52EA033591EA030F41F4002136
:1029500030BD00BF90F0000F04BF0021704730B5BC
:102960004FF4806404F132044FF000054FF0000191
:1029700050E700BF90F0000F04BF0021704730B552
:102980004FF4806404F1320410F0004548BF404227
:102990004FF000013EE700BF42004FEAE2014FEA7C
:1029A00031014FEA02701FBF12F07F4393F07F4F57
:1029B00081F06051704732F07F4208BF704793F05A
:1029C0007F4F04BF41F40021704730B54FF460746D
:1029D00001F0004521F000411CE700BF50EA010270
:1029E00008BF704730B54FF000050AE050EA010219
:1029F00008BF704730B511F0004502D5404261EB89
:102A000041014FF4806404F132045FEA915C3FF4C9
:102A1000D8AE4FF003025FEADC0C18BF03325FEA66
:102A2000DC0C18BF033202EBDC02C2F1200300FA17
:102A300003FC20FA02F001FA03FE40EA0E0021FA3C
:102A400002F11444BDE600BF4FF0FF3C06E000BFBA
:102A50004FF0010C02E000BF4FF0010C4DF804CD27
:102A60004FEA410C7FEA6C5C4FEA430C18BF7FEAE7
:102A70006C5C1BD001B050EA410C0CBF52EA430C15
:102A800091EA030F02BF90EA020F0020704710F195
:102A9000000F91EA030F58BF994208BF90422CBF24
:102AA000D8176FEAE37040F0010070474FEA410C1D
:102AB0007FEA6C5C02D150EA013C07D14FEA430C3B
:102AC0007FEA6C5CD6D152EA033CD3D05DF8040BAC
:102AD000704700BF8446104662468C4619466346DE
:102AE00000E000BF01B5FFF7B7FF002848BF10F1B5
:102AF000000F01BD4DF808EDFFF7F4FF0CBF0120FA
:102B000000205DF808FB00BF4DF808EDFFF7EAFF75
:102B100034BF012000205DF808FB00BF4DF808ED30
:102B2000FFF7E0FF94BF012000205DF808FB00BF25
:102B30004DF808EDFFF7CEFF94BF012000205DF8AF
:102B400008FB00BF4DF808EDFFF7C4FF34BF0120BC
:102B500000205DF808FB00BF53B94AB9002908BF3F
:102B600000281CBF4FF0FF314FF0FF3000F06EB96E
:102B7000ADF1080C6DE904CE00F006F8DDF804E0D4
:102B8000DDE9022304B070472DE9F047089D0446B3
:102B90008C46002B40F083808A42174647D9B2FA10
:102BA00082F242B1C2F1200024FA00F09140974035
:102BB00040EA010C94404FEA1748230CBCFBF8F69E
:102BC0001FFA87FE08FB16C143EA014306FB0EF11C
:102BD000994209D9FB1806F1FF3080F0198199421A
:102BE00040F21681023E3B445B1AA4B2B3FBF8F0FC
:102BF00008FB103344EA034400FB0EFEA64509D946
:102C00003C1900F1FF3380F00581A64540F20281B6
:102C100002383C4440EA0640A4EB0E0400261DB1F5
:102C2000D4400023C5E900433146BDE8F08702B92E
:102C3000FFDEB2FA82F2002A50D1CB1B4FEA174EC8
:102C40001FFA87F80126B3FBFEFC210C0EFB1C3398
:102C500041EA034108FB0CF38B4207D979180CF1C8
:102C6000FF3002D28B4200F2E9808446C91AA3B237
:102C7000B1FBFEF00EFB101143EA014408FB00F823
:102C8000A04507D93C1900F1FF3302D2A04500F25C
:102C9000D9801846A4EB080440EA0C40BFE78B42F9
:102CA00009D9002D00F0B1800026C5E900013046A9
:102CB0003146BDE8F087B3FA83F6002E4AD18B4245
:102CC00002D3824200F2B880841A61EB0301012032
:102CD0008C46002DA8D0C5E9004CA5E7C2F1200321
:102CE00020FA03F6974001FA02F04FEA174ED94056
:102CF0003043030CB1FBFEF61FFA87F80EFB1611EA
:102D000043EA014306FB08F1994204FA02F409D9A7
:102D1000FB1806F1FF3C80F08D80994240F28A80DA
:102D2000023E3B445B1A81B2B3FBFEF00EFB103354
:102D300041EA034100FB08F38B4207D9791800F1FF
:102D4000FF3C73D28B4271D902383944CB1A40EA26
:102D5000064678E7C6F1200C03FA06F422FA0CF3D3
:102D60001C4320FA0CF701FA06F34FEA144E21FA3D
:102D70000CF11F433B0CB1FBFEF91FFA84F80EFB6C
:102D8000191143EA014109FB08FA8A4502FA06F2E1
:102D900000FA06F308D9611809F1FF3048D28A45D4
:102DA00046D9A9F102092144A1EB0A01BFB2B1FB46
:102DB000FEF00EFB101147EA014700FB08F8B8458A
:102DC00007D9E71900F1FF312ED2B8452CD90238C6
:102DD000274440EA0940A7EB0807A0FB02894F45BA
:102DE000C64649461AD317D05DB1B3EB0E0267EB66
:102DF000010707FA0CFCF2404CEA0202F740C5E971
:102E0000002700263146BDE8F0872E4628460BE70E
:102E10000646E9E61846FDE64345E5D2B8EB020E64
:102E200069EB04010138DFE70846D2E760468DE729
:102E30008146B9E7664675E730464AE7ACF1020CD1
:102E4000394413E702383C4424E700BF704700BF11
:102E5000F0B585B000242EE00121084603F076FF8E
:102E60004E4D25F814000621012003F06FFFE31DED
:102E700025F813000921012003F068FF04F10E0377
:102E800025F813000A21012003F060FF04F1150367
:102E900025F813000C21012003F058FF04F11C0356
:102EA00025F813000D21012003F050FF04F1230346
:102EB00025F813000134062CCEDD00211CE001337F
:102EC000062B0EDCC1EBC1021A44344830F8122044
:102ED000A24201D9DEB21446AA42F0D2DFB21546B0
:102EE000EDE72E4AC1EBC1031E44002022F8160074
:102EF0001F4422F817000131052906DC002342F2A5
:102F000010751C461F461E46DAE70021019102910A
:102F1000039111E0C1EBC1021A44204830F812209D
:102F200004A800EB410030F80C4C224420F80C2C93
:102F30000133062BEEDD0131052901DC0023F8E722
:102F40000022052A0DDC04AB03EB420333F80C3CF2
:102F50001349A1FB03139B08124921F812300132D7
:102F6000EFE7002315E00F4A32F8132007EE102A8E
:102F7000B8EE477A0C4A32F8132007EE902AF8EEA2
:102F8000677AC7EE276A094A02EB8302C2ED006A3C
:102F90000133052BE7DD05B0F0BD00BF04050020BF
:102FA000CDCCCCCCE004002000000020EC040020BC
:102FB0000B4BD3ED007A93ED010A77EE807A93ED17
:102FC000020A77EE807A93ED030A93ED047A30EEED
:102FD000070A93ED057A30EE070A30EE670A70476C
:102FE000EC04002008B55D2003F014FF08B90120AF
:102FF00008BD5E2003F00EFF58B15B2003F00AFF0E
:1030000048B15C2003F006FF08B10020F0E704207F
:10301000EEE70220ECE70320EAE710B5532003F0C7
:10302000F9FE0446542003F0F5FE0346012C14BFBC
:103030000022012200280CBF1046002060B9012B9D
:1030400014BF00230123002C0CBF1C4600242CB904
:103050001A4202D0112000E0012010BD1020FCE730
:1030600010B5002007F058FD304A0021084607F04F
:1030700001FE2F4CD4ED007AFDEEE77A17EE903A80
:103080001AB20021322007F025FE2A4A0121002031
:1030900007F0F0FDD4ED017AFDEEE77A17EE903AF5
:1030A0001AB20121322007F015FE234A0221002026
:1030B00007F0E0FDD4ED027AFDEEE77A17EE903AE4
:1030C0001AB20221322007F005FE1C4A032100201B
:1030D00007F0D0FDD4ED037AFDEEE77A17EE903AD3
:1030E0001AB20321322007F0F5FD154A0421002011
:1030F00007F0C0FDD4ED047AFDEEE77A17EE903AC2
:103100001AB20421322007F0E5FD0E4A0521002005
:1031100007F0B0FDD4ED057AFDEEE77A17EE903AB0
:103120001AB20521322007F0D5FD10BDDCAF0070CA
:10313000EC040020E8AF0070F4AF007000B0007045
:103140000CB0007018B0007070B5FFF766FF044651
:10315000FFF748FF112C00F2C780DFE804F00949AF
:10316000C5C5C5C5C5C5C5C5C5C5C5C5C5C5C1C612
:103170000546834E3188702006F026FF814C218859
:10318000482006F021FF002007F0C6FC7E4A0021FF
:10319000084607F06FFD7D4A0121002007F06AFD17
:1031A000B6F900200021322007F094FDB4F9002088
:1031B0000121322007F08EFD681E032800F2948062
:1031C000DFE800F002070C116D4A138814331380F6
:1031D0008AE06B4A1388143B138085E0694A1388A0
:1031E0001433138080E0674A1388143B13807BE01C
:1031F000002007F091FC664A0021084607F03AFDDE
:10320000644C2368D3ED007AFDEEE77A17EE903A2E
:103210001AB20021322007F05DFD5F4A0121002033
:1032200007F028FD2368D3ED017AFDEEE77A17EE6B
:10323000903A1AB20121322007F04CFD574A022180
:10324000002007F017FD2368D3ED027AFDEEE77A40
:1032500017EE903A1AB20221322007F03BFD504A95
:103260000321002007F006FD4E4BB3F90020032197
:10327000322007F02FFDFFF7B5FE0138032833D8C1
:10328000DFE800F0020D1823424B1B68D3ED007AF3
:10329000B7EE007A77EE877AC3ED007A24E03D4BF3
:1032A0001B68D3ED007AB7EE007A77EEC77AC3EDEC
:1032B000007A19E0374B1B68D3ED017AB1EE047A3E
:1032C00077EE877AC3ED017A0EE0324B1B68D3EDBF
:1032D000017AB1EE047A77EEC77AC3ED017A03E0A2
:1032E000FFF7BEFEFFF77EFE70BD002007F014FC66
:1032F0002D4A0021084607F0BDFC264C2368D3ED7B
:10330000087AFDEEE77A17EE903A1AB200213220E1
:1033100007F0E0FC254A0121002007F0ABFC236800
:10332000D3ED097AFDEEE77A17EE903A1AB2012151
:10333000322007F0CFFC1E4A0221002007F09AFC41
:103340002368D3ED037AFDEEE77A17EE903A1AB2CE
:103350000221322007F0BEFC164A0321002007F0AC
:1033600089FC2368D3ED077AFDEEE77A17EE903AF1
:103370001AB20321322007F0ADFCFFF733FEB3E7AA
:10338000580500205A05002024B0007034B00070A9
:1033900044B000702000002050B000705CB000709D
:1033A00068B000705C05002074B0007084B00070DC
:1033B00094B00070A4B0007030B441F64C54064D87
:1033C0002C80064D2C80002484628C624FF0765154
:1033D000D960D16030BC7047580500205A050020E4
:1033E00090ED037A90ED020A27EE000AF7EE007ADC
:1033F00077EEC77A90ED017A67EE877A30EE270A8A
:1034000080ED000A80ED010A70472DE9F0412DEDB5
:10341000028B04460D46D0ED098AD0ED087A78EE8D
:10342000E78AC0ED038AC0ED058A90ED048A38EE84
:10343000888AF6EE007A28EE278AD0ED0B7A38EEED
:10344000278A80ED0B8AB5EEC08AF1EE10FA3FDDD7
:1034500018EE100AFFF7A0FA06460F46D4F82880A7
:103460004046FFF799FA32463B46FFF74DFB30B135
:10347000B5EEC08AF1EE10FA32DDC4F82C80C5ED4D
:10348000028A2846FFF7ACFF84ED050AD4ED067AE0
:1034900070EE677AC4ED0C7A84ED060A94ED000AAA
:1034A00094ED037A20EE070A94ED017AD4ED0B6ACD
:1034B00027EE267A30EE070A94ED027A67EE877AD5
:1034C00030EE270A84ED070ABDEC028BBDE8F081DF
:1034D00018EE100AFFF760FA064601F10047BDE753
:1034E00007EE908AF1EE677AC4ED0B7AC7E7000029
:1034F000064B40F666521A80054B0360054B83620B
:10350000002343624FF07A53CB6070475C05002084
:103510000000A0400000C84238B504460D46FFF741
:1035200047FD84ED080A29462046FFF76EFFB2EEFC
:10353000047AC0EE077AFDEEE77A17EE903A9AB277
:1035400040F666539B1A9BB20B4A138040F6D86232
:10355000934207D9084B1A80074B1988C32006F0FD
:1035600033FD38BD40F61B429342F5D8024B40F67E
:103570001C421A80F0E700BF5C05002008B500F08F
:103580001BFEBFF34F8F08BD08B5174BD3F80C31A6
:1035900013F0010F20D1144BD3F81C3113F0010F9D
:1035A00003D0114B0122C3F81C210F4BD3F82C314F
:1035B00013F0010F03D00C4B0122C3F82C210A4B4E
:1035C000D3F83C3113F0010F03D0074B0122C3F8AD
:1035D0003C21BFF34F8F08BDFFF73AFC024B01229D
:1035E000C3F80C21D7E700BF0040084008B5EFF34F
:1035F000108372B602F0B6FF642007F039F8022299
:103600001146012003F07AFB02220121084603F053
:1036100075FB02220521012003F070FB0222062126
:10362000012003F06BFB02220921012003F066FB5D
:1036300002220A21012003F061FB02220B2101205A
:1036400003F05CFB02220C21012003F057FB022255
:103650000D21012003F052FB02220E21012003F074
:103660004DFB40F666523221C32006F0D7FB002204
:1036700043F2C821702006F0D1FB002243F2C8219A
:10368000482006F0CBFB002243F2C821752006F04B
:10369000C5FB002243F2C8214D2006F0BFFB0F22DC
:1036A0000C21012006F05CFF2D222A21032006F0C8
:1036B00057FF47F24803012200215D2003F062FB1F
:1036C00047F24803012200215E2003F05BFB47F232
:1036D0004803012200215B2003F054FB47F248031A
:1036E000012200215C2003F04DFB47F24803002239
:1036F0001146532003F046FB47F2480300221146CF
:10370000542003F03FFB22231F224FF416510820C0
:1037100007F024F907F01EFA324B1B68324A126890
:103720003249096832480068FFF746FE314B196894
:10373000314B1868FFF7DCFE47F2480301221146BF
:10374000292003F01FFB002383F310882B4B1988DB
:10375000702006F039FC2A4B1988482006F034FC0A
:1037600032E00021702006F02FFC0021482006F0F6
:103770002BFCFFF76DFB234B93ED007AF2EE047AFE
:10378000B4EEE77AF1EE10FA14D593ED017AB4EEC7
:10379000E77AF1EE10FA0DD593ED027AB4EEE77AFE
:1037A000F1EE10FA06D593ED037AB4EEE77AF1EE76
:1037B00010FAD6D4114B1988702006F005FC104B76
:1037C0001988482006F000FCFFF7BEFC322006F006
:1037D0004FFFFFF73DFB074B1968074B1868FFF7D2
:1037E0009BFEC8E70C0000201400002018000020F9
:1037F000100000201C0000202000002058050020A0
:103800005A050020EC0400207047000010B5454A1E
:10381000D2F8883043F47003C2F88830424A1389E2
:103820009BB223F001039BB2138140490B899BB2E9
:1038300023F001039BB20B81138813F0040F05D012
:1038400013889BB223F004039BB21380374B1B8871
:1038500013F0040F06D0354A13889BB223F00403FB
:103860009BB21380324A334B53604FF6FF73936021
:10387000136823F0A00343F0200313602E4B1B6852
:1038800013F0010F04D02C4A136823F001031360D6
:10389000244B5B6913F4003F13D1BFF34F8FBFF389
:1038A0006F8F204B0022C3F85022BFF34F8FBFF31E
:1038B0006F8F5A6942F400325A61BFF34F8FBFF3E2
:1038C0006F8F184B5B6913F4803F02D0FFF79CFFAA
:1038D00010BD144B0022C3F88420BFF34F8FD3F8E0
:1038E0008040C4F34E3100E01946C4F3C90243F6E8
:1038F000E07303EA411343EA82730A48C0F8603276
:103900001346013A002BF2D14B1E0029ECD1BFF334
:103910004F8F436943F480334361BFF34F8FBFF34D
:103920006F8FD3E700ED00E000800B4000000D40FA
:1039300000C00B4020C528D910E000E008B50346C0
:10394000002000E00130022804D8074A52F8202065
:103950009A42F7D1022800D808BD044B044A352109
:10396000044802F0E1FC00BF04B20070B0B0007087
:10397000B8B10070D4B0007070B500294FD00546C2
:103980000C46FFF7DBFF2C4B33F91010080A01F04F
:103990001F06B1F5006F48D2284951F820300322A4
:1039A000B24023EA0203134341F82030696C01F46A
:1039B0006041A379DB0203F4C053E279120202F4FE
:1039C00040721343227A02F003021343627A5201D7
:1039D00002F060021343A27A920002F00C02134339
:1039E0000B4322780AB143F4803322790AB143F0C1
:1039F0001003E2780AB143F08003A2780AB143F4DD
:103A000080636B64AB6C23F0410362780AB143F0CE
:103A1000400362790AB143F00103AB6470BD084B07
:103A2000084A4221084802F07FFC084B084A4FF43C
:103A30007571084802F078FC10B2007068C00F4041
:103A400020B10070C8B10070D4B0007030B1007007
:103A5000A4B100703CB1007008B578B10122427188
:103A60000022027042708270C27002718271C27153
:103A70000321017242720222827208BD024B034A84
:103A80009021034802F050FC20B10070D4B10070C6
:103A9000D4B0007010B55AB107290FD8136803F0DD
:103AA0001F0312790AB143F0800340F8213010BDA2
:103AB000054B064ABF21064802F036FC054B034A77
:103AC000C021034802F030FC20B10070ECB100705E
:103AD000D4B0007088B100700346426C12F4005FED
:103AE00014D0426C22F40052426401210222DA64B2
:103AF0009A6C42F080029A649A6C12F0800F07D0A0
:103B0000DA6C12F0020FF7D0012002E00021EDE79D
:103B100000201A6A12F0010F00D10120DA6C12F0B5
:103B2000020F00D001205A6A19B15A6C42F40052B7
:103B30005A64704708B5D8B9104B4FF08042C3F8AB
:103B400058210E4BD3F8703213F4803FF9D00B4B51
:103B50004FF48032C3F85421084BD3F8503113F49A
:103B6000004FF9D0054B4FF48032C3F8582108BDFF
:103B7000034B044A9A21044802F0D6FB00800D4012
:103B800018B2007074B2007028B2007020B9054BF2
:103B90001022C3F874227047024B1022C3F8782217
:103BA000704700BF00800D40034AD2F8703243F0E6
:103BB0000103C2F87032704700800D400F490B6856
:103BC00023F4E0330279920392B2134343F4803337
:103BD0000B600A680A4B1340026802F07F0213432D
:103BE00043F400530B60054B1B68002BFBDA034AC0
:103BF000136823F480331360704700BF00800D40CA
:103C000080CFFFFF014B00221A62704700800D40F9
:103C1000024B4FF480521A67704700BF00800D407E
:103C2000024B4FF48052C3F8A020704700800D4033
:103C3000024B4FF48052C3F8E020704700800D40E3
:103C400070B584B004467A4B0FCB04AD05E90F0084
:103C5000C4F30B41774A8D5804F01F0001238340C1
:103C60001D401ED08B5813F4404F07D1D2F870324C
:103C700013F0100F18D1704B1D6800E000258B5811
:103C800013F480330DD16D4A94425ED00ED96C4A44
:103C9000944200F0B58036D96A4A944240F0C5801B
:103CA000694D284604B070BD684DE8E7A2F5A00252
:103CB000944200F0AF8013D9654A944221D15D4C03
:103CC000206D226E0023A5FB0001FEF745FF236B4C
:103CD00013F0010F33D0162303FB05F50544E0E78D
:103CE0000D2C24D0A2F58012944208D1514B1B69AF
:103CF00013F0020F27D0162303FB05F5D1E71D466D
:103D0000CFE71D46CDE7534A94424DD002F58002DD
:103D100094420AD1474BD3F8E03003F0030304AADE
:103D200002EB830353F8105CBBE71D46B9E7414B38
:103D30001B6803F07F0305FB03F56D08B1E705EB96
:103D40008505AD00CAE71423D6E73A4C266F06F086
:103D50007F06D4F88000D4F890200023A5FB000152
:103D6000FEF7FAFE05FB0605236F13F4C01315D00A
:103D7000B3F5002F14D02F4BD3F8703123F07F43CD
:103D800023F4FE0323F4FF4323F07F03B3F5004F36
:103D900008D0314A934284D1AD0882E7AD08EAE702
:103DA0006D08E8E76D087CE7224CD4F8A06006F0C7
:103DB0007F06D4F8B000D4F8C0200023A5FB000192
:103DC000FEF7CAFE05FB0605D4F8A03013F4C013B5
:103DD00010D0B3F5002F0FD0164BD3F8703103F08D
:103DE0004043B3F1804F09D0B3F1404F7FF459AF56
:103DF000AD0856E7AD08EFE76D08EDE76D0850E751
:103E00000C4BD3F8E03003F00C0304AA134453F82E
:103E1000105C46E7074B1B6A13F0020F03D0162312
:103E200003FB05F53DE71423FAE71D4639E700BF1C
:103E3000CCAF007000800D40300600200D007000F7
:103E40001400E0001500E00040787D0100366E01AE
:103E50000D0030000D00A0000080800010B5044669
:103E60001648FFF7EDFE032C26D8DFE804F0020D1C
:103E7000151D134BD3F8003103F03F03B0FBF3F0F3
:103E800000EBC000400010BD0D4BD3F80031C3F370
:103E90000523B0FBF3F0F3E7094BD3F80031C3F38C
:103EA0000543B0FBF3F0EBE7054BD3F80031C3F368
:103EB0000563B0FBF3F0E3E70020E1E70D0030001D
:103EC00000800D4008B5284B586910F0007025D0CF
:103ED0009B6903F44053B3F5805F10D0B3F5005FE6
:103EE00016D043B10020204B5B69C3F3C26301339A
:103EF000B0FBF3F008BD1D48FFF7A2FEF3E71C4B33
:103F0000D3F8703213F0100F06D11A4B1868EAE795
:103F10001948FFF795FEE6E71848E4E7124B9B695E
:103F200003F44023B3F5002F1AD007D8A3B1B3F59B
:103F3000802FDFD10220FFF791FFDBE7B3F5402FA1
:103F4000D8D10D20FFF77CFE074B1B6903F0070358
:103F50000133B0FBF3F0CDE70748FFF771FEC9E787
:103F60000020FFF77BFFC5E700C00F400D001000E9
:103F700000800D40300600200D00300000366E013C
:103F800008B5FFF79FFF044B5B69C3F3822301333E
:103F9000B0FBF3F008BD00BF00C00F4008B5FFF74D
:103FA000EFFF044B5B69C3F301230133B0FBF3F074
:103FB00008BD00BF00C00F4010B504461648FFF70B
:103FC0003FFE032C26D8DFE804F0020D151D134B2D
:103FD000D3F8F03003F03F03B0FBF3F000EBC00088
:103FE000400010BD0D4BD3F8F030C3F30523B0FBF8
:103FF000F3F0F3E7094BD3F8F030C3F30543B0FB1C
:10400000F3F0EBE7054BD3F8F030C3F30563B0FBF7
:10401000F3F0E3E70020E1E70D00100000800D4021
:1040200008B50E4B5B6913F0400F13D00B4B5B6967
:1040300013F0800F0AD00120FFF7BEFF074B5B692A
:10404000C3F302430133B0FBF3F008BD0220FFF7D6
:1040500005FFF3E7FFF736FFF0E700BF00C00F40B2
:1040600008B5172869D8DFE800F00F0F1215181BE4
:104070000C24282C3034383C4044484C5054585C74
:1040800060644FF4004001E0FFF77AFF08BDFFF7DE
:10409000C7FFFBE7FFF782FFF8E700F069F8F5E7F5
:1040A000284BD3F8703213F0100F48D1264B186804
:1040B000ECE70D20FFF7C4FDE8E72448FFF7C0FD5B
:1040C000E4E70020FFF778FFE0E70120FFF774FF47
:1040D000DCE70220FFF770FFD8E70320FFF76CFF53
:1040E000D4E71B48FFF7ACFDD0E71A48FFF7A8FD5F
:1040F000CCE70020FFF7B2FEC8E70120FFF7AEFED5
:10410000C4E70220FFF7AAFEC0E70320FFF7A6FEE0
:10411000BCE71148FFF794FDB8E71048FFF790FDA2
:10412000B4E70F48FFF78CFDB0E70E48FFF788FDB6
:10413000ACE70D48FFF784FDA8E70020A6E70B4891
:10414000A4E700BF00800D40300600200D001000E5
:104150000D0020000D0030000D00E0001400E00014
:104160001500E0000D0070000D00A00000366E018B
:1041700008B50D4BDB6913F0400F0FD00B4BD3F894
:10418000703213F0100F0DD1094B1868064BDB6924
:1041900003F03F030133B0FBF3F008BD0320FFF74A
:1041A0005FFFF3E70348F1E700C00F4000800D40D8
:1041B0003006002000366E0108B5034B1B68034A29
:1041C00011680348984708BD3806002034060020CF
:1041D00000C02B4008B51F2914D800EB411241F252
:1041E0001C03D25AC2F3C013C26ACA40520002F082
:1041F00002021A43436ACB409B0003F0040342EAE5
:10420000030008BD034B044A40F2AD21034802F00D
:104210008BF800BFFCB2007064B30070B0B20070E5
:1042200070B5002834D004468368027CDA77C06811
:10423000002834D0A36803EB421341F218029958C6
:1042400041F21C029D5A05F08005002D14BF012289
:104250000022A1EB00034FEA531129D0C9B2637CBD
:104260005BB299422ED0637C5BB2CB1A35D449B293
:104270006174E17C49B2C91A49B2E174266816B189
:1042800061682046B04715B1A368227C1A7770BDDB
:10429000144B154A40F2BE41144802F045F8256817
:1042A000002DC7D00023012261682046A847EEE711
:1042B0001F2B03D9C9B20139C9B2D0E7217D013919
:1042C000C9B2CCE7E07C40B2237D5BB2984201D01A
:1042D0000023CCE7E37C5BB2C9E7207D43FA80F39F
:1042E000C5E700BF54B3007080B30070B0B2007077
:1042F00008B500210B48FFF76DFF10F0040F07D140
:1043000010210848FFF766FF10F0040F05D108BD23
:10431000054B1868FFF784FFF2E7034B186CFFF7B3
:104320007FFFF4E700800E403C06002008B5012125
:104330000B48FFF74FFF10F0040F07D11121084879
:10434000FFF748FF10F0040F05D108BD054B586872
:10435000FFF766FFF2E7034B586CFFF761FFF4E7E6
:1043600000800E403C06002008B502210B48FFF7F4
:1043700031FF10F0040F07D112210848FFF72AFF80
:1043800010F0040F05D108BD054B9868FFF748FFF2
:10439000F2E7034B986CFFF743FFF4E700800E4011
:1043A0003C06002008B503210B48FFF713FF10F06F
:1043B000040F07D113210848FFF70CFF10F0040F7A
:1043C00005D108BD054BD868FFF72AFFF2E7034B7C
:1043D000D86CFFF725FFF4E700800E403C06002074
:1043E00008B504210B48FFF7F5FE10F0040F07D1C4
:1043F00014210848FFF7EEFE10F0040F05D108BDA8
:10440000054B1869FFF70CFFF2E7034B186DFFF738
:1044100007FFF4E700800E403C06002008B50521A8
:104420000B48FFF7D7FE10F0040F07D115210848FD
:10443000FFF7D0FE10F0040F05D108BD054B5869F9
:10444000FFF7EEFEF2E7034B586DFFF7E9FEF4E7E6
:1044500000800E403C06002008B506210B48FFF7FF
:10446000B9FE10F0040F07D116210848FFF7B2FE7D
:1044700010F0040F05D108BD054B9869FFF7D0FE79
:10448000F2E7034B986DFFF7CBFEF4E700800E4098
:104490003C06002008B507210B48FFF79BFE10F0F3
:1044A000040F07D117210848FFF794FE10F0040FFE
:1044B00005D108BD054BD869FFF7B2FEF2E7034B03
:1044C000D86DFFF7ADFEF4E700800E403C060020FB
:1044D00008B508210B48FFF77DFE10F0040F07D147
:1044E00018210848FFF776FE10F0040F05D108BD2B
:1044F000054B186AFFF794FEF2E7034B186EFFF7BF
:104500008FFEF4E700800E403C06002008B509212C
:104510000B48FFF75FFE10F0040F07D11921084880
:10452000FFF758FE10F0040F05D108BD054B586A7F
:10453000FFF776FEF2E7034B586EFFF771FEF4E7E4
:1045400000800E403C06002008B50A210B48FFF70A
:1045500041FE10F0040F07D11A210848FFF73AFE78
:1045600010F0040F05D108BD054B986AFFF758FEFF
:10457000F2E7034B986EFFF753FEF4E700800E401E
:104580003C06002008B50B210B48FFF723FE10F076
:10459000040F07D11B210848FFF71CFE10F0040F81
:1045A00005D108BD054BD86AFFF73AFEF2E7034B89
:1045B000D86EFFF735FEF4E700800E403C06002081
:1045C00008B50C210B48FFF705FE10F0040F07D1CA
:1045D0001C210848FFF7FEFD10F0040F05D108BDAF
:1045E000054B186BFFF71CFEF2E7034B186FFFF744
:1045F00017FEF4E700800E403C06002008B50D21B0
:104600000B48FFF7E7FD10F0040F07D11D21084804
:10461000FFF7E0FD10F0040F05D108BD054B586B06
:10462000FFF7FEFDF2E7034B586FFFF7F9FDF4E7E4
:1046300000800E403C06002008B50E210B48FFF715
:10464000C9FD10F0040F07D11E210848FFF7C2FD75
:1046500010F0040F05D108BD054B986BFFF7E0FD86
:10466000F2E7034B986FFFF7DBFDF4E700800E40A5
:104670003C06002008B50F210B48FFF7ABFD10F0FA
:10468000040F07D11F210848FFF7A4FD10F0040F05
:1046900005D108BD054BD86BFFF7C2FDF2E7034B10
:1046A000D86FFFF7BDFDF4E700800E403C06002008
:1046B00008B50346002000E00130022804D8074A6C
:1046C00052F820209A42F7D1022800D808BD044BA6
:1046D000044A4FF49D71044801F026FE24B4007092
:1046E000ECB3007010B4007090B3007070B5044665
:1046F0004668FFF7DDFF054616F0406F06D0124B07
:104700001B68124A52F820102046984716F0407F46
:1047100006D00F4B1B680D4A52F8251020469847CB
:1047200016F4C03F05D0094B53F82510204600234E
:104730009847084B1E4206D0074B1B68034A52F8A5
:1047400025102046984770BDCC060020BC060020EE
:10475000C806002000007C60C406002008B5034B9A
:10476000196803480023984708BD00BFBC06002015
:1047700000802D4008B50248FFF7B8FF08BD00BF14
:1047800000802D4008B50248FFF7B0FF08BD00BF0C
:1047900000402D4008B5074B596821B1064B1B68F6
:1047A0000648984708BD064B064A40F66A21064867
:1047B00001F0BAFDD0060020E006002000001D40F8
:1047C000A4B40070E0B4007054B4007008B5074B96
:1047D000996821B1064B1B680648984708BD064BEF
:1047E000064A40F67821064801F09EFDD0060020DA
:1047F000E006002000401D40B8B40070F8B400701E
:1048000054B4007008B5074BD96821B1064B1B683A
:104810000648984708BD064B064A40F686210648DA
:1048200001F082FDD0060020E006002000801D403F
:10483000CCB4007010B5007054B4007010B50024F2
:1048400001E00134E4B2012C0CD8074B53F82410DA
:104850000029F6D0054B53F82430054A52F82400BD
:104860009847EEE710BD00BFE4060020EC060020EC
:10487000F406002008B5FFF7E1FF08BD08B5FFF713
:10488000DDFF08BD08B5FFF7D9FF08BD08B5024632
:104890000020092806D8084B53F82030934201D055
:1048A0000130F6E7092800D808BD044B044A392135
:1048B000044801F039FD00BFDCB5007028B5007078
:1048C000B8B500704CB5007008B51F2908D86AB992
:1048D0000368012202FA01F123EA0101016008BD27
:1048E000064B074A6B21074801F01EFD03680122B1
:1048F00002FA01F119430160F1E700BF98B50070B9
:10490000CCB500704CB5007010B4C46901238B4065
:1049100024EA0304C4610F2909D800F10C04013A08
:10492000042A0FD8DFE802F007111C272F0000F13E
:1049300010041039F3E723684A000321914023EA69
:10494000010121605DF8044B704723684800032291
:10495000824023EA02030121814019432160F1E7EB
:10496000236848000322824023EA02030221814097
:1049700019432160E6E723684900032202FA01F1A6
:1049800019432160DEE7C2691343C361DAE700001F
:10499000F8B504460E461746FFF778FF1A4B33F971
:1049A0001010B1F5006F1ED2080A01F01F0517495B
:1049B00051F820300322AA4023EA0203134341F8AE
:1049C000203063690125B540EA4323EA05036361AA
:1049D0003B787BB963681A406260BA7831462046FA
:1049E000FFF792FFF8BD0A4B0A4A4FF475710A4867
:1049F00001F09AFC7A7831462046FFF765FF63683C
:104A00001D436560E9E700BF04B6007068C00F4051
:104A100030B10070A4B500703CB1007008B5034619
:104A2000002000E00130022804D8074A52F8202074
:104A30009A42F7D1022800D808BD044B044A2F211E
:104A4000044801F071FC00BF5CB7007010B6007044
:104A500028B7007034B6007070B5002956D00446EF
:104A60000D46FFF7DBFF3D4B33F91010080A01F04C
:104A70001F06B1F5006F4FD2394951F8203003229B
:104A8000B24023EA0203134341F82030002323609D
:104A9000236843F400432360236813F40043FBD1ED
:104AA0002A7A002A3FD04FF40072697A00293CD05C
:104AB00008210A43A97A002939D020210A43E97A3A
:104AC000002936D010210A43297B002933D0042144
:104AD0000A43697B01B10223134323602B78052B22
:104AE0002BD0226822F4B8629B0103F4E0731343D5
:104AF00023606B68013BB3F5805F29D26168194A76
:104B00000A40C3F30B031343636070BD164B174A8F
:104B10003C21174801F008FC164B174A4FF47571F9
:104B2000164801F001FC1A46BFE71946C1E71946CD
:104B3000C4E71946C7E71946CAE7226822F4B862F3
:104B40009B0103F4E073134343F480632360D0E7D5
:104B50000B4B0C4ADB210C4801F0E6FB68B70070F8
:104B600068C00F4000F0FFFF80B6007038B70070DB
:104B700034B6007030B1007000B700703CB1007006
:104B80008CB6007014B70070B4B6007010B5002277
:104B90000260FFF743FF0D4B33F91030B3F5006FA0
:104BA0000CD2190A03F01F04094850F821300322DF
:104BB000A24023EA020340F8213010BD054B064A0B
:104BC0004FF47571054801F0AFFB00BF68B7007086
:104BD00068C00F4030B1007000B700703CB1007089
:104BE00008B560B100210160C1600122027042601D
:104BF00082724272C17201730172427308BD034B2B
:104C0000034A7221034801F08FFB00BF28B10070F6
:104C100044B7007034B6007038B504460D460369D9
:104C200013F0010F06D00A4B1B681BB1094A52F85A
:104C300021109847D4F8103113F0010F07D0064B1C
:104C40001B6823B1054A52F825102046984738BD05
:104C500010070020FC060020280700201407002071
:104C600008B501210148FFF7D7FF08BD00003F400C
:104C700008B502210148FFF7CFFF08BD00403F40C3
:104C800008B503210148FFF7C7FF08BD00803F407A
:104C900008B504210148FFF7BFFF08BD00C03F4031
:104CA00008B5436A13F0010F03D0044B1B68984703
:104CB00008BD034B1B689847FAE700BF4007002078
:104CC0004407002008B5074B596819B10648FFF79B
:104CD000E7FF08BD054B064A40F2D371054801F0D5
:104CE00023FB00BF2C07002000403940CCB70070E8
:104CF0001CB8007078B7007008B5074B996819B1F7
:104D00000648FFF7CDFF08BD054B064A40F2DB71B0
:104D1000054801F009FB00BF2C0700200080394046
:104D2000E0B7007034B8007078B7007008B5074B72
:104D3000D96819B10648FFF7B3FF08BD054B064A0D
:104D400040F2E371054801F0EFFA00BF2C070020A4
:104D500000C03940F4B700704CB8007078B70070EC
:104D600008B5074B196919B10648FFF799FF08BD47
:104D7000054B064A40F2EB71054801F0D5FA00BF39
:104D80002C07002000003A4008B8007064B800709A
:104D900078B7007008B502460020082806D8084BEE
:104DA00053F82030934201D00130F6E7082800D8AC
:104DB00008BD044B044A7A21044801F0B5FA00BF4B
:104DC000DCB90070D0B80070A4B9007084B800706D
:104DD0002DE9F04179B1054696460F460A6882B141
:104DE0000B7A042B13D84B7A042B16D89046042048
:104DF000002426461DE0714B714AEE21714801F0F6
:104E000093FA714B6E4AEF216E4801F08DFA6F4BA9
:104E10006B4AF1216B4801F087FA6D4B684AF22129
:104E2000684801F081FA414502D8884604461E468A
:104E30000130202817D800FB02F3BEFBF3F39BB22E
:104E400003B9012300FB03F1BEFBF1F1891A03FB57
:104E5000000CBEFBFCFCA2EB0C0C8C45E3D2013336
:104E60009BB26146DFE75B4BA3FB0232520902EBC8
:104E700042024245C0F09E802846FFF78BFF564B0A
:104E800033F91010080A01F01F0CB1F5006F80F023
:104E90008180524951F82030032202FA0CF223EAB1
:104EA0000203134341F82030AB6843F00203AB60C8
:104EB000AB6823F00203AB602B69221F032A01D8E1
:104EC00043F4003323F0F852631E1B0603F0F8533B
:104ED0001343434A1A40C6F30C0616432E612B694E
:104EE00023F000532B61AB693E4919403879FB7BB5
:104EF0001B0203F4E0630343BA7B920002F0040256
:104F000013430B437A79012A4BD008B143F01003C5
:104F1000AB612A6922F40052FB795B0303F400536E
:104F200013432B617A7A3B7A43EA0243EB62AB6A22
:104F300043F08803AB62AB6A43F44043AB62696AF7
:104F40007B7B1B0103F010033A7B520102F020022D
:104F500013430B436B62BB7A1BB16B6A43F00803CC
:104F60006B62FB7A1BB16B6A43F001036B62BB7926
:104F7000F3B11D4A6B6913436B61AB693A7C0AB1AB
:104F800043F400237A7C0AB143F48023AB61002010
:104F9000BDE8F081154B164A4FF47571154801F0C4
:104FA000C3F910B123F40063B2E743F40063AFE741
:104FB000114ADFE740F22150EAE700BF28B1007054
:104FC000B8B9007084B80070F8B8007010B90070FB
:104FD00050B900701F85EB5100BA007068C00F40D7
:104FE00000E0FFFFE8F8FFFF00C01FE030B10070F5
:104FF00090B900703CB1007000C01FC010B5C36A0A
:1050000013F4E06FFBD1436913F4800FFBD04269C6
:10501000104B1343436100238361FFF7BBFE0E4B2C
:1050200033F91010080A01F01F04B1F5006F09D21E
:105030000A4951F820300322A24023EA020341F832
:10504000203010BD064B074A4FF47571064801F039
:105050006BF900BF00C01FC000BA007068C00F40ED
:1050600030B1007090B900703CB1007008B598B1D3
:10507000002242824FF4E13101600271427182717B
:10508000C271027242728272C2724273027382737E
:10509000C2730274427408BD034B044A40F20621F5
:1050A000034801F041F900BF28B10070C4B9007095
:1050B00084B8007008B5034B1B68034A5168034865
:1050C000984708BD6C0700204807002000401840A2
:1050D00008B5034B1B68034A91680348984708BD0D
:1050E0006C070020480700200080184008B5034BDB
:1050F0001B68034AD1680348984708BD6C07002025
:105100004807002000C0184008B5034B1B68034A3D
:1051100011690348984708BD6C0700204807002024
:105120000000194008B5034B1B68034A5169034846
:10513000984708BD6C070020480700200040194030
:1051400008B5034B1B68034A91690348984708BD9B
:105150006C070020480700200080194008B5034B69
:105160001B68034AD1690348984708BD6C070020B3
:105170004807002000C0194008B5034B1B68034ACC
:10518000116A0348984708BD6C07002048070020B3
:1051900000001A4008B502460020042806D8084B33
:1051A00053F82030934201D00130F6E7042800D8AC
:1051B00008BD044B044A3721044801F0B5F800BF8C
:1051C00064BB007014BA007008BB007038BA00707D
:1051D000F8B5002A6CD005460E4614465379022BCA
:1051E0006CD0637A012B02D1002E00F0C6802846D5
:1051F000FFF7D0FF06EB8000624B33F91010080A6E
:1052000001F01F07B1F5006F5CD25F4951F8203003
:105210000322BA4023EA0203134341F82030B5F8D1
:105220008E319BB243F00F03A5F88E3106EB460397
:1052300005EB43139B8803F4E651637903F0030302
:10524000E27AD20002F0380213432279120202F409
:10525000407213432278D20392B2134362789203CE
:1052600002F480421343627A920002F00402134374
:105270000B43E279012A2FD0022A39D04AB306EB38
:10528000460205EB42129380D38840F68B71194099
:10529000A3791B0103F07003A27A120392B21343A5
:1052A0000B43227A032A31D8DFE802F02E585E64DD
:1052B000364B374A4921374801F036F8002990D15A
:1052C00001204AE0344B354A4FF47571344801F0FF
:1052D0002BF843F40053D2E7B5F8882192B206F1D7
:1052E0000C000121814022EA0102A5F88821C6E7CD
:1052F000B5F8882192B206F10C00012181400A43E1
:1053000092B2A5F88821BAE743F0040306EB4602FF
:1053100005EB4212D380B5F89031DBB22BB1B5F872
:10532000903103F47F43A5F89031A3781B0203F476
:10533000E063E2781343A5F89031E37AFBB906EB1A
:10534000460305EB43139B889BB243F0400306EBF7
:10535000460605EB4615AB800020F8BD23F48063BC
:105360009BB243F40063D1E723F400639BB243F4A0
:105370008063CBE743F44063C8E70120EDE70020FA
:10538000EBE700BF78BB007068C00F4028B1007029
:1053900018BB007038BA007030B10070F4BA0070F9
:1053A0003CB1007038B50C46B0F888319BB201F1C1
:1053B00008050121A94023EA0103A0F88831FFF77D
:1053C000E9FE04EB80040D4B33F91430B3F5006FA4
:1053D0000CD2190A03F01F04094850F821300322A7
:1053E000A24023EA020340F8213038BD054B064AAB
:1053F0004FF47571054800F097FF00BF78BB00704F
:1054000068C00F4030B10070F4BA00703CB1007059
:1054100008B568B100220270427042728270C27098
:10542000427182710271C27282720272C27108BDCF
:10543000024B034AD521034800F076FF28B10070E3
:1054400024BB007038BA00702DE9F04F83B00546D8
:105450009DF830A00D9F0E98F2B19846164617B3EE
:1054600043B370B353684CF25032934230D8B8F122
:10547000020F00F245810C4601EB410105EB4111A1
:10548000CB88C3F3021320FA03F3B3FBF7F30193C2
:105490001FFA83FB00276BE09A4B9B4A40F21111E5
:1054A0009A4800F041FF9A4B974A4FF48971974808
:1054B00000F03AFF974B944A40F21311934800F0E2
:1054C00033FF954B904A4FF48A71904800F02CFFBF
:1054D000924B8D4A40F215118C4800F025FF4FF693
:1054E000FF73984255D0013080B252E04FEA5B0121
:1054F0004A4292B204EB440305EB43135A80002264
:105500005A81D9813378012B52D04008424292B25D
:1055100004EB440305EB43135A83D8833378012B00
:1055200000F0D380728904EB440305EB43135A86E1
:1055300004220920337A002B40F0D08004EB440190
:1055400005EB41114B8C9BB24FF0010C0CFA00F0B3
:1055500023EA00034B84B5F880319BB21119012274
:105560008A4013439BB2A5F880310C360137FFB255
:10557000474580F0C180D6F804904CF250320023A9
:10558000ABFB0901FDF7E8FA80B24CF250339945C4
:10559000A5D0BAF1030FC1D801A353F82AF000BF78
:1055A000ED540070C5550070495600708F5600705C
:1055B0004008424292B204EB440305EB43135A8283
:1055C000D882ABE704EB440305EB431300225A8077
:1055D0004FEA5B025A81A3F80EB03378012B15D045
:1055E000BDF804300146181A2AD4C0F34F0004EB6A
:1055F000440205EB421250835B1823D4C3F34F03DC
:1056000004EB440205EB4212D38387E7BDF8043074
:105610000146181A10D4C0F34F0004EB440205EB06
:10562000421250825B1809D4C3F34F0304EB4402C7
:1056300005EB4212D38271E70130ECE70133F3E767
:105640000130D2E70133D9E74FEA5B03594289B20F
:1056500004EB440205EB421251804FF0000CA2F81B
:105660000AC0D3813278012A08D004EB440205EB4A
:1056700042125183C01A80B2D0834FE704EB440238
:1056800005EB42125182C31A9BB2D38246E704EB68
:10569000440305EB431300225A804FEA5B025A8110
:1056A000A3F80EB03378012B07D004EB440305EBCD
:1056B000431300225A83D88330E704EB440305EBFD
:1056C000431300225A82D88228E7728904EB4403EC
:1056D00005EB43131A8608220A202BE704EB44014A
:1056E00005EB41114B8C9BB24FF0010C0CFA00F012
:1056F00003439BB24B842EE7002003B0BDE8F08F3C
:105700000120FAE784BA00703CBB007038BA007020
:1057100090BA00709CBA0070A8BA0070B4BA007059
:105720002DE9F0411646069F4CF25032974209D8B7
:1057300005460C46012E0CD8032B2CD8DFE803F0CD
:1057400010378CBA714B724A40F2C111714800F0A7
:10575000EBFD714B6E4A4FF4E1716E4800F0E4FDD1
:1057600001EB410300EB4313D88980B2400080B2C3
:10577000A7FB00014CF250320023FDF7EDF980B297
:10578000012E0AD04008424292B204EB440305EBDA
:1057900043135A83D883BDE8F0814008424292B255
:1057A00004EB440305EB43135A82D882F3E701EB81
:1057B000410300EB4313D8891FFA80F880B2A7FB9E
:1057C00000014CF250320023FDF7C6F980B24CF2D2
:1057D00050339F4218D0012E1DD00246B8EB000076
:1057E00035D4C0F34F0004EB440305EB4313588357
:1057F00018EB02082DD4C8F34F0804EB440405EB62
:105800004414A4F81E80C6E74FF6FF739842E2D016
:10581000013080B2DFE70346B8EB000012D4C0F3DA
:105820004F0004EB440205EB4212508218EB0308D0
:105830000AD4C8F34F0804EB440405EB4414A4F85D
:105840001680A8E70130EAE708F10108F1E7013026
:10585000C7E708F10108CEE701EB410300EB431372
:10586000D8891FFA80F84FEA480080B2A7FB0001F0
:105870004CF250320023FDF76FF980B2012E0CD0AC
:10588000C8F1000292B204EB440305EB43135A83C0
:10589000A0EB080080B2D8837DE7C8F1000292B285
:1058A00004EB440305EB43135A82A0EB080080B2DB
:1058B000D88270E701EB410300EB4313D88980B233
:1058C000A7FB00014CF250320023FDF745F980B2EE
:1058D0004CF250339F4209D0012E0ED004EB44030A
:1058E00005EB431300225A83D88354E74FF6FF7326
:1058F0009842F1D0013080B2EEE704EB440305EBAF
:10590000431300225A82D88245E700BFC0BA007014
:105910004CBB007038BA0070E4BA007008B502469B
:105920000020042806D8084B53F82030934201D0B9
:105930000130F6E7042800D808BD044B044A36219C
:10594000044800F0F1FC00BF5CBC0070A0BB00701C
:1059500024BC0070C4BB0070F8B5002A3DD00546D9
:105960000E461446FFF7DAFF224B33F91010080AEF
:1059700001F01F07B1F5006F35D21F4951F82030F3
:105980000322BA4023EA0203134341F8203023786C
:105990005B0203F4F0536278D20102F4C072134345
:1059A00005EB46108381E3781B0103F01003A27816
:1059B000520102F020021343C381A3799B039BB2DF
:1059C0008382C38A03F47843C38223791B0203F4DE
:1059D000E06362791343C382F8BD084B084A46214D
:1059E000084800F0A1FC084B084A4FF475710848BC
:1059F00000F09AFC70BC007068C00F4028B10070C5
:105A000038BC0070C4BB007030B1007010BC0070B6
:105A10003CB1007010B500EB41118B89C3F30C034E
:105A20008B81FFF77BFF0D4B33F91030B3F5006F1F
:105A30000CD2190A03F01F04094850F82130032240
:105A4000A24023EA020340F8213010BD054B064A6C
:105A50004FF47571054800F067FC00BF70BC007022
:105A600068C00F4030B1007010BC00703CB10070D5
:105A700008B548B100228271C27082700271427111
:105A800009210170427008BD024B034A7F2103487F
:105A900000F04AFC28B1007044BC0070C4BB007028
:105AA00008B51D4BD968D9B11C4BD3F8883013F415
:105AB000803F05D1194BD3F8883013F4802F0FD0D5
:105AC000164BD3F8883013F4807F05D1134BD3F8ED
:105AD000883013F4806F03D0114B1B680F48984730
:105AE0000D4B9968B9B10D4B9B6813F4803F04D1FD
:105AF0000A4B9B6813F4802F0DD0084B9B6813F45E
:105B0000807F04D1054B9B6813F4806F03D0054B55
:105B10001B680248984708BD7007002000403840C5
:105B2000900700209407002008B51D4B5969D9B192
:105B30001C4BD3F8883013F4803F05D1194BD3F8B0
:105B4000883013F4802F0FD0164BD3F8883013F41D
:105B5000807F05D1134BD3F8883013F4806F03D0C6
:105B6000114B1B680F4898470D4B1969B9B10D4B84
:105B70009B6813F4803F04D10A4B9B6813F4802F79
:105B80000DD0084B9B6813F4807F04D1054B9B68B4
:105B900013F4806F03D0054B1B680248984708BD7B
:105BA00070070020008038409007002094070020F4
:105BB00008B5074B996921B1064B1B680648984701
:105BC00008BD064B064A40F61531064800F0ACFB0E
:105BD000700700209407002000C03840ECBC007023
:105BE00014BD0070A0BC007008B5074BD96921B185
:105BF000064B1B680648984708BD064B064A4FF4FB
:105C00003261064800F090FB7007002090070020EA
:105C100000C0384000BD007030BD0070A0BC0070F6
:105C200008B5084B196821B1074B1B680BB1074831
:105C30009847044B596821B1054B1B680BB10348C9
:105C4000984708BD98070020A407002000003840AE
:105C5000A007002008B5034B1B68034A516803489E
:105C6000984708BDB4070020A807002000002C407A
:105C700008B5034B1B68034A91680348984708BD61
:105C8000B4070020A807002000402C4018B10128CC
:105C900003D103487047034870470020704700BF96
:105CA000B8070020C0070020024A136801331360C0
:105CB000704700BFBC07002008B5FFF7E7FF18B129
:105CC00003460120186008BD0020FCE708B548B96C
:105CD0000A4B00221A7021B1CB6813B10969104632
:105CE000984708BD054B01221A700029F9D08B682E
:105CF000002BF6D0096910469847F2E7EC07002020
:105D000008B50D4B9B6913F0100F07D10A4B4FF0EC
:105D1000FF329A610120FFF7CFFF08BD064B1A68DA
:105D2000064B5B6A12F0100F19680CBF01200020AF
:105D3000FFF7CCFFEAE700BF00001C40C4070020CB
:105D400038B10346406830B110B544691868A047BF
:105D500010BD032070470620704710B5044601238C
:105D600080F86F3000220E21FFF7EAFF022384F84B
:105D70006E30002284F86C2008E002EB420304EB52
:105D800083030021D960196119750132072AF4D9FA
:105D9000A3680022012120469847002084F86F0064
:105DA00010BD10B584B00A7A102A22D002F00F0478
:105DB000D30912F00C0F26D143EA440303EB43024C
:105DC00000EB8202D2680AB30A6801924A68029222
:105DD0004A7A8DF80C207AB10022027580F82020D2
:105DE00003EB430200EB8202D468126901A9A047C9
:105DF0000AE0FFF7B2FF07E003EB430200EB820289
:105E000000211175ECE7012004B010BD0120FBE773
:105E1000B0FA80F35B09002908BF01232BB910B544
:105E2000836823B1FFF7BDFF10BD03207047012039
:105E3000FAE710B44C00E4B24268012303FA01F11E
:105E4000C2F8AC114268D2F8403143F40053C2F8B2
:105E50004031836803EB84139A6A1A63836803EB07
:105E60008413DA6A5A634368D3F8403113F4005F4D
:105E7000E8D04268D2F8403123F40053C2F84031F0
:105E80005DF8044B70474368D3F8AC21C3F8AC21EC
:105E90004368D3F8BC21C3F8BC2143684FF0FF121C
:105EA000C3F8B4214368D3F8B02112F0FF1FF4D136
:105EB000D3F8843113F4807F03D0012380F8563067
:105EC000704700B585B00023019310228DF80C2097
:105ED00002938DF80D3001A90068FFF799FF05B016
:105EE0005DF804FB2DE9F04385B00546884617466A
:105EF00002EB4106002301930293331D00EB830361
:105F00005C6824F01F0443E0A268A3F580531340AB
:105F1000A28BC2F30B02134301933DE04FF0FF331A
:105F2000029347E0331D05EB830300225A6006F11C
:105F30000C0305EB83035A60AB6803EB8613012166
:105F40009960AB6803EB8613DA6043E0FB01DBB2D8
:105F500043EA08038DF80C304FF000098DF80D90DE
:105F600001A92868FFF754FFCDF80490CDF80890F8
:105F7000002363602B6923602C6195F95430013351
:105F800085F85430331D05EB83035C6824F01F044F
:105F900064B3019B002BB7D0636813F0800FBDD1B1
:105FA000E369C3F312336268C2F30E429B1A029A8A
:105FB00013440293331D05EB83035A6806F10C0367
:105FC00005EB83035B689A42ACD01268331D05EB86
:105FD00083035A60636813F4004FB7D1331D05EB98
:105FE00083035B6833F01F03C2D1AFE705B0BDE8A0
:105FF000F0832DE9F04F87B005464368D3F8AC61D4
:10600000002E3AD16B68D3F8BC210192C3F8BC21B1
:10601000002A40F03A8107B0BDE8F08F0134E4B2C5
:10602000032CEFD80123A3403342F7D0AB686200C2
:10603000D2B203EB821303F1300893F83070FF09FA
:106040003A4621462846FFF74DFF87F001022146D8
:106050002846FFF747FF8DF81440CDF80C80082341
:10606000049301238DF8153021462846FFF7E1FE01
:1060700003A92868FFF7CCFED0E70024D0E7D84674
:106080004FF00009B8F1030F16D90BF1010B5FFABD
:106090008BFBBBF11F0FBED8012303FA0BF3019A50
:1060A0001342F2D0BBF10F0FE9D9ABF110085FFA40
:1060B00088F84FF00109E5E74FEA480A5FFA8AFAE3
:1060C000CA445FFA8AFA002303930493984508BFF1
:1060D0004B468BB1AB684FEA8A1103EB8A1292F8F8
:1060E000382012F0020F07D05A5812F0005F03D187
:1060F0005A5842F000525A5056460AF1040305EB32
:1061000083035C6824F01F04002CBED0331D05EB14
:1061100083035C6824F01F042346BBB15A6812F065
:10612000800F07D15A6812F4004F03D11B6823F087
:106130001F03F2E75A6812F0800F40F084805A681B
:1061400012F4004F40F08180002200E0002282F033
:106150000102002B14BF13460023002B95D1002C05
:10616000D2D0636813F0800FCED1039B002B6ED08A
:10617000E369C3F312336268C2F30E429B1A049AB6
:1061800013440493331D05EB83035A6806F10C0393
:1061900005EB83035B689A4263D01268331D05EBFD
:1061A00083035A60636813F4004F06D1331D05EB77
:1061B00083035B6833F01F030CD148EAC9138DF8E1
:1061C000143000278DF8157003A92868FFF720FE0A
:1061D00003970497002363602B6923602C6195F972
:1061E0005430013385F85430331D05EB83035C686C
:1061F00024F01F042246002CB1D0636813F0800FF6
:10620000ADD008EB0913012101FA03F36968C1F865
:10621000B0316868D0F8B8111942A0D1D0F8B011E7
:106220001942FBD1D0F8B811194298D1A96801EBF5
:106230008A118A60AA6802EB8A120021D1606A681A
:10624000C2F8B0318BE7002281E701227FE7A26824
:10625000A3F580531340A28BC2F30B0213430393A5
:1062600086E7331D05EB830300225A6006F10C0319
:1062700005EB83035A60AB6803EB8A130121996035
:10628000AB6803EB8A13DA608CE74FF0000B00E792
:1062900010B584B00023019302938DF80D3043684C
:1062A000D3F8842112F4807F0BD10446D3F88431D3
:1062B00013F4007F07D0022380F8583094F856304A
:1062C0002BB904B010BD002380F85830F6E7102336
:1062D0008DF80C3001A92068FFF79AFD002384F89F
:1062E0005630EEE7F8B138B505686B68D3F844412D
:1062F000D3F848211440C3F8444114F0400F06D1AC
:1063000014F0010F07D114F0040F08D138BD28464E
:10631000FFF7B9FDF4E72846FFF76BFEF3E72846E1
:10632000FFF7B6FFF2E7704700BEFDE708B5134B75
:106330001B6813F0400F0FD0114BD3F8703213F0DD
:10634000100F18D10F4B18680C4B1B6803F03F035C
:106350000133B0FBF3F008BD0B48FDF771FC0B4BAC
:10636000A3FB00308008054B1B6803F03F0301339B
:10637000B0FBF3F0EFE70648E6E700BF24C00F40AC
:1063800000800D40300600200D001000ABAAAAAA24
:1063900000366E0108B5FFF7C9FF08BD10B45F4BAA
:1063A0005B6913F4003F0FD0BFF34F8FBFF36F8FC4
:1063B0005A4B5A6922F400325A610022C3F8502223
:1063C000BFF34F8FBFF36F8F544B5B6913F4803F64
:1063D00047D1BFF34F8FBFF36F8F504A536A23F4F7
:1063E000803353624E4B596821F0010159604D4989
:1063F000D9604D4919614D49D9604D4919614D48E0
:10640000D8604D4818611320D86019611421D960F3
:106410004A4919614A49D9604A4919614A48D860CC
:1064200019614A49D9604A4919614A49D9604A49BA
:1064300019614A49D9604A491961BFF34F8FBFF3C7
:106440006F8F05215960536A43F4803353620023F0
:10645000C2F88430BFF34F8FD2F88000C0F34E32C1
:1064600029E02E4B0022C3F88420BFF34F8F5A69D6
:1064700022F480325A61BFF34F8FD3F88040C4F3C7
:106480004E3100E01946C4F3C90243F6E07303EA53
:10649000411343EA82732148C0F874321346013A2B
:1064A000002BF2D14B1E0029ECD1BFF34F8FBFF36D
:1064B0006F8F8EE71A46C0F3C90143F6E07303EA13
:1064C000421343EA8173154CC4F860320B4601391C
:1064D000002BF2D1531E002AECD1BFF34F8F62691B
:1064E00042F480326261BFF34F8FBFF36F8FBFF30F
:1064F0004F8FBFF36F8F0022C4F85022BFF34F8F2E
:10650000BFF36F8F626942F400326261BFF34F8F55
:10651000BFF36F8F5DF8044B704700BF00ED00E0E4
:1065200090ED00E0100000C0390010031100008061
:106530003B001003120000702B0003061F00030332
:106540001500002025000303160020201700282036
:106550000900030318000080310003031900E081E3
:106560002900080308B5FFF719FF00F013F800F041
:106570001FFBFFF70FFF0549CA6822F4E06212040F
:10658000120C034B1343CB6008BD00BF00ED00E0CD
:106590000003FA052DE9F041BC4B4FF400421A60AC
:1065A000BB4BD3F8C02242F48032C3F8C022D3F8E8
:1065B000C02222F40032C3F8C022B64BB64A1A6099
:1065C0000020FDF7B7FAFDF7EFFA0120FDF7DEFA3C
:1065D000B24A136823F0FF0343F07F0313601832BD
:1065E000136823F4405343F480531360043A136850
:1065F00043F000731360A94B9B6C13F0200FFAD18A
:10660000A74AD36823F01F0343F01303D360A44BBE
:106610001B68002BFBDAA348FDF7D0FAFDF7F8FA68
:106620004FF48035A04B1D60994CD4F8703123F4A1
:106630000043C4F87031D4F8703123F40003C4F877
:106640007031236F43F400532367FDF7E9FAD4F860
:10665000A0302B43C4F8A030D4F8703123F040436D
:10666000C4F87031D4F8A03043F40053C4F8A0301B
:10667000FDF7DEFA8D4B1D60D4F8E03023F0030304
:1066800043F00103C4F8E030D4F8E03043F40053A1
:10669000C4F8E030D4F8E03023F00C03C4F8E03064
:1066A000D4F8E03043F48013C4F8E030D4F8E0309C
:1066B00043F40013C4F8E030FDF7A4FA7C4B1D60EE
:1066C000236A43F4005323627A4A136823F4E053A5
:1066D0001360724B9B6C13F0020FFAD1764B1A6861
:1066E00022F440321A601A6822F440721A600433AD
:1066F0001A6822F440021A601A6822F040721A6086
:106700006C4A136843F440731360043A136823F02F
:10671000070343F001031360604B9B6C13F4803F4D
:10672000FAD1664A136843F440231360043A1368AD
:1067300023F000731360594B9B6C13F0200FFAD1B8
:106740005C4A136823F0605313605C4D2B6823F49C
:1067500040532B6058490B6823F440130B600B68BF
:1067600023F440030B60564B1A6822F040721A6003
:106770001A6822F040621A600A6822F440520A60E5
:10678000504A106820F03F0040F00100106010688F
:1067900020F040001060DFF844C1DCF8000020F079
:1067A0000C00CCF80000484E306820F4605040F4F3
:1067B00000603060106820F480301060DCF8000069
:1067C00020F03000CCF80000306820F4E02040F4E5
:1067D00080303060106820F400301060DCF8000079
:1067E00020F44060CCF80000106820F06070106069
:1067F000106840F0C0401060344F386820F00C0042
:106800003860334C206820F4605040F40060206011
:10681000206820F4C0602060086820F00300086051
:10682000086820F00C000860086820F0300008605C
:10683000086820F0C0000860286820F0E05040F0B0
:1068400080502860286820F0300040F02000286048
:10685000186820F440001860306820F0C06040F0F4
:1068600080603060286820F4404040F40040286098
:106870001848046824F440240460174CD4F800E05D
:106880002EF4E07E4EF0C00E2AE000BF2C06002061
:1068900000800D403006002000366E0100C00F4021
:1068A000000008404CBD007074800D40E4800D4035
:1068B00024800D4014C00F406CC00F4018C00F4022
:1068C00068C00F401CC00F4024C00F4070C00F4074
:1068D0003CC00F407CC00F4028C00F4080C00F401C
:1068E000C4F800E0D4F800E02EF03F0E4EF0010EA8
:1068F000C4F800E0D2F800E02EF4406EC2F800E0E8
:10690000D0F800E02EF4401EC0F800E0DFF86C8202
:10691000D8F800E02EF4E07E4EF0C00EC8F800E09B
:10692000D8F800E02EF03F0E4EF0010EC8F800E05F
:10693000D2F800E02EF4405EC2F800E0D0F800E0AB
:106940002EF4400EC0F800E0D4F800E02EF0E07E17
:106950004EF4400EC4F800E0D4F800E02EF47C1EA3
:106960004EF4803EC4F800E0D2F800E02EF4404E31
:10697000C2F800E03A6822F0C0023A603A6822F4B5
:1069800040723A603A6822F440623A60383F3A68AE
:1069900022F0FC723A603A6822F480223A601A6867
:1069A00022F440421A601A6822F440221A606C4AAB
:1069B000D2F800E02EF0C00EC2F800E0D3F800E0FC
:1069C0002EF4403EC3F800E0D3F800E02EF4401E61
:1069D000C3F800E0D2F800E02EF4407EC2F800E0F8
:1069E000DFF89CE1DEF8002022F0FC0242F0040215
:1069F000CEF80020DEF8002022F4407242F400724B
:106A0000CEF80020026822F0407202601A6822F07C
:106A100040521A601A6822F440521A600B6823F040
:106A200040730B604F4A136823F00C031360136824
:106A300023F0C0031360036823F040630360DCF8B5
:106A4000003023F44043CCF80030336823F03F0398
:106A50003360336823F040033360136823F44063EA
:106A600013603B6823F4E04343F480533B602B689E
:106A700023F0607343F0C0732B603B6823F46033F2
:106A800043F420333B60036823F440430360364BF8
:106A9000196821F0606141F000711960196841F0D6
:106AA000E0711960196841F440111960016821F022
:106AB0000C010160196821F4E04141F48051196032
:106AC000196841F460611960196841F4C071196076
:106AD000136823F003031360236823F4606343F413
:106AE00000732360236823F0606343F00073236026
:106AF000DEF8003043F4C013CEF80030683A136873
:106B000023F001031360194AD2F8603123F01F0308
:106B1000C2F86031164B1A6E22F070021A661A6EB5
:106B200022F00F0242F001021A661A6E22F460028D
:106B30001A661A6E22F4F81242F490121A661A6E4D
:106B400022F480721A661A6E22F080021A661A6E99
:106B500022F080721A66074B074A1A60BDE8F0817E
:106B600084C00F4074C00F4030C00F4000800D4003
:106B700000C00F40240000200046C3232CC00F405B
:106B800020C00F40094A136843F00C03136002232E
:106B900002F57C22743213600432136041F2B003B8
:106BA00002F5F672136004321360704778C00F402C
:106BB00008B5FFF7E7FF08BDFEE7FEE7FEE7FEE7E3
:106BC000FEE7FEE7FEE7FEE708B51F2800F28A8031
:106BD000DFE800F010161C22282E343A40464C52B2
:106BE000585E646A1070767C822E343A40464C526D
:106BF000585E646A702205213B2000F01BF908BD35
:106C0000702205212C2000F015F9F8E770220521EB
:106C10002D2000F00FF9F2E7702205212E2000F060
:106C200009F9ECE7702205212F2000F003F9E6E7CF
:106C300070220521302000F0FDF8E0E770220521E8
:106C4000312000F0F7F8DAE770220521322000F059
:106C5000F1F8D4E770220521332000F0EBF8CEE7FD
:106C600070220521342000F0E5F8C8E770220521E4
:106C7000352000F0DFF8C2E770220521362000F051
:106C8000D9F8BCE770220521372000F0D3F8B6E729
:106C900070220521382000F0CDF8B0E770220521E0
:106CA000392000F0C7F8AAE7702205213A2000F049
:106CB000C1F8A4E7702205213C2000F0BBF89EE754
:106CC000702205213D2000F0B5F898E770220521DB
:106CD0003E2000F0AFF892E7702205213F2000F03F
:106CE000A9F88CE7024B034A7A210348FFF71CFB03
:106CF00054BD0070A0BD007058BD007030B585B0A7
:106D0000044615460846FFF75FFF01A8FCF7A4FEFE
:106D10008DF80E50094D01A955F82400FCF72CFE02
:106D200055F82400FCF7D8FE08B905B030BD044B77
:106D3000044AA1210448FFF7F7FA00BF2800002009
:106D400054BD0070ACBD007058BD007010B582B06D
:106D500001F00F01009100218DF8041004466A46ED
:106D6000074B53F82000FCF795FE054B53F82430F1
:106D70001A6A12F0010FF8D0586A80B202B010BD42
:106D80002800002010B582B0044610461A4601299A
:106D900004D031B900238DF8043002E001238DF8CE
:106DA0000430A0B101238DF8053000238DF80630A2
:106DB0000521204600F03EF8600901AA04F01F01F9
:106DC000054B53F82000FDF7E3FD02B010BD002392
:106DD0008DF80530E9E700BF3400002059B14209C1
:106DE0000B4B53F8222000F01F00012303FA00F0A0
:106DF000C2F8840070474209054B53F8222000F086
:106E00001F00012303FA00F0C2F88800704700BF9A
:106E10003400002000B54209054B53F8223000F041
:106E20001F009B6823FA00F000F001005DF804FBEE
:106E30003400002010B5964C236843F00C03236007
:106E4000A0F120039BB21F2B01F29E8020381F2847
:106E500000F29381DFE810F020006200A400E2005D
:106E60009101910191019101910140018B01D601A4
:106E700026027F02BB02FA0246039403FD034E047E
:106E8000A30408055105A305F6055506A606F80650
:106E90004607AE07FC074E0859B97E4B196003F54B
:106EA0006E7302211960002A00F067817A4B1A6024
:106EB00063E1012912D0022917D0032918D004292F
:106EC0001DD005291ED006291FD0072920D1714BBE
:106ED000196003F2544300211960E4E76D4B196017
:106EE00003F5B16300211960DDE76A4B1960DAE749
:106EF000684B196003F54F7300211960D3E7654BA8
:106F00001960D0E7634B1960CDE7624B1960CAE79F
:106F1000624B634A3E216348FFF706FA59B9624B58
:106F2000196003F5717302211960002A00F02581B0
:106F30005E4B1A6021E1012912D0022917D00329E2
:106F400018D004291DD005291ED006291FD00729D5
:106F500020D1554B196003F58B6300211960E4E7DC
:106F6000514B196003F5B16300211960DDE74E4B09
:106F70001960DAE74C4B196003F54D730021196075
:106F8000D3E7494B1960D0E7474B1960CDE7464B33
:106F90001960CAE7414B424A57214248FFF7C4F9FA
:106FA00039B9434B1960002A00F0E780414B1A6061
:106FB000E3E0012912D0022917D003291CD00429AB
:106FC0001DD005291ED006291FD0072920D1384BF6
:106FD000196003F58A6300211960E4E7344B1960F6
:106FE00003F5B16300211960DDE7314B196003F54A
:106FF000926301211960D6E72D4B1960D3E72C4B22
:107000001960D0E72A4B1960CDE7294B1960CAE710
:10701000224B234A70212348FFF786F959B9264BA2
:10702000196003F5627301211960002A00F0A58040
:10703000224B1A60A1E0012912D0022917D003299E
:107040001CD0042921D005293AD006293BD0072994
:107050003CD1194B196003F2444300211960E4E765
:10706000012315490B6001F264510B60DDE7124BFF
:10707000196003F5916301211960D6E70E4B196081
:1070800003F5A16300211960CFE70B4B1960CCE732
:1070900078C00F40BC801F40AC821F4054BD0070C0
:1070A00004BE0070B8BD0070C0801F40B0821F4099
:1070B000C4801F40B4821F40C8801F40B8821F4058
:1070C000954B1960B1E7944B1960AEE7934B944A26
:1070D00089219448FFF728F931B9934B1960002AA8
:1070E0004BD0924B1A6048E0012914D0022919D0E4
:1070F00003291AD004291BD0052920D0062921D024
:10710000072926D009292BD1874B196003F5D563B0
:1071100002211960E3E7844B196003F565730321CD
:107120001960DCE7804B1960D9E77F4B1960D6E71F
:107130007D4B196003F54A7301211960CFE77A4B43
:107140001960CCE7784B196003F5AF630121196032
:10715000C5E7754B196003F28C6300211960BEE727
:107160006E4B6F4A40F229116E48FFF7DDF829B9DE
:107170006F4B19600AB16F4B1A6010BD012912D014
:10718000022917D0032918D004291DD0052922D09F
:10719000062923D0072928D0082929D009292AD14E
:1071A000634B1960E6E7624B196003F55C730321DA
:1071B0001960DFE75E4B1960DCE75D4B196003F295
:1071C000CC4301211960D5E7594B196003F5487389
:1071D00001211960CEE7564B1960CBE7544B19607B
:1071E00003F2545301211960C4E7514B1960C1E700
:1071F0004F4B1960BEE7494B494A4FF4A3714948C8
:10720000FFF792F831B94C4B1960002AB5D04B4BBF
:107210001A60B2E7012912D0022917D0032918D029
:10722000042919D005291ED006291FD0072924D0EA
:10723000082929D009292ED13F4B1960E5E73E4B9B
:10724000196003F55F7303211960DEE73A4B19609B
:10725000DBE7394B1960D8E7374B196003F5467304
:1072600001211960D1E7344B1960CEE7324B196028
:1072700003F2545301211960C7E72F4B196003F53E
:10728000577301211960C0E72B4B196003F2A46307
:1072900002211960B9E7214B214A40F263112148CC
:1072A000FFF742F861B9264B1021196003F57E7390
:1072B00001211960002A3FF460AF224B1A605CE79D
:1072C000012912D0022917D0032918D0042919D076
:1072D00005291AD006291BD0072935D1184B19606A
:1072E00003F27C4300211960E4E7012314490B6099
:1072F00001F544710B60DDE7114B1960DAE7104BC3
:107300001960D7E70E4B1960D4E70D4B1960D1E730
:107310000B4B1960CEE700BFC8801F4054BD007002
:1073200004BE0070B8BD0070E0801F40D0821F40D6
:10733000E4801F40D4821F40E8801F40D8821F4055
:10734000EC801F40DC821F40924B934A4FF4BE7189
:107350009248FEF7E9FF61B9914B1021196003F5DE
:107360007E7301211960002A3FF407AF8D4B1A602C
:1073700003E701290ED0022913D0032914D00429D0
:1073800015D0052916D0062917D0072918D1844B06
:107390001960E8E7824B196003F5CE63002119609C
:1073A000E1E77F4B1960DEE77D4B1960DBE77C4B43
:1073B0001960D8E77A4B1960D5E7794B1960D2E7A5
:1073C000744B754A40F295117448FEF7ADFF59B9F8
:1073D000002375490B6001F59B610B60002A3FF4A7
:1073E000CCAE724B1A60C8E601290ED0022913D028
:1073F000032914D0042915D005291AD006291BD039
:1074000008291CD1684B1960E8E7012366490B6025
:1074100001F24C510B60E1E7634B1960DEE7624B10
:107420001960DBE7604B196003F54D7300211960AB
:10743000D4E75D4B1960D1E75B4B1960CEE7554B44
:10744000554A4FF4D7715548FEF76EFF39B9584B7E
:107450001960002A3FF491AE564B1A608DE601295F
:1074600014D0022919D003291AD004291FD00529C4
:1074700024D0062925D007292AD008292BD14C4B06
