:0200000470008A
:10000000464346420004015600000000010303007D
:1000100000000000000000000000000000000000E0
:1000200000000000000000000000000000000000D0
:1000300000000000000000000000000000000000C0
:1000400000000000000408000000000000000000A4
:100050000000400000000000000000000000000060
:100060000000000000000000000000000000000090
:100070000000000000000000000000000000000080
:10008000EB04180A063204260000000000000000FD
:100090000000000000000000000000000000000060
:1000A0000000000000000000000000000000000050
:1000B0000000000000000000000000000000000040
:1000C0000000000000000000000000000000000030
:1000D0000000000000000000000000000000000020
:1000E0000000000000000000000000000000000010
:1000F0000000000000000000000000000000000000
:1001000000000000000000000000000000000000EF
:1001100000000000000000000000000000000000DF
:1001200000000000000000000000000000000000CF
:1001300000000000000000000000000000000000BF
:1001400000000000000000000000000000000000AF
:10015000000000000000000000000000000000009F
:10016000000000000000000000000000000000008F
:10017000000000000000000000000000000000007F
:10018000000000000000000000000000000000006F
:10019000000000000000000000000000000000005F
:1001A000000000000000000000000000000000004F
:1001B000000000000000000000000000000000003F
:1001C000000100000010000000000000000000001E
:1001D000000001000000000000000000000000001E
:1001E000000000000000000000000000000000000F
:1001F00000000000000000000000000000000000FF
:10100000D10020410020007000000000301000706E
:1010100020100070001000700000000000000000B0
:10102000000000700000400000000000FFFFFFFF14
:10103000D2043041CC03AC04400FC068FFFFFFFF77
:10104000400FC06CFFFFFFFF400FC070FFFFFFFFAE
:10105000400FC074FFFFFFFF400FC078FFFFFFFF8E
:10106000400FC07CFFFFFFFF400FC080FFFFFFFF6E
:10107000400D803000002001400D8100001D000067
:10108000400FC01400010D40401F801400000000FC
:10109000401F801800000000401F801C000000005E
:1010A000401F802000000000401F8024000000003E
:1010B000401F802800000000401F802C000000001E
:1010C000401F803000000000401F803400000000FE
:1010D000401F803800000000401F803C00000000DE
:1010E000401F804000000000401F804400000000BE
:1010F000401F804800000000401F804C000000009E
:10110000401F805000000000401F8054000000007D
:10111000401F805800000000401F805C000000005D
:10112000401F806000000000401F8064000000003D
:10113000401F806800000000401F806C000000001D
:10114000401F807000000000401F807400000000FD
:10115000401F807800000000401F807C00000000DD
:10116000401F808000000000401F808400000000BD
:10117000401F808800000000401F808C000000009D
:10118000401F809000000000401F8094000000007D
:10119000401F809800000000401F809C000000005D
:1011A000401F80A000000000401F80A4000000003D
:1011B000401F80A800000000401F80AC000000001D
:1011C000401F80B000000010401F80B400000000ED
:1011D000401F80B800000000401F8204000110F989
:1011E000401F8208000110F9401F820C000110F915
:1011F000401F8210000110F9401F8214000110F9F5
:10120000401F8218000110F9401F821C000110F9D4
:10121000401F8220000110F9401F8224000110F9B4
:10122000401F8228000110F9401F822C000110F994
:10123000401F8230000110F9401F8234000110F974
:10124000401F8238000110F9401F823C000110F954
:10125000401F8240000110F9401F8244000110F934
:10126000401F8248000110F9401F824C000110F914
:10127000401F8250000110F9401F8254000110F9F4
:10128000401F8258000110F9401F825C000110F9D4
:10129000401F8260000110F9401F8264000110F9B4
:1012A000401F8268000110F9401F826C000110F994
:1012B000401F8270000110F9401F8274000110F974
:1012C000401F8278000110F9401F827C000110F954
:1012D000401F8280000110F9401F8284000110F934
:1012E000401F8288000110F9401F828C000110F914
:1012F000401F8290000110F9401F8294000110F9F4
:10130000401F8298000110F9401F829C000110F9D3
:10131000401F82A0000110F9401F82A4000110F9B3
:10132000401F82A8000110F9402F000010000004A7
:10133000402F000800030524402F000C060305245D
:10134000402F00108000001B402F00148200001B63
:10135000402F00188400001B402F001C8600001B3B
:10136000402F002090000021402F0024A0000019F1
:10137000402F0028A8000017402F002CA900001BB8
:10138000402F003000000021402F0004000079A809
:10139000402F004000000F31402F004400652922FB
:1013A000402F004800010920402F004C50210A081E
:1013B000402F008000000021402F00840088888892
:1013C000402F009400000002402F00980000000011
:1013D000402F009080000000402F009CA55A000F75
:1013E000CF000C1C402F003C00000001CC00140476
:1013F000402F009080000000402F009CA55A000C58
:10140000CF000C1C402F003C00000001CC00140455
:10141000402F009080000000402F009CA55A000C37
:10142000CF000C1C402F003C00000001CC001C042D
:10143000402F00A000000033402F009080000000EB
:10144000402F009CA55A000ACF000C1C402F003CE6
:1014500000000001CC000C04402F004C50210A0970
:1020000000000220BD240070395400703B54007061
:102010003D5400703F5400704154007000000000B7
:1020200000000000000000000000000043540070A9
:102030004554007000000000475400707143007068
:102040001D250070212500702525007029250070B0
:102050002D25007031250070352500703925007060
:102060003D25007041250070452500704925007010
:102070004D250070512500705525007059250070C0
:102080005D25007005250070052500700525007090
:102090006125007065250070692500706D25007050
:1020A0007125007075250070792500707D25007000
:1020B0008125007085250070892500708D250070B0
:1020C0009125007095250070992500709D25007060
:1020D000A1250070A525007005250070052500705C
:1020E0000525007005250070052500701D35007060
:1020F0000525007005250070052500700525007078
:102100000525007005250070052500700525007067
:102110000525007005250070052500700525007057
:10212000A9250070AD250070B1250070B52500709F
:10213000B925007005250070052500700525007083
:102140000525007005250070052500700525007027
:102150000525007005250070052500700525007017
:102160000525007005250070052500700525007007
:1021700005250070052500700525007005250070F7
:1021800005250070052500700525007005250070E7
:10219000C9430070052500700525007005250070F5
:1021A0000525007005250070BD250070C125007053
:1021B00005250070052500700525007005250070B7
:1021C00005250070052500700525007005250070A7
:1021D0000525007005250070052500700525007097
:1021E000052500700525007005250070C5250070C7
:1021F000C925007005250070CD250070D12500701F
:102200005954007049540070D5250070A13D0070EC
:102210000525007005250070052500700525007056
:102220000525007005250070293500700525007012
:102230000525007005250070052500700525007036
:102240000525007005250070052500700525007026
:102250000525007005250070052500700525007016
:102260000525007005250070052500700525007006
:1022700005250070052500700525007005250070F6
:1022800005250070052500700525007005250070E6
:1022900005250070052500700525007005250070D6
:1022A000DD250070E1250070E52500700525007032
:1022B000E9250070052500700525007005250070D2
:1022C00005250070052500700525007005250070A6
:1022D0000525007005250070052500700525007096
:1022E0000525007005250070052500700525007086
:1022F0000525007005250070052500700525007076
:102300000525007005250070052500700525007065
:102310000525007005250070052500700525007055
:102320000525007005250070052500700525007045
:102330000525007005250070052500700525007035
:102340000525007005250070052500700525007025
:102350000525007005250070052500700525007015
:102360000525007005250070052500700525007005
:1023700005250070052500700525007005250070F5
:1023800005250070052500700525007005250070E5
:1023900005250070052500700525007005250070D5
:1023A00005250070052500700525007005250070C5
:1023B00005250070052500700525007005250070B5
:1023C00005250070052500700525007005250070A5
:1023D0000525007005250070052500700525007095
:1023E0000525007005250070052500700525007085
:1023F000052500700525007005250070FFFFFFFF13
:1024000010B5054C237833B9044B13B10448AFF32E
:1024100000800123237010BD340400200000000060
:102420005C71007008B5034B1BB103490348AFF35F
:10243000008008BD00000000380400205C710070BE
:10244000A3F5803A704700BF174B002B08BF134B12
:102450009D46FFF7F5FF00218B460F461348144AAF
:10246000121A04F049F90E4B002B00D098470D4B7F
:10247000002B00D098470020002104000D000D48DB
:10248000002802D00C4804F0F7F904F011F92000FC
:10249000290001F077F804F0FBF800BF0000080005
:1024A00000000000000000000000022034040020B2
:1024B0005C060020796800708568007072B60A4872
:1024C0000A4901600A6882F3088809488047094977
:1024D000094A0A4B9A42BEBF51F8040B42F8040B5A
:1024E000F8E762B60648804708ED00E0002000707B
:1024F000CD36007088710070000000203404002088
:1025000049240070FFF7FEBF3848004738480047AD
:10251000384800473848004738480047384800479F
:10252000384800473848004738480047384800478F
:10253000384800473848004738480047384800477F
:10254000384800473848004738480047384800476F
:10255000384800473848004738480047384800475F
:10256000384800473848004738480047384800474F
:10257000384800473848004738480047384800473F
:10258000384800473848004738480047384800472F
:10259000384800473848004738480047384800471F
:1025A000384800473848004738480047384800470F
:1025B00038480047384800473848004738480047FF
:1025C00038480047384800473848004738480047EF
:1025D00038480047384800473848004738480047DF
:1025E0003848004738480047384800473954007099
:1025F0003B540070435400704754007071430070A6
:102600003539007071390070AD390070E9390070EA
:10261000253A0070613A00709D3A0070D93A007016
:10262000153B0070513B00708D3B0070C93B007042
:10263000053C0070413C00707D3C0070B93C00706E
:102640000525007089400070A5400070C1400070F1
:10265000DD400070F940007015410070314100709C
:102660004D410070193F0070293F0070393F0070E4
:10267000493F00707D3F0070B13F0070E53F007042
:1026800019400070D93D0070113E00706941007022
:10269000F1410070B142007079420070E94200706F
:1026A000B93E0070C13E0070052500700525007020
:1026B0001D43007039430070B93D0070052500705E
:1026C000C93D007005250070493E0070C93E00708C
:1026D00081F0004102E000BF83F0004330B54FEAD3
:1026E00041044FEA430594EA050F08BF90EA020F40
:1026F0001FBF54EA000C55EA020C7FEA645C7FEAD3
:10270000655C00F0E2804FEA5454D4EB5555B8BFF5
:102710006D420CDD2C4480EA020281EA030382EA66
:10272000000083EA010180EA020281EA0303362DF8
:1027300088BF30BD11F0004F4FEA01314FF4801CCB
:102740004CEA113102D0404261EB410113F0004FDD
:102750004FEA03334CEA133302D0524263EB430394
:1027600094EA050F00F0A780A4F10104D5F1200E32
:102770000DDB02FA0EFC22FA05F2801841F100018D
:1027800003FA0EF2801843FA05F359410EE0A5F161
:1027900020050EF1200E012A03FA0EFC28BF4CF092
:1027A000020C43FA05F3C01851EBE37101F0004548
:1027B00007D54FF0000EDCF1000C7EEB00006EEB55
:1027C0000101B1F5801F1BD3B1F5001F0CD34908DF
:1027D0005FEA30004FEA3C0C04F101044FEA445236
:1027E00012F5800F80F09A80BCF1004F08BF5FEABD
:1027F000500C50F1000041EB045141EA050130BD9D
:102800005FEA4C0C404141EB0101013C28BFB1F5AE
:10281000801FE9D291F0000F04BF01460020B1FAF9
:1028200081F308BF2033A3F10B03B3F120020CDACC
:102830000C3208DD02F1140CC2F10C0201FA0CF0AA
:1028400021FA02F10CE002F11402D8BFC2F1200C0F
:1028500001FA02F120FA0CFCDCBF41EA0C019040C5
:10286000E41AA2BF01EB0451294330BD6FEA04040E
:102870001F3C1CDA0C340EDC04F11404C4F12002F9
:1028800020FA04F001FA02F340EA030021FA04F30B
:1028900045EA030130BDC4F10C04C4F1200220FA62
:1028A00002F001FA04F340EA0300294630BD21FAA0
:1028B00004F0294630BD94F0000F83F4801306BF66
:1028C00081F480110134013D4EE77FEA645C18BF5A
:1028D0007FEA655C29D094EA050F08BF90EA020FF1
:1028E00005D054EA000C04BF1946104630BD91EAE9
:1028F000030F1EBF0021002030BD5FEA545C05D1EC
:102900004000494128BF41F0004130BD14F580042A
:102910003CBF01F5801130BD01F0004545F0FE419E
:1029200041F470014FF0000030BD7FEA645C1ABFD3
:10293000194610467FEA655C1CBF0B46024650EA0A
:10294000013406BF52EA033591EA030F41F4002136
:1029500030BD00BF90F0000F04BF0021704730B5BC
:102960004FF4806404F132044FF000054FF0000191
:1029700050E700BF90F0000F04BF0021704730B552
:102980004FF4806404F1320410F0004548BF404227
:102990004FF000013EE700BF42004FEAE2014FEA7C
:1029A00031014FEA02701FBF12F07F4393F07F4F57
:1029B00081F06051704732F07F4208BF704793F05A
:1029C0007F4F04BF41F40021704730B54FF460746D
:1029D00001F0004521F000411CE700BF50EA010270
:1029E00008BF704730B54FF000050AE050EA010219
:1029F00008BF704730B511F0004502D5404261EB89
:102A000041014FF4806404F132045FEA915C3FF4C9
:102A1000D8AE4FF003025FEADC0C18BF03325FEA66
:102A2000DC0C18BF033202EBDC02C2F1200300FA17
:102A300003FC20FA02F001FA03FE40EA0E0021FA3C
:102A400002F11444BDE600BF70B54FF0FF0C4CF42A
:102A5000E06C1CEA11541DBF1CEA135594EA0C0FDC
:102A600095EA0C0F00F0DEF82C4481EA030621EA17
:102A70004C5123EA4C5350EA013518BF52EA033552
:102A800041F4801143F4801338D0A0FB02CE4FF004
:102A90000005E1FB02E506F00042E0FB03E54FF034
:102AA0000006E1FB03569CF0000F18BF4EF0010E2C
:102AB000A4F1FF04B6F5007F64F5407404D25FEA28
:102AC0004E0E6D4146EB060642EAC62141EA5551DB
:102AD0004FEAC52040EA5E504FEACE2EB4F1FD0C1D
:102AE00088BFBCF5E06F1ED8BEF1004F08BF5FEA9B
:102AF000500E50F1000041EB045170BD06F000464D
:102B000046EA010140EA020081EA0301B4EB5C04F9
:102B1000C2BFD4EB0C0541EA045170BD41F48011F1
:102B20004FF0000E013C00F3AB8014F1360FDEBF16
:102B3000002001F0004170BDC4F10004203C35DAF2
:102B40000C341BDC04F11404C4F1200500FA05F375
:102B500020FA04F001FA05F240EA020001F0004216
:102B600021F0004110EBD37021FA04F642EB06018C
:102B70005EEA430E08BF20EAD37070BDC4F10C04B6
:102B8000C4F1200500FA04F320FA05F001FA04F27A
:102B900040EA020001F0004110EBD37041F1000166
:102BA0005EEA430E08BF20EAD37070BDC4F1200571
:102BB00000FA05F24EEA020E20FA04F301FA05F2D9
:102BC00043EA020321FA04F001F0004121FA04F281
:102BD00020EA020000EBD3705EEA430E08BF20EA51
:102BE000D37070BD94F0000F0FD101F0004640008B
:102BF00041EB010111F4801F08BF013CF7D041EA0D
:102C0000060195F0000F18BF704703F00046520010
:102C100043EB030313F4801F08BF013DF7D043EAE1
:102C20000603704794EA0C0F0CEA135518BF95EA97
:102C30000C0F0CD050EA410618BF52EA4306D1D11E
:102C400081EA030101F000414FF0000070BD50EA3D
:102C5000410606BF1046194652EA430619D094EAC7
:102C60000C0F02D150EA013613D195EA0C0F05D1B1
:102C700052EA03361CBF104619460AD181EA030105
:102C800001F0004141F0FE4141F470014FF00000BD
:102C900070BD41F0FE4141F4780170BD70B54FF058
:102CA000FF0C4CF4E06C1CEA11541DBF1CEA1355D8
:102CB00094EA0C0F95EA0C0F00F0A7F8A4EB0504BA
:102CC00081EA030E52EA03354FEA013100F08880B1
:102CD0004FEA03334FF0805545EA131343EA12637A
:102CE0004FEA022245EA111545EA10654FEA00262F
:102CF0000EF000419D4208BF964244F1FD0404F5E8
:102D0000407402D25B084FEA3202B61A65EB030543
:102D10005B084FEA32024FF480104FF4002CB6EB00
:102D2000020E75EB030E22BFB61A754640EA0C0080
:102D30005B084FEA3202B6EB020E75EB030E22BFC0
:102D4000B61A754640EA5C005B084FEA3202B6EB01
:102D5000020E75EB030E22BFB61A754640EA9C00C0
:102D60005B084FEA3202B6EB020E75EB030E22BF90
:102D7000B61A754640EADC0055EA060E18D04FEA4E
:102D8000051545EA16754FEA06164FEAC30343EAEE
:102D900052734FEAC2025FEA1C1CC0D111F4801FBB
:102DA0000BD141EA00014FF000004FF0004CB6E7B4
:102DB00011F4801F04BF01430020B4F1FD0C88BF53
:102DC000BCF5E06F3FF6AFAEB5EB030C04BFB6EB5E
:102DD000020C5FEA500C50F1000041EB045170BD51
:102DE0000EF0004E4EEA113114EB5C04C2BFD4EB7E
:102DF0000C0541EA045170BD41F480114FF0000E02
:102E0000013C90E645EA060E8DE60CEA135594EA7D
:102E10000C0F08BF95EA0C0F3FF43BAF94EA0C0F80
:102E20000AD150EA01347FF434AF95EA0C0F7FF4F5
:102E300025AF104619462CE795EA0C0F06D152EA49
:102E400003353FF4FDAE1046194622E750EA41062D
:102E500018BF52EA43067FF4C5AE50EA41047FF43E
:102E60000DAF52EA43057FF4EBAE12E74FF0FF3CA3
:102E700006E000BF4FF0010C02E000BF4FF0010C74
:102E80004DF804CD4FEA410C7FEA6C5C4FEA430CED
:102E900018BF7FEA6C5C1BD001B050EA410C0CBF3C
:102EA00052EA430C91EA030F02BF90EA020F00209E
:102EB000704710F1000F91EA030F58BF994208BF05
:102EC00090422CBFD8176FEAE37040F001007047C2
:102ED0004FEA410C7FEA6C5C02D150EA013C07D119
:102EE0004FEA430C7FEA6C5CD6D152EA033CD3D064
:102EF0005DF8040B704700BF8446104662468C465E
:102F00001946634600E000BF01B5FFF7B7FF002890
:102F100048BF10F1000F01BD4DF808EDFFF7F4FFB9
:102F20000CBF012000205DF808FB00BF4DF808ED44
:102F3000FFF7EAFF34BF012000205DF808FB00BF67
:102F40004DF808EDFFF7E0FF94BF012000205DF889
:102F500008FB00BF4DF808EDFFF7CEFF94BF01203E
:102F600000205DF808FB00BF4DF808EDFFF7C4FF37
:102F700034BF012000205DF808FB00BF4FEA410C80
:102F80007FEA6C5C02D150EA013C0AD14FEA430C63
:102F90007FEA6C5C02D152EA033C02D14FF00000A0
:102FA00070474FF0010070474FEA410212F50012DE
:102FB00015D211D56FF47873B3EB625212D94FEA80
:102FC000C12343F0004343EA505311F0004F23FA6A
:102FD00002F018BF404270474FF00000704750EABF
:102FE000013005D111F0004008BF6FF0004070477C
:102FF0004FF00000704700BF7BB972B90029BEBF17
:1030000000204FF0004106E008BF00281CBF6FF011
:1030100000414FF0FF3000F0EFB9ADF1080C6DE961
:1030200004CE002909DB002B1ADB00F083F8DDF861
:1030300004E0DDE9022304B07047404261EB410146
:10304000002B1BDB00F076F8DDF804E0DDE902235D
:1030500004B0404261EB4101524263EB43037047CD
:10306000524263EB430300F065F8DDF804E0DDE96C
:10307000022304B0404261EB41017047524263EBCE
:10308000430300F057F8DDF804E0DDE9022304B063
:10309000524263EB4303704753B94AB9002908BF52
:1030A00000281CBF4FF0FF314FF0FF3000F0A4B9F3
:1030B000ADF1080C6DE904CE00F03CF8DDF804E059
:1030C000DDE9022304B0704738B50022002304462E
:1030D0000D46FFF72BFF28B920462946BDE83840AA
:1030E00000F00AB8204605F1004100F005F8404222
:1030F00061EB410138BD00BFD0B50C4B0022064644
:103100000F46FFF7A1FC00F079F90446FFF722FC17
:10311000074B0022FFF798FC02460B463046394623
:10312000FFF7DAFA00F06AF92146D0BD0000F03D61
:103130000000F0412DE9F047089D04468C46002B25
:1031400040F083808A42174647D9B2FA82F242B1F0
:10315000C2F1200024FA00F09140974040EA010CAF
:1031600094404FEA1748230CBCFBF8F61FFA87FE81
:1031700008FB16C143EA014306FB0EF1994209D947
:10318000FB1806F1FF3080F01981994240F2168158
:10319000023E3B445B1AA4B2B3FBF8F008FB1033C9
:1031A00044EA034400FB0EFEA64509D93C1900F190
:1031B000FF3380F00581A64540F2028102383C448D
:1031C00040EA0640A4EB0E0400261DB1D4400023C3
:1031D000C5E900433146BDE8F08702B9FFDEB2FA27
:1031E00082F2002A50D1CB1B4FEA174E1FFA87F804
:1031F0000126B3FBFEFC210C0EFB1C3341EA03410C
:1032000008FB0CF38B4207D979180CF1FF3002D27E
:103210008B4200F2E9808446C91AA3B2B1FBFEF0EA
:103220000EFB101143EA014408FB00F8A04507D942
:103230003C1900F1FF3302D2A04500F2D9801846B4
:10324000A4EB080440EA0C40BFE78B4209D9002DEB
:1032500000F0B1800026C5E9000130463146BDE8E6
:10326000F087B3FA83F6002E4AD18B4202D3824212
:1032700000F2B880841A61EB030101208C46002D16
:10328000A8D0C5E9004CA5E7C2F1200320FA03F657
:10329000974001FA02F04FEA174ED9403043030C31
:1032A000B1FBFEF61FFA87F80EFB161143EA014345
:1032B00006FB08F1994204FA02F409D9FB1806F159
:1032C000FF3C80F08D80994240F28A80023E3B4470
:1032D0005B1A81B2B3FBFEF00EFB103341EA0341EF
:1032E00000FB08F38B4207D9791800F1FF3C73D239
:1032F0008B4271D902383944CB1A40EA064678E746
:10330000C6F1200C03FA06F422FA0CF31C4320FA4F
:103310000CF701FA06F34FEA144E21FA0CF11F43A1
:103320003B0CB1FBFEF91FFA84F80EFB191143EABE
:10333000014109FB08FA8A4502FA06F200FA06F38F
:1033400008D9611809F1FF3048D28A4546D9A9F158
:1033500002092144A1EB0A01BFB2B1FBFEF00EFB52
:10336000101147EA014700FB08F8B84507D9E719EB
:1033700000F1FF312ED2B8452CD90238274440EA5B
:103380000940A7EB0807A0FB02894F45C6464946FE
:103390001AD317D05DB1B3EB0E0267EB010707FA42
:1033A0000CFCF2404CEA0202F740C5E90027002677
:1033B0003146BDE8F0872E4628460BE70646E9E68B
:1033C0001846FDE64345E5D2B8EB020E69EB040171
:1033D0000138DFE70846D2E760468DE78146B9E766
:1033E000664675E730464AE7ACF1020C394413E70C
:1033F00002383C4424E700BF704700BF4A0011D2A6
:1034000012F5001211D20DD56FF47873B3EB62523E
:103410000ED44FEAC12343F0004343EA505323FA4A
:1034200002F070474FF00000704750EA013002D1BF
:103430004FF0FF3070474FF0000070470000000071
:1034400090F800F06DE9024520F007016FF0000CE4
:1034500010F0070491F820F040F049804FF000048C
:103460006FF00700D1E9002391F840F000F1080067
:1034700082FA4CF2A4FA8CF283FA4CF3A2FA8CF39F
:103480004BBBD1E9022382FA4CF200F10800A4FA06
:103490008CF283FA4CF3A2FA8CF3E3B9D1E904235A
:1034A00082FA4CF200F10800A4FA8CF283FA4CF391
:1034B000A2FA8CF37BB9D1E9062301F1200182FA4B
:1034C0004CF200F10800A4FA8CF283FA4CF3A2FA51
:1034D0008CF3002BC6D0002A04BF04301A4612BA5F
:1034E000B2FA82F2FDE8024500EBD2007047D1E962
:1034F000002304F00305C4F100004FEAC50514F0F1
:10350000040F91F840F00CFA05F562EA05021CBFC1
:1035100063EA050362464FF00004A9E708B500F02E
:103520006DF9BFF34F8F08BD154BD3F80C3113F075
:10353000010F03D0124B0122C3F80C21104BD3F81A
:103540001C3113F0010F03D00D4B0122C3F81C21D5
:103550000B4BD3F82C3113F0010F03D0084B012291
:10356000C3F82C21064BD3F83C3113F0010F03D0E4
:10357000034B0122C3F83C21BFF34F8F704700BFBC
:1035800000400840FEE769B110B51446027B012AED
:1035900002D043F2215010BD1A462146083000F0F7
:1035A0003FF8F8E743F221507047000010B550B1E2
:1035B0000C46134601466CB19AB10068C0B1224670
:1035C000FFF7E1FF10BD0E4B0E4A40F2E7210E4817
:1035D00001F072FA0D4B0B4A4FF43A710A4801F0B0
:1035E0006BFA0B4B074A40F2E921074801F064FAF5
:1035F000084B044A40F2EE21034801F05DFA00BF97
:1036000044690070CC69007050690070B469007042
:10361000BC690070C469007008B5FFF7C7FF08BD3A
:1036200008B520B151B182B100F020F808BD0A4BB5
:103630000A4A40F20D110A4801F03EFA094B074AC6
:103640004FF48771064801F037FA074B034A40F2FE
:103650000F11034801F030FA586A0070686A007070
:10366000F0690070B4690070BC69007008B548B1B9
:1036700079B1AAB100780E4B53F8200000F0E6FCB7
:10368000002008BD0B4B0C4A40F253110B4801F0CF
:1036900013FA0B4B084A4FF4AA71084801F00CFAD0
:1036A000084B054A40F25511044801F005FA00BFE5
:1036B000746B0070C46900705C6B00707C6A007091
:1036C000546B0070BC6900707047000010B5454A2B
:1036D000D2F8883043F47003C2F88830424A138924
:1036E0009BB223F001039BB2138140490B899BB22B
:1036F00023F001039BB20B81138813F0040F05D054
:1037000013889BB223F004039BB21380374B1B88B2
:1037100013F0040F06D0354A13889BB223F004033C
:103720009BB21380324A334B53604FF6FF73936062
:10373000136823F0A00343F0200313602E4B1B6893
:1037400013F0010F04D02C4A136823F00103136017
:10375000244B5B6913F4003F13D1BFF34F8FBFF3CA
:103760006F8F204B0022C3F85022BFF34F8FBFF35F
:103770006F8F5A6942F400325A61BFF34F8FBFF323
:103780006F8F184B5B6913F4803F02D0FFF79CFFEB
:1037900010BD144B0022C3F88420BFF34F8FD3F821
:1037A0008040C4F34E3100E01946C4F3C90243F629
:1037B000E07303EA411343EA82730A48C0F86032B7
:1037C0001346013A002BF2D14B1E0029ECD1BFF376
:1037D0004F8F436943F480334361BFF34F8FBFF38F
:1037E0006F8FD3E700ED00E000800B4000000D403C
:1037F00000C00B4020C528D910E000E008B5034BFD
:103800001B68034A11680348984708BD5404002008
:103810005004002000C02B4008B51F2914D800EB2D
:10382000411241F21C03D25AC2F3C013C26ACA4009
:10383000520002F002021A43436ACB409B0003F09D
:10384000040342EA030008BD034B044A40F2AD21E1
:10385000034801F031F900BF086C0070706C007013
:10386000BC6B007070B5002834D004468368027CBD
:10387000DA77C068002834D0A36803EB421341F222
:103880001802995841F21C029D5A05F08005002D3E
:1038900014BF01220022A1EB00034FEA531129D0EB
:1038A000C9B2637C5BB299422ED0637C5BB2CB1A07
:1038B00035D449B26174E17C49B2C91A49B2E174A4
:1038C000266816B161682046B04715B1A368227C0E
:1038D0001A7770BD144B154A40F2BE41144801F0EE
:1038E000EBF82568002DC7D000230122616820462F
:1038F000A847EEE71F2B03D9C9B20139C9B2D0E7F7
:10390000217D0139C9B2CCE7E07C40B2237D5BB2B6
:10391000984201D00023CCE7E37C5BB2C9E7207D6D
:1039200043FA80F3C5E700BF606C00708C6C0070D8
:10393000BC6B007008B500210B48FFF76DFF10F05D
:10394000040F07D110210848FFF766FF10F0040F9D
:1039500005D108BD054B1868FFF784FFF2E7034B5C
:10396000186CFFF77FFFF4E700800E40580400203A
:1039700008B501210B48FFF74FFF10F0040F07D1E6
:1039800011210848FFF748FF10F0040F05D108BDCA
:10399000054B5868FFF766FFF2E7034B586CFFF7DB
:1039A00061FFF4E700800E405804002008B50221B2
:1039B0000B48FFF731FF10F0040F07D11221084820
:1039C000FFF72AFF10F0040F05D108BD054B9868DA
:1039D000FFF748FFF2E7034B986CFFF743FFF4E76C
:1039E00000800E405804002008B503210B48FFF763
:1039F00013FF10F0040F07D113210848FFF70CFF45
:103A000010F0040F05D108BD054BD868FFF72AFF59
:103A1000F2E7034BD86CFFF725FFF4E700800E4078
:103A20005804002008B504210B48FFF7F5FE10F0FC
:103A3000040F07D114210848FFF7EEFE10F0040F21
:103A400005D108BD054B1869FFF70CFFF2E7034BE2
:103A5000186DFFF707FFF4E700800E4058040020C0
:103A600008B505210B48FFF7D7FE10F0040F07D16A
:103A700015210848FFF7D0FE10F0040F05D108BD4E
:103A8000054B5869FFF7EEFEF2E7034B586DFFF761
:103A9000E9FEF4E700800E405804002008B5062136
:103AA0000B48FFF7B9FE10F0040F07D116210848A4
:103AB000FFF7B2FE10F0040F05D108BD054B986961
:103AC000FFF7D0FEF2E7034B986DFFF7CBFEF4E76C
:103AD00000800E405804002008B507210B48FFF76E
:103AE0009BFE10F0040F07D117210848FFF794FE42
:103AF00010F0040F05D108BD054BD869FFF7B2FEE1
:103B0000F2E7034BD86DFFF7ADFEF4E700800E40FF
:103B10005804002008B508210B48FFF77DFE10F07F
:103B2000040F07D118210848FFF776FE10F0040FA4
:103B300005D108BD054B186AFFF794FEF2E7034B69
:103B4000186EFFF78FFEF4E700800E405804002047
:103B500008B509210B48FFF75FFE10F0040F07D1ED
:103B600019210848FFF758FE10F0040F05D108BDD1
:103B7000054B586AFFF776FEF2E7034B586EFFF7E6
:103B800071FEF4E700800E405804002008B50A21B9
:103B90000B48FFF741FE10F0040F07D11A21084827
:103BA000FFF73AFE10F0040F05D108BD054B986AE7
:103BB000FFF758FEF2E7034B986EFFF753FEF4E76A
:103BC00000800E405804002008B50B210B48FFF779
:103BD00023FE10F0040F07D11B210848FFF71CFE3D
:103BE00010F0040F05D108BD054BD86AFFF73AFE67
:103BF000F2E7034BD86EFFF735FEF4E700800E4086
:103C00005804002008B50C210B48FFF705FE10F002
:103C1000040F07D11C210848FFF7FEFD10F0040F28
:103C200005D108BD054B186BFFF71CFEF2E7034BEF
:103C3000186FFFF717FEF4E700800E4058040020CD
:103C400008B50D210B48FFF7E7FD10F0040F07D171
:103C50001D210848FFF7E0FD10F0040F05D108BD55
:103C6000054B586BFFF7FEFDF2E7034B586FFFF76C
:103C7000F9FDF4E700800E405804002008B50E213D
:103C80000B48FFF7C9FD10F0040F07D11E210848AB
:103C9000FFF7C2FD10F0040F05D108BD054B986B6E
:103CA000FFF7E0FDF2E7034B986FFFF7DBFDF4E76A
:103CB00000800E405804002008B50F210B48FFF784
:103CC000ABFD10F0040F07D11F210848FFF7A4FD3A
:103CD00010F0040F05D108BD054BD86BFFF7C2FDEE
:103CE000F2E7034BD86FFFF7BDFDF4E700800E400D
:103CF0005804002008B50346002000E001300228E7
:103D000004D8074A52F820209A42F7D1022800D856
:103D100008BD044B044A4FF49D71044800F0CCFEEA
:103D2000306D0070F86C00701C6D00709C6C007041
:103D300070B504464668FFF7DDFF054616F0406F94
:103D400006D0124B1B68124A52F8201020469847A2
:103D500016F0407F06D00F4B1B680D4A52F8251015
:103D60002046984716F4C03F05D0094B53F825105C
:103D7000204600239847084B1E4206D0074B1B687D
:103D8000034A52F825102046984770BDE8040020E9
:103D9000D8040020E404002000007C60E00400203F
:103DA00008B5034B196803480023984708BD00BFB6
:103DB000D804002000802D4008B50248FFF7B8FF66
:103DC00008BD00BF00802D4008B50248FFF7B0FFD6
:103DD00008BD00BF00402D4008B5074B596821B110
:103DE000064B1B680648984708BD064B064A40F636
:103DF0006A21064800F060FEEC040020FC0400206C
:103E000000001D40B06D0070EC6D0070606D0070C2
:103E100008B5074B996821B1064B1B6806489847BF
:103E200008BD064B064A40F67821064800F044FEDD
:103E3000EC040020FC04002000401D40C46D007014
:103E4000046E0070606D007008B5074BD96821B131
:103E5000064B1B680648984708BD064B064A40F6C5
:103E60008621064800F028FEEC040020FC04002017
:103E700000801D40D86D00701C6E0070606D007079
:103E800010B5002401E00134E4B2012C0CD8074B3A
:103E900053F824100029F6D0054B53F82430054A76
:103EA00052F824009847EEE710BD00BF000500203F
:103EB000080500201005002008B5FFF7E1FF08BD48
:103EC00008B5FFF7DDFF08BD08B5FFF7D9FF08BD4E
:103ED00038B504460D46036913F0010F06D00A4BAE
:103EE0001B681BB1094A52F821109847D4F81031C9
:103EF00013F0010F07D0064B1B6823B1054A52F897
:103F000025102046984738BD2C05002018050020B4
:103F1000440500203005002008B501210148FFF7C5
:103F2000D7FF08BD00003F4008B502210148FFF758
:103F3000CFFF08BD00403F4008B503210148FFF70F
:103F4000C7FF08BD00803F4008B504210148FFF7C6
:103F5000BFFF08BD00C03F4008B5436A13F0010F22
:103F600003D0044B1B68984708BD034B1B68984758
:103F7000FAE700BF5C0500206005002008B5074B8C
:103F8000596819B10648FFF7E7FF08BD054B064A17
:103F900040F2D371054800F08FFD00BF48050020B6
:103FA00000403940906E0070E06E00703C6E007012
:103FB00008B5074B996819B10648FFF7CDFF08BD52
:103FC000054B064A40F2DB71054800F075FD00BF65
:103FD0004805002000803940A46E0070F86E007023
:103FE0003C6E007008B5074BD96819B10648FFF759
:103FF000B3FF08BD054B064A40F2E371054800F0E7
:104000005BFD00BF4805002000C03940B86E00705D
:10401000106F00703C6E007008B5074B196919B13C
:104020000648FFF799FF08BD054B064A40F2EB71C1
:10403000054800F041FD00BF4805002000003A405F
:10404000CC6E0070286F00703C6E007010B50C468E
:1040500081B90A4B0A4A40F23F310A4800F02CFD70
:10406000436913F4000FFBD0234613F8012BC26100
:104070000A461C46511E002AF2D110BD546B007036
:104080008C6F0070406F007008B5034B1B68034ACB
:1040900051680348984708BD880500206405002042
:1040A0000040184008B5034B1B68034A9168034859
:1040B000984708BD8805002064050020008018404E
:1040C00008B5034B1B68034AD1680348984708BDED
:1040D000880500206405002000C0184008B5034B87
:1040E0001B68034A11690348984708BD88050020EA
:1040F000640500200000194008B5034B1B68034A03
:1041000051690348984708BD8805002064050020D0
:104110000040194008B5034B1B68034A91690348E6
:10412000984708BD880500206405002000801940DC
:1041300008B5034B1B68034AD1690348984708BD7B
:10414000880500206405002000C0194008B5034B15
:104150001B68034A116A0348984708BD8805002078
:104160006405002000001A4008B51D4BD968D9B17C
:104170001C4BD3F8883013F4803F05D1194BD3F88A
:10418000883013F4802F0FD0164BD3F8883013F4F7
:10419000807F05D1134BD3F8883013F4806F03D0A0
:1041A000114B1B680F4898470D4B9968B9B10D4BDF
:1041B0009B6813F4803F04D10A4B9B6813F4802F53
:1041C0000DD0084B9B6813F4807F04D1054B9B688E
:1041D00013F4806F03D0054B1B680248984708BD55
:1041E0008C05002000403840AC050020B0050020C0
:1041F00008B51D4B5969D9B11C4BD3F8883013F45D
:10420000803F05D1194BD3F8883013F4802F0FD09D
:10421000164BD3F8883013F4807F05D1134BD3F8B5
:10422000883013F4806F03D0114B1B680F489847F8
:104230000D4B1969B9B10D4B9B6813F4803F04D144
:104240000A4B9B6813F4802F0DD0084B9B6813F426
:10425000807F04D1054B9B6813F4806F03D0054B1E
:104260001B680248984708BD8C0500200080384034
:10427000AC050020B005002008B5074B996921B1B5
:10428000064B1B680648984708BD064B064A40F691
:104290001531064800F010FC8C050020B005002008
:1042A00000C03840147000703C700070C86F00701F
:1042B00008B5074BD96921B1064B1B6806489847DA
:1042C00008BD064B064A4FF43261064800F0F4FB85
:1042D0008C050020AC05002000C03840287000701C
:1042E00058700070C86F007008B5084B196821B18C
:1042F000074B1B680BB107489847044B596821B11D
:10430000054B1B680BB10348984708BDB405002056
:10431000C005002000003840BC05002008B5034B54
:104320001B68034A51680348984708BDD005002020
:10433000C405002000002C4008B5034B1B68034A4D
:1043400091680348984708BDD0050020C4050020A7
:1043500000402C4018B1012803D10348704703489E
:1043600070470020704700BFD4050020DC05002006
:10437000024A136801331360704700BFD80500205C
:1043800008B5FFF7E7FF18B103460120186008BD24
:104390000020FCE708B548B90A4B00221A7021B189
:1043A000CB6813B109691046984708BD054B012237
:1043B0001A700029F9D08B68002BF6D009691046D5
:1043C0009847F2E70806002008B50D4B9B6913F0EB
:1043D000100F07D10A4B4FF0FF329A610120FFF70F
:1043E000CFFF08BD064B1A68064B5B6A12F0100F30
:1043F00019680CBF01200020FFF7CCFFEAE700BFDF
:1044000000001C40E005002038B10346406830B190
:1044100010B544691868A04710BD032070470620F6
:10442000704710B50446012380F86F3000220E213A
:10443000FFF7EAFF022384F86E30002284F86C2034
:1044400008E002EB420304EB83030021D960196109
:1044500019750132072AF4D9A368002201212046E8
:104460009847002084F86F0010BD10B584B00A7A18
:10447000102A22D002F00F04D30912F00C0F26D11B
:1044800043EA440303EB430200EB8202D2680AB31F
:104490000A6801924A6802924A7A8DF80C207AB131
:1044A0000022027580F8202003EB430200EB820219
:1044B000D468126901A9A0470AE0FFF7B2FF07E03C
:1044C00003EB430200EB820200211175ECE70120AF
:1044D00004B010BD0120FBE7B0FA80F35B090029AE
:1044E00008BF01232BB910B5836823B1FFF7BDFFC7
:1044F00010BD032070470120FAE710B44C00E4B26D
:104500004268012303FA01F1C2F8AC114268D2F803
:10451000403143F40053C2F84031836803EB841305
:104520009A6A1A63836803EB8413DA6A5A634368EE
:10453000D3F8403113F4005FE8D04268D2F840313C
:1045400023F40053C2F840315DF8044B70474368D0
:10455000D3F8AC21C3F8AC214368D3F8BC21C3F82D
:10456000BC2143684FF0FF12C3F8B4214368D3F86D
:10457000B02112F0FF1FF4D1D3F8843113F4807FFF
:1045800003D0012380F85630704700B585B0002372
:10459000019310228DF80C2002938DF80D3001A9A3
:1045A0000068FFF799FF05B05DF804FB2DE9F043C3
:1045B00085B005468846174602EB41060023019365
:1045C0000293331D00EB83035C6824F01F0443E077
:1045D000A268A3F580531340A28BC2F30B021343CE
:1045E00001933DE04FF0FF33029347E0331D05EBAD
:1045F000830300225A6006F10C0305EB83035A6023
:10460000AB6803EB861301219960AB6803EB86135B
:10461000DA6043E0FB01DBB243EA08038DF80C30BB
:104620004FF000098DF80D9001A92868FFF754FF9D
:10463000CDF80490CDF80890002363602B692360C7
:104640002C6195F95430013385F85430331D05EB56
:1046500083035C6824F01F0464B3019B002BB7D074
:10466000636813F0800FBDD1E369C3F3123362684E
:10467000C2F30E429B1A029A13440293331D05EBB8
:1046800083035A6806F10C0305EB83035B689A42C7
:10469000ACD01268331D05EB83035A60636813F4D2
:1046A000004FB7D1331D05EB83035B6833F01F0365
:1046B000C2D1AFE705B0BDE8F0832DE9F04F87B078
:1046C00005464368D3F8AC61002E3AD16B68D3F845
:1046D000BC210192C3F8BC21002A40F03A8107B006
:1046E000BDE8F08F0134E4B2032CEFD80123A340DE
:1046F0003342F7D0AB686200D2B203EB821303F10E
:10470000300893F83070FF093A4621462846FFF7F3
:104710004DFF87F0010221462846FFF747FF8DF83D
:104720001440CDF80C800823049301238DF8153034
:1047300021462846FFF7E1FE03A92868FFF7CCFED3
:10474000D0E70024D0E7D8464FF00009B8F1030FB6
:1047500016D90BF1010B5FFA8BFBBBF11F0FBED813
:10476000012303FA0BF3019A1342F2D0BBF10F0FAE
:10477000E9D9ABF110085FFA88F84FF00109E5E7D5
:104780004FEA480A5FFA8AFACA445FFA8AFA0023B3
:1047900003930493984508BF4B468BB1AB684FEA2F
:1047A0008A1103EB8A1292F8382012F0020F07D018
:1047B0005A5812F0005F03D15A5842F000525A5032
:1047C00056460AF1040305EB83035C6824F01F04DA
:1047D000002CBED0331D05EB83035C6824F01F045E
:1047E0002346BBB15A6812F0800F07D15A6812F401
:1047F000004F03D11B6823F01F03F2E75A6812F041
:10480000800F40F084805A6812F4004F40F081809D
:10481000002200E0002282F00102002B14BF1346A8
:104820000023002B95D1002CD2D0636813F0800FA9
:10483000CED1039B002B6ED0E369C3F312336268C1
:10484000C2F30E429B1A049A13440493331D05EBE2
:1048500083035A6806F10C0305EB83035B689A42F5
:1048600063D01268331D05EB83035A60636813F449
:10487000004F06D1331D05EB83035B6833F01F0344
:104880000CD148EAC9138DF8143000278DF8157043
:1048900003A92868FFF720FE0397049700236360AD
:1048A0002B6923602C6195F95430013385F854301D
:1048B000331D05EB83035C6824F01F042246002CA3
:1048C000B1D0636813F0800FADD008EB091301215C
:1048D00001FA03F36968C1F8B0316868D0F8B8111B
:1048E0001942A0D1D0F8B0111942FBD1D0F8B811BB
:1048F000194298D1A96801EB8A118A60AA6802EB73
:104900008A120021D1606A68C2F8B0318BE70022B8
:1049100081E701227FE7A268A3F580531340A28BB1
:10492000C2F30B021343039386E7331D05EB8303A6
:1049300000225A6006F10C0305EB83035A60AB6852
:1049400003EB8A1301219960AB6803EB8A13DA60E9
:104950008CE74FF0000B00E710B584B00023019303
:1049600002938DF80D304368D3F8842112F4807FD0
:104970000BD10446D3F8843113F4007F07D002230F
:1049800080F8583094F856302BB904B010BD00238D
:1049900080F85830F6E710238DF80C3001A9206814
:1049A000FFF79AFD002384F85630EEE7F8B138B5EA
:1049B00005686B68D3F84441D3F848211440C3F824
:1049C000444114F0400F06D114F0010F07D114F048
:1049D000040F08D138BD2846FFF7B9FDF4E7284693
:1049E000FFF76BFEF3E72846FFF7B6FFF2E77047E5
:1049F00010B548B10C4601466CB122460B48FEF793
:104A00000BFE78B9204610BD094B0A4A40F26D11E1
:104A1000094800F051F8094B064A4FF4B7710648AF
:104A200000F04AF84FF0FF30EDE700BF200600200D
:104A300074700070F070007080700070E47000702E
:104A40002DE9F04106460C4690461F4600250BE036
:104A50003046FFF7CDFF00232360236806F803806C
:104A60002168013121600135BD4204DA21684B1C07
:104A70007F2BF2D9ECE7BDE8F08100000FB430B530
:104A8000A3B026AC54F8045B002101917C2202A85B
:104A900001F032FE2194074B01AA2146284600F07E
:104AA0008BF9014601A8FFF7A3FF23B0BDE8304012
:104AB00004B07047414A007000B583B00C461946F7
:104AC0000092234602460248FFF7D8FF00BEFDE7EA
:104AD000047100702DE9F04F83B09A469DF8303094
:104AE00001930446002304F8013BA446002A3BD06E
:104AF000D1E9004554EA050306D04FF0000BE0462B
:104B0000CDF800B0D1460DE0302343704FF0010BDB
:104B100026E030239B1B08F8013B009B01330093E8
:104B200004460D4654EA050318D04FEAE97B4A468D
:104B30005B4620462946FEF75FFA09FB01FC00FBB5
:104B40000BCCA9FB00236344A61A65EB0307002ED8
:104B500077F10003DDDB16F13003DCE7DDF800B0B0
:104B6000584603B0BDE8F08FD1E9004554EA05038B
:104B700003D066460092574611E0302343704FF051
:104B8000010BEDE7019B4BB3412313EB08030A3BF9
:104B900006F8013B009B0133009304460D4654EA9E
:104BA00005031DD04FEAE77B3A465B46204629467F
:104BB000FEF772FA07FB01FC00FB0BCCA7FB0023FE
:104BC0006344B4EB020865EB0309B9F1000F08BFB9
:104BD000B8F10A0FD6D218F13003D9E76123D4E730
:104BE000DDF800B0BCE700002DE9F04F2DED028BA1
:104BF00083B00646154699460446002304F8013B57
:104C0000D1E900AB0022002350465946FEF784F953
:104C100040B1302373700126304603B0BDEC028BE7
:104C2000BDE8F08F68464BEC10AB00F01DFC57EC74
:104C3000106B4FF000080CE02846FDF79BFE024683
:104C40000B4630463946FDF7FFFE06460F4608F193
:104C50000108C845F0D30022002350465946FEF70C
:104C600079F918B30022524B30463946FDF736FD2C
:104C700006460F464846FDF76DFE41EC110B9FEDD1
:104C80004A0B00F049FC51EC100B32463B46FEF754
:104C900057F938B10022474BDDE90001FDF71EFD51
:104CA000CDE900014FF0000AD0462FE00022404B32
:104CB00030463946FDF710FD06460F464846FDF7DB
:104CC00049FE41EC110B9FED380B00F025FC53EC35
:104CD000102B10EE100A03F1004132463B46FEF75E
:104CE00039F90028DED00022324BDDE90001FDF762
:104CF000F3FCCDE90001D5E7C3F1300304F8013B33
:104D00000AF1010A08F1010857EC186BC84524D2D2
:104D10002846FDF72FFE02460B4630463946FDF782
:104D2000BDFF02460B4643EC182BFEF7CDF9EB17FF
:104D300000FB03F305FB0133A0FB05011944FDF75C
:104D400055FE02460B4630463946FDF7C5FCFEF7D8
:104D50002BF9031ED0DB3033D0E727462E2307F88C
:104D6000013B0AF10106DDE90001FEF71DF90346EA
:104D700060B9302363700AF102064DE7C3F13003D6
:104D80003A4602F8013B013617460B46002B3FF42A
:104D900043AF93FBF5F105FB1133002BEEDB303312
:104DA000EEE700BFAFF300800000000000002440E9
:104DB0000000E03F0000F03F2DE9F04F97B00446BF
:104DC000059192469B4600270C9700220023CDE9CF
:104DD00008230297BDE245F00105144600293AD1A7
:104DE000621C6378203B102B33D801A050F823F0CD
:104DF0003B4E0070534E0070534E0070474E007093
:104E0000534E0070534E0070534E0070534E00705E
:104E1000534E0070534E0070534E0070354E00706C
:104E2000534E0070D74D0070534E0070534E0070BB
:104E3000414E007045F00205CFE745F00405CCE790
:104E400045F00805C9E745F01005C6E700252946E5
:104E5000C4E70121C2E70026B14602E02A2B11D0A7
:104E60008946B9F1000F13D1601C6378A3F13002B9
:104E7000092AF3D806EB860603EB4603A3F13006B6
:104E80000446EEE7059B1A1D05921E680446E8E7F6
:104E9000621C63782E2B69D00023039306230493AE
:104EA000631C6278682A68D06C2A71D023465C1C27
:104EB00093F80180B8F1690F18BFB8F1640F0CBF07
:104EC000012300236FD0B8F1460F14BF0022012246
:104ED000B8F1660F67D0002A65D1B8F1580F14BF3A
:104EE00000220122B8F1780F5DD0002A5BD1B8F121
:104EF000620F14BF00220122B8F16F0F53D0002AB5
:104F000051D1B8F1750F14BF00220122B8F1700F12
:104F100049D0002A47D1B8F1630F00F03A82B8F1C6
:104F2000730F00F03F82012342460CA95046D84738
:104F30000EE22A2B12D04C46E4B902F1010C537850
:104F4000A3F130000928F4D801EB810103EB410300
:104F5000A3F13001624601230393EDE7059B1A1D7F
:104F600005921968624601230393E5E700210C4688
:104F70000391E1E70491144692E7A11CA278682A04
:104F800002D045F0400592E745F020050B468EE73C
:104F9000A11CA2786C2A02D045F0800587E745F471
:104FA00080750B4683E7002B52D015F4807F24D008
:104FB000059B073323F0070303F108020592D3E9A9
:104FC0000023CDE90A23012200920A230AA90DA891
:104FD000FFF780FD014602900DAB1F18DDE90A23A3
:104FE000002A73F1000310DB15F0020F77D0029B4B
:104FF000013302932B2303930BE0059B1A1D0592AB
:105000001A68D317CDE90A23DDE7013102912D2378
:10501000039315F0080F6ED0039A1AB101230CA95F
:105020005046D847029BF31A30220DEB020150463E
:10503000D84702964A4603990B1E18BF0123002A3F
:1050400018BF002323B101230A460CA95046D847B4
:10505000B8F1460F18BFB8F1660F61D0B8F1780FFC
:1050600018BFB8F1580F0CBF01230023039340F081
:105070001B81B8F1780F00F0BF8015F4807F00F03D
:10508000BE80059B073323F0070303F10802059256
:10509000D3E90023CDE90823039B009310230022CA
:1050A00008A90DA8FFF716FD02900DAA171815F014
:1050B000080F00F0CF8015F0100F00F0AA80012338
:1050C00030220DEB02015046D847039B002B00F025
:1050D0009E80582201230CA95046D8479BE015F02A
:1050E000040F05D0029B013302932023039390E722
:1050F000002303938DE715F0010F0DD1029BF31AE6
:1051000020220CA95046D847039A3AB101230CA992
:105110005046D8474A468EE700228CE74A468AE73F
:10512000059B073323F0070303F108020592D3E937
:105130000023CDE90623049B0A2206A90DA8FFF748
:1051400053FD0DAA0290171800220023DDE9060185
:10515000FDF7ECFE40B915F0020F2CD0029B013395
:1051600002932B23039304E0029B013302932D232C
:10517000039315F0080F2AD0039A1AB101230CA942
:105180005046D847029BF31A30220DEB02015046DD
:10519000D84702964A4603990B1E18BF0123002ADE
:1051A00018BF0023002B3FF459AF01230A460CA976
:1051B0005046D84752E715F0040F05D0029B013343
:1051C000029320230393D4E700230393D1E715F040
:1051D000010F0DD1029BF31A20220CA95046D8478B
:1051E000039A3AB101230CA95046D8474A46D2E760
:1051F0000022D0E74A46CEE7002303933DE7059B14
:105200001A1D05921B6808930023099344E778222E
:1052100060E74FF00009029BF31A30220DEB020108
:105220005046D847029615F0100F3FD0B9F1000F45
:105230003CD1012330220DEB02015046D847039B9D
:1052400083B3582201230CA95046D847029B02334E
:1052500002932BE015F0010F1ED115F010030493FB
:1052600002D0029B02330293029BF31A20220CA964
:105270005046D847049B93B1012330220DEB020125
:105280005046D847039B2BB1582201230CA9504606
:10529000D847C8E77822F8E74FF00009C3E74FF096
:1052A0000009C0E77822CDE701230393B8F1620F2C
:1052B00018BFB8F16F0F09D0B8F1750F14BF0023F4
:1052C0000123B8F1700F01D0002B37D015F4807F87
:1052D00015D0059B073323F0070303F1080205925D
:1052E000D3E90023CDE90823B8F16F0F11D0B8F14D
:1052F000620F39D0B8F1700F09D00A230AE0059B7C
:105300001A1D05921B68089300230993ECE71023EC
:1053100000E00823039A0092002208A90DA8FFF7D5
:10532000D9FB02900DAA171815F0080F1ED0331ADA
:1053300030220DEB02015046D84702962FBB15F0E4
:10534000010F05D0029BF31A20220CA95046D84722
:1053500001342278002A6AD0252A3FF477AD012350
:105360000CA95046D847F3E70223D3E715F0010F05
:10537000E4D1029BF31A20220CA95046D847DDE75E
:10538000013F01230CA95046D8473A78002AF7D1AB
:10539000D5E7059A131D0593012312780CA95046F1
:1053A000D847D5E7059B1A1D0592D3F80080B8F1C0
:1053B000000FCDD0039B7BB1049B029315F0010538
:1053C00005D1029BF31A20220CA95046D847039B13
:1053D00043B3DDF808900CE04046FEF731F8029048
:1053E000ECE708F1010801230CA95046D84709F160
:1053F000FF3998F8002012B1B9F1000FF1DC4A46EC
:10540000049B9B1A0293002DA2D0029BF31A202228
:105410000CA95046D8479BE708F1010801230CA9C5
:105420005046D84798F80020002AF5D1EBE70C98B1
:1054300017B0BDE8F08F00BFFEE7FEE7FEE7FEE72E
:10544000FEE7FEE7FEE7FEE708B5024B1868FFF748
:10545000ADFA08BD2806002008B5024B1868FFF712
:10546000A5FA08BD280600202DE9F84355EC104B9D
:10547000C5F30A52A2F2FF33132B064619DC002BA8
:1054800041DB244A42FA03F305EA030252EA04002C
:1054900023D04FF0000825EA030942464B46C6E9EF
:1054A000002320462946FDF717F941EC100BBDE813
:1054B000F883332B1ADCA2F213424FF0FF3323FAA6
:1054C00002F212EA04071AD105F000433A4686EDCB
:1054D000000B43EC102BBDE8F88305F000430246B7
:1054E00086ED000B43EC102BBDE8F883002205F09D
:1054F000004386ED000B43EC102BBDE8F883A94672
:1055000024EA0208C9E7002205F00043C6E90023A7
:10551000BDE8F883FFFF0F00F8B52DED028B57ECC7
:10552000106B55EC114B00F0CBF8634BB0EE408A9A
:10553000F0EE608A93F9003001332AD022462B46E0
:1055400020462946FDF71AFD18BB32463B46304639
:105550003946FDF713FD002844D1002200233046D0
:105560003946FDF7D9FCD8B1002200232046294650
:10557000FDF7D2FC00283DD145EC104B00F048FF70
:1055800038B12046294600220023FDF7CFFC002831
:105590005CD1B0EE480AF0EE680ABDEC028BF8BDB3
:1055A000B0EE480AF0EE680A00F032FF58B351EC52
:1055B000180B00220023FDF7AFFC0028E9D047ECD0
:1055C000106B00F025FF0028E3D045EC104B00F0F5
:1055D0001FFF0028DDD001F055F822239FED2E8B10
:1055E0000360D6E72046294600220023FDF794FCFD
:1055F0000028CED09FED2A8BB0EE480AF0EE680A64
:10560000BDEC028BF8BD47EC106B00F001FF0028E9
:10561000CDD045EC104B00F0FBFE0028C7D053EC7A
:10562000182B18EE100A1946FDF7A8FC20BB01F054
:1056300029F8034622221A60304639460022002308
:10564000FDF774FC48B99FED188BA2E701F01AF83A
:1056500021239FED178B03609BE745EC104B00F077
:10566000EBFE224651EC100B2B46FDF755FC0028B3
:10567000E9D19FED0F8B8CE701F004F800220023A5
:105680002121016010461946FDF708FB41EC180B7B
:105690007FE700BFAFF300800000000000000000C3
:1056A000000000000000F03F000000000000F07F5C
:1056B000000000000000F0FF0000002000000000DB
:1056C0002DE9F04F57EC116B2DED0A8B27F0004AB6
:1056D0005AEA060289B03DD055EC104B764925F0C8
:1056E0000048884510EE102AA9462CDC11EE103A2D
:1056F000BB463AD08A4526DC6F498A4521D0B9F1AC
:10570000000F3DDB00210391002B55D16A4B9A45D8
:1057100000F0A880694B9A4500F0B680BBF1804F3D
:1057200000F00185664B9B4546D1B9F1000F43DB84
:1057300045EC104B09B0BDEC0A8BBDE8F04F00F012
:1057400099BD002BDBD008F1404808F5801858EAD5
:1057500002030DD19FED547B8DED007B9DED000B81
:1057600009B0BDEC0A8BBDE8F08F0CB9C245C3DDB2
:10577000544809B0BDEC0A8BBDE8F04F00F054BEB0
:1057800051498A4500F38780A1F154718A450FDDA4
:105790004FEA2A51A1F2FF31142940F3CE84C1F11E
:1057A000340123FA01F000FA01F1994200F020855A
:1057B00000210391002BADD045EC104B069200F078
:1057C0001DFE069A8DED000B5ABBB8F1000F04D0F8
:1057D0003A4B29F040429A4223D1BBF1000F07DA3D
:1057E000DDE9002335490020FDF758FACDE9000135
:1057F000B9F1000FB2DA039B08F1404808F58018B0
:1058000058EA030340F0BE84DDE900231046194640
:10581000FCF762FF02460B46FDF740FACDE90001B6
:105820009CE7039A4FEAD973013B0693134335D0A3
:10583000264B9A454EDD03F104739A45244B40F301
:10584000ED83984540F36B83BBF1000F40F36B830E
:1058500017A3D3E9002310461946FDF7F5F8CDE963
:1058600000017BE708F1404303F5801313433FF445
:1058700071AF174B984540F38883BBF1000FC0F21E
:105880005283CDE9006769E7BBF1000FC0F24184A4
:10589000CDE9004562E70221039135E722462B4618
:1058A000B4E700BFAFF30080000000000000F03F4D
:1058B0009C7500883CE4377E0000F07F0000F03FDC
:1058C0000000E03F286B0070FFFF3F430000E04115
:1058D000FFFFEF3FE44B09EA0303002B40F016847F
:1058E000DDE90001E14B0022FDF7AEF8CDE9000152
:1058F000DDF804806FF034004FEA2853DC49C8F328
:105900001302A3F2FF3342F07F5818188A4207901F
:1059100048F4401840F3E983D64B9A4240F33E8462
:105920009FEDBB7BB0EE47BAF0EE67BAB0EE47CA68
:10593000F0EE67CA9FEDB87B013054EC173B07903F
:10594000A8F580184FF00009DDE900AB44EC183BE6
:105950001A46504623464146FCF7BEFE53EC182B30
:1059600004460D4650464146FCF7B8FE02460B463B
:105970000020C149FDF792F945EC1A4B41EC190B97
:1059800051EC1A0B53EC192BFDF75EF8C3464FEAA6
:10599000680848F0005808F5002303EB09050A469B
:1059A00000230146CDE900120093DDE900890024BF
:1059B000CDE904122B46224640464946FDF744F8FD
:1059C00002460B4651EC1A0BFCF786FE41EC170B16
:1059D00053EC182B2046294655EC174BFCF77CFE60
:1059E00002460B4650465946FCF776FE42464B4669
:1059F000FDF72AF802460B4620462946FCF76CFEC6
:105A000053EC192BFDF720F8DDE904AB04460D46F5
:105A100052465B4650465946FDF716F880A3D3E937
:105A2000002345EC1A4B04460D46FDF70DF87EA306
:105A3000D3E90023FCF752FE22462B46FDF704F87B
:105A40007BA3D3E90023FCF749FE22462B46FCF753
:105A5000FBFF79A3D3E90023FCF740FE22462B4647
:105A6000FCF7F2FF76A3D3E90023FCF737FE2246CA
:105A70002B46FCF7E9FF74A3D3E90023FCF72EFEC5
:105A800022462B4604460D4610461946FCF7DCFF1D
:105A900002460B4620462946FCF7D6FF42460446FE
:105AA0000D464B4650465946CDE904ABFCF716FE71
:105AB00053EC1A2BFCF7C8FF22462B46FCF70EFED0
:105AC000424604460D464B4640464946FCF7BCFF5D
:105AD00045EC194B694B002282468B46FCF7FEFDD4
:105AE00053EC192BFCF7FAFD009C0D4622462B4681
:105AF00040464946FCF7A8FF604B80468946002295
:105B000020462946FCF7E8FD52465B46FCF7E4FDDB
:105B100002460B4651EC190BFCF7DEFDDDE90423D0
:105B2000FCF792FF49EC188B2246804689462B46AB
:105B300051EC1A0BFCF788FF02460B4640464946DB
:105B4000FCF7CCFD82468B4652465B4651EC180B67
:105B5000FCF7C4FD009C3EA3D3E9002320460D467C
:105B6000FCF772FF53EC182B8046894620462946E5
:105B7000FCF7B2FD02460B4650465946FCF7ACFD19
:105B800035A3D3E90023FCF75FFF49EC198B34A35D
:105B9000D3E900238046894620462946FCF754FF76
:105BA00002460B4640464946FCF798FD53EC1C2B39
:105BB000FCF794FD824607988B46FCF7DBFE5246C5
:105BC000804689465B4651EC190BFCF787FD53EC88
:105BD0001B2BFCF783FD42464B46FCF77FFD009CE8
:105BE00042464B4620460D46FCF776FD53EC1B2BF8
:105BF000FCF772FD53EC192BFCF76EFD02460B46C9
:105C000050465946FCF768FD82468B4638E000BF97
:105C10000000000000000000000000000000F03F55
:105C2000EF4E454A287ECA3F65DBC9934A86CD3F81
:105C300001411DA96074D13F4D268F515555D53F67
:105C4000FFAB6FDBB66DDB3F033333333333E33FFF
:105C5000000000E009C7EE3FFD033ADC09C7EE3F54
:105C6000F5015B14E02F3EBE0000F07F00004043D2
:105C70008E98030079B60B000000F03F000008404A
:105C8000039B069A013B134340F078819FEDC47B50
:105C9000B0EE479AF0EE679A0023CDE900670093D3
:105CA000DDE900893046424639464B46FCF714FD93
:105CB00022462B46FCF7C8FE32463B4606460F46B8
:105CC00050465946FCF7C0FE02460B463046394660
:105CD000FCF704FD424682468B464B462046294649
:105CE000FCF7B2FE06460F463B4650465946324642
:105CF000FCF7F4FCC44B994204460D46884640F339
:105D0000178101F13F4303F5E003034340F02A828A
:105D1000A5A3D3E9002350465946FCF7DFFC3246E1
:105D200041EC180B3B4620462946FCF7D5FC0246C1
:105D30000B4651EC180BFDF717F9002840F01282C2
:105D4000C8F30A534FF48012A3F2FE3342FA03F36E
:105D50004344AE49C3F30A52A2F2FF3241FA02FCB5
:105D6000C3F3130523EA0C01C2F1140445F48015B2
:105D7000B8F1000F0B4645FA04F103914FF0000013
:105D8000B8BF49420246B8BF039130463946FCF7D6
:105D9000A3FC06460F463B46504659463246FCF7A2
:105DA0009DFC039B1B0500930D46002480A3D3E9B3
:105DB000002320462946FCF747FE324680468946A6
:105DC0003B4620462946FCF787FC02460B465046D8
:105DD0005946FCF781FC78A3D3E90023FCF734FE95
:105DE00077A3D3E9002306460F4620462946FCF751
:105DF0002BFE02460B4630463946FCF76FFC064642
:105E00000F4632463B4640464946FCF767FC424651
:105E10004B4604460D46FCF75FFC02460B463046F7
:105E20003946FCF759FC224682468B462B462046D3
:105E30002946FCF709FE64A3D3E9002306460F4672
:105E4000FCF702FE62A3D3E90023FCF745FC3246CF
:105E50003B46FCF7F9FD60A3D3E90023FCF73EFCC9
:105E600032463B46FCF7F0FD5DA3D3E90023FCF787
:105E700033FC32463B46FCF7E7FD5BA3D3E9002346
:105E8000FCF72CFC32463B46FCF7DEFD02460B4697
:105E900020462946FCF720FC06460F4632463B4684
:105EA00020462946FCF7D0FD0022804689464FF067
:105EB000804330463946FCF70FFC02460B4640460D
:105EC0004946FCF7EBFE524606460F465B46204627
:105ED0002946FCF7B9FD52465B46FCF7FFFB02463C
:105EE0000B4630463946FCF7F7FB22462B46FCF7BB
:105EF000F3FB02460B4600204549FCF7EDFB0B4641
:105F000000991944B1F5801F0246C0F2698110461C
:105F100053EC192BFCF798FDCDE900011EE4BBF111
:105F2000000FFFF695AC9FED327B8DED007B15E405
:105F3000DFF8E4C021F00043634540F30B81354BAB
:105F40000B4403430AD132463B46FCF7C5FB52469D
:105F50005B46FCF7FFFF00283FF4F2AE26A3D3E92F
:105F6000002351EC190BFCF76FFD23A3D3E90023A9
:105F7000FCF76AFDCDE90001FFF7F0BB9FED207B48
:105F8000B0EE479AF0EE679A86E6BBF1000FCADAE8
:105F900007F1004300960193FFF7E0BBAFF30080E9
:105FA000000000000000F0BFFE822B654715973C03
:105FB00000000000432EE63FEF39FAFE422EE63F96
:105FC000396CA80C615C20BED0A4BE726937663EF5
:105FD000F16BD2C541BDBB3E2CDE25AF6A56113FE9
:105FE00093BDBE166CC1663F3E5555555555C53FD0
:105FF000000000000000000059F3F8C21F6EA50168
:10600000000000000000F03FFFFF8F40FFFF0F0087
:106010000000F03F00346F3FFFCB90409845FFF603
:106020007EAF914B98453FF70FAC8F4B0022DDE9D7
:106030000001FCF751FB78A3D3E9002304460D4689
:10604000FCF702FD76A3D3E9002382468B46204667
:106050002946FCF7F9FC854B8046894600222046FC
:106060002946FCF7F1FC02460B466FA1D1E900017D
:10607000FCF732FB22462B46FCF7E6FC02460B46B9
:1060800000207B49FCF728FB22462B4604460D46A0
:1060900010461946FCF7D8FC02460B462046294616
:1060A000FCF7D2FC62A3D3E90023FCF7CDFC024647
:1060B0000B4640464946FCF70FFB80468946504652
:1060C000594642464B46FCF709FB002452465B46C4
:1060D00020460D46FCF700FB02460B46404649466B
:1060E000FCF7FAFA82468B46CAE59FED537BB0EE89
:1060F00047BAF0EE67BAB0EE47CAF0EE67CA9FED56
:10610000507B4FF0000954EC173B1DE40020FFF7D3
:10611000F3BB554922462B460020FCF7BFFDCDE9D5
:106120000001FFF71BBB22462B4620462946FCF701
:106130008BFCCDE90001FFF711BB002B42D1C1F16F
:1061400014014AFA01F000FA01F151455AD00393C3
:10615000FFF7E0BA464A93425BDCDDE900120091AA
:10616000039122E638A3D3E9002351EC190BFCF785
:106170006BFC35A3D3E90023FCF766FCCDE90001F5
:10618000FFF7ECBA039B012B7FF4E8AADDE90021BD
:1061900001F10043CDE90023FFF7E0BA9FED2C7B2E
:1061A000B0EE47BAF0EE67BA9FED2B7BB0EE47CA70
:1061B000F0EE67CA9FED2A7B4FF4802954EC173B21
:1061C000FFF7C2BB45EC104B039200F017F9039A9E
:1061D0008DED000B002A7FF461AB0392FFF7F5BA57
:1061E000039843EC102B00F0BBF951EC100B8FE639
:1061F00000F00100C0F102010391002B3FF48AAAD4
:10620000FFF7DABA00F00100C0F102030393FFF7D1
:1062100081BA1B1596E500BF000000604715F73FE7
:1062200044DF5DF80BAE543E555555555555D53F99
:10623000FE822B654715F73F0000000000000000BC
:10624000000000000000F03F9C7500883CE4377EB1
:106250000000004003B8E23F06D0CF43EBFD4C3EC8
:10626000000000000000F83F0000F03F0000D03FB9
:106270000000E03F2DE9F0415F4A57EC106BBA4354
:1062800000F09880002F10EE104A3B464EDD391585
:106290005BD0C3F31303CA0743F48013A1F2FF3E9C
:1062A00003D45B0003EBD4736400E20F4FF0000CE7
:1062B00002EB43034FEA6E0E6400664616254FF468
:1062C0000012B118994202DC5B1A8E1894445B00EC
:1062D000013D03EBD4734FEA52024FEA4404F0D17C
:1062E0002F4620204FF0004209E03ED0E10F013858
:1062F0004FEA520201EB43034FEA44043ED0B3425B
:1063000002EB0501F1DD002901EB020509DBB046D6
:106310009B1BA14288BF03F1FF33641A1744464612
:10632000E4E7002DF3DB06F10108F1E727F0004276
:10633000324336D0002F4DD13946E20A1539640573
:106340001346002AF9D0D70251D400205B00DE02A8
:10635000054600F10100F9D51A4623468440C0F1F4
:106360002000C3401343491B93E7A142BED8002934
:1063700001EB0205D5DB98460023CEE7234312D17B
:1063800078084FEA6C0101F17F511CF0010F01F513
:10639000001118BF40F0004001EB0E53024643ECE1
:1063A000102BBDE8F0817B1C16BF781C0CF1010C92
:1063B0004008E6E710EE102A10EE100A3B46394678
:1063C000FCF742FB32463B46FCF788F941EC100BE8
:1063D000BDE8F08110EE102A30463946FCF77CF912
:1063E00002460B46FCF75AFC41EC100BD9E723465A
:1063F00020204FF0FF35B4E70000F07F51EC100B88
:1064000010EE102A21F0004343EC102B704700BF20
:1064100082B08DED000B019840F0004000F5801037
:10642000C00F02B0704700BF9FED010B704700BF67
:10643000000000000000F87FF0B553EC102BC3F310
:106440000A56A6F2FF30132810EE105A83B01946F0
:106450004FEAD37431DC00284CDB3E4E064103EAA0
:10646000060717432ED003EA56031D434FEA56068C
:106470000CD04FF48023132821EA060643FA00F1DA
:1064800041EA06010CBF4FF000450025324800EB01
:10649000C4042A46D4E900450B4620462946FCF7A9
:1064A0001DF9CDE90001DDE9000122462B46FCF78C
:1064B00013F941EC100B03B0F0BD332806DDB0F545
:1064C000806F40D043EC102B03B0F0BDA6F2134612
:1064D0004FF0FF30F0400242F4D015EA50024FEA8C
:1064E0005003D3D04FF0804225EA030542FA06F666
:1064F0003543CBE723F000401043E3D0C3F3130050
:10650000104345420543144800EBC400D0E900673E
:10651000590C2D0B490405F4002545EA01033046CA
:106520003946FCF7DBF8CDE900013B46DDE9000127
:106530003246FCF7D1F821F0004343EAC47141EC44
:10654000100B03B0F0BD10EE100AFCF7C7F841ECD9
:10655000100BB9E7FFFF0F0048710070000000004A
:1065600038B553EC102BC3F30A511C46054681BBCA
:1065700010EE101A23F00044214329D019460022BE
:106580003D4B3E4C10EE100AFCF75EFAA542024667
:106590000B4616DB0C46C1F30A513639294440F24A
:1065A000FE70814221DC002947DC11F1350F34DA1D
:1065B0004CF250318D4218DC002B27A1D1E90001AB
:1065C00044DB25A3D3E90023FCF73EFA41EC100B92
:1065D00038BD40F2FF708142E0D110EE100A19463A
:1065E000FCF77CF841EC100B38BD002B1CA1D1E965
:1065F000000107DB1AA3D3E90023FCF725FA41ECDD
:10660000100B38BD18A1D1E9000115A3D3E900236F
:10661000FCF71AFA41EC100BF3E724F0FF4424F4E2
:10662000E004363144EA0153104619460022144B67
:10663000FCF70AFA41EC100B38BD24F0FF4424F4B7
:10664000E00444EA015343EC102B38BD08A1D1E922
:106650000001B6E7AFF3008059F3F8C21F6EA50141
:106660009C7500883CE4377E9C7500883CE437FECE
:1066700059F3F8C21F6EA58100005043B03CFFFFE4
:106680000000903C014B1868704700BF04000020D8
:1066900008B50021044600F089F8044B1868C36B64
:1066A00003B19847204600F065FD00BF58710070A7
:1066B00070B50D4E0D4D761BB61006D0002455F862
:1066C000043B01349847A642F9D1094E094D761B87
:1066D00000F044FDB61006D0002455F8043B013408
:1066E0009847A642F9D170BD7C7100707C71007032
:1066F000847100707C710070F0B4860746D0541E1F
:10670000002A3CD0CAB2034601E0013C37D303F86B
:10671000012B9D07F9D1032C2AD9CDB245EA0525D5
:106720000F2C45EA054534D9A4F1100222F00F0CD4
:1067300003F120071609674403F1100242E90455EA
:1067400042E902551032BA42F8D1721C14F00C0F13
:1067500003EB021204F00F0613D0331F23F00303E0
:106760000433134442F8045B9342FBD106F0030464
:106770002CB1CAB21C4403F8012B9C42FBD1F0BCE3
:10678000704734461346002CF3D1F8E7144603460D
:10679000C1E71A462646E0E7024B13B1024800F073
:1067A0006BB8704700000000856800702DE9F84F55
:1067B0002F4B2DED028B834618680F4600F078F8BA
:1067C0002C4BD3F80080D8F84861AEB108EE10BA6F
:1067D0004FF001094FF0000A7468651E0CD40134B3
:1067E00006EB840487B1D4F80031BB420CD0013DE4
:1067F0006B1CA4F10404F5D1BDEC028B1C4B186892
:10680000BDE8F84F00F056B873682268013BAB4210
:106810000CBF7560C4F800A0002AE8D0D6F8880143
:10682000D6F804B009FA05F101420BD1904772681D
:106830005A4513D1D8F84831B342D8D01E46002E5D
:10684000CAD1D9E7D6F88C0101420CD1D4F8801016
:1068500018EE100A904772685A45EBD0D8F8486194
:10686000002EB9D1C8E7D4F880009047DFE700BF19
:106870003004002058710070002301461A46184663
:1068800000F01AB838B5084B084D5B1B9C1007D0B8
:10689000043B1D44013C55F804399847002CF9D1BC
:1068A000BDE8384000F060BC8871007084710070F1
:1068B000704700BF704700BF2DE9F047DFF880A0A8
:1068C0000646DAF8000098460F469146FFF7F0FFBB
:1068D0001A4B1B68D3F8484124B365681F2D26DC8A
:1068E0005EB9AB1C0135DAF80000656044F823702E
:1068F000FFF7E0FF0020BDE8F08704EB85030121EE
:10690000C3F88890D4F88821A9400A43022EC4F81D
:106910008821C3F80881E4D1D4F88C311943C4F834
:106920008C11DEE703F5A674C3F84841D5E7DAF821
:106930000000FFF7BFFF4FF0FF30DCE75871007039
:1069400030040020777269746548616E646C65007C
:10695000443A5C467265657363616C655F56697342
:10696000696F6E5F47726F75705F31365C5254317C
:106970003036345F434C696F6E5C6E78705F6C6963
:10698000627261726965735C636F6D706F6E656E64
:1069900074735C73657269616C5F6D616E6167656C
:1069A000725C73657269616C5F6D616E616765725F
:1069B0002E63000062756666657200006C656E6726
:1069C0007468000068616E646C65000053657269EC
:1069D000616C4D616E616765725F577269746500C5
:1069E00073657269616C436F6E66696700000000D1
:1069F000443A5C467265657363616C655F566973A2
:106A0000696F6E5F47726F75705F31365C525431DB
:106A10003036345F434C696F6E5C6E78705F6C69C2
:106A2000627261726965735C636F6D706F6E656EC3
:106A300074735C73657269616C5F6D616E616765CB
:106A4000725C73657269616C5F706F72745F75619F
:106A500072742E630000000073657269616C486196
:106A60006E646C650000000053657269616C5F556F
:106A7000617274577269746500000000443A5C46A4
:106A80007265657363616C655F566973696F6E5F8C
:106A900047726F75705F31365C5254313036345FF7
:106AA000434C696F6E5C6E78705F6C696272617284
:106AB0006965735C636F6D706F6E656E74735C7522
:106AC0006172745C6C70756172745F616461707422
:106AD00065722E6300000000636F6E6669670000D8
:106AE000636F6E6669672D3E696E7374616E636570
:106AF000203C202873697A656F6628735F4C707537
:106B000061727441646170746572426173652920B9
:106B10002F2073697A656F66284C50554152545F37
:106B200054797065202A292900000000735F4C7099
:106B30007561727441646170746572426173655B02
:106B4000636F6E6669672D3E696E7374616E63650F
:106B50005D000000646174610000000048414C5F0A
:106B60005561727453656E64426C6F636B696E67D6
:106B700000000000000000000040184000801840A5
:106B800000C0184000001940004019400080194022
:106B900000C0194000001A40696E7374616E63652D
:106BA000203C2041525241595F53495A4528735F56
:106BB00065646D614261736573290000443A5C4607
:106BC0007265657363616C655F566973696F6E5F4B
:106BD00047726F75705F31365C5254313036345FB6
:106BE000434C696F6E5C6E78705F6C696272617243
:106BF0006965735C6472697665735C66736C5F6506
:106C0000646D612E630000006368616E6E656C20C8
:106C10003C2046534C5F464541545552455F4544E0
:106C20004D415F4D4F44554C455F4348414E4E45A5
:106C30004C00000074636420213D204E554C4C00F4
:106C4000282875696E7433325F7429746364202652
:106C500020307831465529203D3D2030000000008D
:106C600068616E646C6520213D204E554C4C0000DF
:106C700045444D415F4765744368616E6E656C5372
:106C80007461747573466C616773000045444D41CF
:106C90005F48616E646C654952510000443A5C463D
:106CA0007265657363616C655F566973696F6E5F6A
:106CB00047726F75705F31365C5254313036345FD5
:106CC000434C696F6E5C6E78705F6C696272617262
:106CD0006965735C6472697665735C66736C5F6525
:106CE0006E65742E63000000627566666572436FA0
:106CF0006E66696700000000696E7374616E63659B
:106D0000203C2041525241595F53495A4528735FF4
:106D1000656E65744261736573290000454E455484
:106D20005F476574496E7374616E636500000000AF
:106D300000802D400000000000402D4021286261AD
:106D400073652D3E4D435220262043414E5F4D43F7
:106D5000525F4D4449535F4D41534B2900000000A1
:106D6000443A5C467265657363616C655F5669732E
:106D7000696F6E5F47726F75705F31365C52543168
:106D80003036345F434C696F6E5C6E78705F6C694F
:106D9000627261726965735C6472697665735C6660
:106DA000736C5F666C657863616E2E630000000033
:106DB000735F666C657863616E48616E646C655B79
:106DC000315D0000735F666C657863616E48616E6B
:106DD000646C655B325D0000735F666C657863614F
:106DE0006E48616E646C655B335D000043414E31FB
:106DF0005F44726976657249525148616E646C6590
:106E00007200000043414E325F44726976657249F8
:106E1000525148616E646C657200000043414E330C
:106E20005F44726976657249525148616E646C655F
:106E3000720000007478446174610000443A5C465A
:106E40007265657363616C655F566973696F6E5FC8
:106E500047726F75705F31365C5254313036345F33
:106E6000434C696F6E5C6E78705F6C6962726172C0
:106E70006965735C6472697665735C66736C5F6C7C
:106E8000707370692E63000066616C7365000000AA
:106E9000735F6C7073706948616E646C655B315DC3
:106EA00000000000735F6C7073706948616E646C01
:106EB000655B325D00000000735F6C707370694841
:106EC000616E646C655B335D00000000735F6C7025
:106ED00073706948616E646C655B345D000000002E
:106EE0004C50535049315F44726976657249525132
:106EF00048616E646C6572004C50535049325F4477
:106F0000726976657249525148616E646C657200AF
:106F10004C50535049335F447269766572495251FF
:106F200048616E646C6572004C50535049345F4444
:106F3000726976657249525148616E646C6572007F
:106F4000443A5C467265657363616C655F5669734C
:106F5000696F6E5F47726F75705F31365C52543186
:106F60003036345F434C696F6E5C6E78705F6C696D
:106F7000627261726965735C6472697665735C667E
:106F8000736C5F6C70756172742E63004C50554168
:106F900052545F5772697465426C6F636B696E67B8
:106FA00000000000696E7374616E6365203C2041CF
:106FB000525241595F53495A4528735F7361694280
:106FC0006173657329000000443A5C46726565731D
:106FD00063616C655F566973696F6E5F47726F7549
:106FE000705F31365C5254313036345F434C696FD8
:106FF0006E5C6E78705F6C69627261726965735CF9
:107000006472697665735C66736C5F7361692E6325
:1070100000000000735F73616948616E646C655BBA
:10702000335D5B305D000000735F73616948616EC2
:10703000646C655B335D5B315D0000005341493337
:107040005F54585F44726976657249525148616E67
:10705000646C657200000000534149335F52585F11
:1070600044726976657249525148616E646C65720A
:10707000000000004E554C4C20213D20636800006C
:10708000443A5C467265657363616C655F5669730B
:10709000696F6E5F47726F75705F31365C52543145
:1070A0003036345F434C696F6E5C6E78705F6C692C
:1070B000627261726965735C7574696C6974696523
:1070C000735C64656275675F636F6E736F6C655C3C
:1070D00066736C5F64656275675F636F6E736F6C18
:1070E000652E63003020213D2073697A6500000021
:1070F000446267436F6E736F6C655F53656E644483
:1071000061746100415353455254204552524F52CD
:10711000202220257320223A2066696C65202225D2
:107120007322204C696E6520222564222066756ECC
:107130006374696F6E206E616D6520222573222055
:107140000A000000000000000000000000003043C2
:1071500000000000000030C308000020F8B500BFA8
:10716000F8BC08BC9E467047F8B500BFF8BC08BC28
:047170009E46704780
:08717400CCB2FF7F0100000016
:08717C009967007025240070E2
:047184000124007072
:10718800FF0000000800002000000000F4020020BA
:107198005C030020C4030020000000000000000081
:1071A80000000000000000000000000000000000D7
:1071B80000000000000000000000000000000000C7
:1071C80000000000000000000000000000000000B7
:1071D80000000000000000000000000000000000A7
:1071E8000000000000000000000000000000000097
:1071F8000000000000000000000000000000000087
:107208000000000000000000000000000000000076
:107218000000000000000000000000000000000066
:107228000000000000000000000000000000000056
:1072380001000000000000000E33CDAB34126DE6F3
:10724800ECDE05000B00000000000000000000005C
:107258000000000000000000000000000000000026
:107268000000000000000000000000000000000016
:107278000000000000000000000000000000000006
:1072880000000000000000000000000000000000F6
:0475B8003806002071
:04000005700024BDA6
:00000001FF
