:0200000470008A
:10000000464346420004015600000000010303007D
:1000100000000000000000000000000000000000E0
:1000200000000000000000000000000000000000D0
:1000300000000000000000000000000000000000C0
:1000400000000000000408000000000000000000A4
:100050000000400000000000000000000000000060
:100060000000000000000000000000000000000090
:100070000000000000000000000000000000000080
:10008000EB04180A063204260000000000000000FD
:100090000000000000000000000000000000000060
:1000A0000000000000000000000000000000000050
:1000B0000000000000000000000000000000000040
:1000C0000000000000000000000000000000000030
:1000D0000000000000000000000000000000000020
:1000E0000000000000000000000000000000000010
:1000F0000000000000000000000000000000000000
:1001000000000000000000000000000000000000EF
:1001100000000000000000000000000000000000DF
:1001200000000000000000000000000000000000CF
:1001300000000000000000000000000000000000BF
:1001400000000000000000000000000000000000AF
:10015000000000000000000000000000000000009F
:10016000000000000000000000000000000000008F
:10017000000000000000000000000000000000007F
:10018000000000000000000000000000000000006F
:10019000000000000000000000000000000000005F
:1001A000000000000000000000000000000000004F
:1001B000000000000000000000000000000000003F
:1001C000000100000010000000000000000000001E
:1001D000000001000000000000000000000000001E
:1001E000000000000000000000000000000000000F
:1001F00000000000000000000000000000000000FF
:10100000D10020410020007000000000301000706E
:1010100020100070001000700000000000000000B0
:10102000000000700000400000000000FFFFFFFF14
:10103000D2043041CC03AC04400FC068FFFFFFFF77
:10104000400FC06CFFFFFFFF400FC070FFFFFFFFAE
:10105000400FC074FFFFFFFF400FC078FFFFFFFF8E
:10106000400FC07CFFFFFFFF400FC080FFFFFFFF6E
:10107000400D803000002001400D8100001D000067
:10108000400FC01400010D40401F801400000000FC
:10109000401F801800000000401F801C000000005E
:1010A000401F802000000000401F8024000000003E
:1010B000401F802800000000401F802C000000001E
:1010C000401F803000000000401F803400000000FE
:1010D000401F803800000000401F803C00000000DE
:1010E000401F804000000000401F804400000000BE
:1010F000401F804800000000401F804C000000009E
:10110000401F805000000000401F8054000000007D
:10111000401F805800000000401F805C000000005D
:10112000401F806000000000401F8064000000003D
:10113000401F806800000000401F806C000000001D
:10114000401F807000000000401F807400000000FD
:10115000401F807800000000401F807C00000000DD
:10116000401F808000000000401F808400000000BD
:10117000401F808800000000401F808C000000009D
:10118000401F809000000000401F8094000000007D
:10119000401F809800000000401F809C000000005D
:1011A000401F80A000000000401F80A4000000003D
:1011B000401F80A800000000401F80AC000000001D
:1011C000401F80B000000010401F80B400000000ED
:1011D000401F80B800000000401F8204000110F989
:1011E000401F8208000110F9401F820C000110F915
:1011F000401F8210000110F9401F8214000110F9F5
:10120000401F8218000110F9401F821C000110F9D4
:10121000401F8220000110F9401F8224000110F9B4
:10122000401F8228000110F9401F822C000110F994
:10123000401F8230000110F9401F8234000110F974
:10124000401F8238000110F9401F823C000110F954
:10125000401F8240000110F9401F8244000110F934
:10126000401F8248000110F9401F824C000110F914
:10127000401F8250000110F9401F8254000110F9F4
:10128000401F8258000110F9401F825C000110F9D4
:10129000401F8260000110F9401F8264000110F9B4
:1012A000401F8268000110F9401F826C000110F994
:1012B000401F8270000110F9401F8274000110F974
:1012C000401F8278000110F9401F827C000110F954
:1012D000401F8280000110F9401F8284000110F934
:1012E000401F8288000110F9401F828C000110F914
:1012F000401F8290000110F9401F8294000110F9F4
:10130000401F8298000110F9401F829C000110F9D3
:10131000401F82A0000110F9401F82A4000110F9B3
:10132000401F82A8000110F9402F000010000004A7
:10133000402F000800030524402F000C060305245D
:10134000402F00108000001B402F00148200001B63
:10135000402F00188400001B402F001C8600001B3B
:10136000402F002090000021402F0024A0000019F1
:10137000402F0028A8000017402F002CA900001BB8
:10138000402F003000000021402F0004000079A809
:10139000402F004000000F31402F004400652922FB
:1013A000402F004800010920402F004C50210A081E
:1013B000402F008000000021402F00840088888892
:1013C000402F009400000002402F00980000000011
:1013D000402F009080000000402F009CA55A000F75
:1013E000CF000C1C402F003C00000001CC00140476
:1013F000402F009080000000402F009CA55A000C58
:10140000CF000C1C402F003C00000001CC00140455
:10141000402F009080000000402F009CA55A000C37
:10142000CF000C1C402F003C00000001CC001C042D
:10143000402F00A000000033402F009080000000EB
:10144000402F009CA55A000ACF000C1C402F003CE6
:1014500000000001CC000C04402F004C50210A0970
:1020000000000220BD240070D1870070D3870070CB
:10201000D5870070D7870070D98700700000000056
:10202000000000000000000000000000DB870070DE
:10203000DD87007000000000DF870070857400708D
:102040001D250070212500702525007029250070B0
:102050002D25007031250070352500703925007060
:102060003D25007041250070452500704925007010
:102070004D250070512500705525007059250070C0
:102080005D25007005250070052500700525007090
:102090006125007065250070692500706D25007050
:1020A0007125007075250070792500707D25007000
:1020B0008125007085250070892500708D250070B0
:1020C0009125007095250070992500709D25007060
:1020D000A1250070A525007005250070052500705C
:1020E000052500700525007005250070094D00705C
:1020F0000525007005250070052500700525007078
:102100000525007005250070052500700525007067
:102110000525007005250070052500700525007057
:10212000A9250070AD250070B1250070B52500709F
:10213000B925007005250070052500700525007083
:102140000525007005250070052500700525007027
:102150000525007005250070052500700525007017
:102160000525007005250070052500700525007007
:1021700005250070052500700525007005250070F7
:1021800005250070052500700525007005250070E7
:10219000DD740070052500700525007005250070B0
:1021A0000525007005250070BD250070C125007053
:1021B00005250070052500700525007005250070B7
:1021C00005250070052500700525007005250070A7
:1021D0000525007005250070052500700525007097
:1021E000052500700525007005250070C5250070C7
:1021F000C925007005250070CD250070D12500701F
:1022000049C6007039C60070D5250070755E007033
:102210000525007005250070052500700525007056
:102220000525007005250070154D0070052500700E
:102230000525007005250070052500700525007036
:102240000525007005250070052500700525007026
:102250000525007005250070052500700525007016
:102260000525007005250070052500700525007006
:1022700005250070052500700525007005250070F6
:1022800005250070052500700525007005250070E6
:1022900005250070052500700525007005250070D6
:1022A000DD250070E1250070E52500700525007032
:1022B000E9250070052500700525007005250070D2
:1022C00005250070052500700525007005250070A6
:1022D0000525007005250070052500700525007096
:1022E0000525007005250070052500700525007086
:1022F0000525007005250070052500700525007076
:102300000525007005250070052500700525007065
:102310000525007005250070052500700525007055
:102320000525007005250070052500700525007045
:102330000525007005250070052500700525007035
:102340000525007005250070052500700525007025
:102350000525007005250070052500700525007015
:102360000525007005250070052500700525007005
:1023700005250070052500700525007005250070F5
:1023800005250070052500700525007005250070E5
:1023900005250070052500700525007005250070D5
:1023A00005250070052500700525007005250070C5
:1023B00005250070052500700525007005250070B5
:1023C00005250070052500700525007005250070A5
:1023D0000525007005250070052500700525007095
:1023E0000525007005250070052500700525007085
:1023F000052500700525007005250070FFFFFFFF13
:1024000010B5054C237833B9044B13B10448AFF32E
:1024100000800123237010BDF404002000000000A0
:1024200078E2007008B5034B1BB103490348AFF3D2
:10243000008008BD00000000F804002078E2007071
:10244000A3F5803A704700BF174B002B08BF134B12
:102450009D46FFF7F5FF00218B460F461348144AAF
:10246000121A0AF027FB0E4B002B00D098470D4B99
:10247000002B00D098470020002104000D000D48DB
:10248000002802D00C480AF0D5FB0AF0EFFA200031
:10249000290002F071FC0AF0D9FA00BF0000080020
:1024A000000000000000000000000220F4040020F2
:1024B0008C08002035CC007041CC007072B60A4800
:1024C0000A4901600A6882F3088809488047094977
:1024D000094A0A4B9A42BEBF51F8040B42F8040B5A
:1024E000F8E762B60648804708ED00E0002000707B
:1024F000254F0070A4E2007000000020F4040020CA
:1025000049240070FFF7FEBF3848004738480047AD
:10251000384800473848004738480047384800479F
:10252000384800473848004738480047384800478F
:10253000384800473848004738480047384800477F
:10254000384800473848004738480047384800476F
:10255000384800473848004738480047384800475F
:10256000384800473848004738480047384800474F
:10257000384800473848004738480047384800473F
:10258000384800473848004738480047384800472F
:10259000384800473848004738480047384800471F
:1025A000384800473848004738480047384800470F
:1025B00038480047384800473848004738480047FF
:1025C00038480047384800473848004738480047EF
:1025D00038480047384800473848004738480047DF
:1025E000384800473848004738480047D1870070CE
:1025F000D3870070DB870070DF8700708574007000
:10260000095A0070455A0070815A0070BD5A007016
:10261000F95A0070355B0070715B0070AD5B007043
:10262000E95B0070255C0070615C00709D5C00706F
:10263000D95C0070155D0070515D00708D5D00709B
:1026400005250070CD670070E967007005680070AF
:10265000216800703D6800705968007075680070EE
:1026600091680070796300708963007099630070ED
:10267000A9630070DD630070116400704564007030
:1026800079640070AD5E0070E55E00707D72007070
:1026900005730070C57300708D730070FD7300705A
:1026A0008D5F0070955F0070052500700525007036
:1026B000317400704D7400708D5E007005250070DF
:1026C0009D5E0070052500701D5F00709D5F0070AD
:1026D00081F0004102E000BF83F0004330B54FEAD3
:1026E00041044FEA430594EA050F08BF90EA020F40
:1026F0001FBF54EA000C55EA020C7FEA645C7FEAD3
:10270000655C00F0E2804FEA5454D4EB5555B8BFF5
:102710006D420CDD2C4480EA020281EA030382EA66
:10272000000083EA010180EA020281EA0303362DF8
:1027300088BF30BD11F0004F4FEA01314FF4801CCB
:102740004CEA113102D0404261EB410113F0004FDD
:102750004FEA03334CEA133302D0524263EB430394
:1027600094EA050F00F0A780A4F10104D5F1200E32
:102770000DDB02FA0EFC22FA05F2801841F100018D
:1027800003FA0EF2801843FA05F359410EE0A5F161
:1027900020050EF1200E012A03FA0EFC28BF4CF092
:1027A000020C43FA05F3C01851EBE37101F0004548
:1027B00007D54FF0000EDCF1000C7EEB00006EEB55
:1027C0000101B1F5801F1BD3B1F5001F0CD34908DF
:1027D0005FEA30004FEA3C0C04F101044FEA445236
:1027E00012F5800F80F09A80BCF1004F08BF5FEABD
:1027F000500C50F1000041EB045141EA050130BD9D
:102800005FEA4C0C404141EB0101013C28BFB1F5AE
:10281000801FE9D291F0000F04BF01460020B1FAF9
:1028200081F308BF2033A3F10B03B3F120020CDACC
:102830000C3208DD02F1140CC2F10C0201FA0CF0AA
:1028400021FA02F10CE002F11402D8BFC2F1200C0F
:1028500001FA02F120FA0CFCDCBF41EA0C019040C5
:10286000E41AA2BF01EB0451294330BD6FEA04040E
:102870001F3C1CDA0C340EDC04F11404C4F12002F9
:1028800020FA04F001FA02F340EA030021FA04F30B
:1028900045EA030130BDC4F10C04C4F1200220FA62
:1028A00002F001FA04F340EA0300294630BD21FAA0
:1028B00004F0294630BD94F0000F83F4801306BF66
:1028C00081F480110134013D4EE77FEA645C18BF5A
:1028D0007FEA655C29D094EA050F08BF90EA020FF1
:1028E00005D054EA000C04BF1946104630BD91EAE9
:1028F000030F1EBF0021002030BD5FEA545C05D1EC
:102900004000494128BF41F0004130BD14F580042A
:102910003CBF01F5801130BD01F0004545F0FE419E
:1029200041F470014FF0000030BD7FEA645C1ABFD3
:10293000194610467FEA655C1CBF0B46024650EA0A
:10294000013406BF52EA033591EA030F41F4002136
:1029500030BD00BF90F0000F04BF0021704730B5BC
:102960004FF4806404F132044FF000054FF0000191
:1029700050E700BF90F0000F04BF0021704730B552
:102980004FF4806404F1320410F0004548BF404227
:102990004FF000013EE700BF42004FEAE2014FEA7C
:1029A00031014FEA02701FBF12F07F4393F07F4F57
:1029B00081F06051704732F07F4208BF704793F05A
:1029C0007F4F04BF41F40021704730B54FF460746D
:1029D00001F0004521F000411CE700BF50EA010270
:1029E00008BF704730B54FF000050AE050EA010219
:1029F00008BF704730B511F0004502D5404261EB89
:102A000041014FF4806404F132045FEA915C3FF4C9
:102A1000D8AE4FF003025FEADC0C18BF03325FEA66
:102A2000DC0C18BF033202EBDC02C2F1200300FA17
:102A300003FC20FA02F001FA03FE40EA0E0021FA3C
:102A400002F11444BDE600BF70B54FF0FF0C4CF42A
:102A5000E06C1CEA11541DBF1CEA135594EA0C0FDC
:102A600095EA0C0F00F0DEF82C4481EA030621EA17
:102A70004C5123EA4C5350EA013518BF52EA033552
:102A800041F4801143F4801338D0A0FB02CE4FF004
:102A90000005E1FB02E506F00042E0FB03E54FF034
:102AA0000006E1FB03569CF0000F18BF4EF0010E2C
:102AB000A4F1FF04B6F5007F64F5407404D25FEA28
:102AC0004E0E6D4146EB060642EAC62141EA5551DB
:102AD0004FEAC52040EA5E504FEACE2EB4F1FD0C1D
:102AE00088BFBCF5E06F1ED8BEF1004F08BF5FEA9B
:102AF000500E50F1000041EB045170BD06F000464D
:102B000046EA010140EA020081EA0301B4EB5C04F9
:102B1000C2BFD4EB0C0541EA045170BD41F48011F1
:102B20004FF0000E013C00F3AB8014F1360FDEBF16
:102B3000002001F0004170BDC4F10004203C35DAF2
:102B40000C341BDC04F11404C4F1200500FA05F375
:102B500020FA04F001FA05F240EA020001F0004216
:102B600021F0004110EBD37021FA04F642EB06018C
:102B70005EEA430E08BF20EAD37070BDC4F10C04B6
:102B8000C4F1200500FA04F320FA05F001FA04F27A
:102B900040EA020001F0004110EBD37041F1000166
:102BA0005EEA430E08BF20EAD37070BDC4F1200571
:102BB00000FA05F24EEA020E20FA04F301FA05F2D9
:102BC00043EA020321FA04F001F0004121FA04F281
:102BD00020EA020000EBD3705EEA430E08BF20EA51
:102BE000D37070BD94F0000F0FD101F0004640008B
:102BF00041EB010111F4801F08BF013CF7D041EA0D
:102C0000060195F0000F18BF704703F00046520010
:102C100043EB030313F4801F08BF013DF7D043EAE1
:102C20000603704794EA0C0F0CEA135518BF95EA97
:102C30000C0F0CD050EA410618BF52EA4306D1D11E
:102C400081EA030101F000414FF0000070BD50EA3D
:102C5000410606BF1046194652EA430619D094EAC7
:102C60000C0F02D150EA013613D195EA0C0F05D1B1
:102C700052EA03361CBF104619460AD181EA030105
:102C800001F0004141F0FE4141F470014FF00000BD
:102C900070BD41F0FE4141F4780170BD70B54FF058
:102CA000FF0C4CF4E06C1CEA11541DBF1CEA1355D8
:102CB00094EA0C0F95EA0C0F00F0A7F8A4EB0504BA
:102CC00081EA030E52EA03354FEA013100F08880B1
:102CD0004FEA03334FF0805545EA131343EA12637A
:102CE0004FEA022245EA111545EA10654FEA00262F
:102CF0000EF000419D4208BF964244F1FD0404F5E8
:102D0000407402D25B084FEA3202B61A65EB030543
:102D10005B084FEA32024FF480104FF4002CB6EB00
:102D2000020E75EB030E22BFB61A754640EA0C0080
:102D30005B084FEA3202B6EB020E75EB030E22BFC0
:102D4000B61A754640EA5C005B084FEA3202B6EB01
:102D5000020E75EB030E22BFB61A754640EA9C00C0
:102D60005B084FEA3202B6EB020E75EB030E22BF90
:102D7000B61A754640EADC0055EA060E18D04FEA4E
:102D8000051545EA16754FEA06164FEAC30343EAEE
:102D900052734FEAC2025FEA1C1CC0D111F4801FBB
:102DA0000BD141EA00014FF000004FF0004CB6E7B4
:102DB00011F4801F04BF01430020B4F1FD0C88BF53
:102DC000BCF5E06F3FF6AFAEB5EB030C04BFB6EB5E
:102DD000020C5FEA500C50F1000041EB045170BD51
:102DE0000EF0004E4EEA113114EB5C04C2BFD4EB7E
:102DF0000C0541EA045170BD41F480114FF0000E02
:102E0000013C90E645EA060E8DE60CEA135594EA7D
:102E10000C0F08BF95EA0C0F3FF43BAF94EA0C0F80
:102E20000AD150EA01347FF434AF95EA0C0F7FF4F5
:102E300025AF104619462CE795EA0C0F06D152EA49
:102E400003353FF4FDAE1046194622E750EA41062D
:102E500018BF52EA43067FF4C5AE50EA41047FF43E
:102E60000DAF52EA43057FF4EBAE12E74FF0FF3CA3
:102E700006E000BF4FF0010C02E000BF4FF0010C74
:102E80004DF804CD4FEA410C7FEA6C5C4FEA430CED
:102E900018BF7FEA6C5C1BD001B050EA410C0CBF3C
:102EA00052EA430C91EA030F02BF90EA020F00209E
:102EB000704710F1000F91EA030F58BF994208BF05
:102EC00090422CBFD8176FEAE37040F001007047C2
:102ED0004FEA410C7FEA6C5C02D150EA013C07D119
:102EE0004FEA430C7FEA6C5CD6D152EA033CD3D064
:102EF0005DF8040B704700BF8446104662468C465E
:102F00001946634600E000BF01B5FFF7B7FF002890
:102F100048BF10F1000F01BD4DF808EDFFF7F4FFB9
:102F20000CBF012000205DF808FB00BF4DF808ED44
:102F3000FFF7EAFF34BF012000205DF808FB00BF67
:102F40004DF808EDFFF7E0FF94BF012000205DF889
:102F500008FB00BF4DF808EDFFF7CEFF94BF01203E
:102F600000205DF808FB00BF4DF808EDFFF7C4FF37
:102F700034BF012000205DF808FB00BF4FEA41028A
:102F800012F5001215D211D56FF47873B3EB6252BB
:102F900012D94FEAC12343F0004343EA505311F0E2
:102FA000004F23FA02F018BF404270474FF0000074
:102FB000704750EA013005D111F0004008BF6FF0B2
:102FC000004070474FF00000704700BF4A0011D228
:102FD00012F5001211D20DD56FF47873B3EB625273
:102FE0000ED44FEAC12343F0004343EA505323FA7F
:102FF00002F070474FF00000704750EA013002D1F4
:103000004FF0FF3070474FF0000070474FEA410229
:10301000B2F1E04324BFB3F5001CDCF1FE5C0DD936
:1030200001F0004C4FEAC0024CEA5070B2F1004F80
:1030300040EB830008BF20F00100704711F0804F83
:1030400021D113F13872BCBF01F00040704741F448
:1030500080114FEA5252C2F11802C2F1200C10FA4C
:103060000CF320FA02F018BF40F001004FEAC12330
:103070004FEAD32303FA0CFC40EA0C0023FA02F3D4
:103080004FEA4303CCE77FEA625307D150EA0133AA
:103090001EBF4FF0FE4040F44000704701F000407A
:1030A00040F0FE4040F40000704700BF53B94AB9F9
:1030B000002908BF00281CBF4FF0FF314FF0FF3040
:1030C00000F06EB9ADF1080C6DE904CE00F006F821
:1030D000DDF804E0DDE9022304B070472DE9F04794
:1030E000089D04468C46002B40F083808A42174698
:1030F00047D9B2FA82F242B1C2F1200024FA00F0BC
:103100009140974040EA010C94404FEA1748230C45
:10311000BCFBF8F61FFA87FE08FB16C143EA014321
:1031200006FB0EF1994209D9FB1806F1FF3080F039
:103130001981994240F21681023E3B445B1AA4B2C7
:10314000B3FBF8F008FB103344EA034400FB0EFE27
:10315000A64509D93C1900F1FF3380F00581A64549
:1031600040F2028102383C4440EA0640A4EB0E04DF
:1031700000261DB1D4400023C5E900433146BDE817
:10318000F08702B9FFDEB2FA82F2002A50D1CB1BDF
:103190004FEA174E1FFA87F80126B3FBFEFC210CFD
:1031A0000EFB1C3341EA034108FB0CF38B4207D9A9
:1031B00079180CF1FF3002D28B4200F2E98084468C
:1031C000C91AA3B2B1FBFEF00EFB101143EA014491
:1031D00008FB00F8A04507D93C1900F1FF3302D2E3
:1031E000A04500F2D9801846A4EB080440EA0C4040
:1031F000BFE78B4209D9002D00F0B1800026C5E958
:10320000000130463146BDE8F087B3FA83F6002E60
:103210004AD18B4202D3824200F2B880841A61EB19
:10322000030101208C46002DA8D0C5E9004CA5E77C
:10323000C2F1200320FA03F6974001FA02F04FEAA8
:10324000174ED9403043030CB1FBFEF61FFA87F846
:103250000EFB161143EA014306FB08F1994204FAFA
:1032600002F409D9FB1806F1FF3C80F08D809942E9
:1032700040F28A80023E3B445B1A81B2B3FBFEF00F
:103280000EFB103341EA034100FB08F38B4207D9E0
:10329000791800F1FF3C73D28B4271D9023839445E
:1032A000CB1A40EA064678E7C6F1200C03FA06F48A
:1032B00022FA0CF31C4320FA0CF701FA06F34FEA4A
:1032C000144E21FA0CF11F433B0CB1FBFEF91FFA1F
:1032D00084F80EFB191143EA014109FB08FA8A45FB
:1032E00002FA06F200FA06F308D9611809F1FF3074
:1032F00048D28A4546D9A9F102092144A1EB0A0125
:10330000BFB2B1FBFEF00EFB101147EA014700FB14
:1033100008F8B84507D9E71900F1FF312ED2B845B2
:103320002CD90238274440EA0940A7EB0807A0FB44
:1033300002894F45C64649461AD317D05DB1B3EB53
:103340000E0267EB010707FA0CFCF2404CEA02029E
:10335000F740C5E9002700263146BDE8F0872E4634
:1033600028460BE70646E9E61846FDE64345E5D262
:10337000B8EB020E69EB04010138DFE70846D2E73B
:1033800060468DE78146B9E7664675E730464AE70D
:10339000ACF1020C394413E702383C4424E700BF87
:1033A000704700BF844641EA000313F003036DD168
:1033B000403A41D351F8043B40F8043B51F8043BF8
:1033C00040F8043B51F8043B40F8043B51F8043BFF
:1033D00040F8043B51F8043B40F8043B51F8043BEF
:1033E00040F8043B51F8043B40F8043B51F8043BDF
:1033F00040F8043B51F8043B40F8043B51F8043BCF
:1034000040F8043B51F8043B40F8043B51F8043BBE
:1034100040F8043B51F8043B40F8043B51F8043BAE
:1034200040F8043B51F8043B40F8043B51F8043B9E
:1034300040F8043B403ABDD2303211D351F8043B3E
:1034400040F8043B51F8043B40F8043B51F8043B7E
:1034500040F8043B51F8043B40F8043B103AEDD2ED
:103460000C3205D351F8043B40F8043B043AF9D23E
:10347000043208D0D2071CBF11F8013B00F8013B11
:1034800001D30B8803806046704700BF082A13D31E
:103490008B078DD010F003038AD0C3F10403D21A36
:1034A000DB071CBF11F8013B00F8013B80D331F86A
:1034B000023B20F8023B7BE7043AD9D3013A11F8EA
:1034C000013B00F8013BF9D20B7803704B78437055
:1034D0008B78837060467047F0B587B000242FE08A
:1034E0000421012005F03EFA614D25F81400022167
:1034F000012005F037FA04F10A0325F8130003212F
:10350000012005F02FFA04F1140325F8130001211E
:10351000084605F027FA04F11E0325F813000521DB
:10352000012005F01FFA04F1280325F813000621F5
:10353000012005F017FA04F1320325F813000134D5
:10354000092CCDDD002325E00246C6F10901914298
:103550001ADD474C03EB830102EB410134F81150B3
:10356000501C03EB830100EB410134F811108D4234
:10357000EAD903EB830702EB470224F8121000EBB1
:10358000470224F81250DFE70136092E01DC002241
:10359000DBE70133052B01DC0026F6E70021039170
:1035A0000491059112E001EB810203EB42023048E5
:1035B00030F8122006A800EB410030F80C4C2244F1
:1035C00020F80C2C0133072BEDDD0131052901DC3E
:1035D0000223F8E700220092019202920BE006AB70
:1035E00003EB420131F80C3C2248A0FB03039B088B
:1035F00021F8183C0132052AF1DD002315E006AA66
:1036000002EB430232F8182C07EE902AF8EE677AA4
:10361000194A02EB830292ED007A77EEC77A174AD5
:1036200002EB8302C2ED007A0133052BE7DD0023B4
:1036300019E0124A02EB8302D2ED006A104901EB55
:10364000830191ED007A0C4901EB8301D1ED007A01
:1036500037EE677AC6EE877A9FED0A7A67EE877A49
:10366000C2ED007A0133052BE3DD07B0F0BD00BFEA
:103670002C050020ABAAAAAA0000002014050020F7
:10368000180000200000C84238B52DED028B384BE1
:1036900093ED017A93ED048A77EE087AF5EEC07A1D
:1036A000F1EE10FA18DD9FED337AF4EEC77AF1EE01
:1036B00010FAACBF012400244CB32F4B4FF07E52C4
:1036C0001A605A609A60DA601A615A612B4B0122C3
:1036D0001A80BDEC028B38BD17EE100AFFF75CF9BB
:1036E00004460D4618EE100AFFF756F902460B463F
:1036F00020462946FEF7F0FF4FF001040022204B40
:10370000FFF728FC08B94FF00004E4B2D4E71D4BE2
:103710001B78DBB1022B0DD0012BDAD1164B4FF009
:103720007E521A605A609A604FF07D51D9601961DB
:103730005A61CEE7104B4FF07E521A604FF07D5128
:1037400059609960DA601A615A61C2E70A4B4FF01A
:103750007E521A605A609A60DA601A615A610023D8
:10376000064A1380074A1370074A1380B1E700BF67
:10377000140500200000A042A4050020BC05002084
:1037800000005440C4050020BE05002010B52DEDFA
:10379000048BFFF779FF0023052B0FDCA74A02EB10
:1037A000830292ED007AA64A02EB8302D2ED007A00
:1037B00067EE877AC2ED007A0133EDE7A14BB3F9EA
:1037C0000030002B00F0AD809D4BD3ED007A93EDDF
:1037D000057AF4EEC77AF1EE10FA2EDD93ED020AC7
:1037E00093ED037AB4EEC70AF1EE10FA40F3D980F4
:1037F00020EE000A67EEA77A30EE270A01F072FA8F
:10380000B0EE408A8E4B93ED030A20EE000AD3ED12
:10381000057A67EEA77A30EE270A01F063FA38EEF0
:10382000407A38EE008AC7EE087A9FED877A67EE15
:10383000877A864BC3ED007AB3E0F4EEC77AF1EEF7
:1038400010FA2FD57E4B93ED020A93ED037AB4EE76
:10385000C70AF1EE10FA40F1A48020EE000A67EEEC
:10386000A77A30EE270A01F03DFAB0EE408A744B99
:1038700093ED030A20EE000AD3ED057A67EEA77AEE
:1038800030EE270A01F02EFA38EE407A38EE008A40
:10389000C7EE087A9FED6C7A67EE877A6B4BC3EDC3
:1038A000007A7EE0664C94ED017A27EE077A94ED7B
:1038B000020A20EE000A37EE000A67EEA77A30EE21
:1038C000270A01F00FFAB0EE408AD4ED037A67EED2
:1038D000A77A94ED047A27EE077A77EE877A94ED4B
:1038E000050A20EE000A37EE800A01F0FBF9B0EE7F
:1038F000409AB0EE480A01F0F5F9F0EE408AB0EED9
:10390000490A01F0EFF978EEC08A38EE098AC8EE6C
:10391000887A9FED4D7A67EE877A4C4BC3ED007A3B
:103920003FE0474C94ED010A20EE000AD4ED027A04
:1039300067EEA77A30EE270AD4ED007A67EEA77A11
:1039400030EE270A01F0CEF9B0EE408A94ED030A7A
:1039500020EE000AD4ED047A67EEA77A30EE270A4B
:10396000D4ED057A67EEA77A30EE270A01F0BAF9AE
:10397000B0EE409AB0EE480A01F0B4F9F0EE408A99
:10398000B0EE490A01F0AEF978EEC08A38EE098A45
:10399000C8EE887A9FED2C7A67EE877A2B4BC3EDC1
:1039A000007A274B93ED017AF0EE087AB4EEE77ACD
:1039B000F1EE10FA08D593ED027AF7EE007AB4EE44
:1039C000E77AF1EE10FA05D4204B93ED000ABDEC36
:1039D000048B10BD93ED037AB4EEE77AF1EE10FAA2
:1039E000F2D593ED047AF0EE087AB4EEE77AF1EED0
:1039F00010FAE9D593ED007AF6EE007AB4EEE77AA4
:103A0000F1EE10FAE0D593ED057AB4EEE77AF1EE37
:103A100010FAD9D50E4B1B68D3ED067AF1EE677A12
:103A2000F5EEC07AF1EE10FA03DD084B094A1A6090
:103A3000CAE7064B084A1A60C6E700BFA405002083
:103A400014050020BC0500200000C842100500201D
:103A50005400002000005041000050C108B55E2015
:103A600004F0E4FF08B9012008BD5D2004F0DEFF8A
:103A700058B15C2004F0DAFF48B15B2004F0D6FFB7
:103A800008B10020F0E70420EEE70220ECE7032075
:103A9000EAE710B5532004F0C9FF0446542004F0AF
:103AA000C5FF0346012C14BF0022012200280CBFD1
:103AB0001046002060B9012B14BF00230123002C05
:103AC0000CBF1C4600242CB91A4202D0112000E081
:103AD000012010BD1020FCE738B5FFF7DAFF0446DF
:103AE000FFF7BCFF0546112C00F29B80DFE814F0C5
:103AF00012009A0099009900990099009900990084
:103B000099009900990099009900990099009900ED
:103B10006901B801002008F043FEBF4A00210846B1
:103B200008F0ECFEBD4C2068FEF736FF02230522AC
:103B300041EC100B0021322008F032FFB84A01217D
:103B4000002008F0DBFE6068FEF726FF0223052256
:103B500041EC100B0121322008F022FFB14A022172
:103B6000002008F0CBFEA068FEF716FF0223052216
:103B700041EC100B1946322008F012FFAA4A03212B
:103B8000002008F0BBFEE068FEF706FF02230522D6
:103B900041EC100B0321322008F002FFA34A04215C
:103BA000002008F0ABFE2069FEF7F6FE0223052296
:103BB00041EC100B0421322008F0F2FE9C4A052152
:103BC000002008F09BFE6069FEF7E6FE0223052256
:103BD00041EC100B1146322008F0E2FE954A062116
:103BE000002008F08BFE944B1B68186AFEF7D4FE89
:103BF0000223052241EC100B0621322008F0D0FEF2
:103C00008E4A0721002008F079FE8D4B1888FEF7B8
:103C1000A1FE0223052241EC100B0721322008F0FF
:103C2000BFFE38BD002008F0BBFD864A00210846D3
:103C300008F064FE804C23681868FEF7ADFE02238E
:103C4000052241EC100B0021322008F0A9FE7E4A2B
:103C50000121002008F052FE23685868FEF79CFE00
:103C60000223052241EC100B0121322008F098FEBE
:103C7000764A0221002008F041FE23689868FEF78A
:103C80008BFE0223052241EC100B1946322008F06E
:103C900087FE684A0321002008F030FE2368186A76
:103CA000FEF77AFE0223052241EC100B032132209D
:103CB00008F076FE664A0421002008F01FFE604BE3
:103CC0001888FEF747FE0223052241EC100B042161
:103CD000322008F065FE5F4A0521002008F00EFE44
:103CE0005D4BB3F90000FEF745FE0223052241ECCF
:103CF000100B1146322008F053FE584A06210020CE
:103D000008F0FCFD2368D3ED0C7AF5EEC07AF1EEF5
:103D100010FA13DD17EE900AFEF73EFE41EC100B91
:103D2000022305220621322008F03AFE681E0328ED
:103D30003FF677AFDFE800F00D1B293717EE900A4A
:103D4000FEF72AFE00EE100A01F1004300EE903A61
:103D5000E6E7394B1C682068FEF71EFE2CA3D3E96A
:103D60000023FEF7BBFCFFF751F9206059E7324B07
:103D70001C682068FEF710FE25A3D3E90023FEF798
:103D8000ABFCFFF743F920604BE72B4B1C686068E6
:103D9000FEF702FE1EA3D3E90023FEF79FFCFFF708
:103DA00035F960603DE7244B1C686068FEF7F4FD60
:103DB00017A3D3E90023FEF78FFCFFF727F9606014
:103DC0002FE7002008F0ECFC204A0221002008F038
:103DD00095FD194B1B689868FEF7DEFD022305224E
:103DE00041EC100B1946322008F0DAFD022D7FF469
:103DF00018AF114B1C68A068FEF7CEFD04A3D3E9F1
:103E00000023FEF769FCFFF701F9A06009E700BF96
:103E10007B14AE47E17A843F10CD0070140500207A
:103E200018CD007020CD007028CD007030CD00700E
:103E300038CD007040CD00705400002050CD00708F
:103E40003C00002060CD00706CCD007078CD00701B
:103E500084CD007090CD0070BC05002098CD00701E
:103E6000002008F09DFC424A0021084608F046FD6B
:103E7000404A0121002008F041FD3F4BB3F90020EA
:103E80000021322008F06AFD3C4BB3F900200121EB
:103E9000322008F063FD3A4A0221002008F02EFD8E
:103EA000384A0321002008F029FD374BB3F90020E0
:103EB0000221322008F052FD344BB3F900200321D7
:103EC000322008F04BFD324A0421002008F016FD94
:103ED000304C2368186AFEF75FFD0223052241EC8F
:103EE000100B0421322008F05BFD2B4A0521002035
:103EF00008F004FD294BB3F90000FEF73BFD022357
:103F0000052241EC100B1146322008F049FD244AED
:103F10000621002008F0F2FC2368D3ED0C7AF5EEC0
:103F2000C07AF1EE10FA14DD17EE900AFEF734FDB8
:103F300041EC100B022305220621322008F030FD4F
:103F4000012D11D0022D7FF46CAE144B00221A808B
:103F500067E617EE900AFEF71FFD00EE100A01F16A
:103F6000004300EE903AE5E70C4B01221A8058E638
:103F7000A4CD0070ACCD00703000002032000020D5
:103F8000B4CD0070C0CD0070C0050020C205002077
:103F9000CCCD007054000020D4CD0070340000203F
:103FA00098CD007030B4002484628C62084C0460A8
:103FB000084D45604FF07C5484604FF07A50D860D3
:103FC000054B0B604D608C60D06030BC704700BF0B
:103FD0006666A63FCDCCCC3D3333933F0000000056
:103FE000D0B52DED028BB64B1C6894ED088AB5EE6A
:103FF000C08AF1EE10FA47DDFDEEC87A17EE903A6E
:1040000018B2032873DCB5EEC08AF1EE10FA45DD74
:10401000FEF7B0FC06460F469BA3D3E90023FEF74C
:1040200013FD02460B460020A649FEF755FBFEF79E
:10403000CDFFA54B18800022A44B30463946FEF731
:1040400003FD02460B4600209E49FEF745FBFEF7A6
:10405000BDFF9F4B1880D4ED0C7AF5EEC07AF1EEDF
:1040600010FA40F32182C0F22582F5EEC07AF1EE1B
:1040700010FA40F34F82B6EE007AF4EEC77AF1EE12
:1040800010FA00F1918215E218EE100AFEF784FC96
:1040900001F10041FEF772FF00B2B2E7B5EEC08A4F
:1040A000F1EE10FAD7D5FEF765FC06460F46002262
:1040B000864BFEF7C9FC02460B4600208149FEF7FD
:1040C0000BFBFEF783FF804B18806FA3D3E900231F
:1040D00030463946FEF7B8FC02460B4600207949C7
:1040E000FEF7FAFAFEF772FF794B1880B3E782B257
:1040F000131F9BB2022B60D8B5EEC08AF1EE10FA06
:104100002ADDFEF737FC0022724BFEF7E5FA064681
:104110000F465FA3D3E90023FEF796FC02460B4649
:104120005DA1D1E90001FEF7D7FAFEF74FFF664B1C
:1041300018805BA3D3E9002330463946FEF784FCA0
:1041400002460B4658A1D1E90001FEF7C5FAFEF779
:104150003DFF5F4B18807EE7B5EEC08AF1EE10FAA6
:104160007FF579AFFEF706FC00225A4BFEF7B4FA52
:1041700006460F464AA3D3E90023FEF765FC024634
:104180000B4649A1D1E90001FEF7A6FAFEF71EFF92
:104190004D4B18803EA3D3E9002330463946FEF745
:1041A00053FC02460B463CA1D1E90001FEF794FA0C
:1041B000FEF70CFF464B18804DE7D31F9BB2022B36
:1041C00000F28C80B5EEC08AF1EE10FA2ADDFEF71F
:1041D000D1FB0022404BFEF77FFA06460F462CA388
:1041E000D3E90023FEF730FC02460B4630A1D1E9AB
:1041F0000001FEF771FAFEF7E9FE334B188028A3A1
:10420000D3E9002330463946FEF71EFC02460B4632
:1042100029A1D1E90001FEF75FFAFEF7D7FE2C4B8A
:10422000188018E7B5EEC08AF1EE10FA7FF513AFEB
:10423000FEF7A0FB0022284BFEF74EFA06460F467B
:1042400017A3D3E90023FEF7FFFB02460B461AA192
:10425000D1E90001FEF740FAFEF7B8FE1A4B1880CC
:104260000BA3D3E9002330463946FEF7EDFB0246A7
:104270000B460FA1D1E90001FEF72EFAFEF7A6FECC
:10428000134B1880E7E600BF3333333333935C407E
:104290009A99999999A96040000000000078CE4051
:1042A0009A99999999297D40000000000084CC409A
:1042B0000000000000B0CD400000000000C8C94070
:1042C000540000200040CF40300000200000794022
:1042D0003200002000000C4000001A40A2F10A0346
:1042E0009BB2032B5ED8B5EEC08AF1EE10FA29DD41
:1042F000FEF740FB0022C84BFEF7EEF906460F46DC
:10430000B7A3D3E90023FEF79FFB02460B46B6A1F5
:10431000D1E90001FEF7E0F9FEF758FEBF4B188027
:104320000022BF4B30463946FEF78EFB02460B4655
:10433000AFA1D1E90001FEF7CFF9FEF747FEB94B77
:10434000188088E6B5EEC08AF1EE10FA7FF583AEEC
:10435000FEF710FB0022B04BFEF7BEF906460F46F3
:104360000022AF4BFEF770FB02460B46A0A1D1E93D
:104370000001FEF7B1F9FEF729FEA84B188098A3BB
:10438000D3E9002330463946FEF75EFB02460B4672
:1043900095A1D1E90001FEF79FF9FEF717FEA14BA9
:1043A000188058E60E3A92B2022A60D8B5EEC08A5A
:1043B000F1EE10FA2ADDFEF7DDFA00229A4BFEF745
:1043C0008BF906460F468CA3D3E90023FEF73CFB8E
:1043D00002460B468AA1D1E90001FEF77DF9FEF7FE
:1043E000F5FD8E4B188088A3D3E90023304639466B
:1043F000FEF72AFB02460B4685A1D1E90001FEF734
:104400006BF9FEF7E3FD874B188024E6B5EEC08A12
:10441000F1EE10FA7FF51FAEFEF7ACFA0022824BE8
:10442000FEF75AF906460F4677A3D3E90023FEF7B5
:104430000BFB02460B4676A1D1E90001FEF74CF9D1
:10444000FEF7C4FD754B18806BA3D3E900233046FB
:104450003946FEF7F9FA02460B4669A1D1E9000197
:10446000FEF73AF9FEF7B2FD6E4B1880F3E5B5EEB4
:10447000C08AF1EE10FA08DD684B43F2B0621A8090
:10448000684B42F228321A80E5E5B5EEC08AF1EEBB
:1044900010FA7FF5E0AD614B42F228321A80614B91
:1044A00043F2B0621A80D6E5F5EEC07AF1EE10FA6A
:1044B0007FF6DBADF5EEC07AF1EE10FA32DDB6EE46
:1044C000007AF4EEC77AF1EE10FA32DAF5EEC07A3D
:1044D000F1EE10FA4CDDB7EE007AF4EEC77AF1EEA9
:1044E00010FA4CDBF5EEC07AF1EE10FA40F3A4803E
:1044F000B0EE007AF4EEC77AF1EE10FA3FD5474AF3
:104500001388A3F6B8331380464A1388A3F6B8334A
:10451000138049E0BEEE007AF4EEC77AF1EE10FAAD
:1045200042DCC7E7BEEE007AF4EEC77AF1EE10FA8D
:10453000CCD8F5EEC07AF1EE10FA07DDB7EE007ACE
:10454000F4EEC77AF1EE10FAC0D506E0BFEE007ABD
:10455000F4EEC77AF1EE10FAB8DD304A1388A3F50D
:10456000FA6313802F4A1388A3F5FA6313801BE0C4
:10457000BFEE007AF4EEC77AF1EE10FAB2D9F5EE9A
:10458000C07AF1EE10FA5FDDB0EE007AF4EEC77A91
:10459000F1EE10FA5FDA214B1A8824490A441A8096
:1045A000204A13880B441380214BB3F900304BB1E0
:1045B0001A4A1388A3F6B83313801A4A1388A3F64D
:1045C000B83313801B4B1B78042B63D0194B1B781B
:1045D000002B6CD1BDEC028BD0BD00BFAFF30080CF
:1045E0003333333333935C400000000000E8CC40A9
:1045F00000000000000CC7409A99999999A9604061
:10460000000000000020CC4033333333332B7D4097
:10461000000000000050C440000023403000002093
:10462000000079403200002000002A4078ECFFFFB3
:10463000BC050020C4050020B8EE007AF4EEC77A6D
:10464000F1EE10FA9BDD5AE7B8EE007AF4EEC77A85
:10465000F1EE10FA9FD8F5EEC07AF1EE10FA11DD06
:10466000B0EE087AF4EEC77AF1EE10FA93D5144A58
:104670001388A3F57A631380124A1388A3F57A632B
:10468000138091E7B8EE087AF4EEC77AF1EE10FAEB
:1046900081DDECE70021702007F0DAFA00214820E4
:1046A00007F0D6FA40F6EA3007F026FE8EE7002142
:1046B000702007F0CDFA0021482007F0C9FA89E7F9
:1046C000300000203200002090ED037A90ED020AC5
:1046D00027EE000AF7EE007A77EEC77A90ED017ABE
:1046E00067EE877A30EE270A80ED000A80ED010A36
:1046F00070472DE9F0412DED028B04460D46D0EDBB
:10470000098AD0ED087A78EEE78AC0ED038AC0ED19
:10471000058A90ED048A38EE888AF6EE007A28EE53
:10472000278AD0ED0B7A38EE278A80ED0B8AB5EE1A
:10473000C08AF1EE10FA3FDD18EE100AFEF72CF9F0
:1047400006460F46D4F828804046FEF725F9324643
:104750003B46FEF7EBFB30B1B5EEC08AF1EE10FA46
:1047600032DDC4F82C80C5ED028A2846FFF7ACFF85
:1047700084ED050AD4ED067A70EE677AC4ED0C7A02
:1047800084ED060A94ED000A94ED037A20EE070A00
:1047900094ED017AD4ED0B6A27EE267A30EE070A03
:1047A00094ED027A67EE877A30EE270A84ED070AE5
:1047B000BDEC028BBDE8F08118EE100AFEF7ECF8B4
:1047C000064601F10047BDE707EE908AF1EE677AF1
:1047D000C4ED0B7AC7E70000074B40F666521A801B
:1047E000064B0360002343608360054A8262436294
:1047F0004FF07A53CB6070473C00002033330F41B9
:104800000000C842F8B52DED028B04460D46FEF7B8
:10481000BDFFB0EE408A84ED080AB5EEC00AF1EEA5
:1048200010FA70DDFDEEC07A17EE903A18B2C74B61
:10483000B3F90030C3B1C64B93ED007AD3ED057ADE
:10484000B4EEE77AF1EE10FA67DD93ED026AD3ED8C
:10485000036AB4EEE66AF1EE10FA5EDD9FEDBD0A82
:1048600028EE008A84ED088AD4ED087AF5EEC07A45
:10487000F1EE10FA40F31381B0EE0C7AF4EEC77A41
:10488000F1EE10FA5FD807EE900AF8EEE77A9FEDA6
:10489000B27A27EE877ADFEDB16A37EE267A84EDB9
:1048A000007AAF4B6360AF4BA3609FEDAF7A67EECA
:1048B000877A9FEDAE7A77EE877AAD4BC3ED007ABB
:1048C00029462046FFF715FFA94BD3ED007A20EECD
:1048D000270ABDEEC00A10EE103A9BB203F66653EB
:1048E0009BB2A44A1380B3F5706F40F2D781134690
:1048F0004FF470621A809F4B1988C32007F0A8F903
:10490000BDEC028BF8BD10EE100AFEF745F801F180
:104910000041FEF733FB00B289E7B4EEE77AF1EE2F
:1049200010FAA1D58A4B93ED027AD3ED037AB4EE57
:10493000E77AF1EE10FA97D59FED860A28EE008A05
:1049400084ED088A90E7B0EE0C7AF4EEC77AF1EEC7
:1049500010FA2ADDB1EE0A7AF4EEC77AF1EE10FA17
:1049600023D8FEF707F80022834BFDF7B5FEFEF7CC
:104970004DFB07EE900A9FED817A27EE877ADFEDF7
:10498000806A37EE267A84ED007A754B6360754B4A
:10499000A3609FED7C7A67EE877AB7EE087A77EEB0
:1049A000877A734BC3ED007A8AE7B1EE0A7AF4EEA8
:1049B000C77AF1EE10FA2ADDB2EE027AF4EEC77A87
:1049C000F1EE10FA23D8FDF7D5FF00226E4BFDF76C
:1049D00083FEFEF71BFB07EE900A9FED6C7A27EE35
:1049E000877ADFED6B6A37EE267A84ED007A5C4BCE
:1049F00063605C4BA3609FED677A67EE877AB0EEE9
:104A0000007A77EE877A5A4BC3ED007A58E7B2EE18
:104A1000027AF4EEC77AF1EE10FA36DDB2EE057ADC
:104A2000F4EEC77AF1EE10FA2FD8FDF7A3FF064691
:104A30000F460022584BFDF74FFEFEF7E7FA07EE50
:104A4000900A9FED567A67EE877A9FED557A77EE5A
:104A5000877AC4ED007A424B6360424BA360002228
:104A6000504B30463946FDF737FEFEF7CFFA07EEDA
:104A7000900A9FED4D7A67EE877AB0EE047A77EE72
:104A8000877A3B4BC3ED007A1AE7484B2360344BDF
:104A90006360344BA360364B454A1A6010E7B8EEAA
:104AA0000C7AF4EEC77AF1EE10FA1DDD07EE900AEB
:104AB000F8EEE77A9FED287A27EE877ADFED3D6AF8
:104AC00037EE267A84ED007A254B6360254BA36090
:104AD0009FED257A67EE877A9FED247A77EE877AC5
:104AE000234BC3ED007AEBE6B8EE0C7AF4EEC77A0E
:104AF000F1EE10FA64D5B9EE0A7AF4EEC77AF1EE67
:104B000010FA5DDDFDF736FF00221B4BFDF7E4FDDB
:104B1000FEF77CFA07EE900A9FED277A27EE877A58
:104B2000DFED266A37EE267A84ED007A0C4B63605F
:104B30000C4BA3609FED137A67EE877AB7EE087A85
:104B400077EE877A0A4BC3ED007AB9E6BC05002000
:104B50001405002060E5903E85EB113F85EBB140E8
:104B6000CDCCCC3DC3F5A83F8FC2F53DCDCC8C3F1D
:104B7000380000203C00002000000C409A99193FAA
:104B800085EBF1407B142E3E00001A40CDCC4C3F0B
:104B90009A991541CDCC4C3E000023403D0AB73FC9
:104BA0009A993541000022401F852B3F0000584153
:104BB000000060405C8FBA408FC2F53E5C8FFA40C7
:104BC000B9EE0A7AF4EEC77AF1EE10FA2AD5BAEE07
:104BD000037AF4EEC77AF1EE10FA23DDFDF7CAFE90
:104BE0000022334BFDF778FDFEF710FA07EE900A2E
:104BF0009FED307A27EE877ADFED2F6A37EE267A3F
:104C000084ED007A2D4B63602D4BA3609FED2D7AD0
:104C100067EE877AB0EE007A77EE877A2A4BC3ED9B
:104C2000007A4DE6BAEE037AF4EEC77AF1EE10FAA6
:104C30002AD5BAEE097AF4EEC77AF1EE10FA23DD3E
:104C4000FDF798FE0022214BFDF746FDFEF7DEF949
:104C500007EE900AB6EE087A27EE877ADFED1C6A37
:104C600037EE267A84ED007A144B6360144BA36010
:104C70009FED187A67EE877AB0EE047A77EE877A3E
:104C8000114BC3ED007A1BE6134B23600B4B6360A3
:104C90000B4BA3600C4B114A1A6011E640F6C1326F
:104CA00093423FF628AE0E4B40F6C2321A8022E6FF
:104CB00000001A401F852B3FF6281441CDCCCC3D77
:104CC000C3F5A83F7B142E3E38000020000023408F
:104CD000F6283441C3F5A83E00005841000060406A
:104CE0003C00002010EE102A064B13445B0807EE30
:104CF000903A80EE277A77EE877AB6EE000A27EEB2
:104D0000800A704762CF763F08B500F0E1FDBFF33F
:104D10004F8F08BD08B5174BD3F80C3113F0010FB6
:104D200020D1144BD3F81C3113F0010F03D0114BD9
:104D30000122C3F81C210F4BD3F82C3113F0010FC3
:104D400003D00C4B0122C3F82C210A4BD3F83C3181
:104D500013F0010F03D0074B0122C3F83C21BFF32E
:104D60004F8F08BDFEF7B8FB024B0122C3F80C21A0
:104D7000D7E700BF0040084008B5EFF3108372B6D4
:104D800002F0DEFF642007F0B7FA022204210120BE
:104D900003F0C0FD02221146012003F0BBFD0222F8
:104DA0000321012003F0B6FD02220121084603F091
:104DB000B1FD02220521012003F0ACFD02220621F3
:104DC000012003F0A7FD40F6D8623221C32006F08F
:104DD00069FE002243F2C821702006F063FE002223
:104DE00043F2C821482006F05DFE002243F2C821AC
:104DF000752006F057FE002243F2C8214D2006F030
:104E000051FE00227D21282006F04CFE0F220C21AD
:104E1000012007F0E9F92D222A21032007F0E4F907
:104E200047F24803012200215E2003F0B7FD47F25C
:104E30004803012200215D2003F0B0FD47F2480342
:104E4000012200215C2003F0A9FD47F24803012262
:104E500000215B2003F0A2FD47F248030022114627
:104E6000532003F09BFD47F24803002211465420D3
:104E700003F094FD07F0B2FC47F24803012211460B
:104E8000292003F08BFD22231F224FF41651082006
:104E900007F0A8FB06F064FB042000F06DFC0401A1
:104EA000050F4FF47A720023201A65F10001FEF716
:104EB000FDF80146002006F069FB124B102283F832
:104EC0007A23114B1B68114A12681149096811486D
:104ED0000068FFF767F8104B1968104B1868FFF768
:104EE0007BFC002383F31088FEF7F6FD322007F0E9
:104EF00003FA094B1968094B1868FFF783FCFFF7A1
:104F00006FF8F1E700E100E04000002048000020D9
:104F10004C000020440000205000002054000020DD
:104F20007047000010B5454AD2F8883043F470034A
:104F3000C2F88830424A13899BB223F001039BB226
:104F4000138140490B899BB223F001039BB20B8173
:104F5000138813F0040F05D013889BB223F00403C9
:104F60009BB21380374B1B8813F0040F06D0354AD1
:104F700013889BB223F004039BB21380324A334B55
:104F800053604FF6FF739360136823F0A00343F060
:104F9000200313602E4B1B6813F0010F04D02C4A22
:104FA000136823F001031360244B5B6913F4003F83
:104FB00013D1BFF34F8FBFF36F8F204B0022C3F885
:104FC0005022BFF34F8FBFF36F8F5A6942F4003204
:104FD0005A61BFF34F8FBFF36F8F184B5B6913F4A8
:104FE000803F02D0FFF79CFF10BD144B0022C3F896
:104FF0008420BFF34F8FD3F88040C4F34E3100E0DC
:105000001946C4F3C90243F6E07303EA411343EAC5
:1050100082730A48C0F860321346013A002BF2D17D
:105020004B1E0029ECD1BFF34F8F436943F480330B
:105030004361BFF34F8FBFF36F8FD3E700ED00E005
:1050400000800B4000000D4000C00B4020C528D957
:1050500010E000E008B50346002000E0013002281F
:1050600004D8074A52F820209A42F7D1022800D8E3
:1050700008BD044B044A3521044802F043FD00BF3B
:1050800074CF0070DCCD007028CF007000CE0070AF
:1050900070B500294FD005460C46FFF7DBFF2C4BBF
:1050A00033F91010080A01F01F06B1F5006F48D25D
:1050B000284951F820300322B24023EA0203134367
:1050C00041F82030696C01F46041A379DB0203F4FC
:1050D000C053E279120202F440721343227A02F0C2
:1050E00003021343627A520102F060021343A27A70
:1050F000920002F00C0213430B4322780AB143F4EE
:10510000803322790AB143F01003E2780AB143F008
:105110008003A2780AB143F480636B64AB6C23F024
:10512000410362780AB143F0400362790AB143F067
:105130000103AB6470BD084B084A4221084802F0E5
:10514000E1FC084B084A4FF47571084802F0DAFC9C
:1051500080CF007068C00F406CCE007038CF0070F8
:1051600000CE00707CCE007014CF007088CE00702E
:1051700008B578B10122427100220270427082703B
:10518000C27002718271C2710321017242720222E5
:10519000827208BD024B034A9021034802F0B2FC20
:1051A0006CCE007044CF007000CE007010B55AB1C4
:1051B00007290FD8136803F01F0312790AB143F0CF
:1051C000800340F8213010BD054B064ABF21064838
:1051D00002F098FC054B034AC021034802F092FC00
:1051E0006CCE00705CCF007000CE0070F8CE007006
:1051F0000346426C12F4005F14D0426C22F4005259
:10520000426401210222DA649A6C42F080029A64BC
:105210009A6C12F0800F07D0DA6C12F0020FF7D000
:10522000012002E00021EDE700201A6A12F0010FD0
:1052300000D10120DA6C12F0020F00D001205A6A6E
:1052400019B15A6C42F400525A64704708B5D8B983
:10525000104B4FF08042C3F858210E4BD3F87032F8
:1052600013F4803FF9D00B4B4FF48032C3F8542134
:10527000084BD3F8503113F4004FF9D0054B4FF4DD
:105280008032C3F8582108BD034B044A9A210448D0
:1052900002F038FC00800D4088CF007008D000700C
:1052A00098CF007020B9054B1022C3F874227047C4
:1052B000024B1022C3F87822704700BF00800D40D7
:1052C000034AD2F8703243F00103C2F870327047DB
:1052D00000800D400F490B6823F4E03302799203FC
:1052E00092B2134343F480330B600A680A4B1340B5
:1052F000026802F07F02134343F400530B60054B36
:105300001B68002BFBDA034A136823F48033136015
:10531000704700BF00800D4080CFFFFF014B00228F
:105320001A62704700800D40024B4FF480521A679A
:10533000704700BF00800D40024B4FF48052C3F80D
:10534000A020704700800D40024B4FF48052C3F8FC
:10535000E020704700800D4070B584B004467A4B61
:105360000FCB04AD05E90F00C4F30B41774A8D580C
:1053700004F01F00012383401D401ED08B5813F4FE
:10538000404F07D1D2F8703213F0100F18D1704B84
:105390001D6800E000258B5813F480330DD16D4A51
:1053A00094425ED00ED96C4A944200F0B58036D952
:1053B0006A4A944240F0C580694D284604B070BDE9
:1053C000684DE8E7A2F5A002944200F0AF8013D93F
:1053D000654A944221D15D4C206D226E0023A5FBCD
:1053E0000001FDF763FE236B13F0010F33D016238A
:1053F00003FB05F50544E0E70D2C24D0A2F580124F
:10540000944208D1514B1B6913F0020F27D0162389
:1054100003FB05F5D1E71D46CFE71D46CDE7534A0F
:1054200094424DD002F5800294420AD1474BD3F802
:10543000E03003F0030304AA02EB830353F8105C8B
:10544000BBE71D46B9E7414B1B6803F07F0305FB33
:1054500003F56D08B1E705EB8505AD00CAE7142338
:10546000D6E73A4C266F06F07F06D4F88000D4F8D1
:1054700090200023A5FB0001FDF718FE05FB0605A3
:10548000236F13F4C01315D0B3F5002F14D02F4B96
:10549000D3F8703123F07F4323F4FE0323F4FF435A
:1054A00023F07F03B3F5004F08D0314A934284D1F3
:1054B000AD0882E7AD08EAE76D08E8E76D087CE72C
:1054C000224CD4F8A06006F07F06D4F8B000D4F8DF
:1054D000C0200023A5FB0001FDF7E8FD05FB060544
:1054E000D4F8A03013F4C01310D0B3F5002F0FD0B0
:1054F000164BD3F8703103F04043B3F1804F09D01D
:10550000B3F1404F7FF459AFAD0856E7AD08EFE770
:105510006D08EDE76D0850E70C4BD3F8E03003F071
:105520000C0304AA134453F8105C46E7074B1B6AAC
:1055300013F0020F03D0162303FB05F53DE71423F8
:10554000FAE71D4639E700BF00CD007000800D402E
:10555000980600200D0070001400E0001500E00027
:1055600040787D0100366E010D0030000D00A00076
:105570000080800010B504461648FFF7EDFE032CAE
:1055800026D8DFE804F0020D151D134BD3F80031C7
:1055900003F03F03B0FBF3F000EBC000400010BD90
:1055A0000D4BD3F80031C3F30523B0FBF3F0F3E761
:1055B000094BD3F80031C3F30543B0FBF3F0EBE73D
:1055C000054BD3F80031C3F30563B0FBF3F0E3E719
:1055D0000020E1E70D00300000800D4008B5284BA9
:1055E000586910F0007025D09B6903F44053B3F55F
:1055F000805F10D0B3F5005F16D043B10020204B80
:105600005B69C3F3C2630133B0FBF3F008BD1D480F
:10561000FFF7A2FEF3E71C4BD3F8703213F0100F24
:1056200006D11A4B1868EAE71948FFF795FEE6E736
:105630001848E4E7124B9B6903F44023B3F5002FAD
:105640001AD007D8A3B1B3F5802FDFD10220FFF71E
:1056500091FFDBE7B3F5402FD8D10D20FFF77CFE9B
:10566000074B1B6903F007030133B0FBF3F0CDE7F1
:105670000748FFF771FEC9E70020FFF77BFFC5E78A
:1056800000C00F400D00100000800D409806002063
:105690000D00300000366E0108B5FFF79FFF044B88
:1056A0005B69C3F382230133B0FBF3F008BD00BF95
:1056B00000C00F4008B5FFF7EFFF044B5B69C3F371
:1056C00001230133B0FBF3F008BD00BF00C00F4061
:1056D00010B504461648FFF73FFE032C26D8DFE836
:1056E00004F0020D151D134BD3F8F03003F03F0307
:1056F000B0FBF3F000EBC000400010BD0D4BD3F841
:10570000F030C3F30523B0FBF3F0F3E7094BD3F814
:10571000F030C3F30543B0FBF3F0EBE7054BD3F8F0
:10572000F030C3F30563B0FBF3F0E3E70020E1E7FB
:105730000D00100000800D4008B50E4B5B6913F0A2
:10574000400F13D00B4B5B6913F0800F0AD0012080
:10575000FFF7BEFF074B5B69C3F302430133B0FBA6
:10576000F3F008BD0220FFF705FFF3E7FFF736FF70
:10577000F0E700BF00C00F4008B5172869D8DFE880
:1057800000F00F0F1215181B0C24282C3034383C55
:105790004044484C5054585C60644FF4004001E071
:1057A000FFF77AFF08BDFFF7C7FFFBE7FFF782FFB0
:1057B000F8E700F069F8F5E7284BD3F8703213F0FA
:1057C000100F48D1264B1868ECE70D20FFF7C4FDF9
:1057D000E8E72448FFF7C0FDE4E70020FFF778FF83
:1057E000E0E70120FFF774FFDCE70220FFF770FF1E
:1057F000D8E70320FFF76CFFD4E71B48FFF7ACFDA9
:10580000D0E71A48FFF7A8FDCCE70020FFF7B2FE6B
:10581000C8E70120FFF7AEFEC4E70220FFF7AAFEAB
:10582000C0E70320FFF7A6FEBCE71148FFF794FD91
:10583000B8E71048FFF790FDB4E70F48FFF78CFD7D
:10584000B0E70E48FFF788FDACE70D48FFF784FD91
:10585000A8E70020A6E70B48A4E700BF00800D40A2
:10586000980600200D0010000D0020000D003000F3
:105870000D00E0001400E0001500E0000D007000D5
:105880000D00A00000366E0108B50D4BDB6913F06A
:10589000400F0FD00B4BD3F8703213F0100F0DD117
:1058A000094B1868064BDB6903F03F030133B0FB7B
:1058B000F3F008BD0320FFF75FFFF3E70348F1E7CC
:1058C00000C00F4000800D409806002000366E0199
:1058D00008B5034B1B68034A11680348984708BD85
:1058E000A00600209C06002000C02B4008B51F2900
:1058F00014D800EB411241F21C03D25AC2F3C01378
:10590000C26ACA40520002F002021A43436ACB4004
:105910009B0003F0040342EA030008BD034B044A62
:1059200040F2AD21034802F0EDF800BFB4D00070A2
:105930001CD1007044D0007070B5002834D00446EB
:105940008368027CDA77C068002834D0A36803EB50
:10595000421341F21802995841F21C029D5A05F077
:105960008005002D14BF01220022A1EB00034FEAA5
:10597000531129D0C9B2637C5BB299422ED0637CAB
:105980005BB2CB1A35D449B26174E17C49B2C91A11
:1059900049B2E174266816B161682046B04715B176
:1059A000A368227C1A7770BD144B154A40F2BE41A1
:1059B000144802F0A7F82568002DC7D00023012263
:1059C00061682046A847EEE71F2B03D9C9B2013909
:1059D000C9B2D0E7217D0139C9B2CCE7E07C40B241
:1059E000237D5BB2984201D00023CCE7E37C5BB21D
:1059F000C9E7207D43FA80F3C5E700BF0CD10070F2
:105A000038D1007044D0007008B500210B48FFF772
:105A10006DFF10F0040F07D110210848FFF766FF53
:105A200010F0040F05D108BD054B1868FFF784FF7F
:105A3000F2E7034B186CFFF77FFFF4E700800E409E
:105A4000A406002008B501210B48FFF74FFF10F016
:105A5000040F07D111210848FFF748FF10F0040F89
:105A600005D108BD054B5868FFF766FFF2E7034B09
:105A7000586CFFF761FFF4E700800E40A406002099
:105A800008B502210B48FFF731FF10F0040F07D1D2
:105A900012210848FFF72AFF10F0040F05D108BDB6
:105AA000054B9868FFF748FFF2E7034B986CFFF748
:105AB00043FFF4E700800E40A406002008B5032150
:105AC0000B48FFF713FF10F0040F07D1132108480C
:105AD000FFF70CFF10F0040F05D108BD054BD86887
:105AE000FFF72AFFF2E7034BD86CFFF725FFF4E737
:105AF00000800E40A406002008B504210B48FFF7E3
:105B0000F5FE10F0040F07D114210848FFF7EEFE50
:105B100010F0040F05D108BD054B1869FFF70CFF05
:105B2000F2E7034B186DFFF707FFF4E700800E4024
:105B3000A406002008B505210B48FFF7D7FE10F09A
:105B4000040F07D115210848FFF7D0FE10F0040F0D
:105B500005D108BD054B5869FFF7EEFEF2E7034B90
:105B6000586DFFF7E9FEF4E700800E40A406002020
:105B700008B506210B48FFF7B9FE10F0040F07D156
:105B800016210848FFF7B2FE10F0040F05D108BD3A
:105B9000054B9869FFF7D0FEF2E7034B986DFFF7CE
:105BA000CBFEF4E700800E40A406002008B50721D4
:105BB0000B48FFF79BFE10F0040F07D11721084890
:105BC000FFF794FE10F0040F05D108BD054BD8690E
:105BD000FFF7B2FEF2E7034BD86DFFF7ADFEF4E737
:105BE00000800E40A406002008B508210B48FFF7EE
:105BF0007DFE10F0040F07D118210848FFF776FE4C
:105C000010F0040F05D108BD054B186AFFF794FE8C
:105C1000F2E7034B186EFFF78FFEF4E700800E40AB
:105C2000A406002008B509210B48FFF75FFE10F01D
:105C3000040F07D119210848FFF758FE10F0040F90
:105C400005D108BD054B586AFFF776FEF2E7034B16
:105C5000586EFFF771FEF4E700800E40A4060020A6
:105C600008B50A210B48FFF741FE10F0040F07D1D9
:105C70001A210848FFF73AFE10F0040F05D108BDBD
:105C8000054B986AFFF758FEF2E7034B986EFFF753
:105C900053FEF4E700800E40A406002008B50B2157
:105CA0000B48FFF723FE10F0040F07D11B21084813
:105CB000FFF71CFE10F0040F05D108BD054BD86A94
:105CC000FFF73AFEF2E7034BD86EFFF735FEF4E735
:105CD00000800E40A406002008B50C210B48FFF7F9
:105CE00005FE10F0040F07D11C210848FFF7FEFD48
:105CF00010F0040F05D108BD054B186BFFF71CFE13
:105D0000F2E7034B186FFFF717FEF4E700800E4031
:105D1000A406002008B50D210B48FFF7E7FD10F0A1
:105D2000040F07D11D210848FFF7E0FD10F0040F14
:105D300005D108BD054B586BFFF7FEFDF2E7034B9D
:105D4000586FFFF7F9FDF4E700800E40A40600202D
:105D500008B50E210B48FFF7C9FD10F0040F07D15D
:105D60001E210848FFF7C2FD10F0040F05D108BD41
:105D7000054B986BFFF7E0FDF2E7034B986FFFF7D9
:105D8000DBFDF4E700800E40A406002008B50F21DB
:105D90000B48FFF7ABFD10F0040F07D11F21084897
:105DA000FFF7A4FD10F0040F05D108BD054BD86B1B
:105DB000FFF7C2FDF2E7034BD86FFFF7BDFDF4E735
:105DC00000800E40A406002008B50346002000E035
:105DD0000130022804D8074A52F820209A42F7D10D
:105DE000022800D808BD044B044A4FF49D710448B2
:105DF00001F088FE00D20070C8D10070ECD10070B4
:105E000048D1007070B504464668FFF7DDFF0546CF
:105E100016F0406F06D0124B1B68124A52F8201041
:105E20002046984716F0407F06D00F4B1B680D4A5E
:105E300052F825102046984716F4C03F05D0094B6C
:105E400053F82510204600239847084B1E4206D0E1
:105E5000074B1B68034A52F825102046984770BD2F
:105E600034070020240700203007002000007C6059
:105E70002C07002008B5034B1968034800239847F6
:105E800008BD00BF2407002000802D4008B502484F
:105E9000FFF7B8FF08BD00BF00802D4008B50248DD
:105EA000FFF7B0FF08BD00BF00402D4008B5074B0D
:105EB000596821B1064B1B680648984708BD064B38
:105EC000064A40F66A21064801F01CFE3807002009
:105ED0004807002000001D40A0D20070DCD20070F6
:105EE00030D2007008B5074B996821B1064B1B688A
:105EF0000648984708BD064B064A40F678210648F2
:105F000001F000FE380700204807002000401D4037
:105F1000B4D20070F4D2007030D2007008B5074BD4
:105F2000D96821B1064B1B680648984708BD064B47
:105F3000064A40F68621064801F0E4FD38070020B5
:105F40004807002000801D40C8D200700CD30070AC
:105F500030D2007010B5002401E00134E4B2012C0D
:105F60000CD8074B53F824100029F6D0054B53F8F2
:105F70002430054A52F824009847EEE710BD00BFD0
:105F80004C070020540700205C07002008B5FFF7ED
:105F9000E1FF08BD08B5FFF7DDFF08BD08B5FFF755
:105FA000D9FF08BD08B502460020092806D8084BCD
:105FB00053F82030934201D00130F6E7092800D889
:105FC00008BD044B044A3921044801F09BFD00BF81
:105FD000FCD3007024D30070D8D3007048D3007075
:105FE00008B51F2908D86AB90368012202FA01F12D
:105FF00023EA0101016008BD064B074A6B210748EF
:1060000001F080FD0368012202FA01F119430160E9
:10601000F1E700BFB8D30070ECD3007048D3007034
:1060200010B4C46901238B4024EA0304C4610F291E
:1060300009D800F10C04013A042A0FD8DFE802F075
:1060400007111C272F0000F110041039F3E7236813
:106050004A000321914023EA010121605DF8044BCD
:106060007047236848000322824023EA020301218B
:10607000814019432160F1E72368480003228240F0
:1060800023EA02030221814019432160E6E72368E5
:106090004900032202FA01F119432160DEE7C269D7
:1060A0001343C361DAE70000F8B504460E4617460D
:1060B000FFF778FF1A4B33F91010B1F5006F1ED2BD
:1060C000080A01F01F05174951F820300322AA40A1
:1060D00023EA0203134341F8203063690125B540E8
:1060E000EA4323EA050363613B787BB963681A409E
:1060F0006260BA7831462046FFF792FFF8BD0A4B3E
:106100000A4A4FF475710A4801F0FCFC7A7831466E
:106110002046FFF765FF63681D436560E9E700BF40
:1061200024D4007068C00F407CCE0070C4D30070CF
:1061300088CE007008B50346002000E00130022838
:1061400004D8074A52F820209A42F7D1022800D8F2
:1061500008BD044B044A2F21044801F0D3FC00BFC2
:10616000BCD5007030D4007088D5007054D4007055
:1061700070B5002956D004460D46FFF7DBFF3D4BB6
:1061800033F91010080A01F01F06B1F5006F4FD265
:10619000394951F820300322B24023EA0203134365
:1061A00041F8203000232360236843F40043236038
:1061B000236813F40043FBD12A7A002A3FD04FF41E
:1061C0000072697A00293CD008210A43A97A002983
:1061D00039D020210A43E97A002936D010210A4318
:1061E000297B002933D004210A43697B01B10223B2
:1061F000134323602B78052B2BD0226822F4B8623E
:106200009B0103F4E073134323606B68013BB3F518
:10621000805F29D26168194A0A40C3F30B03134314
:10622000636070BD164B174A3C21174801F06AFCA9
:10623000164B174A4FF47571164801F063FC1A4665
:10624000BFE71946C1E71946C4E71946C7E719462B
:10625000CAE7226822F4B8629B0103F4E073134397
:1062600043F480632360D0E70B4B0C4ADB210C48DE
:1062700001F048FCC8D5007068C00F4000F0FFFF77
:10628000C0D4007098D5007054D400707CCE0070DB
:1062900060D5007088CE0070CCD4007074D50070CA
:1062A000F4D4007010B500220260FFF743FF0D4BDD
:1062B00033F91030B3F5006F0CD2190A03F01F0444
:1062C000094850F821300322A24023EA020340F893
:1062D000213010BD054B064A4FF47571054801F099
:1062E00011FC00BFC8D5007068C00F407CCE0070A4
:1062F00060D5007088CE007008B560B100210160E3
:10630000C16001220270426082724272C1720173E6
:106310000172427308BD034B034A7221034801F026
:10632000F1FB00BF74CE0070A4D5007054D400708F
:1063300038B504460D46036913F0010F06D00A4B29
:106340001B681BB1094A52F821109847D4F8103144
:1063500013F0010F07D0064B1B6823B1054A52F812
:1063600025102046984738BD780700206407002094
:10637000900700207C07002008B501210148FFF7A5
:10638000D7FF08BD00003F4008B502210148FFF7D4
:10639000CFFF08BD00403F4008B503210148FFF78B
:1063A000C7FF08BD00803F4008B504210148FFF742
:1063B000BFFF08BD00C03F4008B5436A13F0010F9E
:1063C00003D0044B1B68984708BD034B1B689847D4
:1063D000FAE700BFA8070020AC07002008B5074B6C
:1063E000596819B10648FFF7E7FF08BD054B064A93
:1063F00040F2D371054801F085FB00BF94070020EF
:106400000040394050D60070A0D60070D8D500703A
:1064100008B5074B996819B10648FFF7CDFF08BDCD
:10642000054B064A40F2DB71054801F06BFB00BFEB
:10643000940700200080394064D60070B8D6007000
:10644000D8D5007008B5074BD96819B10648FFF7D1
:10645000B3FF08BD054B064A40F2E371054801F061
:1064600051FB00BF9407002000C0394078D600706F
:10647000D0D60070D8D5007008B5074B196919B18E
:106480000648FFF799FF08BD054B064A40F2EB713D
:10649000054801F037FB00BF9407002000003A4098
:1064A0008CD60070E8D60070D8D5007008B50246CA
:1064B0000020082806D8084B53F82030934201D01A
:1064C0000130F6E7082800D808BD044B044A7A21B9
:1064D000044801F017FB00BF84D8007078D7007023
:1064E0004CD8007008D700702DE9F04179B105460D
:1064F00096460F460A6882B10B7A042B13D84B7A62
:10650000042B16D890460420002426461DE0714B2B
:10651000714AEE21714801F0F5FA714B6E4AEF2194
:106520006E4801F0EFFA6F4B6B4AF1216B4801F0B6
:10653000E9FA6D4B684AF221684801F0E3FA4145F7
:1065400002D8884604461E460130202817D800FB92
:1065500002F3BEFBF3F39BB203B9012300FB03F18B
:10656000BEFBF1F1891A03FB000CBEFBFCFCA2EBA5
:106570000C0C8C45E3D201339BB26146DFE75B4BE9
:10658000A3FB0232520902EB42024245C0F09E8058
:106590002846FFF78BFF564B33F91010080A01F01D
:1065A0001F0CB1F5006F80F08180524951F8203006
:1065B000032202FA0CF223EA0203134341F82030CB
:1065C000AB6843F00203AB60AB6823F00203AB603F
:1065D0002B69221F032A01D843F4003323F0F85219
:1065E000631E1B0603F0F8531343434A1A40C6F3D5
:1065F0000C0616432E612B6923F000532B61AB6907
:106600003E4919403879FB7B1B0203F4E0630343E6
:10661000BA7B920002F0040213430B437A79012AF9
:106620004BD008B143F01003AB612A6922F4005249
:10663000FB795B0303F4005313432B617A7A3B7AB3
:1066400043EA0243EB62AB6A43F08803AB62AB6A96
:1066500043F44043AB62696A7B7B1B0103F0100388
:106660003A7B520102F0200213430B436B62BB7A68
:106670001BB16B6A43F008036B62FB7A1BB16B6A58
:1066800043F001036B62BB79F3B11D4A6B6913439D
:106690006B61AB693A7C0AB143F400237A7C0AB19E
:1066A00043F48023AB610020BDE8F081154B164A0E
:1066B0004FF47571154801F025FA10B123F4006309
:1066C000B2E743F40063AFE7114ADFE740F221503D
:1066D000EAE700BF74CE007060D8007008D7007081
:1066E000A0D70070B8D70070F8D700701F85EB51A5
:1066F000A8D8007068C00F4000E0FFFFE8F8FFFF77
:1067000000C01FE07CCE007038D8007088CE0070CA
:1067100000C01FC010B5C36A13F4E06FFBD143691A
:1067200013F4800FFBD04269104B134343610023E5
:106730008361FFF7BBFE0E4B33F91010080A01F01E
:106740001F04B1F5006F09D20A4951F82030032225
:10675000A24023EA020341F8203010BD064B074A4D
:106760004FF47571064801F0CDF900BF00C01FC09D
:10677000A8D8007068C00F407CCE007038D8007078
:1067800088CE007008B598B1002242824FF4E13102
:106790000160027142718271C27102724272827230
:1067A000C272427302738273C2730274427408BD70
:1067B000034B044A40F20621034801F0A3F900BF4D
:1067C00074CE00706CD8007008D7007008B5034B09
:1067D0001B68034A51680348984708BDD407002046
:1067E000B00700200040184008B5034B1B68034A5F
:1067F00091680348984708BDD4070020B0070020DF
:106800000080184008B5034B1B68034AD168034851
:10681000984708BDD4070020B007002000C01840EA
:1068200008B5034B1B68034A11690348984708BD24
:10683000D4070020B00700200000194008B5034B22
:106840001B68034A51690348984708BDD4070020D4
:10685000B00700200040194008B5034B1B68034AED
:1068600091690348984708BDD4070020B00700206D
:106870000080194008B5034B1B68034AD1690348DF
:10688000984708BDD4070020B007002000C0194079
:1068900008B5034B1B68034A116A0348984708BDB3
:1068A000D4070020B007002000001A4008B50346B6
:1068B000002008B128B908BD054A9342FAD001303A
:1068C000F7E7044B044A3721044801F01BF900BFE5
:1068D00000400840BCD800704CD90070E0D800706F
:1068E00038B571B104460D46FFF7E0FF144A13684E
:1068F00043F440531360236823F002032360002312
:106900000FE0104B104A4621104801F0FBF804EB51
:106910000311D1F8082122F00102C1F80821013346
:10692000DBB2032BF3D92B7823B1236823F00103C7
:10693000236038BD236843F001032360F9E700BFFB
:106940006CC00F4074CE00705CD90070E0D800704D
:1069500008B5026842F002020260FFF7A7FF034A8F
:10696000136823F44053136008BD00BF6CC00F4090
:1069700008B502460020042806D8084B53F82030FA
:10698000934201D00130F6E7042800D808BD044B3B
:10699000044A3721044801F0B5F800BFD8DA007086
:1069A00068D900707CDA00708CD90070F8B5002AC4
:1069B0006CD005460E4614465379022B6CD0637A90
:1069C000012B02D1002E00F0C6802846FFF7D0FF31
:1069D00006EB8000624B33F91010080A01F01F0724
:1069E000B1F5006F5CD25F4951F820300322BA4004
:1069F00023EA0203134341F82030B5F88E319BB2ED
:106A000043F00F03A5F88E3106EB460305EB431365
:106A10009B8803F4E651637903F00303E27AD20022
:106A200002F0380213432279120202F44072134337
:106A30002278D20392B213436278920302F4804226
:106A40001343627A920002F0040213430B43E2798B
:106A5000012A2FD0022A39D04AB306EB460205EBB1
:106A600042129380D38840F68B711940A3791B01A1
:106A700003F07003A27A120392B213430B43227AFB
:106A8000032A31D8DFE802F02E585E64364B374ACD
:106A90004921374801F036F8002990D101204AE019
:106AA000344B354A4FF47571344801F02BF843F4F8
:106AB0000053D2E7B5F8882192B206F10C0001210B
:106AC000814022EA0102A5F88821C6E7B5F88821AD
:106AD00092B206F10C00012181400A4392B2A5F85E
:106AE0008821BAE743F0040306EB460205EB4212A5
:106AF000D380B5F89031DBB22BB1B5F8903103F407
:106B00007F43A5F89031A3781B0203F4E063E27899
:106B10001343A5F89031E37AFBB906EB460305EB86
:106B200043139B889BB243F0400306EB460605EBFC
:106B30004615AB800020F8BD23F480639BB243F47C
:106B40000063D1E723F400639BB243F48063CBE797
:106B500043F44063C8E70120EDE70020EBE700BF06
:106B6000ECDA007068C00F4074CE00708CDA0070F0
:106B70008CD900707CCE007068DA007088CE00700E
:106B800038B50C46B0F888319BB201F108050121F7
:106B9000A94023EA0103A0F88831FFF7E9FE04EBDE
:106BA00080040D4B33F91430B3F5006F0CD2190A81
:106BB00003F01F04094850F821300322A24023EAC1
:106BC000020340F8213038BD054B064A4FF4757179
:106BD000054800F097FF00BFECDA007068C00F4076
:106BE0007CCE007068DA007088CE007008B568B19D
:106BF00000220270427042728270C27042718271D1
:106C00000271C27282720272C27108BD024B034AE3
:106C1000D521034800F076FF74CE007098DA00703A
:106C20008CD900702DE9F04F83B005469DF830A057
:106C30000D9F0E98F2B19846164617B343B370B342
:106C400053684CF25032934230D8B8F1020F00F240
:106C500045810C4601EB410105EB4111CB88C3F3A3
:106C6000021320FA03F3B3FBF7F301931FFA83FB3C
:106C700000276BE09A4B9B4A40F211119A4800F0B2
:106C800041FF9A4B974A4FF48971974800F03AFFB9
:106C9000974B944A40F21311934800F033FF954B01
:106CA000904A4FF48A71904800F02CFF924B8D4A25
:106CB00040F215118C4800F025FF4FF6FF73984203
:106CC00055D0013080B252E04FEA5B014A4292B2A5
:106CD00004EB440305EB43135A8000225A81D98107
:106CE0003378012B52D04008424292B204EB440365
:106CF00005EB43135A83D8833378012B00F0D380FC
:106D0000728904EB440305EB43135A8604220920DD
:106D1000337A002B40F0D08004EB440105EB4111A5
:106D20004B8C9BB24FF0010C0CFA00F023EA0003ED
:106D30004B84B5F880319BB2111901228A4013436C
:106D40009BB2A5F880310C360137FFB2474580F081
:106D5000C180D6F804904CF250320023ABFB0901FD
:106D6000FCF7A4F980B24CF250339945A5D0BAF1A2
:106D7000030FC1D801A353F82AF000BFC96C0070FB
:106D8000A16D0070256E00706B6E0070400842426D
:106D900092B204EB440305EB43135A82D882ABE76B
:106DA00004EB440305EB431300225A804FEA5B02D5
:106DB0005A81A3F80EB03378012B15D0BDF80430FA
:106DC0000146181A2AD4C0F34F0004EB440205EB25
:106DD000421250835B1823D4C3F34F0304EB4402E5
:106DE00005EB4212D38387E7BDF804300146181A39
:106DF00010D4C0F34F0004EB440205EB4212508262
:106E00005B1809D4C3F34F0304EB440205EB4212B1
:106E1000D38271E70130ECE70133F3E70130D2E7C9
:106E20000133D9E74FEA5B03594289B204EB4402CC
:106E300005EB421251804FF0000CA2F80AC0D3813A
:106E40003278012A08D004EB440205EB4212518348
:106E5000C01A80B2D0834FE704EB440205EB421224
:106E60005182C31A9BB2D38246E704EB440305EB7D
:106E7000431300225A804FEA5B025A81A3F80EB0F6
:106E80003378012B07D004EB440305EB43130022B6
:106E90005A83D88330E704EB440305EB4313002205
:106EA0005A82D88228E7728904EB440305EB431326
:106EB0001A8608220A202BE704EB440105EB411156
:106EC0004B8C9BB24FF0010C0CFA00F003439BB2C9
:106ED0004B842EE7002003B0BDE8F08F0120FAE7D5
:106EE000F8D90070B0DA00708CD9007004DA007044
:106EF00010DA00701CDA007028DA00702DE9F04119
:106F00001646069F4CF25032974209D805460C4669
:106F1000012E0CD8032B2CD8DFE803F010378CBAE5
:106F2000714B724A40F2C111714800F0EBFD714B98
:106F30006E4A4FF4E1716E4800F0E4FD01EB41034D
:106F400000EB4313D88980B2400080B2A7FB000158
:106F50004CF250320023FCF7A9F880B2012E0AD07F
:106F60004008424292B204EB440305EB43135A83B8
:106F7000D883BDE8F0814008424292B204EB44035A
:106F800005EB43135A82D882F3E701EB410300EB90
:106F90004313D8891FFA80F880B2A7FB00014CF296
:106FA00050320023FCF782F880B24CF250339F42FB
:106FB00018D0012E1DD00246B8EB000035D4C0F326
:106FC0004F0004EB440305EB4313588318EB02080E
:106FD0002DD4C8F34F0804EB440405EB4414A4F883
:106FE0001E80C6E74FF6FF739842E2D0013080B2B0
:106FF000DFE70346B8EB000012D4C0F34F0004EB08
:10700000440205EB4212508218EB03080AD4C8F37D
:107010004F0804EB440405EB4414A4F81680A8E7D9
:107020000130EAE708F10108F1E70130C7E708F1AC
:107030000108CEE701EB410300EB4313D8891FFAA7
:1070400080F84FEA480080B2A7FB00014CF25032B2
:107050000023FCF72BF880B2012E0CD0C8F10002FF
:1070600092B204EB440305EB43135A83A0EB0800F0
:1070700080B2D8837DE7C8F1000292B204EB4403EA
:1070800005EB43135A82A0EB080080B2D88270E768
:1070900001EB410300EB4313D88980B2A7FB000149
:1070A0004CF250320023FCF701F880B24CF250331E
:1070B0009F4209D0012E0ED004EB440305EB43138D
:1070C00000225A83D88354E74FF6FF739842F1D0D9
:1070D000013080B2EEE704EB440305EB43130022DA
:1070E0005A82D88245E700BF34DA0070C0DA0070F7
:1070F0008CD9007058DA007008B5024600200428C8
:1071000006D8084B53F82030934201D00130F6E7FF
:10711000042800D808BD044B044A3621044800F076
:10712000F1FC00BFF4DB007014DB0070BCDB00700E
:1071300038DB0070F8B5002A3DD005460E461446EF
:10714000FFF7DAFF224B33F91010080A01F01F078E
:10715000B1F5006F35D21F4951F820300322BA40F3
:1071600023EA0203134341F8203023785B0203F43F
:10717000F0536278D20102F4C072134305EB46105B
:107180008381E3781B0103F01003A278520102F01F
:1071900020021343C381A3799B039BB28382C38ADA
:1071A00003F47843C38223791B0203F4E06362791A
:1071B0001343C382F8BD084B084A4621084800F033
:1071C000A1FC084B084A4FF47571084800F09AFC7E
:1071D00008DC007068C00F4074CE0070D0DB007017
:1071E00038DB00707CCE0070A8DB007088CE0070A9
:1071F00010B500EB41118B89C3F30C038B81FFF7B2
:107200007BFF0D4B33F91030B3F5006F0CD2190A28
:1072100003F01F04094850F821300322A24023EA5A
:10722000020340F8213010BD054B064A4FF475713A
:10723000054800F067FC00BF08DC007068C00F4024
:107240007CCE0070A8DB007088CE007008B548B115
:1072500000228271C2708270027142710921017034
:10726000427008BD024B034A7F21034800F04AFCEC
:1072700074CE0070DCDB007038DB007008B51D4B8D
:10728000D968D9B11C4BD3F8883013F4803F05D1AD
:10729000194BD3F8883013F4802F0FD0164BD3F846
:1072A000883013F4807F05D1134BD3F8883013F462
:1072B000806F03D0114B1B680F4898470D4B99689E
:1072C000B9B10D4B9B6813F4803F04D10A4B9B6806
:1072D00013F4802F0DD0084B9B6813F4807F04D1EA
:1072E000054B9B6813F4806F03D0054B1B68024865
:1072F000984708BDD807002000403840F807002014
:10730000FC07002008B51D4B5969D9B11C4BD3F8B7
:10731000883013F4803F05D1194BD3F8883013F42B
:10732000802F0FD0164BD3F8883013F4807F05D10F
:10733000134BD3F8883013F4806F03D0114B1B68C4
:107340000F4898470D4B1969B9B10D4B9B6813F461
:10735000803F04D10A4B9B6813F4802F0DD0084B5B
:107360009B6813F4807F04D1054B9B6813F4806FF6
:1073700003D0054B1B680248984708BDD80700207A
:1073800000803840F8070020FC07002008B5074BB4
:10739000996921B1064B1B680648984708BD064B02
:1073A000064A40F61531064800F0ACFBD80700202D
:1073B000FC07002000C03840A4DC0070CCDC00706A
:1073C00038DC007008B5074BD96921B1064B1B6842
:1073D0000648984708BD064B064A4FF432610648F6
:1073E00000F090FBD8070020F807002000C03840CC
:1073F000B8DC0070E8DC007038DC007008B5084BC1
:10740000196821B1074B1B680BB107489847044B1B
:10741000596821B1054B1B680BB10348984708BD5B
:10742000000800200C080020000038400808002058
:1074300008B5034B1B68034A51680348984708BDC9
:107440001C0800201008002000002C4008B5034B49
:107450001B68034A91680348984708BD1C08002030
:107460001008002000402C4018B1012803D1034827
:107470007047034870470020704700BF2008002075
