:0200000470008A
:10000000464346420004015600000000010303007D
:1000100000000000000000000000000000000000E0
:1000200000000000000000000000000000000000D0
:1000300000000000000000000000000000000000C0
:1000400000000000000408000000000000000000A4
:100050000000400000000000000000000000000060
:100060000000000000000000000000000000000090
:100070000000000000000000000000000000000080
:10008000EB04180A063204260000000000000000FD
:100090000000000000000000000000000000000060
:1000A0000000000000000000000000000000000050
:1000B0000000000000000000000000000000000040
:1000C0000000000000000000000000000000000030
:1000D0000000000000000000000000000000000020
:1000E0000000000000000000000000000000000010
:1000F0000000000000000000000000000000000000
:1001000000000000000000000000000000000000EF
:1001100000000000000000000000000000000000DF
:1001200000000000000000000000000000000000CF
:1001300000000000000000000000000000000000BF
:1001400000000000000000000000000000000000AF
:10015000000000000000000000000000000000009F
:10016000000000000000000000000000000000008F
:10017000000000000000000000000000000000007F
:10018000000000000000000000000000000000006F
:10019000000000000000000000000000000000005F
:1001A000000000000000000000000000000000004F
:1001B000000000000000000000000000000000003F
:1001C000000100000010000000000000000000001E
:1001D000000001000000000000000000000000001E
:1001E000000000000000000000000000000000000F
:1001F00000000000000000000000000000000000FF
:10100000D10020410020007000000000301000706E
:1010100020100070001000700000000000000000B0
:10102000000000700000400000000000FFFFFFFF14
:10103000D2043041CC03AC04400FC068FFFFFFFF77
:10104000400FC06CFFFFFFFF400FC070FFFFFFFFAE
:10105000400FC074FFFFFFFF400FC078FFFFFFFF8E
:10106000400FC07CFFFFFFFF400FC080FFFFFFFF6E
:10107000400D803000002001400D8100001D000067
:10108000400FC01400010D40401F801400000000FC
:10109000401F801800000000401F801C000000005E
:1010A000401F802000000000401F8024000000003E
:1010B000401F802800000000401F802C000000001E
:1010C000401F803000000000401F803400000000FE
:1010D000401F803800000000401F803C00000000DE
:1010E000401F804000000000401F804400000000BE
:1010F000401F804800000000401F804C000000009E
:10110000401F805000000000401F8054000000007D
:10111000401F805800000000401F805C000000005D
:10112000401F806000000000401F8064000000003D
:10113000401F806800000000401F806C000000001D
:10114000401F807000000000401F807400000000FD
:10115000401F807800000000401F807C00000000DD
:10116000401F808000000000401F808400000000BD
:10117000401F808800000000401F808C000000009D
:10118000401F809000000000401F8094000000007D
:10119000401F809800000000401F809C000000005D
:1011A000401F80A000000000401F80A4000000003D
:1011B000401F80A800000000401F80AC000000001D
:1011C000401F80B000000010401F80B400000000ED
:1011D000401F80B800000000401F8204000110F989
:1011E000401F8208000110F9401F820C000110F915
:1011F000401F8210000110F9401F8214000110F9F5
:10120000401F8218000110F9401F821C000110F9D4
:10121000401F8220000110F9401F8224000110F9B4
:10122000401F8228000110F9401F822C000110F994
:10123000401F8230000110F9401F8234000110F974
:10124000401F8238000110F9401F823C000110F954
:10125000401F8240000110F9401F8244000110F934
:10126000401F8248000110F9401F824C000110F914
:10127000401F8250000110F9401F8254000110F9F4
:10128000401F8258000110F9401F825C000110F9D4
:10129000401F8260000110F9401F8264000110F9B4
:1012A000401F8268000110F9401F826C000110F994
:1012B000401F8270000110F9401F8274000110F974
:1012C000401F8278000110F9401F827C000110F954
:1012D000401F8280000110F9401F8284000110F934
:1012E000401F8288000110F9401F828C000110F914
:1012F000401F8290000110F9401F8294000110F9F4
:10130000401F8298000110F9401F829C000110F9D3
:10131000401F82A0000110F9401F82A4000110F9B3
:10132000401F82A8000110F9402F000010000004A7
:10133000402F000800030524402F000C060305245D
:10134000402F00108000001B402F00148200001B63
:10135000402F00188400001B402F001C8600001B3B
:10136000402F002090000021402F0024A0000019F1
:10137000402F0028A8000017402F002CA900001BB8
:10138000402F003000000021402F0004000079A809
:10139000402F004000000F31402F004400652922FB
:1013A000402F004800010920402F004C50210A081E
:1013B000402F008000000021402F00840088888892
:1013C000402F009400000002402F00980000000011
:1013D000402F009080000000402F009CA55A000F75
:1013E000CF000C1C402F003C00000001CC00140476
:1013F000402F009080000000402F009CA55A000C58
:10140000CF000C1C402F003C00000001CC00140455
:10141000402F009080000000402F009CA55A000C37
:10142000CF000C1C402F003C00000001CC001C042D
:10143000402F00A000000033402F009080000000EB
:10144000402F009CA55A000ACF000C1C402F003CE6
:1014500000000001CC000C04402F004C50210A0970
:1020000000000220BD24007081750070837500708F
:10201000857500708775007089750070000000007C
:102020000000000000000000000000008B75007040
:102030008D750070000000008F7500707166007073
:102040001D250070212500702525007029250070B0
:102050002D25007031250070352500703925007060
:102060003D25007041250070452500704925007010
:102070004D250070512500705525007059250070C0
:102080005D25007005250070052500700525007090
:102090006125007065250070692500706D25007050
:1020A0007125007075250070792500707D25007000
:1020B0008125007085250070892500708D250070B0
:1020C0009125007095250070992500709D25007060
:1020D000A1250070A525007005250070052500705C
:1020E000052500700525007005250070453E00702F
:1020F0000525007005250070052500700525007078
:102100000525007005250070052500700525007067
:102110000525007005250070052500700525007057
:10212000A9250070AD250070B1250070B52500709F
:10213000B925007005250070052500700525007083
:102140000525007005250070052500700525007027
:102150000525007005250070052500700525007017
:102160000525007005250070052500700525007007
:1021700005250070052500700525007005250070F7
:1021800005250070052500700525007005250070E7
:10219000C9660070052500700525007005250070D2
:1021A0000525007005250070BD250070C125007053
:1021B00005250070052500700525007005250070B7
:1021C00005250070052500700525007005250070A7
:1021D0000525007005250070052500700525007097
:1021E000052500700525007005250070C5250070C7
:1021F000C925007005250070CD250070D12500701F
:10220000BDB40070ADB40070D52500706150007091
:102210000525007005250070052500700525007056
:102220000525007005250070513E007005250070E1
:102230000525007005250070052500700525007036
:102240000525007005250070052500700525007026
:102250000525007005250070052500700525007016
:102260000525007005250070052500700525007006
:1022700005250070052500700525007005250070F6
:1022800005250070052500700525007005250070E6
:1022900005250070052500700525007005250070D6
:1022A000DD250070E1250070E52500700525007032
:1022B000E9250070052500700525007005250070D2
:1022C00005250070052500700525007005250070A6
:1022D0000525007005250070052500700525007096
:1022E0000525007005250070052500700525007086
:1022F0000525007005250070052500700525007076
:102300000525007005250070052500700525007065
:102310000525007005250070052500700525007055
:102320000525007005250070052500700525007045
:102330000525007005250070052500700525007035
:102340000525007005250070052500700525007025
:102350000525007005250070052500700525007015
:102360000525007005250070052500700525007005
:1023700005250070052500700525007005250070F5
:1023800005250070052500700525007005250070E5
:1023900005250070052500700525007005250070D5
:1023A00005250070052500700525007005250070C5
:1023B00005250070052500700525007005250070B5
:1023C00005250070052500700525007005250070A5
:1023D0000525007005250070052500700525007095
:1023E0000525007005250070052500700525007085
:1023F000052500700525007005250070FFFFFFFF13
:1024000010B5054C237833B9044B13B10448AFF32E
:1024100000800123237010BDFC0400200000000098
:1024200044CD007008B5034B1BB103490348AFF31B
:10243000008008BD000000000005002044CD0070B1
:10244000A3F5803A704700BF174B002B08BF134B12
:102450009D46FFF7F5FF00218B460F461348144AAF
:10246000121A09F00BFA0E4B002B00D098470D4BB7
:10247000002B00D098470020002104000D000D48DB
:10248000002802D00C4809F0B9FA09F0D3F920006D
:10249000290001F037FD09F0BDF900BF0000080078
:1024A000000000000000000000000220FC040020EA
:1024B000D4080020FDB9007009BA007072B60A484D
:1024C0000A4901600A6882F3088809488047094977
:1024D000094A0A4B9A42BEBF51F8040B42F8040B5A
:1024E000F8E762B60648804708ED00E0002000707B
:1024F0001141007070CD007000000020FC0400202D
:1025000049240070FFF7FEBF3848004738480047AD
:10251000384800473848004738480047384800479F
:10252000384800473848004738480047384800478F
:10253000384800473848004738480047384800477F
:10254000384800473848004738480047384800476F
:10255000384800473848004738480047384800475F
:10256000384800473848004738480047384800474F
:10257000384800473848004738480047384800473F
:10258000384800473848004738480047384800472F
:10259000384800473848004738480047384800471F
:1025A000384800473848004738480047384800470F
:1025B00038480047384800473848004738480047FF
:1025C00038480047384800473848004738480047EF
:1025D00038480047384800473848004738480047DF
:1025E0003848004738480047384800478175007030
:1025F000837500708B7500708F7500707166007048
:10260000F54B0070314C00706D4C0070A94C00709F
:10261000E54C0070214D00705D4D0070994D0070CB
:10262000D54D0070114E00704D4E0070894E0070F7
:10263000C54E0070014F00703D4F0070794F007023
:1026400005250070B9590070D5590070F159007016
:102650000D5A0070295A0070455A0070615A007076
:102660007D5A007065550070755500708555007075
:1026700095550070C9550070FD55007031560070B9
:102680006556007099500070D150007069640070F8
:10269000F1640070B165007079650070E9650070E3
:1026A000795100708151007005250070052500707A
:1026B0001D66007039660070795000700525007045
:1026C0008950007005250070095100708951007013
:1026D00081F0004102E000BF83F0004330B54FEAD3
:1026E00041044FEA430594EA050F08BF90EA020F40
:1026F0001FBF54EA000C55EA020C7FEA645C7FEAD3
:10270000655C00F0E2804FEA5454D4EB5555B8BFF5
:102710006D420CDD2C4480EA020281EA030382EA66
:10272000000083EA010180EA020281EA0303362DF8
:1027300088BF30BD11F0004F4FEA01314FF4801CCB
:102740004CEA113102D0404261EB410113F0004FDD
:102750004FEA03334CEA133302D0524263EB430394
:1027600094EA050F00F0A780A4F10104D5F1200E32
:102770000DDB02FA0EFC22FA05F2801841F100018D
:1027800003FA0EF2801843FA05F359410EE0A5F161
:1027900020050EF1200E012A03FA0EFC28BF4CF092
:1027A000020C43FA05F3C01851EBE37101F0004548
:1027B00007D54FF0000EDCF1000C7EEB00006EEB55
:1027C0000101B1F5801F1BD3B1F5001F0CD34908DF
:1027D0005FEA30004FEA3C0C04F101044FEA445236
:1027E00012F5800F80F09A80BCF1004F08BF5FEABD
:1027F000500C50F1000041EB045141EA050130BD9D
:102800005FEA4C0C404141EB0101013C28BFB1F5AE
:10281000801FE9D291F0000F04BF01460020B1FAF9
:1028200081F308BF2033A3F10B03B3F120020CDACC
:102830000C3208DD02F1140CC2F10C0201FA0CF0AA
:1028400021FA02F10CE002F11402D8BFC2F1200C0F
:1028500001FA02F120FA0CFCDCBF41EA0C019040C5
:10286000E41AA2BF01EB0451294330BD6FEA04040E
:102870001F3C1CDA0C340EDC04F11404C4F12002F9
:1028800020FA04F001FA02F340EA030021FA04F30B
:1028900045EA030130BDC4F10C04C4F1200220FA62
:1028A00002F001FA04F340EA0300294630BD21FAA0
:1028B00004F0294630BD94F0000F83F4801306BF66
:1028C00081F480110134013D4EE77FEA645C18BF5A
:1028D0007FEA655C29D094EA050F08BF90EA020FF1
:1028E00005D054EA000C04BF1946104630BD91EAE9
:1028F000030F1EBF0021002030BD5FEA545C05D1EC
:102900004000494128BF41F0004130BD14F580042A
:102910003CBF01F5801130BD01F0004545F0FE419E
:1029200041F470014FF0000030BD7FEA645C1ABFD3
:10293000194610467FEA655C1CBF0B46024650EA0A
:10294000013406BF52EA033591EA030F41F4002136
:1029500030BD00BF90F0000F04BF0021704730B5BC
:102960004FF4806404F132044FF000054FF0000191
:1029700050E700BF90F0000F04BF0021704730B552
:102980004FF4806404F1320410F0004548BF404227
:102990004FF000013EE700BF42004FEAE2014FEA7C
:1029A00031014FEA02701FBF12F07F4393F07F4F57
:1029B00081F06051704732F07F4208BF704793F05A
:1029C0007F4F04BF41F40021704730B54FF460746D
:1029D00001F0004521F000411CE700BF50EA010270
:1029E00008BF704730B54FF000050AE050EA010219
:1029F00008BF704730B511F0004502D5404261EB89
:102A000041014FF4806404F132045FEA915C3FF4C9
:102A1000D8AE4FF003025FEADC0C18BF03325FEA66
:102A2000DC0C18BF033202EBDC02C2F1200300FA17
:102A300003FC20FA02F001FA03FE40EA0E0021FA3C
:102A400002F11444BDE600BF4FEA4102B2F1E04397
:102A500024BFB3F5001CDCF1FE5C0DD901F0004C85
:102A60004FEAC0024CEA5070B2F1004F40EB8300D5
:102A700008BF20F00100704711F0804F21D113F101
:102A80003872BCBF01F00040704741F480114FEA3A
:102A90005252C2F11802C2F1200C10FA0CF320FAC3
:102AA00002F018BF40F001004FEAC1234FEAD323E0
:102AB00003FA0CFC40EA0C0023FA02F34FEA43034A
:102AC000CCE77FEA625307D150EA01331EBF4FF0D3
:102AD000FE4040F44000704701F0004040F0FE40EE
:102AE00040F40000704700BF53B94AB9002908BF3D
:102AF00000281CBF4FF0FF314FF0FF3000F06EB9DF
:102B0000ADF1080C6DE904CE00F006F8DDF804E044
:102B1000DDE9022304B070472DE9F047089D044623
:102B20008C46002B40F083808A42174647D9B2FA80
:102B300082F242B1C2F1200024FA00F091409740A5
:102B400040EA010C94404FEA1748230CBCFBF8F60E
:102B50001FFA87FE08FB16C143EA014306FB0EF18C
:102B6000994209D9FB1806F1FF3080F0198199428A
:102B700040F21681023E3B445B1AA4B2B3FBF8F06C
:102B800008FB103344EA034400FB0EFEA64509D9B6
:102B90003C1900F1FF3380F00581A64540F2028127
:102BA00002383C4440EA0640A4EB0E0400261DB166
:102BB000D4400023C5E900433146BDE8F08702B99F
:102BC000FFDEB2FA82F2002A50D1CB1B4FEA174E39
:102BD0001FFA87F80126B3FBFEFC210C0EFB1C3309
:102BE00041EA034108FB0CF38B4207D979180CF139
:102BF000FF3002D28B4200F2E9808446C91AA3B2A8
:102C0000B1FBFEF00EFB101143EA014408FB00F893
:102C1000A04507D93C1900F1FF3302D2A04500F2CC
:102C2000D9801846A4EB080440EA0C40BFE78B4269
:102C300009D9002D00F0B1800026C5E90001304619
:102C40003146BDE8F087B3FA83F6002E4AD18B42B5
:102C500002D3824200F2B880841A61EB03010120A2
:102C60008C46002DA8D0C5E9004CA5E7C2F1200391
:102C700020FA03F6974001FA02F04FEA174ED940C6
:102C80003043030CB1FBFEF61FFA87F80EFB16115A
:102C900043EA014306FB08F1994204FA02F409D918
:102CA000FB1806F1FF3C80F08D80994240F28A804B
:102CB000023E3B445B1A81B2B3FBFEF00EFB1033C5
:102CC00041EA034100FB08F38B4207D9791800F170
:102CD000FF3C73D28B4271D902383944CB1A40EA97
:102CE000064678E7C6F1200C03FA06F422FA0CF344
:102CF0001C4320FA0CF701FA06F34FEA144E21FAAE
:102D00000CF11F433B0CB1FBFEF91FFA84F80EFBDC
:102D1000191143EA014109FB08FA8A4502FA06F251
:102D200000FA06F308D9611809F1FF3048D28A4544
:102D300046D9A9F102092144A1EB0A01BFB2B1FBB6
:102D4000FEF00EFB101147EA014700FB08F8B845FA
:102D500007D9E71900F1FF312ED2B8452CD9023836
:102D6000274440EA0940A7EB0807A0FB02894F452A
:102D7000C64649461AD317D05DB1B3EB0E0267EBD6
:102D8000010707FA0CFCF2404CEA0202F740C5E9E1
:102D9000002700263146BDE8F0872E4628460BE77F
:102DA0000646E9E61846FDE64345E5D2B8EB020ED5
:102DB00069EB04010138DFE70846D2E760468DE79A
:102DC0008146B9E7664675E730464AE7ACF1020C42
:102DD000394413E702383C4424E700BF704700BF82
:102DE00038B50024092C30DC0421012004F092FCC9
:102DF000164D25F814000221012004F08BFC04F18B
:102E00000A0325F813000321012004F083FC04F1D8
:102E1000140325F813000121084604F07BFC04F19B
:102E20001E0325F813000521012004F073FC04F1B2
:102E3000280325F813000621012004F06BFC04F19F
:102E4000320325F813000134CCE738BD40050020DB
:102E5000F0B585B0FFF7C4FF002326E00146C7F1B7
:102E600009028A421BDD454C03EB830042000A4401
:102E700034F81260481C03EB83056A00024434F8FE
:102E80001240A642EAD93D4D03EB830C4FEA4C02B7
:102E9000114425F81140024425F81260DEE701379D
:102EA000092F01DC0021DAE70133052B01DC0027C3
:102EB000F6E7002101910291039112E001EB8100FC
:102EC000430013442D4830F8133004A800EB4100B0
:102ED00030F80C4C234420F80C3C0132072AEDDD7D
:102EE0000131052901DC0222F8E700220CE004ABE5
:102EF00003EB420333F80C3C2149A1FB03139B086D
:102F0000204921F812300132052AF0DD002313E0B8
:102F10001C4A32F8132007EE902AF8EE677A1A4A14
:102F200002EB830292ED007A77EEC77A174A02EB42
:102F30008302C2ED007A0133052BE9DD002319E09D
:102F4000124A02EB8302D2ED006A114901EB8301C0
:102F500091ED007A0C4901EB8301D1ED007A37EE57
:102F6000677AC6EE877A9FED0B7A67EE877AC2EDB5
:102F7000007A0133052BE3DD05B0F0BD40050020EC
:102F8000ABAAAAAA1C0500200000002028050020EA
:102F9000180000200000C842374BB3F90030002B66
:102FA00040DD364B93ED007AF3EE0A7AB4EEE77A21
:102FB000F1EE10FA13DB324B1B78012B0FD0314BA3
:102FC00001221A702F4B1B78DBB12F4B2F4A1A604E
:102FD0005A609A602E4ADA601A615A617047274B2C
:102FE00093ED057AF1EE047AB4EEE77AF1EE10FA99
:102FF000E8DB244B1B78012BE4D0214B01221A7013
:10300000E0E71F4B1B78002B35D01F4B00221A60C6
:103010004FF07A525A609A601E4ADA601B4A1A616F
:103020005A6170471C4B1B88E3B1013B1A4A13805D
:103030001A4B1B78022B0BD0012B1CD1124B134ABD
:103040001A605A609A600022DA601A615A61704709
:103050000D4B00221A605A609A600C4ADA601A61BD
:103060005A617047084B4FF07E521A605A609A605E
:10307000DA601A615A617047D005002028050020E7
:10308000D2050020D3050020B805002000004040F4
:10309000CDCCCC3D00002040DA050020E00500202A
:1030A000434B1B68012B00F0828010B5414BB3F9F4
:1030B0000030012B29D0404BD3ED027AD3ED036AC7
:1030C00037EEA67AB5EEC07AF1EE10FA0ADDDFED42
:1030D0003B7AB4EEE77AF1EE10FAACBF012300239D
:1030E00063B910BD77EEE67A9FED347AF4EEC77AD5
:1030F000F1EE10FAACBF01230023F1E701212D4BC3
:1031000019803C2004F04EFBEBE72B4BD3ED027A09
:10311000D3ED036A37EEA67AB5EEC07AF1EE10FA77
:103120002CDDDFED277AB4EEE77AF1EE10FA94BFEA
:1031300001230023002BD4D01F4BD3ED007AB0EE37
:10314000007AF4EEC77AF1EE10FA03D51D4B1B7826
:10315000012B1FD0B2EE0E7AF4EEC77AF1EE10FA20
:10316000BFD5194B1B78012BBBD10021114B198006
:10317000154B19703C2004F015FBB2E777EEE67AA8
:103180009FED0F7AF4EEC77AF1EE10FA94BF0123A7
:103190000023CFE70024074B1C800A4B1C70322011
:1031A00007F0B2FF21463C2004F0FCFA99E7704793
:1031B000D4050020D00500202805002000001B4376
:1031C0000000A042D2050020D305002010B52DED4F
:1031D000048BFFF765FFFFF7DFFE0023052B0FDCF5
:1031E000434A02EB830292ED007A424A02EB8302E9
:1031F000D2ED007A67EE877AC2ED007A0133EDE70F
:103200003C4C94ED010A20EE000AD4ED027A67EE00
:10321000A77A30EE270AD4ED007A67EEA77A30EE6F
:10322000270A00F0FDFDB0EE408A94ED030A20EE7F
:10323000000AD4ED047A67EEA77A30EE270AD4EDBF
:10324000057A67EEA77A30EE270A00F0E9FDB0EEC6
:10325000409AB0EE480A00F0E3FDF0EE408AB0EE8E
:10326000490A00F0DDFD78EEC08A38EE098AC8EE22
:10327000887A9FED217A67EE877A204BC3ED007A3A
:10328000F5EEC07AF1EE10FA25DDB7EE087A67EEBA
:10329000877AC3ED007A1A4B1B68B3B1154BD3ED97
:1032A000027A93ED037A77EE877AB3EE0E7AF4EE34
:1032B000C77AF1EE10FA08D5104BD3ED007AB6EECE
:1032C000007A67EE877AC3ED007A0C4B93ED000A23
:1032D000BDEC048B10BDF5EEC07AF1EE10FADAD534
:1032E0009FED087A67EE877A044BC3ED007AD2E748
:1032F000B8050020280500200000C842180500205D
:10330000D40500209A99993F08B5334B1B68002BD0
:1033100043D100213C2004F045FA304BD3ED027A32
:10332000B3EE097AF4EEC77AF1EE10FA49D8D3ED8C
:10333000036AF4EEC76AF1EE10FA44D893ED017A0D
:1033400093ED046A37EE067A9FED256AB4EEC67AED
:10335000F1EE10FA39DD234B1B6893ED097AB5EED7
:10336000C07AF1EE10FA23DDB0EE006AB4EEC67A50
:10337000F1EE10FA1AD877EEE67AB2EE047AF4EEAD
:10338000C77AF1EE10FA22D4BAEE047AF4EEC77AD4
:10339000F1EE10FA1DD4002007E0013B0E4A136045
:1033A00001213C2004F0FEF9002008BD0020FCE7CC
:1033B000B8EE006AB4EEC67AF1EE10FADBDA00205D
:1033C000F3E70020F1E70020EFE70020EDE7012020
:1033D000EBE70120E9E700BFD40500202805002025
:1033E000000070425C00002008B5174B1B78012BD1
:1033F00006D9164B1B681BB9154A1388013B13806D
:10340000134B1B8803B108BD40F67461502007F0D0
:10341000F7FA42F6E061752007F0F2FA42F6E06151
:10342000482007F0EDFA962007F06EFE0021752087
:1034300007F0E6FA0021482007F0E2FA00213C20DC
:1034400004F0B0F9FAE700BFD8050020D405002049
:103450003000002008B50021752007F0D1FA0021C6
:10346000482007F0CDFA47F23051702007F0C8FA33
:1034700047F230514D2007F0C3FA4FF4D27007F0F5
:1034800043FE00214D2007F0BBFA0021702007F019
:10349000B7FA074BB3F9003033B1064BB3F900303C
:1034A00013B100F08DFBF4E7322007F02DFE08BDCC
:1034B000DE050020DC05002008B542F210714D2029
:1034C00007F09EFA42F21071702007F099FAE62098
:1034D00007F01AFE00214D2007F092FA002170201B
:1034E00007F08EFA08BD000008B5FFF70DFFA8B180
:1034F0002F4B40F63C721A602E4B1B787BB1013388
:103500002C4A13702C4B1B78022B4AD04FF470615D
:10351000502007F075FA962007F0F6FD08BDFFF77A
:1035200099FFC82007F0F0FDFF21062007F08CFF6F
:10353000224B1A78531EDBB2012B02D900F068FC33
:10354000F6E71D4B1A70FFF7B7FF1C4B1B78022BD9
:1035500017D040F6B831502007F052FA43F2B0616C
:10356000752007F04DFA4FF4FA51482007F048FA59
:103570004FF4FA7007F0C8FD0E4A13780133137048
:10358000CCE740F69C61502007F03AFA4FF4FA512C
:10359000752007F035FA43F2B061482007F030FAA1
:1035A000E6E740F6C231502007F02AFAB3E700BF41
:1035B000D4050020D8050020D9050020E005002012
:1035C00008B55E2004F00AF908B9012008BD5D20A5
:1035D00004F004F958B15C2004F000F948B15B2014
:1035E00004F0FCF808B10020F0E70420EEE7022028
:1035F000ECE70320EAE710B5532004F0EFF80446A7
:10360000542004F0EBF80346012C14BF00220122E1
:1036100000280CBF1046002060B9012B14BF002306
:103620000123002C0CBF1C4600242CB91A4202D0E6
:10363000112000E0012010BD1020FCE710B5002093
:1036400007F0E8FF3F4A0021084608F091F83E4C99
:10365000D4ED007AFDEEE77A17EE903A1AB2002127
:10366000322008F0B5F8394A0121002008F080F82E
:10367000D4ED017AFDEEE77A17EE903A1AB2012105
:10368000322008F0A5F8324A0221002008F070F834
:10369000D4ED027AFDEEE77A17EE903A1AB20221E3
:1036A000322008F095F82B4A0321002008F060F83A
:1036B000D4ED037AFDEEE77A17EE903A1AB20321C1
:1036C000322008F085F8244A0421002008F050F840
:1036D000D4ED047AFDEEE77A17EE903A1AB204219F
:1036E000322008F075F81D4A0521002008F040F846
:1036F000D4ED057AFDEEE77A17EE903A1AB205217D
:10370000322008F065F8164A0621002008F030F84B
:10371000144B1B68D3ED097AFDEEE77A17EE903A69
:103720001AB20621322008F053F80F4A0721002070
:1037300008F01EF80D4BB3F900200721322008F0E5
:1037400047F810BDD8BA007028050020E0BA007014
:10375000E8BA0070F0BA0070F8BA007000BB0070F0
:1037600008BB00705C00002018BB0070D005002072
:1037700038B5FFF740FF0446FFF722FF0546112C3E
:103780000CD8DFE804F0090C0B0B0B0B0B0B0B0B2D
:103790000B0B0B0B0B0B8AA3FFF750FF38BD002060
:1037A00007F038FF644A0021084607F0E1FF634B49
:1037B0001B68D3ED007AFDEEE77A17EE903A1AB265
:1037C0000021322008F004F85D4A0221002007F0B1
:1037D000CFFF5C4BB3F900200221322007F0F8FF45
:1037E000594A0321002007F0C3FF584BB3F90020CA
:1037F0000321322007F0ECFF554A0421002007F096
:10380000B7FF544BB3F900200421322007F0E0FF4A
:10381000514A0521002007F0ABFF504BB3F90020BF
:103820000521322007F0D4FF681E0328B6D8DFE850
:1038300000F0020D1826414B1B68D3ED007AB6EE5E
:10384000007A77EE877AC3ED007AA7E73B4B1B68D7
:10385000D3ED007AB6EE007A77EEC77AC3ED007A40
:103860009CE7364B1C686068FFF796F830A3D3E9F5
:103870000023FEF733FFFFF7E7F860608EE72F4B7A
:103880001C686068FFF788F829A3D3E90023FEF7D6
:1038900023FFFFF7D9F8606080E7002007F0BAFE49
:1038A0002F4A0121002007F063FF022D7FF476AF3D
:1038B000224B1C68A068FFF76FF81DA3D3E9002313
:1038C000FEF70AFFFFF7C0F8A06067E7002007F0E7
:1038D000A1FE244A0021084607F04AFF224B1A782D
:1038E0000021322007F074FF204A0121002007F058
:1038F0003FFF1F4B1A780121322007F069FF1D4A54
:103900000221002007F034FF1B4BB3F900200221F5
:10391000322007F05DFF012D06D0022D7FF43EAF6F
:10392000164B00221A8039E7144B01221A8035E722
:103930007B14AE47E17A843F20BB00705C0000201E
:103940002CBB0070DC05002038BB0070DE050020B9
:1039500044BB0070320000204CBB007034000020DB
:1039600054BB007060BB0070D205002068BB0070C3
:10397000D305002070BB0070D40500203600002065
:1039800010B40A4CC462CC62094C04600024446048
:1039900084604FF07650D860064B0B60064B4B604E
:1039A0008C60D0605DF8044B704700BF0000C843D6
:1039B00000004843000020430000204108B5614B4F
:1039C0001B6893ED097A604B1B684BB95F4B1B7802
:1039D000012B02D9DFED5E7A04E0DFED5E7A01E0D3
:1039E000DFED5D7AB5EEC07AF1EE10FA75DDF0EE3E
:1039F0000C6AB4EEE67AF1EE10FACCBF0123002394
:103A0000002B77D0B5EEC07AF1EE10FA6FDDF0EE54
:103A1000476AF2EE045A86EEA56ADFED505A36EE9A
:103A2000256ADFED4F5A27EE257A26EE077ADFED7D
:103A30004D5A66EEA56A66EE866A77EEE67A77EE0E
:103A4000276AFCEEE66A16EE903A9AB2464B1A8066
:103A500077EEC77AFCEEE77A17EE903A9BB24349CD
:103A60000B8046F2A8118A4201D93F4A118041F2E7
:103A70008732934203D83C4A41F28831118046F2A2
:103A8000A812934201D9394B1A80384B1A8841F257
:103A900087339A4203D8354B41F288321A80344B2F
:103AA00093ED017AF6EE007AB4EEE77AF1EE10FAD1
:103AB00008D593ED027AF7EE007AB4EEE77AF1EEEC
:103AC00010FA1AD4284B1988752006F099FF274B55
:103AD0001988482006F094FF08BDF8EE0C6AB4EE91
:103AE000E67AF1EE10FA4CBF0123002388E7F1EEED
:103AF000476A8EE79FED1F7AA1E793ED037AB4EE54
:103B0000E77AF1EE10FADDD593ED047AF0EE087A5B
:103B1000B4EEE77AF1EE10FAD4D593ED007AF6EE32
:103B2000007AB4EEE77AF1EE10FACBD593ED057A90
:103B3000B4EEE77AF1EE10FAC4D50C4B00221A80ED
:103B4000C0E700BF5C000020D4050020D80500209D
:103B500000803B4600204B4600007A46CDCC4C3FCF
:103B60000000964300008C42320000203400002008
:103B7000280500200000000008B543F698217520B4
:103B800006F03EFF43F69821482006F039FF0B4B24
:103B900093ED007AF3EE0C7AB4EEE77AF1EE10FAD8
:103BA00002D5FFF755F9F2E740F6D861502006F04C
:103BB00027FF642007F0A8FA08BD00BF28050020F1
:103BC00038B51E4D2B684FF07A52DA601C4C2368D2
:103BD0004FF07852DA602A21032007F025FA07EE29
:103BE000900A2B68F8EEE77AC3ED027A0C210120E7
:103BF00007F01AFA4042236807EE900AF8EEE77AD7
:103C0000C3ED027A0C21012007F026FA2A210320B5
:103C100007F022FA286800F019F8BDEEC00A094B37
:103C200010EE102A1A80206800F010F8BDEEC00ACD
:103C3000054B10EE102A1A8038BD00BF400000204E
:103C400044000020DC050020DE05002090ED037A12
:103C500090ED020A27EE000AF7EE007A77EEC77AB7
:103C600090ED017A67EE877A30EE270A80ED000A40
:103C700080ED010A704710B50446084694ED0A7AB3
:103C8000D4ED097A37EE677A84ED037A84ED057A0C
:103C9000D4ED047A77EE277AF6EE006A67EEA67A1C
:103CA000D4ED0C6A77EEA67AC4ED0C7AF5EEC07A04
:103CB000F1EE10FA36DDB0EE676AD4ED0B6AF4EE81
:103CC000C66AF1EE10FA06D5F5EEC07AF1EE10FAFA
:103CD0002BDDC4ED0C6A80ED027AFFF7B7FF84EDAF
:103CE000050A94ED067A30EE477A84ED0D7A84ED7C
:103CF000060AD4ED037AC4ED047A94ED000A27EEA7
:103D0000800AD4ED017AD4ED0C6A67EEA67A30EE23
:103D1000270AD4ED027A27EE277A30EE070A84EDDF
:103D2000080A10BDB1EE676AC7E7F1EE666AC4ED36
:103D30000C6AD0E70A4B40F666521A80094B0360C2
:103D4000002343604FF07F5282608361C36103614F
:103D5000054AC26283624FF07A53CB60704700BF5E
:103D60003C000020000050410000C84238B5044625
:103D70000D46FFF72BFA84ED090AF0EE047AB4EE53
:103D8000E70AF1EE10FA12DBB5EEC00AF1EE10FA16
:103D90002DDDB2EE047AC0EE077AB2EE007A67EE5D
:103DA000877AB2EE0A7A77EE877AC4ED007A2946EE
:103DB0002046FFF760FF144BD3ED007A20EE270A70
:103DC000BDEEC00A10EE103A9BB203F666539BB2EA
:103DD0000E4A1380B3F5706F0CD913464FF470621E
:103DE0001A800A4B1988502006F00AFE38BDB1EE41
:103DF000400ACEE740F6C1329342F2D8034B40F678
:103E0000C2321A80EDE700BF380000203C000020DD
:103E100008B50249062007F023FB08BDE005002095
:103E200010EE102A064B13445B0807EE903A80EE22
:103E3000277A77EE877AB6EE000A27EE800A704777
:103E400062CF763F08B500F039FEBFF34F8F08BD53
:103E500008B5254BD3F80C3113F0010F18D1224BC4
:103E6000D3F81C3113F0010F25D11F4BD3F82C319F
:103E700013F0010F28D11C4BD3F83C3113F0010F84
:103E800003D0194B0122C3F83C21BFF34F8F08BD6B
:103E9000FEF7DEFFFFF7BCFFFFF726FBFFF7A4FAF4
:103EA000124B1968124B1868FFF760FF0E4B012286
:103EB000C3F80C21D3E7FFF783FEFFF759FC0A4B49
:103EC0000122C3F81C21D0E70A4B1B680A4A12687A
:103ED0000A4909680A480068FFF770FD024B012291
:103EE000C3F82C21C7E700BF00400840580000205D
:103EF0005C000020500000204800002054000020FA
:103F00004C00002038B5EFF3108372B603F00EF8C2
:103F1000642007F0F9F802220421012003F0D2FB0B
:103F200002221146012003F0CDFB022203210120D1
:103F300003F0C8FB02220121084603F0C3FB022262
:103F40000521012003F0BEFB02220621012003F01F
:103F5000B9FB40F666523221502006F07BFC40F659
:103F600066523221C32006F075FC002243F2C821BC
:103F7000752006F06FFC002243F2C821482006F0AD
:103F800069FC002243F2C821702006F063FC002285
:103F900043F2C8214D2006F05DFC00227D2128203F
:103FA00006F058FC0F220C21012006F0F5FF2D220F
:103FB0002A21032006F0F0FF47F2480301220021E6
:103FC0005E2003F0C3FB47F24803012200215D207D
:103FD00003F0BCFB47F24803012200215C2003F000
:103FE000B5FB47F24803012200215B2003F0AEFB42
:103FF00047F2480300221146532003F0A7FB47F283
:10400000480300221146542003F0A0FB07F020FBD8
:1040100047F2480300220121292003F097FB47F2D1
:104020004803002201213C2003F090FB18231622B4
:104030004FF4E131062007F0DDF922231F224FF46F
:104040001651082007F0D6F906F062F9042000F0B6
:1040500089FC264BA3FB00318909002006F06EF98C
:10406000042000F07FFC03469800990FC01841F12E
:1040700000018B0043EA90738200104619464FF40A
:104080007A720023FEF730FD0146012006F056F952
:10409000042000F067FC8400850F241845F100051A
:1040A0004FF47A720023201945EB0501FEF71CFD41
:1040B0000146022006F042F90D4B102283F87A23C4
:1040C0000C4B1B680C4A12680C4909680C480068C4
:1040D000FFF756FC0B4B19680B4B1868FFF72AFECD
:1040E000FFF74AFD002383F31088FEE7D34D6210EB
:1040F00000E100E0480000205000002054000020B3
:104100004C000020580000205C0000207047000098
:1041100010B5454AD2F8883043F47003C2F88830AD
:10412000424A13899BB223F001039BB21381404999
:104130000B899BB223F001039BB20B81138813F010
:10414000040F05D013889BB223F004039BB21380A5
:10415000374B1B8813F0040F06D0354A13889BB2E7
:1041600023F004039BB21380324A334B53604FF663
:10417000FF739360136823F0A00343F020031360E0
:104180002E4B1B6813F0010F04D02C4A136823F048
:1041900001031360244B5B6913F4003F13D1BFF399
:1041A0004F8FBFF36F8F204B0022C3F85022BFF315
:1041B0004F8FBFF36F8F5A6942F400325A61BFF3D9
:1041C0004F8FBFF36F8F184B5B6913F4803F02D0A2
:1041D000FFF79CFF10BD144B0022C3F88420BFF3EF
:1041E0004F8FD3F88040C4F34E3100E01946C4F33A
:1041F000C90243F6E07303EA411343EA82730A48B3
:10420000C0F860321346013A002BF2D14B1E002950
:10421000ECD1BFF34F8F436943F480334361BFF365
:104220004F8FBFF36F8FD3E700ED00E000800B40AE
:1042300000000D4000C00B4020C528D910E000E070
:1042400008B50346002000E00130022804D8074AE0
:1042500052F820209A42F7D1022800D808BD044B1A
:10426000044A3521044802F043FD00BFD0BC007071
:104270007CBB007084BC0070A0BB007070B50029CE
:104280004FD005460C46FFF7DBFF2C4B33F91010DF
:10429000080A01F01F06B1F5006F48D2284951F80D
:1042A00020300322B24023EA0203134341F82030B6
:1042B000696C01F46041A379DB0203F4C053E27935
:1042C000120202F440721343227A02F003021343F3
:1042D000627A520102F060021343A27A920002F065
:1042E0000C0213430B4322780AB143F48033227942
:1042F0000AB143F01003E2780AB143F08003A278D8
:104300000AB143F480636B64AB6C23F041036278C1
:104310000AB143F0400362790AB143F00103AB6490
:1043200070BD084B084A4221084802F0E1FC084BE6
:10433000084A4FF47571084802F0DAFCDCBC0070E2
:1043400068C00F40ECBB007094BC0070A0BB007054
:10435000FCBB007070BC007008BC007008B578B180
:10436000012242710022027042708270C27002719A
:104370008271C2710321017242720222827208BDEF
:10438000024B034A9021034802F0B2FCECBB0070E0
:10439000A0BC0070A0BB007010B55AB107290FD89F
:1043A000136803F01F0312790AB143F0800340F849
:1043B000213010BD054B064ABF21064802F098FC8B
:1043C000054B034AC021034802F092FCECBB00708D
:1043D000B8BC0070A0BB007054BC00700346426CB7
:1043E00012F4005F14D0426C22F4005242640121A6
:1043F0000222DA649A6C42F080029A649A6C12F09B
:10440000800F07D0DA6C12F0020FF7D0012002E023
:104410000021EDE700201A6A12F0010F00D10120FF
:10442000DA6C12F0020F00D001205A6A19B15A6CEE
:1044300042F400525A64704708B5D8B9104B4FF097
:104440008042C3F858210E4BD3F8703213F4803FEA
:10445000F9D00B4B4FF48032C3F85421084BD3F8FA
:10446000503113F4004FF9D0054B4FF48032C3F8AC
:10447000582108BD034B044A9A21044802F038FC35
:1044800000800D40E4BC007040BD0070F4BC0070C2
:1044900020B9054B1022C3F874227047024B10223A
:1044A000C3F87822704700BF00800D40034AD2F85D
:1044B000703243F00103C2F87032704700800D4043
:1044C0000F490B6823F4E0330279920392B213434D
:1044D00043F480330B600A680A4B1340026802F011
:1044E0007F02134343F400530B60054B1B68002B02
:1044F000FBDA034A136823F480331360704700BF6C
:1045000000800D4080CFFFFF014B00221A627047F0
:1045100000800D40024B4FF480521A67704700BF75
:1045200000800D40024B4FF48052C3F8A02070472A
:1045300000800D40024B4FF48052C3F8E0207047DA
:1045400000800D4070B584B004467A4B0FCB04ADAB
:1045500005E90F00C4F30B41774A8D5804F01F00A2
:10456000012383401D401ED08B5813F4404F07D1C8
:10457000D2F8703213F0100F18D1704B1D6800E0A4
:1045800000258B5813F480330DD16D4A94425ED0D0
:104590000ED96C4A944200F0B58036D96A4A9442EA
:1045A00040F0C580694D284604B070BD684DE8E70D
:1045B000A2F5A002944200F0AF8013D9654A94425C
:1045C00021D15D4C206D226E0023A5FB0001FEF77A
:1045D0008BFA236B13F0010F33D0162303FB05F581
:1045E0000544E0E70D2C24D0A2F58012944208D1B6
:1045F000514B1B6913F0020F27D0162303FB05F55F
:10460000D1E71D46CFE71D46CDE7534A94424DD032
:1046100002F5800294420AD1474BD3F8E03003F010
:10462000030304AA02EB830353F8105CBBE71D46A7
:10463000B9E7414B1B6803F07F0305FB03F56D08E9
:10464000B1E705EB8505AD00CAE71423D6E73A4C80
:10465000266F06F07F06D4F88000D4F8902000235F
:10466000A5FB0001FEF740FA05FB0605236F13F4D6
:10467000C01315D0B3F5002F14D02F4BD3F87031E1
:1046800023F07F4323F4FE0323F4FF4323F07F034F
:10469000B3F5004F08D0314A934284D1AD0882E788
:1046A000AD08EAE76D08E8E76D087CE7224CD4F82E
:1046B000A06006F07F06D4F8B000D4F8C020002334
:1046C000A5FB0001FEF710FA05FB0605D4F8A030A3
:1046D00013F4C01310D0B3F5002F0FD0164BD3F83E
:1046E000703103F04043B3F1804F09D0B3F1404F34
:1046F0007FF459AFAD0856E7AD08EFE76D08EDE779
:104700006D0850E70C4BD3F8E03003F00C0304AA1B
:10471000134453F8105C46E7074B1B6A13F0020F73
:1047200003D0162303FB05F53DE71423FAE71D46E6
:1047300039E700BFC8BA007000800D40E0060020D5
:104740000D0070001400E0001500E00040787D01CD
:1047500000366E010D0030000D00A00000808000CA
:1047600010B504461648FFF7EDFE032C26D8DFE807
:1047700004F0020D151D134BD3F8003103F03F0375
:10478000B0FBF3F000EBC000400010BD0D4BD3F8C0
:104790000031C3F30523B0FBF3F0F3E7094BD3F883
:1047A0000031C3F30543B0FBF3F0EBE7054BD3F85F
:1047B0000031C3F30563B0FBF3F0E3E70020E1E76A
:1047C0000D00300000800D4008B5284B586910F0EE
:1047D000007025D09B6903F44053B3F5805F10D07F
:1047E000B3F5005F16D043B10020204B5B69C3F3E3
:1047F000C2630133B0FBF3F008BD1D48FFF7A2FE12
:10480000F3E71C4BD3F8703213F0100F06D11A4B9C
:104810001868EAE71948FFF795FEE6E71848E4E765
:10482000124B9B6903F44023B3F5002F1AD007D82D
:10483000A3B1B3F5802FDFD10220FFF791FFDBE7B3
:10484000B3F5402FD8D10D20FFF77CFE074B1B6935
:1048500003F007030133B0FBF3F0CDE70748FFF7A0
:1048600071FEC9E70020FFF77BFFC5E700C00F40DE
:104870000D00100000800D40E00600200D0030000B
:1048800000366E0108B5FFF79FFF044B5B69C3F369
:1048900082230133B0FBF3F008BD00BF00C00F401E
:1048A00008B5FFF7EFFF044B5B69C3F30123013346
:1048B000B0FBF3F008BD00BF00C00F4010B50446C8
:1048C0001648FFF73FFE032C26D8DFE804F0020D60
:1048D000151D134BD3F8F03003F03F03B0FBF3F09A
:1048E00000EBC000400010BD0D4BD3F8F030C3F317
:1048F0000523B0FBF3F0F3E7094BD3F8F030C3F333
:104900000543B0FBF3F0EBE7054BD3F8F030C3F30E
:104910000563B0FBF3F0E3E70020E1E70D001000D2
:1049200000800D4008B50E4B5B6913F0400F13D0AB
:104930000B4B5B6913F0800F0AD00120FFF7BEFF1D
:10494000074B5B69C3F302430133B0FBF3F008BDCF
:104950000220FFF705FFF3E7FFF736FFF0E700BFA0
:1049600000C00F4008B5172869D8DFE800F00F0F26
:104970001215181B0C24282C3034383C4044484C69
:104980005054585C60644FF4004001E0FFF77AFF38
:1049900008BDFFF7C7FFFBE7FFF782FFF8E700F06E
:1049A00069F8F5E7284BD3F8703213F0100F48D1AF
:1049B000264B1868ECE70D20FFF7C4FDE8E7244814
:1049C000FFF7C0FDE4E70020FFF778FFE0E70120F4
:1049D000FFF774FFDCE70220FFF770FFD8E7032042
:1049E000FFF76CFFD4E71B48FFF7ACFDD0E71A4890
:1049F000FFF7A8FDCCE70020FFF7B2FEC8E70120D3
:104A0000FFF7AEFEC4E70220FFF7AAFEC0E70320CF
:104A1000FFF7A6FEBCE71148FFF794FDB8E7104882
:104A2000FFF790FDB4E70F48FFF78CFDB0E70E48A5
:104A3000FFF788FDACE70D48FFF784FDA8E70020ED
:104A4000A6E70B48A4E700BF00800D40E006002069
:104A50000D0010000D0020000D0030000D00E000E2
:104A60001400E0001500E0000D0070000D00A00033
:104A700000366E0108B50D4BDB6913F0400F0FD007
:104A80000B4BD3F8703213F0100F0DD1094B18688F
:104A9000064BDB6903F03F030133B0FBF3F008BDC5
:104AA0000320FFF75FFFF3E70348F1E700C00F4083
:104AB00000800D40E006002000366E0108B5034B73
:104AC0001B68034A11680348984708BDE8060020A0
:104AD000E406002000C02B4008B51F2914D800EBC5
:104AE000411241F21C03D25AC2F3C013C26ACA4037
:104AF000520002F002021A43436ACB409B0003F0CB
:104B0000040342EA030008BD034B044A40F2AD210E
:104B1000034802F0EDF800BFC8BD007030BE007061
:104B20007CBD007070B5002834D004468368027CD8
:104B3000DA77C068002834D0A36803EB421341F24F
:104B40001802995841F21C029D5A05F08005002D6B
:104B500014BF01220022A1EB00034FEA531129D018
:104B6000C9B2637C5BB299422ED0637C5BB2CB1A34
:104B700035D449B26174E17C49B2C91A49B2E174D1
:104B8000266816B161682046B04715B1A368227C3B
:104B90001A7770BD144B154A40F2BE41144802F01A
:104BA000A7F82568002DC7D00023012261682046A0
:104BB000A847EEE71F2B03D9C9B20139C9B2D0E724
:104BC000217D0139C9B2CCE7E07C40B2237D5BB2E4
:104BD000984201D00023CCE7E37C5BB2C9E7207D9B
:104BE00043FA80F3C5E700BF20BE00704CBE0070E2
:104BF0007CBD007008B500210B48FFF76DFF10F079
:104C0000040F07D110210848FFF766FF10F0040FCA
:104C100005D108BD054B1868FFF784FFF2E7034B89
:104C2000186CFFF77FFFF4E700800E40EC060020D1
:104C300008B501210B48FFF74FFF10F0040F07D113
:104C400011210848FFF748FF10F0040F05D108BDF7
:104C5000054B5868FFF766FFF2E7034B586CFFF708
:104C600061FFF4E700800E40EC06002008B5022149
:104C70000B48FFF731FF10F0040F07D1122108484D
:104C8000FFF72AFF10F0040F05D108BD054B986807
:104C9000FFF748FFF2E7034B986CFFF743FFF4E799
:104CA00000800E40EC06002008B503210B48FFF7FA
:104CB00013FF10F0040F07D113210848FFF70CFF72
:104CC00010F0040F05D108BD054BD868FFF72AFF87
:104CD000F2E7034BD86CFFF725FFF4E700800E40A6
:104CE000EC06002008B504210B48FFF7F5FE10F094
:104CF000040F07D114210848FFF7EEFE10F0040F4F
:104D000005D108BD054B1869FFF70CFFF2E7034B0F
:104D1000186DFFF707FFF4E700800E40EC06002057
:104D200008B505210B48FFF7D7FE10F0040F07D197
:104D300015210848FFF7D0FE10F0040F05D108BD7B
:104D4000054B5869FFF7EEFEF2E7034B586DFFF78E
:104D5000E9FEF4E700800E40EC06002008B50621CD
:104D60000B48FFF7B9FE10F0040F07D116210848D1
:104D7000FFF7B2FE10F0040F05D108BD054B98698E
:104D8000FFF7D0FEF2E7034B986DFFF7CBFEF4E799
:104D900000800E40EC06002008B507210B48FFF705
:104DA0009BFE10F0040F07D117210848FFF794FE6F
:104DB00010F0040F05D108BD054BD869FFF7B2FE0E
:104DC000F2E7034BD86DFFF7ADFEF4E700800E402D
:104DD000EC06002008B508210B48FFF77DFE10F017
:104DE000040F07D118210848FFF776FE10F0040FD2
:104DF00005D108BD054B186AFFF794FEF2E7034B97
:104E0000186EFFF78FFEF4E700800E40EC060020DE
:104E100008B509210B48FFF75FFE10F0040F07D11A
:104E200019210848FFF758FE10F0040F05D108BDFE
:104E3000054B586AFFF776FEF2E7034B586EFFF713
:104E400071FEF4E700800E40EC06002008B50A2150
:104E50000B48FFF741FE10F0040F07D11A21084854
:104E6000FFF73AFE10F0040F05D108BD054B986A14
:104E7000FFF758FEF2E7034B986EFFF753FEF4E797
:104E800000800E40EC06002008B50B210B48FFF710
:104E900023FE10F0040F07D11B210848FFF71CFE6A
:104EA00010F0040F05D108BD054BD86AFFF73AFE94
:104EB000F2E7034BD86EFFF735FEF4E700800E40B3
:104EC000EC06002008B50C210B48FFF705FE10F09A
:104ED000040F07D11C210848FFF7FEFD10F0040F56
:104EE00005D108BD054B186BFFF71CFEF2E7034B1D
:104EF000186FFFF717FEF4E700800E40EC06002065
:104F000008B50D210B48FFF7E7FD10F0040F07D19E
:104F10001D210848FFF7E0FD10F0040F05D108BD82
:104F2000054B586BFFF7FEFDF2E7034B586FFFF799
:104F3000F9FDF4E700800E40EC06002008B50E21D4
:104F40000B48FFF7C9FD10F0040F07D11E210848D8
:104F5000FFF7C2FD10F0040F05D108BD054B986B9B
:104F6000FFF7E0FDF2E7034B986FFFF7DBFDF4E797
:104F700000800E40EC06002008B50F210B48FFF71B
:104F8000ABFD10F0040F07D11F210848FFF7A4FD67
:104F900010F0040F05D108BD054BD86BFFF7C2FD1B
:104FA000F2E7034BD86FFFF7BDFDF4E700800E403A
:104FB000EC06002008B50346002000E0013002287E
:104FC00004D8074A52F820209A42F7D1022800D884
:104FD00008BD044B044A4FF49D71044801F088FE5B
:104FE000F0BE0070B8BE0070DCBE00705CBE007029
:104FF00070B504464668FFF7DDFF054616F0406FC2
:1050000006D0124B1B68124A52F8201020469847CF
:1050100016F0407F06D00F4B1B680D4A52F8251042
:105020002046984716F4C03F05D0094B53F8251089
:10503000204600239847084B1E4206D0074B1B68AA
:10504000034A52F825102046984770BD7C0700207F
:105050006C0700207807002000007C6074070020A7
:1050600008B5034B196803480023984708BD00BFE3
:105070006C07002000802D4008B50248FFF7B8FFFC
:1050800008BD00BF00802D4008B50248FFF7B0FF03
:1050900008BD00BF00402D4008B5074B596821B13D
:1050A000064B1B680648984708BD064B064A40F663
:1050B0006A21064801F01CFE8007002090070020AE
:1050C00000001D4070BF0070ACBF007020BF0070BA
:1050D00008B5074B996821B1064B1B6806489847ED
:1050E00008BD064B064A40F67821064801F000FE4E
:1050F000800700209007002000401D4084BF007002
:10510000C4BF007020BF007008B5074BD96821B13B
:10511000064B1B680648984708BD064B064A40F6F2
:105120008621064801F0E4FD80070020900700205A
:1051300000801D4098BF0070DCBF007020BF007071
:1051400010B5002401E00134E4B2012C0CD8074B67
:1051500053F824100029F6D0054B53F82430054AA3
:1051600052F824009847EEE710BD00BF94070020D6
:105170009C070020A407002008B5FFF7E1FF08BD49
:1051800008B5FFF7DDFF08BD08B5FFF7D9FF08BD7B
:1051900008B502460020092806D8084B53F82030ED
:1051A000934201D00130F6E7092800D808BD044B2E
:1051B000044A3921044801F09BFD00BFA8C00070DB
:1051C000F4BF007084C0007018C0007008B51F29BB
:1051D00008D86AB90368012202FA01F123EA010141
:1051E000016008BD064B074A6B21074801F080FDAE
:1051F0000368012202FA01F119430160F1E700BFDF
:1052000064C0007098C0007018C0007010B4C46909
:1052100001238B4024EA0304C4610F2909D800F15B
:105220000C04013A042A0FD8DFE802F007111C270A
:105230002F0000F110041039F3E723684A0003211E
:10524000914023EA010121605DF8044B7047236817
:1052500048000322824023EA0203012181401943CE
:105260002160F1E7236848000322824023EA020319
:105270000221814019432160E6E7236849000322A7
:1052800002FA01F119432160DEE7C2691343C361E9
:10529000DAE70000F8B504460E461746FFF778FF38
:1052A0001A4B33F91010B1F5006F1ED2080A01F045
:1052B0001F05174951F820300322AA4023EA0203B0
:1052C000134341F8203063690125B540EA4323EADE
:1052D000050363613B787BB963681A406260BA7802
:1052E00031462046FFF792FFF8BD0A4B0A4A4FF4B9
:1052F00075710A4801F0FCFC7A7831462046FFF7C8
:1053000065FF63681D436560E9E700BFD0C00070BA
:1053100068C00F40FCBB007070C0007008BC00701B
:1053200008B50346002000E00130022804D8074AEF
:1053300052F820209A42F7D1022800D808BD044B29
:10534000044A2F21044801F0D3FC00BF28C200709A
:10535000DCC00070F4C1007000C1007070B500299D
:1053600056D004460D46FFF7DBFF3D4B33F91010D6
:10537000080A01F01F06B1F5006F4FD2394951F804
:1053800020300322B24023EA0203134341F82030C5
:1053900000232360236843F400432360236813F44D
:1053A0000043FBD12A7A002A3FD04FF40072697A79
:1053B00000293CD008210A43A97A002939D02021AC
:1053C0000A43E97A002936D010210A43297B0029B3
:1053D00033D004210A43697B01B1022313432360C4
:1053E0002B78052B2BD0226822F4B8629B0103F4A2
:1053F000E073134323606B68013BB3F5805F29D2F0
:105400006168194A0A40C3F30B031343636070BD1C
:10541000164B174A3C21174801F06AFC164B174AF5
:105420004FF47571164801F063FC1A46BFE7194640
:10543000C1E71946C4E71946C7E71946CAE7226813
:1054400022F4B8629B0103F4E073134343F48063D6
:105450002360D0E70B4B0C4ADB210C4801F048FCE1
:1054600034C2007068C00F4000F0FFFF4CC10070F4
:1054700004C2007000C10070FCBB0070CCC10070A1
:1054800008BC007058C10070E0C1007080C100709D
:1054900010B500220260FFF743FF0D4B33F91030C7
:1054A000B3F5006F0CD2190A03F01F04094850F835
:1054B00021300322A24023EA020340F8213010BD2C
:1054C000054B064A4FF47571054801F011FC00BF09
:1054D00034C2007068C00F40FCBB0070CCC10070CB
:1054E00008BC007008B560B100210160C1600122F4
:1054F0000270426082724272C17201730172427321
:1055000008BD034B034A7221034801F0F1FB00BFC1
:10551000F4BB007010C2007000C1007038B50446C2
:105520000D46036913F0010F06D00A4B1B681BB12F
:10553000094A52F821109847D4F8103113F0010F9E
:1055400007D0064B1B6823B1054A52F825102046A8
:10555000984738BDC0070020AC070020D8070020BE
:10556000C407002008B501210148FFF7D7FF08BD97
:1055700000003F4008B502210148FFF7CFFF08BDFA
:1055800000403F4008B503210148FFF7C7FF08BDB1
:1055900000803F4008B504210148FFF7BFFF08BD68
:1055A00000C03F4008B5436A13F0010F03D0044B1D
:1055B0001B68984708BD034B1B689847FAE700BF74
:1055C000F0070020F407002008B5074B596819B10F
:1055D0000648FFF7E7FF08BD054B064A40F2D371C6
:1055E000054801F085FB00BFDC0700200040394082
:1055F00098C20070E8C2007044C2007008B5074B42
:10560000996819B10648FFF7CDFF08BD054B064A5A
:1056100040F2DB71054801F06BFB00BFDC070020A6
:1056200000803940ACC2007000C3007044C20070FA
:1056300008B5074BD96819B10648FFF7B3FF08BD95
:10564000054B064A40F2E371054801F051FB00BFEB
:10565000DC07002000C03940C0C2007018C30070D1
:1056600044C2007008B5074B196919B10648FFF725
:1056700099FF08BD054B064A40F2EB71054801F061
:1056800037FB00BFDC07002000003A40D4C20070A6
:1056900030C3007044C2007008B5024600200828DC
:1056A00006D8084B53F82030934201D00130F6E77A
:1056B000082800D808BD044B044A7A21044801F0A8
:1056C00017FB00BFA8C400709CC3007070C40070BA
:1056D00050C300702DE9F04179B1054696460F465A
:1056E0000A6882B10B7A042B13D84B7A042B16D894
:1056F00090460420002426461DE0714B714AEE219D
:10570000714801F0F5FA714B6E4AEF216E4801F0D5
:10571000EFFA6F4B6B4AF1216B4801F0E9FA6D4BE0
:10572000684AF221684801F0E3FA414502D8884608
:1057300004461E460130202817D800FB02F3BEFBAA
:10574000F3F39BB203B9012300FB03F1BEFBF1F1BC
:10575000891A03FB000CBEFBFCFCA2EB0C0C8C4575
:10576000E3D201339BB26146DFE75B4BA3FB02321E
:10577000520902EB42024245C0F09E802846FFF7E4
:105780008BFF564B33F91010080A01F01F0CB1F5CE
:10579000006F80F08180524951F82030032202FAD4
:1057A0000CF223EA0203134341F82030AB6843F0C4
:1057B0000203AB60AB6823F00203AB602B69221FCE
:1057C000032A01D843F4003323F0F852631E1B066A
:1057D00003F0F8531343434A1A40C6F30C0616432A
:1057E0002E612B6923F000532B61AB693E491940B0
:1057F0003879FB7B1B0203F4E0630343BA7B92001E
:1058000002F0040213430B437A79012A4BD008B10A
:1058100043F01003AB612A6922F40052FB795B0369
:1058200003F4005313432B617A7A3B7A43EA024331
:10583000EB62AB6A43F08803AB62AB6A43F440436C
:10584000AB62696A7B7B1B0103F010033A7B520158
:1058500002F0200213430B436B62BB7A1BB16B6AED
:1058600043F008036B62FB7A1BB16B6A43F00103E0
:105870006B62BB79F3B11D4A6B6913436B61AB6912
:105880003A7C0AB143F400237A7C0AB143F48023C2
:10589000AB610020BDE8F081154B164A4FF47571DD
:1058A000154801F025FA10B123F40063B2E743F480
:1058B0000063AFE7114ADFE740F22150EAE700BF9B
:1058C000F4BB007084C4007050C30070C4C3007087
:1058D000DCC300701CC400701F85EB51CCC4007089
:1058E00068C00F4000E0FFFFE8F8FFFF00C01FE0C6
:1058F000FCBB00705CC4007008BC007000C01FC01E
:1059000010B5C36A13F4E06FFBD1436913F4800F41
:10591000FBD04269104B1343436100238361FFF7BF
:10592000BBFE0E4B33F91010080A01F01F04B1F54D
:10593000006F09D20A4951F820300322A24023EA1D
:10594000020341F8203010BD064B074A4FF4757131
:10595000064801F0CDF900BF00C01FC0CCC40070E4
:1059600068C00F40FCBB00705CC4007008BC0070D5
:1059700008B598B1002242824FF4E1310160027112
:1059800042718271C271027242728272C272427339
:1059900002738273C2730274427408BD034B044ADB
:1059A00040F20621034801F0A3F900BFF4BB0070E8
:1059B00090C4007050C3007008B5034B1B68034AC5
:1059C00051680348984708BD1C080020F8070020CC
:1059D0000040184008B5034B1B68034A9168034810
:1059E000984708BD1C080020F807002000801840D8
:1059F00008B5034B1B68034AD1680348984708BDA4
:105A00001C080020F807002000C0184008B5034B10
:105A10001B68034A11690348984708BD1C08002009
:105A2000F80700200000194008B5034B1B68034A23
:105A300051690348984708BD1C080020F80700205A
:105A40000040194008B5034B1B68034A916903489D
:105A5000984708BD1C080020F80700200080194066
:105A600008B5034B1B68034AD1690348984708BD32
:105A70001C080020F807002000C0194008B5034B9F
:105A80001B68034A116A0348984708BD1C08002098
:105A9000F807002000001A4008B50346002008B1AE
:105AA00028B908BD054A9342FAD00130F7E7044B04
:105AB000044A3721044801F01BF900BF00400840A8
:105AC000E0C4007050C5007004C5007038B571B1F5
:105AD00004460D46FFF7E0FF144A136843F44053B1
:105AE0001360236823F00203236000230FE0104BB0
:105AF000104A4621104801F0FBF804EB0311D1F8DD
:105B0000082122F00102C1F808210133DBB2032B86
:105B1000F3D92B7823B1236823F00103236038BD28
:105B2000236843F001032360F9E700BF6CC00F4016
:105B3000F4BB007060C5007004C5007008B5026851
:105B400042F002020260FFF7A7FF034A136823F442
:105B50004053136008BD00BF6CC00F4008B502463B
:105B60000020042806D8084B53F82030934201D077
:105B70000130F6E7042800D808BD044B044A372159
:105B8000044801F0B5F800BFBCC600706CC50070D9
:105B900060C6007090C50070F8B5002A6CD005464C
:105BA0000E4614465379022B6CD0637A012B02D136
:105BB000002E00F0C6802846FFF7D0FF06EB8000DD
:105BC000624B33F91010080A01F01F07B1F5006F9E
:105BD0005CD25F4951F820300322BA4023EA020325
:105BE000134341F82030B5F88E319BB243F00F03D8
:105BF000A5F88E3106EB460305EB43139B8803F4AF
:105C0000E651637903F00303E27AD20002F038022E
:105C100013432279120202F4407213432278D20312
:105C200092B213436278920302F480421343627A81
:105C3000920002F0040213430B43E279012A2FD0B1
:105C4000022A39D04AB306EB460205EB4212938092
:105C5000D38840F68B711940A3791B0103F07003C0
:105C6000A27A120392B213430B43227A032A31D849
:105C7000DFE802F02E585E64364B374A4921374838
:105C800001F036F8002990D101204AE0344B354A22
:105C90004FF47571344801F02BF843F40053D2E708
:105CA000B5F8882192B206F10C000121814022EA68
:105CB0000102A5F88821C6E7B5F8882192B206F15D
:105CC0000C00012181400A4392B2A5F88821BAE76D
:105CD00043F0040306EB460205EB4212D380B5F80D
:105CE0009031DBB22BB1B5F8903103F47F43A5F8C6
:105CF0009031A3781B0203F4E063E2781343A5F824
:105D00009031E37AFBB906EB460305EB43139B881E
:105D10009BB243F0400306EB460605EB4615AB800D
:105D20000020F8BD23F480639BB243F40063D1E705
:105D300023F400639BB243F48063CBE743F44063F6
:105D4000C8E70120EDE70020EBE700BFD0C60070F8
:105D500068C00F40F4BB007070C6007090C5007042
:105D6000FCBB00704CC6007008BC007038B50C4617
:105D7000B0F888319BB201F108050121A94023EA5E
:105D80000103A0F88831FFF7E9FE04EB80040D4B16
:105D900033F91430B3F5006F0CD2190A03F01F0465
:105DA000094850F821300322A24023EA020340F8B8
:105DB000213038BD054B064A4FF47571054800F097
:105DC00097FF00BFD0C6007068C00F40FCBB0070DA
:105DD0004CC6007008BC007008B568B100220270A3
:105DE000427042728270C270427182710271C272DC
:105DF00082720272C27108BD024B034AD521034868
:105E000000F076FFF4BB00707CC6007090C5007097
:105E10002DE9F04F83B005469DF830A00D9F0E98F8
:105E2000F2B19846164617B343B370B353684CF2B9
:105E30005032934230D8B8F1020F00F245810C463F
:105E400001EB410105EB4111CB88C3F3021320FAAA
:105E500003F3B3FBF7F301931FFA83FB00276BE017
:105E60009A4B9B4A40F211119A4800F041FF9A4B1D
:105E7000974A4FF48971974800F03AFF974B944A3C
:105E800040F21311934800F033FF954B904A4FF4C2
:105E90008A71904800F02CFF924B8D4A40F2151108
:105EA0008C4800F025FF4FF6FF73984255D0013023
:105EB00080B252E04FEA5B014A4292B204EB4403E3
:105EC00005EB43135A8000225A81D9813378012B84
:105ED00052D04008424292B204EB440305EB431314
:105EE0005A83D8833378012B00F0D380728904EB76
:105EF000440305EB43135A8604220920337A002B0E
:105F000040F0D08004EB440105EB41114B8C9BB277
:105F10004FF0010C0CFA00F023EA00034B84B5F8B3
:105F200080319BB2111901228A4013439BB2A5F81C
:105F300080310C360137FFB2474580F0C180D6F87A
:105F400004904CF250320023ABFB0901FCF7CCFD6E
:105F500080B24CF250339945A5D0BAF1030FC1D8A5
:105F600001A353F82AF000BFB55E00708D5F00708A
:105F700011600070576000704008424292B204EB1A
:105F8000440305EB43135A82D882ABE704EB440386
:105F900005EB431300225A804FEA5B025A81A3F8B3
:105FA0000EB03378012B15D0BDF804300146181A15
:105FB0002AD4C0F34F0004EB440205EB4212508395
:105FC0005B1823D4C3F34F0304EB440205EB4212E6
:105FD000D38387E7BDF804300146181A10D4C0F304
:105FE0004F0004EB440205EB421250825B1809D4C7
:105FF000C3F34F0304EB440205EB4212D38271E773
:106000000130ECE70133F3E70130D2E70133D9E7A0
:106010004FEA5B03594289B204EB440205EB42129A
:1060200051804FF0000CA2F80AC0D3813278012AC7
:1060300008D004EB440205EB42125183C01A80B22F
:10604000D0834FE704EB440205EB42125182C31A9E
:106050009BB2D38246E704EB440305EB43130022D3
:106060005A804FEA5B025A81A3F80EB03378012BB5
:1060700007D004EB440305EB431300225A83D88373
:1060800030E704EB440305EB431300225A82D88225
:1060900028E7728904EB440305EB43131A860822B0
:1060A0000A202BE704EB440105EB41114B8C9BB21A
:1060B0004FF0010C0CFA00F003439BB24B842EE727
:1060C000002003B0BDE8F08F0120FAE7DCC50070C6
:1060D00094C6007090C50070E8C50070F4C50070EB
:1060E00000C600700CC600702DE9F0411646069FF0
:1060F0004CF25032974209D805460C46012E0CD876
:10610000032B2CD8DFE803F010378CBA714B724A9E
:1061100040F2C111714800F0EBFD714B6E4A4FF433
:10612000E1716E4800F0E4FD01EB410300EB431325
:10613000D88980B2400080B2A7FB00014CF25032F7
:106140000023FCF7D1FC80B2012E0AD04008424265
:1061500092B204EB440305EB43135A83D883BDE8A2
:10616000F0814008424292B204EB440305EB431332
:106170005A82D882F3E701EB410300EB4313D8893D
:106180001FFA80F880B2A7FB00014CF250320023C6
:10619000FCF7AAFC80B24CF250339F4218D0012E7B
:1061A0001DD00246B8EB000035D4C0F34F0004EB1D
:1061B000440305EB4313588318EB02082DD4C8F3AE
:1061C0004F0804EB440405EB4414A4F81E80C6E712
:1061D0004FF6FF739842E2D0013080B2DFE703460A
:1061E000B8EB000012D4C0F34F0004EB440205EBFF
:1061F0004212508218EB03080AD4C8F34F0804EB8C
:10620000440405EB4414A4F81680A8E70130EAE73B
:1062100008F10108F1E70130C7E708F10108CEE70E
:1062200001EB410300EB4313D8891FFA80F84FEAD2
:10623000480080B2A7FB00014CF250320023FCF76B
:1062400053FC80B2012E0CD0C8F1000292B204EBD4
:10625000440305EB43135A83A0EB080080B2D883B4
:106260007DE7C8F1000292B204EB440305EB43134F
:106270005A82A0EB080080B2D88270E701EB41039C
:1062800000EB4313D88980B2A7FB00014CF25032D7
:106290000023FCF729FC80B24CF250339F4209D016
:1062A000012E0ED004EB440305EB431300225A8366
:1062B000D88354E74FF6FF739842F1D0013080B293
:1062C000EEE704EB440305EB431300225A82D88225
:1062D00045E700BF18C60070A4C6007090C50070E6
:1062E0003CC6007008B502460020042806D8084BBA
:1062F00053F82030934201D00130F6E7042800D84B
:1063000008BD044B044A3621044800F0F1FC00BFEC
:10631000B4C70070F8C600707CC700701CC700705E
:10632000F8B5002A3DD005460E461446FFF7DAFFC1
:10633000224B33F91010080A01F01F07B1F5006F66
:1063400035D21F4951F820300322BA4023EA020314
:10635000134341F8203023785B0203F4F053627852
:10636000D20102F4C072134305EB46108381E37837
:106370001B0103F01003A278520102F02002134324
:10638000C381A3799B039BB28382C38A03F47843BE
:10639000C38223791B0203F4E06362791343C3824F
:1063A000F8BD084B084A4621084800F0A1FC084BFC
:1063B000084A4FF47571084800F09AFCC8C700708D
:1063C00068C00F40F4BB007090C700701CC700701D
:1063D000FCBB007068C7007008BC007010B500EB13
:1063E00041118B89C3F30C038B81FFF77BFF0D4BAE
:1063F00033F91030B3F5006F0CD2190A03F01F0403
:10640000094850F821300322A24023EA020340F851
:10641000213010BD054B064A4FF47571054800F058
:1064200067FC00BFC8C7007068C00F40FCBB0070AD
:1064300068C7007008BC007008B548B100228271BE
:10644000C27082700271427109210170427008BDF0
:10645000024B034A7F21034800F04AFCF4BB007062
:106460009CC700701CC7007008B51D4BD968D9B116
:106470001C4BD3F8883013F4803F05D1194BD3F867
:10648000883013F4802F0FD0164BD3F8883013F4D4
:10649000807F05D1134BD3F8883013F4806F03D07D
:1064A000114B1B680F4898470D4B9968B9B10D4BBC
:1064B0009B6813F4803F04D10A4B9B6813F4802F30
:1064C0000DD0084B9B6813F4807F04D1054B9B686B
:1064D00013F4806F03D0054B1B680248984708BD32
:1064E00020080020004038404008002044080020D8
:1064F00008B51D4B5969D9B11C4BD3F8883013F43A
:10650000803F05D1194BD3F8883013F4802F0FD07A
:10651000164BD3F8883013F4807F05D1134BD3F892
:10652000883013F4806F03D0114B1B680F489847D5
:106530000D4B1969B9B10D4B9B6813F4803F04D121
:106540000A4B9B6813F4802F0DD0084B9B6813F403
:10655000807F04D1054B9B6813F4806F03D0054BFB
:106560001B680248984708BD20080020008038407A
:10657000400800204408002008B5074B996921B164
:10658000064B1B680648984708BD064B064A40F66E
:106590001531064800F0ACFB20080020440800201C
:1065A00000C0384044C800706CC80070F8C7007064
:1065B00008B5074BD96921B1064B1B6806489847B7
:1065C00008BD064B064A4FF43261064800F090FBC6
:1065D000200800204008002000C0384058C8007043
:1065E00088C80070F8C7007008B5084B196821B159
:1065F000074B1B680BB107489847044B596821B1FA
:10660000054B1B680BB10348984708BD480800209C
:1066100054080020000038405008002008B5034B03
:106620001B68034A51680348984708BD6408002066
:106630005808002000002C4008B5034B1B68034A93
:1066400091680348984708BD640800205808002056
:1066500000402C4018B1012803D10348704703487B
:1066600070470020704700BF6808002070080020B5
:10667000024A136801331360704700BF6C080020A2
:1066800008B5FFF7E7FF18B103460120186008BD01
:106690000020FCE708B548B90A4B00221A7021B166
:1066A000CB6813B109691046984708BD054B012214
:1066B0001A700029F9D08B68002BF6D009691046B2
:1066C0009847F2E79C08002008B50D4B9B6913F032
:1066D000100F07D10A4B4FF0FF329A610120FFF7EC
:1066E000CFFF08BD064B1A68064B5B6A12F0100F0D
:1066F00019680CBF01200020FFF7CCFFEAE700BFBC
:1067000000001C407408002038B10346406830B1D6
:1067100010B544691868A04710BD032070470620D3
:10672000704710B50446012380F86F3000220E2117
:10673000FFF7EAFF022384F86E30002284F86C2011
:1067400008E002EB420304EB83030021D9601961E6
:1067500019750132072AF4D9A368002201212046C5
:106760009847002084F86F0010BD10B584B00A7AF5
:10677000102A22D002F00F04D30912F00C0F26D1F8
:1067800043EA440303EB430200EB8202D2680AB3FC
:106790000A6801924A6802924A7A8DF80C207AB10E
:1067A0000022027580F8202003EB430200EB8202F6
:1067B000D468126901A9A0470AE0FFF7B2FF07E019
:1067C00003EB430200EB820200211175ECE701208C
:1067D00004B010BD0120FBE7B0FA80F35B0900298B
:1067E00008BF01232BB910B5836823B1FFF7BDFFA4
:1067F00010BD032070470120FAE710B44C00E4B24A
:106800004268012303FA01F1C2F8AC114268D2F8E0
:10681000403143F40053C2F84031836803EB8413E2
:106820009A6A1A63836803EB8413DA6A5A634368CB
:10683000D3F8403113F4005FE8D04268D2F8403119
:1068400023F40053C2F840315DF8044B70474368AD
:10685000D3F8AC21C3F8AC214368D3F8BC21C3F80A
:10686000BC2143684FF0FF12C3F8B4214368D3F84A
:10687000B02112F0FF1FF4D1D3F8843113F4807FDC
:1068800003D0012380F85630704700B585B000234F
:10689000019310228DF80C2002938DF80D3001A980
:1068A0000068FFF799FF05B05DF804FB2DE9F043A0
:1068B00085B005468846174602EB41060023019342
:1068C0000293331D00EB83035C6824F01F0443E054
:1068D000A268A3F580531340A28BC2F30B021343AB
:1068E00001933DE04FF0FF33029347E0331D05EB8A
:1068F000830300225A6006F10C0305EB83035A6000
:10690000AB6803EB861301219960AB6803EB861338
:10691000DA6043E0FB01DBB243EA08038DF80C3098
:106920004FF000098DF80D9001A92868FFF754FF7A
:10693000CDF80490CDF80890002363602B692360A4
:106940002C6195F95430013385F85430331D05EB33
:1069500083035C6824F01F0464B3019B002BB7D051
:10696000636813F0800FBDD1E369C3F3123362682B
:10697000C2F30E429B1A029A13440293331D05EB95
:1069800083035A6806F10C0305EB83035B689A42A4
:10699000ACD01268331D05EB83035A60636813F4AF
:1069A000004FB7D1331D05EB83035B6833F01F0342
:1069B000C2D1AFE705B0BDE8F0832DE9F04F87B055
:1069C00005464368D3F8AC61002E3AD16B68D3F822
:1069D000BC210192C3F8BC21002A40F03A8107B0E3
:1069E000BDE8F08F0134E4B2032CEFD80123A340BB
:1069F0003342F7D0AB686200D2B203EB821303F1EB
:106A0000300893F83070FF093A4621462846FFF7D0
:106A10004DFF87F0010221462846FFF747FF8DF81A
:106A20001440CDF80C800823049301238DF8153011
:106A300021462846FFF7E1FE03A92868FFF7CCFEB0
:106A4000D0E70024D0E7D8464FF00009B8F1030F93
:106A500016D90BF1010B5FFA8BFBBBF11F0FBED8F0
:106A6000012303FA0BF3019A1342F2D0BBF10F0F8B
:106A7000E9D9ABF110085FFA88F84FF00109E5E7B2
:106A80004FEA480A5FFA8AFACA445FFA8AFA002390
:106A900003930493984508BF4B468BB1AB684FEA0C
:106AA0008A1103EB8A1292F8382012F0020F07D0F5
:106AB0005A5812F0005F03D15A5842F000525A500F
:106AC00056460AF1040305EB83035C6824F01F04B7
:106AD000002CBED0331D05EB83035C6824F01F043B
:106AE0002346BBB15A6812F0800F07D15A6812F4DE
:106AF000004F03D11B6823F01F03F2E75A6812F01E
:106B0000800F40F084805A6812F4004F40F081807A
:106B1000002200E0002282F00102002B14BF134685
:106B20000023002B95D1002CD2D0636813F0800F86
:106B3000CED1039B002B6ED0E369C3F3123362689E
:106B4000C2F30E429B1A049A13440493331D05EBBF
:106B500083035A6806F10C0305EB83035B689A42D2
:106B600063D01268331D05EB83035A60636813F426
:106B7000004F06D1331D05EB83035B6833F01F0321
:106B80000CD148EAC9138DF8143000278DF8157020
:106B900003A92868FFF720FE03970497002363608A
:106BA0002B6923602C6195F95430013385F85430FA
:106BB000331D05EB83035C6824F01F042246002C80
:106BC000B1D0636813F0800FADD008EB0913012139
:106BD00001FA03F36968C1F8B0316868D0F8B811F8
:106BE0001942A0D1D0F8B0111942FBD1D0F8B81198
:106BF000194298D1A96801EB8A118A60AA6802EB50
:106C00008A120021D1606A68C2F8B0318BE7002295
:106C100081E701227FE7A268A3F580531340A28B8E
:106C2000C2F30B021343039386E7331D05EB830383
:106C300000225A6006F10C0305EB83035A60AB682F
:106C400003EB8A1301219960AB6803EB8A13DA60C6
:106C50008CE74FF0000B00E710B584B000230193E0
:106C600002938DF80D304368D3F8842112F4807FAD
:106C70000BD10446D3F8843113F4007F07D00223EC
:106C800080F8583094F856302BB904B010BD00236A
:106C900080F85830F6E710238DF80C3001A92068F1
:106CA000FFF79AFD002384F85630EEE7F8B138B5C7
:106CB00005686B68D3F84441D3F848211440C3F801
:106CC000444114F0400F06D114F0010F07D114F025
:106CD000040F08D138BD2846FFF7B9FDF4E7284670
:106CE000FFF76BFEF3E72846FFF7B6FFF2E77047C2
:106CF00000BEFDE708B5134B1B6813F0400F0FD023
:106D0000114BD3F8703213F0100F18D10F4B1868D5
:106D10000C4B1B6803F03F030133B0FBF3F008BDDD
:106D20000B48FDF70FFC0B4BA3FB00308008054B15
:106D30001B6803F03F030133B0FBF3F0EFE70648B5
:106D4000E6E700BF24C00F4000800D40E0060020B1
:106D50000D001000ABAAAAAA00366E0108B5FFF715
:106D6000C9FF08BD10B45F4B5B6913F4003F0FD03F
:106D7000BFF34F8FBFF36F8F5A4B5A6922F4003223
:106D80005A610022C3F85022BFF34F8FBFF36F8FB9
:106D9000544B5B6913F4803F47D1BFF34F8FBFF370
:106DA0006F8F504A536A23F4803353624E4B5968B5
:106DB00021F0010159604D49D9604D4919614D4992
:106DC000D9604D4919614D48D8604D48186113206C
:106DD000D86019611421D9604A4919614A49D960BA
:106DE0004A4919614A48D86019614A49D9604A49F3
:106DF00019614A49D9604A4919614A49D9604A49E1
:106E00001961BFF34F8FBFF36F8F05215960536A2C
:106E100043F4803353620023C2F88430BFF34F8FB2
:106E2000D2F88000C0F34E3229E02E4B0022C3F886
:106E30008420BFF34F8F5A6922F480325A61BFF326
:106E40004F8FD3F88040C4F34E3100E01946C4F3AD
:106E5000C90243F6E07303EA411343EA827321480F
:106E6000C0F874321346013A002BF2D14B1E0029B0
:106E7000ECD1BFF34F8FBFF36F8F8EE71A46C0F38D
:106E8000C90143F6E07303EA421343EA8173154CE8
:106E9000C4F860320B460139002BF2D1531E002A90
:106EA000ECD1BFF34F8F626942F480326261BFF36D
:106EB0004F8FBFF36F8FBFF34F8FBFF36F8F0022E2
:106EC000C4F85022BFF34F8FBFF36F8F626942F453
:106ED00000326261BFF34F8FBFF36F8F5DF8044BD9
:106EE000704700BF00ED00E090ED00E0100000C032
:106EF00039001003110000803B00100312000070E5
:106F00002B0003061F0003031500002025000303C8
:106F10001600202017002820090003031800008015
:106F2000310003031900E0812900080308B5FFF7C9
:106F300019FF00F013F800F01FFBFFF70FFF0549E2
:106F4000CA6822F4E0621204120C034B1343CB60B4
:106F500008BD00BF00ED00E00003FA052DE9F04197
:106F6000BC4B4FF400421A60BB4BD3F8C02242F432
:106F70008032C3F8C022D3F8C02222F40032C3F812
:106F8000C022B64BB64A1A600020FDF755FAFDF74D
:106F90008DFA0120FDF77CFAB24A136823F0FF0353
:106FA00043F07F0313601832136823F4405343F413
:106FB00080531360043A136843F000731360A94BC5
:106FC0009B6C13F0200FFAD1A74AD36823F01F035C
:106FD00043F01303D360A44B1B68002BFBDAA348D8
:106FE000FDF76EFAFDF796FA4FF48035A04B1D6061
:106FF000994CD4F8703123F40043C4F87031D4F8BC
:10700000703123F40003C4F87031236F43F400534C
:107010002367FDF787FAD4F8A0302B43C4F8A030DB
:10702000D4F8703123F04043C4F87031D4F8A03064
:1070300043F40053C4F8A030FDF77CFA8D4B1D607B
:10704000D4F8E03023F0030343F00103C4F8E03048
:10705000D4F8E03043F40053C4F8E030D4F8E03022
:1070600023F00C03C4F8E030D4F8E03043F480138C
:10707000C4F8E030D4F8E03043F40013C4F8E03052
:10708000FDF742FA7C4B1D60236A43F400532362F0
:107090007A4A136823F4E0531360724B9B6C13F02D
:1070A000020FFAD1764B1A6822F440321A601A683D
:1070B00022F440721A6004331A6822F440021A6003
:1070C0001A6822F040721A606C4A136843F44073E5
:1070D0001360043A136823F0070343F001031360BD
:1070E000604B9B6C13F4803FFAD1664A136843F4FB
:1070F00040231360043A136823F000731360594B64
:107100009B6C13F0200FFAD15C4A136823F0605394
:1071100013605C4D2B6823F440532B6058490B6877
:1071200023F440130B600B6823F440030B60564BB1
:107130001A6822F040721A601A6822F040621A60DF
:107140000A6822F440520A60504A106820F03F005A
:1071500040F001001060106820F040001060DFF87F
:1071600044C1DCF8000020F00C00CCF80000484ED0
:10717000306820F4605040F400603060106820F403
:1071800080301060DCF8000020F03000CCF8000007
:10719000306820F4E02040F480303060106820F443
:1071A00000301060DCF8000020F44060CCF80000F3
:1071B000106820F060701060106840F0C0401060EF
:1071C000344F386820F00C003860334C206820F4CD
:1071D000605040F400602060206820F4C0602060AF
:1071E000086820F003000860086820F00C000860C0
:1071F000086820F030000860086820F0C0000860CF
:10720000286820F0E05040F080502860286820F086
:10721000300040F020002860186820F4400018601A
:10722000306820F0C06040F080603060286820F452
:10723000404040F4004028601848046824F440248A
:107240000460174CD4F800E02EF4E07E4EF0C00E3F
:107250002AE000BFDC06002000800D40E006002090
:1072600000366E0100C00F4000000840A4C8007046
:1072700074800D40E4800D4024800D4014C00F4008
:107280006CC00F4018C00F4068C00F401CC00F40BA
:1072900024C00F4070C00F403CC00F407CC00F4066
:1072A00028C00F4080C00F40C4F800E0D4F800E0D0
:1072B0002EF03F0E4EF0010EC4F800E0D2F800E0D0
:1072C0002EF4406EC2F800E0D0F800E02EF4401E2C
:1072D000C0F800E0DFF86C82D8F800E02EF4E07E21
:1072E0004EF0C00EC8F800E0D8F800E02EF03F0ED7
:1072F0004EF0010EC8F800E0D2F800E02EF4405E37
:10730000C2F800E0D0F800E02EF4400EC0F800E033
:10731000D4F800E02EF0E07E4EF4400EC4F800E019
:10732000D4F800E02EF47C1E4EF4803EC4F800E059
:10733000D2F800E02EF4404EC2F800E03A6822F0A5
:10734000C0023A603A6822F440723A603A6822F425
:1073500040623A60383F3A6822F0FC723A603A681C
:1073600022F480223A601A6822F440421A601A68B5
:1073700022F440221A606C4AD2F800E02EF0C00ECF
:10738000C2F800E0D3F800E02EF4403EC3F800E07D
:10739000D3F800E02EF4401EC3F800E0D2F800E07D
:1073A0002EF4407EC2F800E0DFF89CE1DEF8002019
:1073B00022F0FC0242F00402CEF80020DEF80020A9
:1073C00022F4407242F40072CEF80020026822F0EB
:1073D000407202601A6822F040521A601A6822F461
:1073E00040521A600B6823F040730B604F4A1368D9
:1073F00023F00C031360136823F0C00313600368C9
:1074000023F040630360DCF8003023F44043CCF801
:107410000030336823F03F033360336823F04003C8
:107420003360136823F4406313603B6823F4E04344
:1074300043F480533B602B6823F0607343F0C073C8
:107440002B603B6823F4603343F420333B600368D4
:1074500023F440430360364B196821F0606141F02A
:1074600000711960196841F0E0711960196841F400
:1074700040111960016821F00C010160196821F4C4
