:0200000470008A
:10000000464346420004015600000000010303007D
:1000100000000000000000000000000000000000E0
:1000200000000000000000000000000000000000D0
:1000300000000000000000000000000000000000C0
:1000400000000000000408000000000000000000A4
:100050000000400000000000000000000000000060
:100060000000000000000000000000000000000090
:100070000000000000000000000000000000000080
:10008000EB04180A063204260000000000000000FD
:100090000000000000000000000000000000000060
:1000A0000000000000000000000000000000000050
:1000B0000000000000000000000000000000000040
:1000C0000000000000000000000000000000000030
:1000D0000000000000000000000000000000000020
:1000E0000000000000000000000000000000000010
:1000F0000000000000000000000000000000000000
:1001000000000000000000000000000000000000EF
:1001100000000000000000000000000000000000DF
:1001200000000000000000000000000000000000CF
:1001300000000000000000000000000000000000BF
:1001400000000000000000000000000000000000AF
:10015000000000000000000000000000000000009F
:10016000000000000000000000000000000000008F
:10017000000000000000000000000000000000007F
:10018000000000000000000000000000000000006F
:10019000000000000000000000000000000000005F
:1001A000000000000000000000000000000000004F
:1001B000000000000000000000000000000000003F
:1001C000000100000010000000000000000000001E
:1001D000000001000000000000000000000000001E
:1001E000000000000000000000000000000000000F
:1001F00000000000000000000000000000000000FF
:10100000D10020410020007000000000301000706E
:1010100020100070001000700000000000000000B0
:10102000000000700000400000000000FFFFFFFF14
:10103000D2043041CC03AC04400FC068FFFFFFFF77
:10104000400FC06CFFFFFFFF400FC070FFFFFFFFAE
:10105000400FC074FFFFFFFF400FC078FFFFFFFF8E
:10106000400FC07CFFFFFFFF400FC080FFFFFFFF6E
:10107000400D803000002001400D8100001D000067
:10108000400FC01400010D40401F801400000000FC
:10109000401F801800000000401F801C000000005E
:1010A000401F802000000000401F8024000000003E
:1010B000401F802800000000401F802C000000001E
:1010C000401F803000000000401F803400000000FE
:1010D000401F803800000000401F803C00000000DE
:1010E000401F804000000000401F804400000000BE
:1010F000401F804800000000401F804C000000009E
:10110000401F805000000000401F8054000000007D
:10111000401F805800000000401F805C000000005D
:10112000401F806000000000401F8064000000003D
:10113000401F806800000000401F806C000000001D
:10114000401F807000000000401F807400000000FD
:10115000401F807800000000401F807C00000000DD
:10116000401F808000000000401F808400000000BD
:10117000401F808800000000401F808C000000009D
:10118000401F809000000000401F8094000000007D
:10119000401F809800000000401F809C000000005D
:1011A000401F80A000000000401F80A4000000003D
:1011B000401F80A800000000401F80AC000000001D
:1011C000401F80B000000010401F80B400000000ED
:1011D000401F80B800000000401F8204000110F989
:1011E000401F8208000110F9401F820C000110F915
:1011F000401F8210000110F9401F8214000110F9F5
:10120000401F8218000110F9401F821C000110F9D4
:10121000401F8220000110F9401F8224000110F9B4
:10122000401F8228000110F9401F822C000110F994
:10123000401F8230000110F9401F8234000110F974
:10124000401F8238000110F9401F823C000110F954
:10125000401F8240000110F9401F8244000110F934
:10126000401F8248000110F9401F824C000110F914
:10127000401F8250000110F9401F8254000110F9F4
:10128000401F8258000110F9401F825C000110F9D4
:10129000401F8260000110F9401F8264000110F9B4
:1012A000401F8268000110F9401F826C000110F994
:1012B000401F8270000110F9401F8274000110F974
:1012C000401F8278000110F9401F827C000110F954
:1012D000401F8280000110F9401F8284000110F934
:1012E000401F8288000110F9401F828C000110F914
:1012F000401F8290000110F9401F8294000110F9F4
:10130000401F8298000110F9401F829C000110F9D3
:10131000401F82A0000110F9401F82A4000110F9B3
:10132000401F82A8000110F9402F000010000004A7
:10133000402F000800030524402F000C060305245D
:10134000402F00108000001B402F00148200001B63
:10135000402F00188400001B402F001C8600001B3B
:10136000402F002090000021402F0024A0000019F1
:10137000402F0028A8000017402F002CA900001BB8
:10138000402F003000000021402F0004000079A809
:10139000402F004000000F31402F004400652922FB
:1013A000402F004800010920402F004C50210A081E
:1013B000402F008000000021402F00840088888892
:1013C000402F009400000002402F00980000000011
:1013D000402F009080000000402F009CA55A000F75
:1013E000CF000C1C402F003C00000001CC00140476
:1013F000402F009080000000402F009CA55A000C58
:10140000CF000C1C402F003C00000001CC00140455
:10141000402F009080000000402F009CA55A000C37
:10142000CF000C1C402F003C00000001CC001C042D
:10143000402F00A000000033402F009080000000EB
:10144000402F009CA55A000ACF000C1C402F003CE6
:1014500000000001CC000C04402F004C50210A0970
:1020000000000220BD240070F1880070F388007089
:10201000F5880070F7880070F988007000000000F3
:10202000000000000000000000000000FB880070BD
:10203000FD88007000000000FF880070A57500702A
:102040001D250070212500702525007029250070B0
:102050002D25007031250070352500703925007060
:102060003D25007041250070452500704925007010
:102070004D250070512500705525007059250070C0
:102080005D25007005250070052500700525007090
:102090006125007065250070692500706D25007050
:1020A0007125007075250070792500707D25007000
:1020B0008125007085250070892500708D250070B0
:1020C0009125007095250070992500709D25007060
:1020D000A1250070A525007005250070052500705C
:1020E000052500700525007005250070294E00703B
:1020F0000525007005250070052500700525007078
:102100000525007005250070052500700525007067
:102110000525007005250070052500700525007057
:10212000A9250070AD250070B1250070B52500709F
:10213000B925007005250070052500700525007083
:102140000525007005250070052500700525007027
:102150000525007005250070052500700525007017
:102160000525007005250070052500700525007007
:1021700005250070052500700525007005250070F7
:1021800005250070052500700525007005250070E7
:10219000FD7500700525007005250070052500708F
:1021A0000525007005250070BD250070C125007053
:1021B00005250070052500700525007005250070B7
:1021C00005250070052500700525007005250070A7
:1021D0000525007005250070052500700525007097
:1021E000052500700525007005250070C5250070C7
:1021F000C925007005250070CD250070D12500701F
:1022000069C7007059C70070D5250070955F0070D0
:102210000525007005250070052500700525007056
:102220000525007005250070354E007005250070ED
:102230000525007005250070052500700525007036
:102240000525007005250070052500700525007026
:102250000525007005250070052500700525007016
:102260000525007005250070052500700525007006
:1022700005250070052500700525007005250070F6
:1022800005250070052500700525007005250070E6
:1022900005250070052500700525007005250070D6
:1022A000DD250070E1250070E52500700525007032
:1022B000E9250070052500700525007005250070D2
:1022C00005250070052500700525007005250070A6
:1022D0000525007005250070052500700525007096
:1022E0000525007005250070052500700525007086
:1022F0000525007005250070052500700525007076
:102300000525007005250070052500700525007065
:102310000525007005250070052500700525007055
:102320000525007005250070052500700525007045
:102330000525007005250070052500700525007035
:102340000525007005250070052500700525007025
:102350000525007005250070052500700525007015
:102360000525007005250070052500700525007005
:1023700005250070052500700525007005250070F5
:1023800005250070052500700525007005250070E5
:1023900005250070052500700525007005250070D5
:1023A00005250070052500700525007005250070C5
:1023B00005250070052500700525007005250070B5
:1023C00005250070052500700525007005250070A5
:1023D0000525007005250070052500700525007095
:1023E0000525007005250070052500700525007085
:1023F000052500700525007005250070FFFFFFFF13
:1024000010B5054C237833B9044B13B10448AFF32E
:1024100000800123237010BDF404002000000000A0
:1024200098E3007008B5034B1BB103490348AFF3B1
:10243000008008BD00000000F804002098E3007050
:10244000A3F5803A704700BF174B002B08BF134B12
:102450009D46FFF7F5FF00218B460F461348144AAF
:10246000121A0AF0B7FB0E4B002B00D098470D4B09
:10247000002B00D098470020002104000D000D48DB
:10248000002802D00C480AF065FC0AF07FFB20000F
:10249000290002F001FD0AF069FB00BF00000800FE
:1024A000000000000000000000000220F4040020F2
:1024B0008808002055CD007061CD007072B60A48C2
:1024C0000A4901600A6882F3088809488047094977
:1024D000094A0A4B9A42BEBF51F8040B42F8040B5A
:1024E000F8E762B60648804708ED00E0002000707B
:1024F00045500070C4E3007000000020F404002088
:1025000049240070FFF7FEBF3848004738480047AD
:10251000384800473848004738480047384800479F
:10252000384800473848004738480047384800478F
:10253000384800473848004738480047384800477F
:10254000384800473848004738480047384800476F
:10255000384800473848004738480047384800475F
:10256000384800473848004738480047384800474F
:10257000384800473848004738480047384800473F
:10258000384800473848004738480047384800472F
:10259000384800473848004738480047384800471F
:1025A000384800473848004738480047384800470F
:1025B00038480047384800473848004738480047FF
:1025C00038480047384800473848004738480047EF
:1025D00038480047384800473848004738480047DF
:1025E000384800473848004738480047F1880070AD
:1025F000F3880070FB880070FF880070A57500707C
:10260000295B0070655B0070A15B0070DD5B007092
:10261000195C0070555C0070915C0070CD5C0070BE
:10262000095D0070455D0070815D0070BD5D0070EA
:10263000F95D0070355E0070715E0070AD5E007017
:1026400005250070ED68007009690070256900704B
:10265000416900705D69007079690070956900706A
:10266000B169007099640070A9640070B964007069
:10267000C9640070FD6400703165007065650070AC
:1026800099650070CD5F0070056000709D730070EB
:1026900025740070E5740070AD7400701D750070D5
:1026A000AD600070B56000700525007005250070F4
:1026B000517500706D750070AD5F0070052500707C
:1026C000BD5F0070052500703D600070BD6000704A
:1026D00081F0004102E000BF83F0004330B54FEAD3
:1026E00041044FEA430594EA050F08BF90EA020F40
:1026F0001FBF54EA000C55EA020C7FEA645C7FEAD3
:10270000655C00F0E2804FEA5454D4EB5555B8BFF5
:102710006D420CDD2C4480EA020281EA030382EA66
:10272000000083EA010180EA020281EA0303362DF8
:1027300088BF30BD11F0004F4FEA01314FF4801CCB
:102740004CEA113102D0404261EB410113F0004FDD
:102750004FEA03334CEA133302D0524263EB430394
:1027600094EA050F00F0A780A4F10104D5F1200E32
:102770000DDB02FA0EFC22FA05F2801841F100018D
:1027800003FA0EF2801843FA05F359410EE0A5F161
:1027900020050EF1200E012A03FA0EFC28BF4CF092
:1027A000020C43FA05F3C01851EBE37101F0004548
:1027B00007D54FF0000EDCF1000C7EEB00006EEB55
:1027C0000101B1F5801F1BD3B1F5001F0CD34908DF
:1027D0005FEA30004FEA3C0C04F101044FEA445236
:1027E00012F5800F80F09A80BCF1004F08BF5FEABD
:1027F000500C50F1000041EB045141EA050130BD9D
:102800005FEA4C0C404141EB0101013C28BFB1F5AE
:10281000801FE9D291F0000F04BF01460020B1FAF9
:1028200081F308BF2033A3F10B03B3F120020CDACC
:102830000C3208DD02F1140CC2F10C0201FA0CF0AA
:1028400021FA02F10CE002F11402D8BFC2F1200C0F
:1028500001FA02F120FA0CFCDCBF41EA0C019040C5
:10286000E41AA2BF01EB0451294330BD6FEA04040E
:102870001F3C1CDA0C340EDC04F11404C4F12002F9
:1028800020FA04F001FA02F340EA030021FA04F30B
:1028900045EA030130BDC4F10C04C4F1200220FA62
:1028A00002F001FA04F340EA0300294630BD21FAA0
:1028B00004F0294630BD94F0000F83F4801306BF66
:1028C00081F480110134013D4EE77FEA645C18BF5A
:1028D0007FEA655C29D094EA050F08BF90EA020FF1
:1028E00005D054EA000C04BF1946104630BD91EAE9
:1028F000030F1EBF0021002030BD5FEA545C05D1EC
:102900004000494128BF41F0004130BD14F580042A
:102910003CBF01F5801130BD01F0004545F0FE419E
:1029200041F470014FF0000030BD7FEA645C1ABFD3
:10293000194610467FEA655C1CBF0B46024650EA0A
:10294000013406BF52EA033591EA030F41F4002136
:1029500030BD00BF90F0000F04BF0021704730B5BC
:102960004FF4806404F132044FF000054FF0000191
:1029700050E700BF90F0000F04BF0021704730B552
:102980004FF4806404F1320410F0004548BF404227
:102990004FF000013EE700BF42004FEAE2014FEA7C
:1029A00031014FEA02701FBF12F07F4393F07F4F57
:1029B00081F06051704732F07F4208BF704793F05A
:1029C0007F4F04BF41F40021704730B54FF460746D
:1029D00001F0004521F000411CE700BF50EA010270
:1029E00008BF704730B54FF000050AE050EA010219
:1029F00008BF704730B511F0004502D5404261EB89
:102A000041014FF4806404F132045FEA915C3FF4C9
:102A1000D8AE4FF003025FEADC0C18BF03325FEA66
:102A2000DC0C18BF033202EBDC02C2F1200300FA17
:102A300003FC20FA02F001FA03FE40EA0E0021FA3C
:102A400002F11444BDE600BF70B54FF0FF0C4CF42A
:102A5000E06C1CEA11541DBF1CEA135594EA0C0FDC
:102A600095EA0C0F00F0DEF82C4481EA030621EA17
:102A70004C5123EA4C5350EA013518BF52EA033552
:102A800041F4801143F4801338D0A0FB02CE4FF004
:102A90000005E1FB02E506F00042E0FB03E54FF034
:102AA0000006E1FB03569CF0000F18BF4EF0010E2C
:102AB000A4F1FF04B6F5007F64F5407404D25FEA28
:102AC0004E0E6D4146EB060642EAC62141EA5551DB
:102AD0004FEAC52040EA5E504FEACE2EB4F1FD0C1D
:102AE00088BFBCF5E06F1ED8BEF1004F08BF5FEA9B
:102AF000500E50F1000041EB045170BD06F000464D
:102B000046EA010140EA020081EA0301B4EB5C04F9
:102B1000C2BFD4EB0C0541EA045170BD41F48011F1
:102B20004FF0000E013C00F3AB8014F1360FDEBF16
:102B3000002001F0004170BDC4F10004203C35DAF2
:102B40000C341BDC04F11404C4F1200500FA05F375
:102B500020FA04F001FA05F240EA020001F0004216
:102B600021F0004110EBD37021FA04F642EB06018C
:102B70005EEA430E08BF20EAD37070BDC4F10C04B6
:102B8000C4F1200500FA04F320FA05F001FA04F27A
:102B900040EA020001F0004110EBD37041F1000166
:102BA0005EEA430E08BF20EAD37070BDC4F1200571
:102BB00000FA05F24EEA020E20FA04F301FA05F2D9
:102BC00043EA020321FA04F001F0004121FA04F281
:102BD00020EA020000EBD3705EEA430E08BF20EA51
:102BE000D37070BD94F0000F0FD101F0004640008B
:102BF00041EB010111F4801F08BF013CF7D041EA0D
:102C0000060195F0000F18BF704703F00046520010
:102C100043EB030313F4801F08BF013DF7D043EAE1
:102C20000603704794EA0C0F0CEA135518BF95EA97
:102C30000C0F0CD050EA410618BF52EA4306D1D11E
:102C400081EA030101F000414FF0000070BD50EA3D
:102C5000410606BF1046194652EA430619D094EAC7
:102C60000C0F02D150EA013613D195EA0C0F05D1B1
:102C700052EA03361CBF104619460AD181EA030105
:102C800001F0004141F0FE4141F470014FF00000BD
:102C900070BD41F0FE4141F4780170BD70B54FF058
:102CA000FF0C4CF4E06C1CEA11541DBF1CEA1355D8
:102CB00094EA0C0F95EA0C0F00F0A7F8A4EB0504BA
:102CC00081EA030E52EA03354FEA013100F08880B1
:102CD0004FEA03334FF0805545EA131343EA12637A
:102CE0004FEA022245EA111545EA10654FEA00262F
:102CF0000EF000419D4208BF964244F1FD0404F5E8
:102D0000407402D25B084FEA3202B61A65EB030543
:102D10005B084FEA32024FF480104FF4002CB6EB00
:102D2000020E75EB030E22BFB61A754640EA0C0080
:102D30005B084FEA3202B6EB020E75EB030E22BFC0
:102D4000B61A754640EA5C005B084FEA3202B6EB01
:102D5000020E75EB030E22BFB61A754640EA9C00C0
:102D60005B084FEA3202B6EB020E75EB030E22BF90
:102D7000B61A754640EADC0055EA060E18D04FEA4E
:102D8000051545EA16754FEA06164FEAC30343EAEE
:102D900052734FEAC2025FEA1C1CC0D111F4801FBB
:102DA0000BD141EA00014FF000004FF0004CB6E7B4
:102DB00011F4801F04BF01430020B4F1FD0C88BF53
:102DC000BCF5E06F3FF6AFAEB5EB030C04BFB6EB5E
:102DD000020C5FEA500C50F1000041EB045170BD51
:102DE0000EF0004E4EEA113114EB5C04C2BFD4EB7E
:102DF0000C0541EA045170BD41F480114FF0000E02
:102E0000013C90E645EA060E8DE60CEA135594EA7D
:102E10000C0F08BF95EA0C0F3FF43BAF94EA0C0F80
:102E20000AD150EA01347FF434AF95EA0C0F7FF4F5
:102E300025AF104619462CE795EA0C0F06D152EA49
:102E400003353FF4FDAE1046194622E750EA41062D
:102E500018BF52EA43067FF4C5AE50EA41047FF43E
:102E60000DAF52EA43057FF4EBAE12E74FF0FF3CA3
:102E700006E000BF4FF0010C02E000BF4FF0010C74
:102E80004DF804CD4FEA410C7FEA6C5C4FEA430CED
:102E900018BF7FEA6C5C1BD001B050EA410C0CBF3C
:102EA00052EA430C91EA030F02BF90EA020F00209E
:102EB000704710F1000F91EA030F58BF994208BF05
:102EC00090422CBFD8176FEAE37040F001007047C2
:102ED0004FEA410C7FEA6C5C02D150EA013C07D119
:102EE0004FEA430C7FEA6C5CD6D152EA033CD3D064
:102EF0005DF8040B704700BF8446104662468C465E
:102F00001946634600E000BF01B5FFF7B7FF002890
:102F100048BF10F1000F01BD4DF808EDFFF7F4FFB9
:102F20000CBF012000205DF808FB00BF4DF808ED44
:102F3000FFF7EAFF34BF012000205DF808FB00BF67
:102F40004DF808EDFFF7E0FF94BF012000205DF889
:102F500008FB00BF4DF808EDFFF7CEFF94BF01203E
:102F600000205DF808FB00BF4DF808EDFFF7C4FF37
:102F700034BF012000205DF808FB00BF4FEA41028A
:102F800012F5001215D211D56FF47873B3EB6252BB
:102F900012D94FEAC12343F0004343EA505311F0E2
:102FA000004F23FA02F018BF404270474FF0000074
:102FB000704750EA013005D111F0004008BF6FF0B2
:102FC000004070474FF00000704700BF4A0011D228
:102FD00012F5001211D20DD56FF47873B3EB625273
:102FE0000ED44FEAC12343F0004343EA505323FA7F
:102FF00002F070474FF00000704750EA013002D1F4
:103000004FF0FF3070474FF0000070474FEA410229
:10301000B2F1E04324BFB3F5001CDCF1FE5C0DD936
:1030200001F0004C4FEAC0024CEA5070B2F1004F80
:1030300040EB830008BF20F00100704711F0804F83
:1030400021D113F13872BCBF01F00040704741F448
:1030500080114FEA5252C2F11802C2F1200C10FA4C
:103060000CF320FA02F018BF40F001004FEAC12330
:103070004FEAD32303FA0CFC40EA0C0023FA02F3D4
:103080004FEA4303CCE77FEA625307D150EA0133AA
:103090001EBF4FF0FE4040F44000704701F000407A
:1030A00040F0FE4040F40000704700BF53B94AB9F9
:1030B000002908BF00281CBF4FF0FF314FF0FF3040
:1030C00000F06EB9ADF1080C6DE904CE00F006F821
:1030D000DDF804E0DDE9022304B070472DE9F04794
:1030E000089D04468C46002B40F083808A42174698
:1030F00047D9B2FA82F242B1C2F1200024FA00F0BC
:103100009140974040EA010C94404FEA1748230C45
:10311000BCFBF8F61FFA87FE08FB16C143EA014321
:1031200006FB0EF1994209D9FB1806F1FF3080F039
:103130001981994240F21681023E3B445B1AA4B2C7
:10314000B3FBF8F008FB103344EA034400FB0EFE27
:10315000A64509D93C1900F1FF3380F00581A64549
:1031600040F2028102383C4440EA0640A4EB0E04DF
:1031700000261DB1D4400023C5E900433146BDE817
:10318000F08702B9FFDEB2FA82F2002A50D1CB1BDF
:103190004FEA174E1FFA87F80126B3FBFEFC210CFD
:1031A0000EFB1C3341EA034108FB0CF38B4207D9A9
:1031B00079180CF1FF3002D28B4200F2E98084468C
:1031C000C91AA3B2B1FBFEF00EFB101143EA014491
:1031D00008FB00F8A04507D93C1900F1FF3302D2E3
:1031E000A04500F2D9801846A4EB080440EA0C4040
:1031F000BFE78B4209D9002D00F0B1800026C5E958
:10320000000130463146BDE8F087B3FA83F6002E60
:103210004AD18B4202D3824200F2B880841A61EB19
:10322000030101208C46002DA8D0C5E9004CA5E77C
:10323000C2F1200320FA03F6974001FA02F04FEAA8
:10324000174ED9403043030CB1FBFEF61FFA87F846
:103250000EFB161143EA014306FB08F1994204FAFA
:1032600002F409D9FB1806F1FF3C80F08D809942E9
:1032700040F28A80023E3B445B1A81B2B3FBFEF00F
:103280000EFB103341EA034100FB08F38B4207D9E0
:10329000791800F1FF3C73D28B4271D9023839445E
:1032A000CB1A40EA064678E7C6F1200C03FA06F48A
:1032B00022FA0CF31C4320FA0CF701FA06F34FEA4A
:1032C000144E21FA0CF11F433B0CB1FBFEF91FFA1F
:1032D00084F80EFB191143EA014109FB08FA8A45FB
:1032E00002FA06F200FA06F308D9611809F1FF3074
:1032F00048D28A4546D9A9F102092144A1EB0A0125
:10330000BFB2B1FBFEF00EFB101147EA014700FB14
:1033100008F8B84507D9E71900F1FF312ED2B845B2
:103320002CD90238274440EA0940A7EB0807A0FB44
:1033300002894F45C64649461AD317D05DB1B3EB53
:103340000E0267EB010707FA0CFCF2404CEA02029E
:10335000F740C5E9002700263146BDE8F0872E4634
:1033600028460BE70646E9E61846FDE64345E5D262
:10337000B8EB020E69EB04010138DFE70846D2E73B
:1033800060468DE78146B9E7664675E730464AE70D
:10339000ACF1020C394413E702383C4424E700BF87
:1033A000704700BF844641EA000313F003036DD168
:1033B000403A41D351F8043B40F8043B51F8043BF8
:1033C00040F8043B51F8043B40F8043B51F8043BFF
:1033D00040F8043B51F8043B40F8043B51F8043BEF
:1033E00040F8043B51F8043B40F8043B51F8043BDF
:1033F00040F8043B51F8043B40F8043B51F8043BCF
:1034000040F8043B51F8043B40F8043B51F8043BBE
:1034100040F8043B51F8043B40F8043B51F8043BAE
:1034200040F8043B51F8043B40F8043B51F8043B9E
:1034300040F8043B403ABDD2303211D351F8043B3E
:1034400040F8043B51F8043B40F8043B51F8043B7E
:1034500040F8043B51F8043B40F8043B103AEDD2ED
:103460000C3205D351F8043B40F8043B043AF9D23E
:10347000043208D0D2071CBF11F8013B00F8013B11
:1034800001D30B8803806046704700BF082A13D31E
:103490008B078DD010F003038AD0C3F10403D21A36
:1034A000DB071CBF11F8013B00F8013B80D331F86A
:1034B000023B20F8023B7BE7043AD9D3013A11F8EA
:1034C000013B00F8013BF9D20B7803704B78437055
:1034D0008B78837060467047F0B587B000242FE08A
:1034E0000421012005F0CEFA614D25F814000221D7
:1034F000012005F0C7FA04F10A0325F8130003219F
:10350000012005F0BFFA04F1140325F8130001218E
:10351000084605F0B7FA04F11E0325F8130005214B
:10352000012005F0AFFA04F1280325F81300062165
:10353000012005F0A7FA04F1320325F81300013445
:10354000092CCDDD002325E00246C6F10901914298
:103550001ADD474C03EB830102EB410134F81150B3
:10356000501C03EB830100EB410134F811108D4234
:10357000EAD903EB830702EB470224F8121000EBB1
:10358000470224F81250DFE70136092E01DC002241
:10359000DBE70133052B01DC0026F6E70021039170
:1035A0000491059112E001EB810203EB42023048E5
:1035B00030F8122006A800EB410030F80C4C2244F1
:1035C00020F80C2C0133072BEDDD0131052901DC3E
:1035D0000223F8E700220092019202920BE006AB70
:1035E00003EB420131F80C3C2248A0FB03039B088B
:1035F00021F8183C0132052AF1DD002315E006AA66
:1036000002EB430232F8182C07EE902AF8EE677AA4
:10361000194A02EB830292ED007A77EEC77A174AD5
:1036200002EB8302C2ED007A0133052BE7DD0023B4
:1036300019E0124A02EB8302D2ED006A104901EB55
:10364000830191ED007A0C4901EB8301D1ED007A01
:1036500037EE677AC6EE877A9FED0A7A67EE877A49
:10366000C2ED007A0133052BE3DD07B0F0BD00BFEA
:103670002C050020ABAAAAAA0000002014050020F7
:10368000180000200000C84238B52DED028B364BE3
:1036900093ED017A93ED048A77EE087AF5EEC07A1D
:1036A000F1EE10FA18DD9FED317AF4EEC77AF1EE03
:1036B00010FAACBF012400244CB32D4B4FF07E52C6
:1036C0001A605A609A60DA601A615A61294B0122C5
:1036D0001A80BDEC028B38BD17EE100AFFF75CF9BB
:1036E00004460D4618EE100AFFF756F902460B463F
:1036F00020462946FEF7F0FF4FF0010400221E4B42
:10370000FFF728FC08B94FF00004E4B2D4E71B4BE4
:103710001B78DBB1022B0DD0012BDAD1144B4FF00B
:103720007E521A605A609A604FF07D51D9601961DB
:103730005A61CEE70E4B4FF07E521A604FF07D512A
:1037400059609960DA601A615A61C2E7084B4FF01C
:103750007E521A605A609A60DA601A615A61054BAB
:1037600000221A80B5E700BF140500200000A04227
:10377000A4050020BC05002000005440C205002024
:1037800010B52DED048BFFF77FFF0023052B0FDC19
:10379000D84A02EB830292ED007AD74A02EB830209
:1037A000D2ED007A67EE877AC2ED007A0133EDE759
:1037B000D24BB3F90030002B00F00F81CE4BD3ED8C
:1037C000007A93ED057AF4EEC77AF1EE10FA5FDD38
:1037D000D3ED026A93ED036AF4EEC66AF1EE10FAD5
:1037E00019DD66EEA66A67EEA77A76EEA77A26EE70
:1037F000066A27EE077A36EE077A77EEC76A77EE23
:10380000877A86EEA77ADFEDBE7A67EE277ABD4B20
:10381000C3ED007A21E1B84C94ED017A27EE077AE6
:1038200066EEA66A77EE266A67EEA77A36EEA70AF4
:1038300001F0E8FAB0EE408AD4ED037A67EEA77A99
:1038400094ED047A27EE077A77EE877A94ED050AED
:1038500020EE000A37EE800A01F0D4FAB0EE409A6A
:10386000B0EE480A01F0CEFAF0EE408AB0EE490A16
:1038700001F0C8FA78EEC08A38EE098AC8EE887A74
:103880009FED9F7A67EE877A9E4BC3ED007AE4E066
:10389000F4EEC77AF1EE10FA60D5974BD3ED026AD9
:1038A00093ED036AF4EEC66AF1EE10FA19D566EEEE
:1038B000A66A67EEA77A76EEA77A26EE066A27EE64
:1038C000077A36EE077A77EEC76A77EE877A86EE62
:1038D000A77ADFED8B7A67EE277A8A4BC3ED007A01
:1038E000BBE0854C94ED017A27EE077A66EEA66A76
:1038F00077EE266A67EEA77A36EEA70A01F082FA1B
:10390000B0EE408AD4ED037A67EEA77A94ED047A9C
:1039100027EE077A77EE877A94ED050A20EE000A03
:1039200037EE800A01F06EFAB0EE409AB0EE480A27
:1039300001F068FAF0EE408AB0EE490A01F062FA4E
:1039400078EEC08A38EE098AC8EE887A9FED6C7AE4
:1039500067EE877A6B4BC3ED007A7EE0664C94EDA0
:10396000017A27EE077A94ED020A20EE000A37EE7C
:10397000000A67EEA77A30EE270A01F043FAB0EEAC
:10398000408AD4ED037A67EEA77A94ED047A27EEA5
:10399000077A77EE877A94ED050A20EE000A37EE73
:1039A000800A01F02FFAB0EE409AB0EE480A01F01A
:1039B00029FAF0EE408AB0EE490A01F023FA78EED7
:1039C000C08A38EE098AC8EE887A9FED4D7A67EE94
:1039D000877A4C4BC3ED007A3FE0474C94ED010AE7
:1039E00020EE000AD4ED027A67EEA77A30EE270ABD
:1039F000D4ED007A67EEA77A30EE270A01F002FADA
:103A0000B0EE408A94ED030A20EE000AD4ED047A69
:103A100067EEA77A30EE270AD4ED057A67EEA77A2B
:103A200030EE270A01F0EEF9B0EE409AB0EE480A07
:103A300001F0E8F9F0EE408AB0EE490A01F0E2F94F
:103A400078EEC08A38EE098AC8EE887A9FED2C7A23
:103A500067EE877A2B4BC3ED007A274B93ED017A03
:103A6000F0EE087AB4EEE77AF1EE10FA08D593EDAD
:103A7000027AF7EE007AB4EEE77AF1EE10FA05D4A6
:103A8000204B93ED000ABDEC048B10BD93ED037A3F
:103A9000B4EEE77AF1EE10FAF2D593ED047AF0EE97
:103AA000087AB4EEE77AF1EE10FAE9D593ED007AF0
:103AB000F6EE007AB4EEE77AF1EE10FAE0D593ED87
:103AC000057AB4EEE77AF1EE10FAD9D50E4B1B6801
:103AD000D3ED067AF1EE677AF5EEC07AF1EE10FAE0
:103AE00003DD084B094A1A60CAE7064B084A1A6008
:103AF000C6E700BFA405002014050020BC05002077
:103B00000000C84210050020540000200000504171
:103B1000000050C108B55E2005F018F808B9012072
:103B200008BD5D2005F012F858B15C2005F00EF8D4
:103B300048B15B2005F00AF808B10020F0E7042046
:103B4000EEE70220ECE70320EAE710B5532004F08B
:103B5000FDFF0446542004F0F9FF0346012C14BF76
:103B60000022012200280CBF1046002060B9012B62
:103B700014BF00230123002C0CBF1C4600242CB9C9
:103B80001A4202D0112000E0012010BD1020FCE7F5
:103B900038B5FFF7DAFF0446FFF7BCFF0546112CE6
:103BA00000F29B80DFE814F012009A00990099005F
:103BB000990099009900990099009900990099003D
:103BC00099009900990099006901B801002008F056
:103BD00077FEBF4A0021084608F020FFBD4C206850
:103BE000FEF7DAFE0223052241EC100B0021322001
:103BF00008F066FFB84A0121002008F00FFF606856
:103C0000FEF7CAFE0223052241EC100B01213220EF
:103C100008F056FFB14A0221002008F0FFFEA0681C
:103C2000FEF7BAFE0223052241EC100B19463220A2
:103C300008F046FFAA4A0321002008F0EFFEE068E2
:103C4000FEF7AAFE0223052241EC100B03213220CD
:103C500008F036FFA34A0421002008F0DFFE2069A7
:103C6000FEF79AFE0223052241EC100B04213220BC
:103C700008F026FF9C4A0521002008F0CFFE60696D
:103C8000FEF78AFE0223052241EC100B114632207A
:103C900008F016FF954A0621002008F0BFFE944B5D
:103CA0001B68186AFEF778FE0223052241EC100B10
:103CB0000621322008F004FF8E4A0721002008F078
:103CC000ADFE8D4B1888FEF745FE0223052241EC20
:103CD000100B0721322008F0F3FE38BD002008F059
:103CE000EFFD864A0021084608F098FE804C2368C4
:103CF0001868FEF751FE0223052241EC100B00214B
:103D0000322008F0DDFE7E4A0121002008F086FE08
:103D100023685868FEF740FE0223052241EC100B91
:103D20000121322008F0CCFE764A0221002008F062
:103D300075FE23689868FEF72FFE0223052241ECEA
:103D4000100B1946322008F0BBFE684A0321002000
:103D500008F064FE2368186AFEF71EFE022305229F
:103D600041EC100B0321322008F0AAFE664A042120
:103D7000002008F053FE604B1888FEF7EBFD02238D
:103D8000052241EC100B0421322008F099FE5F4A15
:103D90000521002008F042FE5D4BB3F90000FEF75C
:103DA000E9FD0223052241EC100B1146322008F0F8
:103DB00087FE584A0621002008F030FE2368D3ED24
:103DC0000C7AF5EEC07AF1EE10FA13DD17EE900AD8
:103DD000FEF7E2FD41EC100B022305220621322002
:103DE00008F06EFE681E03283FF677AFDFE800F0AC
:103DF0000D1B293717EE900AFEF7CEFD00EE100AD4
:103E000001F1004300EE903AE6E7394B1C68206868
:103E1000FEF7C2FD2CA3D3E90023FEF75FFCFFF7FA
:103E2000F5F8206059E7324B1C682068FEF7B4FDB6
:103E300025A3D3E90023FEF74FFCFFF7E7F8206046
:103E40004BE72B4B1C686068FEF7A6FD1EA3D3E969
:103E50000023FEF743FCFFF7D9F860603DE7244BF1
:103E60001C686068FEF798FD17A3D3E90023FEF7EE
:103E700033FCFFF7CBF860602FE7002008F020FD4F
:103E8000204A0221002008F0C9FD194B1B689868E0
:103E9000FEF782FD0223052241EC100B1946322069
:103EA00008F00EFE022D7FF418AF114B1C68A068BD
:103EB000FEF772FD04A3D3E90023FEF70DFCFFF724
:103EC000A5F8A06009E700BF7B14AE47E17A843F04
:103ED00030CE00701405002038CE007040CE007047
:103EE00048CE007050CE007058CE007060CE00708A
:103EF0005400002070CE00703C00002080CE007086
:103F00008CCE007098CE0070A4CE0070B0CE007041
:103F1000BC050020B8CE0070002008F0D1FC424A59
:103F20000021084608F07AFD404A0121002008F0EF
:103F300075FD3F4BB3F900200021322008F09EFDB3
:103F40003C4BB3F900200121322008F097FD3A4A9A
:103F50000221002008F062FD384A0321002008F009
:103F60005DFD374BB3F900200221322008F086FDB9
:103F7000344BB3F900200321322008F07FFD324A90
:103F80000421002008F04AFD304C2368186AFEF72F
:103F900003FD0223052241EC100B0421322008F01E
:103FA0008FFD2B4A0521002008F038FD294BB3F97D
:103FB0000000FEF7DFFC0223052241EC100B114646
:103FC000322008F07DFD244A0621002008F026FD5D
:103FD0002368D3ED0C7AF5EEC07AF1EE10FA14DD19
:103FE00017EE900AFEF7D8FC41EC100B02230522D5
:103FF0000621322008F064FD012D11D0022D7FF43E
:104000006CAE144B00221A8067E617EE900AFEF79A
:10401000C3FC00EE100A01F1004300EE903AE5E720
:104020000C4B01221A8058E6C4CE0070CCCE007032
:104030003000002032000020D4CE0070E0CE0070AE
:10404000BE050020C0050020ECCE0070540000200A
:10405000F4CE007034000020B8CE007030B40024DC
:1040600084628C62084C0460084D45604FF07C54BB
:1040700084604FF07A50D860054B0B604D608C60C7
:10408000D06030BC704700BF6666A63FCDCCCC3D4B
:104090003333933F00000000D0B52DED028BBA4BB7
:1040A0001C6894ED088AB5EEC08AF1EE10FA49DD7D
:1040B000FDEEC87A17EE903A18B2032877DCB5EE19
:1040C000C08AF1EE10FA47DDFEF754FC06460F46B3
:1040D0009DA3D3E90023FEF7B7FC02460B469CA143
:1040E000D1E90001FEF7F8FAFEF770FFA74B188040
:1040F0000022A74B30463946FEF7A6FC02460B4687
:1041000093A1D1E90001FEF7E7FAFEF75FFFA14BAB
:104110001880D4ED0C7AF5EEC07AF1EE10FA40F387
:10412000BF81C0F2C381F5EEC07AF1EE10FA40F320
:10413000ED81B6EE007AF4EEC77AF1EE10FA00F1F6
:104140003082B3E118EE100AFEF726FC01F10041BF
:10415000FEF714FF00B2B0E7B5EEC08AF1EE10FA38
:10416000D7D5FEF707FC06460F460022884BFEF720
:104170006BFC02460B4676A1D1E90001FEF7ACFAD2
:10418000FEF724FF814B18806FA3D3E9002330464C
:104190003946FEF759FC02460B466DA1D1E90001F4
:1041A000FEF79AFAFEF712FF7A4B1880B1E782B257
:1041B000131F9BB2022B60D8B5EEC08AF1EE10FA45
:1041C0002ADDFEF7D7FB0022734BFEF785FA064681
:1041D0000F4661A3D3E90023FEF736FC02460B46E7
:1041E0005FA1D1E90001FEF777FAFEF7EFFE674B1A
:1041F00018805DA3D3E9002330463946FEF724FC3E
:1042000002460B465AA1D1E90001FEF765FAFEF716
:10421000DDFE604B18807CE7B5EEC08AF1EE10FA47
:104220007FF577AFFEF7A6FB00225B4BFEF754FA53
:1042300006460F464CA3D3E90023FEF705FC0246D1
:104240000B464BA1D1E90001FEF746FAFEF7BEFE90
:104250004E4B188040A3D3E9002330463946FEF781
:10426000F3FB02460B463EA1D1E90001FEF734FA0A
:10427000FEF7ACFE474B18804BE7D31F9BB2022BD7
:1042800000F28E80B5EEC08AF1EE10FA2ADDFEF75C
:1042900071FB0022414BFEF71FFA06460F462EA384
:1042A000D3E90023FEF7D0FB02460B4632A1D1E949
:1042B0000001FEF711FAFEF789FE344B18802AA39D
:1042C000D3E9002330463946FEF7BEFB02460B46D3
:1042D0002BA1D1E90001FEF7FFF9FEF777FE2D4B88
:1042E000188016E7B5EEC08AF1EE10FA7FF511AF2F
:1042F000FEF740FB0022294BFEF7EEF906460F467B
:1043000019A3D3E90023FEF79FFB02460B461CA12D
:10431000D1E90001FEF7E0F9FEF758FE1B4B1880CB
:104320000DA3D3E9002330463946FEF78DFB024644
:104330000B4611A1D1E90001FEF7CEF9FEF746FECA
:10434000144B1880E5E600BF3333333333935C40BE
:1043500000000000004CCD409A99999999A96040BD
:10436000000000000084CC409A99999999297D40D9
:10437000000000000090CA400000000000BCCB40DC
:104380000000000000D4C74054000020300000208E
:10439000000079403200002000000C4000001A406C
:1043A0000A3A92B2032A5ED8B5EEC08AF1EE10FA4C
:1043B00029DDFEF7DFFA0022C34BFEF78DF9064632
:1043C0000F46BBA3D3E90023FEF73EFB02460B4694
:1043D000B9A1D1E90001FEF77FF9FEF7F7FDBB4B6C
:1043E00018800022BA4B30463946FEF72DFB0246B4
:1043F0000B46B3A1D1E90001FEF76EF9FEF7E6FD29
:10440000B44B188085E6B5EEC08AF1EE10FA7FF560
:1044100080AEFEF7AFFA0022AB4BFEF75DF9064621
:104420000F460022AA4BFEF70FFB02460B46A4A143
:10443000D1E90001FEF750F9FEF7C8FDA34B188043
:104440009BA3D3E9002330463946FEF7FDFA024626
:104450000B4699A1D1E90001FEF73EF9FEF7B6FD42
:104460009C4B188055E6B5EEC08AF1EE10FA08DDD7
:10447000964B43F258421A80964B42F2B8421A8049
:1044800047E6B5EEC08AF1EE10FA7FF542AE8F4BEB
:1044900042F2B8421A808F4B43F258421A8038E6F3
:1044A000F5EEC07AF1EE10FA7FF63DAEF5EEC07A89
:1044B000F1EE10FA32DDB6EE007AF4EEC77AF1EEE4
:1044C00010FA32DAF5EEC07AF1EE10FA4CDDB7EE02
:1044D000007AF4EEC77AF1EE10FA4CDBF5EEC07A12
:1044E000F1EE10FA40F3B280B0EE007AF4EEC77A43
:1044F000F1EE10FA3FD5754A1388A3F5FA631380DD
:10450000744A1388A3F5FA6313804AE0BEEE007A7A
:10451000F4EEC77AF1EE10FA43DCC7E7BEEE007A9C
:10452000F4EEC77AF1EE10FACCD8F5EEC07AF1EEDF
:1045300010FA07DDB7EE007AF4EEC77AF1EE10FA62
:10454000C0D506E0BFEE007AF4EEC77AF1EE10FABD
:10455000B8DD5E4A1388A3F57A7313805D4A138829
:10456000A3F57A7313801CE0BFEE007AF4EEC77AED
:10457000F1EE10FAB2D9F5EEC07AF1EE10FA6DDD77
:10458000B0EE007AF4EEC77AF1EE10FA6DDA4F4A27
:104590001388A3F57A6313804E4A1388A3F57A63D0
:1045A00013804D4BB3F900304BB1484A1388A3F543
:1045B000FA631380474A1388A3F5FA631380434BC9
:1045C0001A8844F250639A4203D9404B44F2506235
:1045D0001A80404B1B8840F6B732934203D83B4ABF
:1045E00040F6B831118044F25062934201D9394B00
:1045F0001A80384B1A8840F6B7339A4203D8354BA5
:1046000040F6B8321A80354B93ED017AF0EE087A15
:10461000B4EEE77AF1EE10FA08D593ED027AF7EEF0
:10462000007AB4EEE77AF1EE10FA5BD4274B1988E2
:10463000702007F09DFB274B1988482007F098FB56
:10464000274B00221A80BDEC028BD0BDB8EE007A59
:10465000F4EEC77AF1EE10FA8DDD4CE7B8EE007A91
:10466000F4EEC77AF1EE10FA91D8F5EEC07AF1EED9
:1046700010FA11DDB0EE087AF4EEC77AF1EE10FA16
:1046800085D5124A1388A3F6B8331380114A1388CC
:10469000A3F6B833138084E7B8EE087AF4EEC77A4D
:1046A000F1EE10FA7FF773AFEBE700BFAFF30080D6
:1046B0003333333333935C400000000000F4CA40CE
:1046C000000000000018C54000002340300000201A
:1046D0000000794032000020BC05002014050020B5
:1046E0003400002093ED037AB4EEE77AF1EE10FA8D
:1046F0009CD593ED047AF0EE087AB4EEE77AF1EE09
:1047000010FA93D593ED007AF6EE007AB4EEE77ADC
:10471000F1EE10FA8AD593ED057AB4EEE77AF1EE70
:1047200010FA83D50021702007F022FB00214820D9
:1047300007F01EFB87E700BF90ED037A90ED020AB9
:1047400027EE000AF7EE007A77EEC77A90ED017A4D
:1047500067EE877A30EE270A80ED000A80ED010AC5
:1047600070472DE9F0412DED028B04460D46D0ED4A
:10477000098AD0ED087A78EEE78AC0ED038AC0EDA9
:10478000058A90ED048A38EE888AF6EE007A28EEE3
:10479000278AD0ED0B7A38EE278A80ED0B8AB5EEAA
:1047A000C08AF1EE10FA3FDD18EE100AFEF7F4F8B9
:1047B00006460F46D4F828804046FEF7EDF832460C
:1047C0003B46FEF7B3FB30B1B5EEC08AF1EE10FA0E
:1047D00032DDC4F82C80C5ED028A2846FFF7ACFF15
:1047E00084ED050AD4ED067A70EE677AC4ED0C7A92
:1047F00084ED060A94ED000A94ED037A20EE070A90
:1048000094ED017AD4ED0B6A27EE267A30EE070A92
:1048100094ED027A67EE877A30EE270A84ED070A74
:10482000BDEC028BBDE8F08118EE100AFEF7B4F87B
:10483000064601F10047BDE707EE908AF1EE677A80
:10484000C4ED0B7AC7E70000074B40F666521A80AA
:10485000064B0360002343608360054A8262436223
:104860004FF07A53CB6070473C00002033330F4148
:104870000000C84200000000F8B52DED028B044690
:104880000D46FEF77DFFB0EE408A84ED080AB5EED6
:10489000C00AF1EE10FA5FDDFDEEC07A17EE903A35
:1048A00018B2B5EEC08AF1EE10FA40F32581F0EEB1
:1048B0000C7AB4EEE78AF1EE10FA57D807EE900AB8
:1048C000F8EEE77A17EE900AFEF766F806460F460E
:1048D000B9A3D3E90023FEF7B7F8C8A3D3E90023AF
:1048E000FDF7FCFEFEF792FB2060B74B63600023F0
:1048F000A3609BA3D3E9002330463946FEF7A4F812
:1049000099A3D3E90023FDF7E9FEFEF77FFBAF4B48
:10491000186029462046FFF724FFAC4BD3ED007A00
:1049200020EE270ABDEEC00A10EE103A9BB203F645
:1049300066539BB2A64A1380B3F5706F40F21F8294
:1049400013464FF470621A80A14B1988C32007F0F8
:104950000FFABDEC028BF8BD10EE100AFEF71CF842
:1049600001F10041FEF70AFB00B29AE7F0EE0C7A83
:10497000B4EEE78AF1EE10FA33DDF1EE0A7AB4EE26
:10498000E78AF1EE10FA2CD8FDF7F4FF0022914BE4
:10499000FDF7A2FEFEF73AFBFDF7FEFF06460F46C7
:1049A00073A3D3E90023FEF74FF873A3D3E90023E1
:1049B000FDF794FEFEF72AFB2060834B6360864B75
:1049C000A3606FA3D3E9002330463946FEF73CF8D5
:1049D0000022824BFDF782FEFEF718FB7B4B18602E
:1049E00097E7F1EE0A7AB4EEE78AF1EE10FA34DDD9
:1049F000F2EE027AB4EEE78AF1EE10FA2DD8FDF766
:104A0000B9FF0022764BFDF767FEFEF7FFFAFDF7D0
:104A1000C3FF06460F465CA3D3E90023FEF714F854
:104A20005BA3D3E90023FDF759FEFEF7EFFA206000
:104A3000654B63606B4BA36057A3D3E900233046FB
:104A40003946FEF701F800224FF08043FDF746FE9D
:104A5000FEF7DCFA5D4B18605BE7F2EE027AB4EE2B
:104A6000E78AF1EE10FA3CDDF2EE057AB4EEE78A61
:104A7000F1EE10FA35D8FDF77DFF06460F4600220D
:104A8000594BFDF729FEFEF7C1FAFDF785FF44A358
:104A9000D3E90023FDF7D8FF43A3D3E90023FDF7B3
:104AA0001DFEFEF7B3FA2060474B63604FF07E5364
:104AB000A36000224D4B30463946FDF70DFEFEF750
:104AC000A5FAFDF769FF3AA3D3E90023FDF7BCFF80
:104AD0000022474BFDF702FEFEF798FA3B4B1860A9
:104AE00017E7444B2360384B63604FF07E53A3605D
:104AF000364B414A1A600CE7F8EE0C7AB4EEE78ABE
:104B0000F1EE10FA7EDD07EE900AF8EEE77A17EE86
:104B1000900AFDF741FF06460F4627A3D3E900237D
:104B2000FDF792FF26A3D3E90023FDF7D7FDFEF79B
:104B30006DFA2060244B63600023A36008A3D3E9CF
:104B4000002330463946FDF77FFF07A3D3E9002352
:104B5000FDF7C4FDFEF75AFA1C4B1860D9E600BFFA
:104B6000B81E85EB51B8BE3F9A9999999999F13F32
:104B7000333333333333E33F000000A0703D1A403A
:104B8000C3F5285C8FC2C53F9A9999999999E93FD5
:104B90003333333333B320409A9999999999C93F64
:104BA000E17A14AE47E1F63F3333333333B3244075
:104BB000713D0AD7A370E53F3D0AD7A3703DE23FA0
:104BC00052B81E85EB511340CDCCCC3D38000020AF
:104BD0003C00002000000C40AE47613E0000F83F62
:104BE00000001A40CDCC0C3F0000234000002240C2
:104BF0000000044000004841000060403D0AD7A387
:104C0000703D1240F8EE0C7AB4EEE78AF1EE10FA3D
:104C100033D5F9EE0A7AB4EEE78AF1EE10FA2CDD1C
:104C2000FDF7A8FE00226A4BFDF756FDFEF7EEF9F0
:104C3000FDF7B2FE06460F4657A3D3E90023FDF762
:104C400003FF57A3D3E90023FDF748FDFEF7DEF984
:104C50002060604B6360604BA36053A3D3E90023E3
:104C600030463946FDF7F0FE00225C4BFDF736FD7D
:104C7000FEF7CCF95A4B18604BE6F9EE0A7AB4EE1F
:104C8000E78AF1EE10FA34D5FAEE037AB4EEE78A49
:104C9000F1EE10FA2DDDFDF76DFE0022514BFDF710
:104CA0001BFDFEF7B3F9FDF777FE06460F4640A35E
:104CB000D3E90023FDF7C8FE3FA3D3E90023FDF7A6
:104CC0000DFDFEF7A3F92060424B6360464BA360E5
:104CD00035A3D3E9002330463946FDF7B5FE00225F
:104CE0004FF08043FDF7FAFCFEF790F93C4B18605B
:104CF0000FE6FAEE037AB4EEE78AF1EE10FA33D556
:104D0000FAEE097AB4EEE78AF1EE10FA2CDDFDF73F
:104D100031FE0022354BFDF7DFFCFEF777F9FDF79A
:104D20003BFE06460F460022314BFDF78DFE24A3C5
:104D3000D3E90023FDF7D2FCFEF768F92060254B8C
:104D400063604FF07E53A3601FA3D3E90023304676
:104D50003946FDF779FE0022264BFDF7BFFCFEF732
:104D600055F91F4B1860D4E5234B2360194B636042
:104D70004FF07E53A3601A4B204A1A60C9E540F6F3
:104D8000C13293423FF6E0AD1D4B40F6C2321A806D
:104D9000DAE500BFAFF30080B81E85EB51B8DE3F07
:104DA00052B81E85EB511B40C3F5285C8FC2C53F2E
:104DB000713D0AD7A370E53F85EB51B81E852040B1
:104DC00085EB51B81E8524401F85EB51B81ED53F99
:104DD00000000C40CDCCCC3DB81E853E0000F83F15
:104DE0003800002000001A40295C0F3F00002340DB
:104DF0000000E83F0000044000004841000060401F
:104E00003C00002010EE102A064B13445B0807EE0E
:104E1000903A80EE277A77EE877AB6EE000A27EE90
:104E2000800A704762CF763F08B500F0E1FDBFF31E
:104E30004F8F08BD08B5174BD3F80C3113F0010F95
:104E400020D1144BD3F81C3113F0010F03D0114BB8
:104E50000122C3F81C210F4BD3F82C3113F0010FA2
:104E600003D00C4B0122C3F82C210A4BD3F83C3160
:104E700013F0010F03D0074B0122C3F83C21BFF30D
:104E80004F8F08BDFEF728FB024B0122C3F80C210F
:104E9000D7E700BF0040084008B5EFF3108372B6B3
:104EA00002F0DEFF642007F0B7FA0222042101209D
:104EB00003F0C0FD02221146012003F0BBFD0222D7
:104EC0000321012003F0B6FD02220121084603F070
:104ED000B1FD02220521012003F0ACFD02220621D2
:104EE000012003F0A7FD40F6D8623221C32006F06E
:104EF00069FE002243F2C821702006F063FE002202
:104F000043F2C821482006F05DFE002243F2C8218A
:104F1000752006F057FE002243F2C8214D2006F00E
:104F200051FE00227D21282006F04CFE0F220C218C
:104F3000012007F0E9F92D222A21032007F0E4F9E6
:104F400047F24803012200215E2003F0B7FD47F23B
:104F50004803012200215D2003F0B0FD47F2480321
:104F6000012200215C2003F0A9FD47F24803012241
:104F700000215B2003F0A2FD47F248030022114606
:104F8000532003F09BFD47F24803002211465420B2
:104F900003F094FD07F0B2FC47F2480301221146EA
:104FA000292003F08BFD22231F224FF416510820E5
:104FB00007F0A8FB06F064FB042000F06DFC040180
:104FC000050F4FF47A720023201A65F10001FEF7F5
:104FD0006DF80146002006F069FB124B102283F8A1
:104FE0007A23114B1B68114A12681149096811484C
:104FF0000068FFF733F8104B1968104B1868FFF77B
:1050000023FC002383F31088FEF7C2FD322007F053
:1050100003FA094B1968094B1868FFF72DFCFFF7D5
:105020003BF8F1E700E100E04000002048000020EC
:105030004C000020440000205000002054000020BC
:105040007047000010B5454AD2F8883043F4700329
:10505000C2F88830424A13899BB223F001039BB205
:10506000138140490B899BB223F001039BB20B8152
:10507000138813F0040F05D013889BB223F00403A8
:105080009BB21380374B1B8813F0040F06D0354AB0
:1050900013889BB223F004039BB21380324A334B34
:1050A00053604FF6FF739360136823F0A00343F03F
:1050B000200313602E4B1B6813F0010F04D02C4A01
:1050C000136823F001031360244B5B6913F4003F62
:1050D00013D1BFF34F8FBFF36F8F204B0022C3F864
:1050E0005022BFF34F8FBFF36F8F5A6942F40032E3
:1050F0005A61BFF34F8FBFF36F8F184B5B6913F487
:10510000803F02D0FFF79CFF10BD144B0022C3F874
:105110008420BFF34F8FD3F88040C4F34E3100E0BA
:105120001946C4F3C90243F6E07303EA411343EAA4
:1051300082730A48C0F860321346013A002BF2D15C
:105140004B1E0029ECD1BFF34F8F436943F48033EA
:105150004361BFF34F8FBFF36F8FD3E700ED00E0E4
:1051600000800B4000000D4000C00B4020C528D936
:1051700010E000E008B50346002000E001300228FE
:1051800004D8074A52F820209A42F7D1022800D8C2
:1051900008BD044B044A3521044802F043FD00BF1A
:1051A00094D00070FCCE007048D0007020CF00700A
:1051B00070B500294FD005460C46FFF7DBFF2C4B9E
:1051C00033F91010080A01F01F06B1F5006F48D23C
:1051D000284951F820300322B24023EA0203134346
:1051E00041F82030696C01F46041A379DB0203F4DB
:1051F000C053E279120202F440721343227A02F0A1
:1052000003021343627A520102F060021343A27A4E
:10521000920002F00C0213430B4322780AB143F4CC
:10522000803322790AB143F01003E2780AB143F0E7
:105230008003A2780AB143F480636B64AB6C23F003
:10524000410362780AB143F0400362790AB143F046
:105250000103AB6470BD084B084A4221084802F0C4
:10526000E1FC084B084A4FF47571084802F0DAFC7B
:10527000A0D0007068C00F408CCF007058D0007074
:1052800020CF00709CCF007034D00070A8CF007089
:1052900008B578B10122427100220270427082701A
:1052A000C27002718271C2710321017242720222C4
:1052B000827208BD024B034A9021034802F0B2FCFF
:1052C0008CCF007064D0007020CF007010B55AB140
:1052D00007290FD8136803F01F0312790AB143F0AE
:1052E000800340F8213010BD054B064ABF21064817
:1052F00002F098FC054B034AC021034802F092FCDF
:105300008CCF00707CD0007020CF007018D000705F
:105310000346426C12F4005F14D0426C22F4005237
:10532000426401210222DA649A6C42F080029A649B
:105330009A6C12F0800F07D0DA6C12F0020FF7D0DF
:10534000012002E00021EDE700201A6A12F0010FAF
:1053500000D10120DA6C12F0020F00D001205A6A4D
:1053600019B15A6C42F400525A64704708B5D8B962
:10537000104B4FF08042C3F858210E4BD3F87032D7
:1053800013F4803FF9D00B4B4FF48032C3F8542113
:10539000084BD3F8503113F4004FF9D0054B4FF4BC
:1053A0008032C3F8582108BD034B044A9A210448AF
:1053B00002F038FC00800D40A8D0007028D10070A9
:1053C000B8D0007020B9054B1022C3F87422704782
:1053D000024B1022C3F87822704700BF00800D40B6
:1053E000034AD2F8703243F00103C2F870327047BA
:1053F00000800D400F490B6823F4E03302799203DB
:1054000092B2134343F480330B600A680A4B134093
:10541000026802F07F02134343F400530B60054B14
:105420001B68002BFBDA034A136823F480331360F4
:10543000704700BF00800D4080CFFFFF014B00226E
:105440001A62704700800D40024B4FF480521A6779
:10545000704700BF00800D40024B4FF48052C3F8EC
:10546000A020704700800D40024B4FF48052C3F8DB
:10547000E020704700800D4070B584B004467A4B40
:105480000FCB04AD05E90F00C4F30B41774A8D58EB
:1054900004F01F00012383401D401ED08B5813F4DD
:1054A000404F07D1D2F8703213F0100F18D1704B63
:1054B0001D6800E000258B5813F480330DD16D4A30
:1054C00094425ED00ED96C4A944200F0B58036D931
:1054D0006A4A944240F0C580694D284604B070BDC8
:1054E000684DE8E7A2F5A002944200F0AF8013D91E
:1054F000654A944221D15D4C206D226E0023A5FBAC
:105500000001FDF7D3FD236B13F0010F33D01623F9
:1055100003FB05F50544E0E70D2C24D0A2F580122D
:10552000944208D1514B1B6913F0020F27D0162368
:1055300003FB05F5D1E71D46CFE71D46CDE7534AEE
:1055400094424DD002F5800294420AD1474BD3F8E1
:10555000E03003F0030304AA02EB830353F8105C6A
:10556000BBE71D46B9E7414B1B6803F07F0305FB12
:1055700003F56D08B1E705EB8505AD00CAE7142317
:10558000D6E73A4C266F06F07F06D4F88000D4F8B0
:1055900090200023A5FB0001FDF788FD05FB060513
:1055A000236F13F4C01315D0B3F5002F14D02F4B75
:1055B000D3F8703123F07F4323F4FE0323F4FF4339
:1055C00023F07F03B3F5004F08D0314A934284D1D2
:1055D000AD0882E7AD08EAE76D08E8E76D087CE70B
:1055E000224CD4F8A06006F07F06D4F8B000D4F8BE
:1055F000C0200023A5FB0001FDF758FD05FB0605B3
:10560000D4F8A03013F4C01310D0B3F5002F0FD08E
:10561000164BD3F8703103F04043B3F1804F09D0FB
:10562000B3F1404F7FF459AFAD0856E7AD08EFE74F
:105630006D08EDE76D0850E70C4BD3F8E03003F050
:105640000C0304AA134453F8105C46E7074B1B6A8B
:1056500013F0020F03D0162303FB05F53DE71423D7
:10566000FAE71D4639E700BF20CE007000800D40EC
:10567000940600200D0070001400E0001500E0000A
:1056800040787D0100366E010D0030000D00A00055
:105690000080800010B504461648FFF7EDFE032C8D
:1056A00026D8DFE804F0020D151D134BD3F80031A6
:1056B00003F03F03B0FBF3F000EBC000400010BD6F
:1056C0000D4BD3F80031C3F30523B0FBF3F0F3E740
:1056D000094BD3F80031C3F30543B0FBF3F0EBE71C
:1056E000054BD3F80031C3F30563B0FBF3F0E3E7F8
:1056F0000020E1E70D00300000800D4008B5284B88
:10570000586910F0007025D09B6903F44053B3F53D
:10571000805F10D0B3F5005F16D043B10020204B5E
:105720005B69C3F3C2630133B0FBF3F008BD1D48EE
:10573000FFF7A2FEF3E71C4BD3F8703213F0100F03
:1057400006D11A4B1868EAE71948FFF795FEE6E715
:105750001848E4E7124B9B6903F44023B3F5002F8C
:105760001AD007D8A3B1B3F5802FDFD10220FFF7FD
:1057700091FFDBE7B3F5402FD8D10D20FFF77CFE7A
:10578000074B1B6903F007030133B0FBF3F0CDE7D0
:105790000748FFF771FEC9E70020FFF77BFFC5E769
:1057A00000C00F400D00100000800D409406002046
:1057B0000D00300000366E0108B5FFF79FFF044B67
:1057C0005B69C3F382230133B0FBF3F008BD00BF74
:1057D00000C00F4008B5FFF7EFFF044B5B69C3F350
:1057E00001230133B0FBF3F008BD00BF00C00F4040
:1057F00010B504461648FFF73FFE032C26D8DFE815
:1058000004F0020D151D134BD3F8F03003F03F03E5
:10581000B0FBF3F000EBC000400010BD0D4BD3F81F
:10582000F030C3F30523B0FBF3F0F3E7094BD3F8F3
:10583000F030C3F30543B0FBF3F0EBE7054BD3F8CF
:10584000F030C3F30563B0FBF3F0E3E70020E1E7DA
:105850000D00100000800D4008B50E4B5B6913F081
:10586000400F13D00B4B5B6913F0800F0AD001205F
:10587000FFF7BEFF074B5B69C3F302430133B0FB85
:10588000F3F008BD0220FFF705FFF3E7FFF736FF4F
:10589000F0E700BF00C00F4008B5172869D8DFE85F
:1058A00000F00F0F1215181B0C24282C3034383C34
:1058B0004044484C5054585C60644FF4004001E050
:1058C000FFF77AFF08BDFFF7C7FFFBE7FFF782FF8F
:1058D000F8E700F069F8F5E7284BD3F8703213F0D9
:1058E000100F48D1264B1868ECE70D20FFF7C4FDD8
:1058F000E8E72448FFF7C0FDE4E70020FFF778FF62
:10590000E0E70120FFF774FFDCE70220FFF770FFFC
:10591000D8E70320FFF76CFFD4E71B48FFF7ACFD87
:10592000D0E71A48FFF7A8FDCCE70020FFF7B2FE4A
:10593000C8E70120FFF7AEFEC4E70220FFF7AAFE8A
:10594000C0E70320FFF7A6FEBCE71148FFF794FD70
:10595000B8E71048FFF790FDB4E70F48FFF78CFD5C
:10596000B0E70E48FFF788FDACE70D48FFF784FD70
:10597000A8E70020A6E70B48A4E700BF00800D4081
:10598000940600200D0010000D0020000D003000D6
:105990000D00E0001400E0001500E0000D007000B4
:1059A0000D00A00000366E0108B50D4BDB6913F049
:1059B000400F0FD00B4BD3F8703213F0100F0DD1F6
:1059C000094B1868064BDB6903F03F030133B0FB5A
:1059D000F3F008BD0320FFF75FFFF3E70348F1E7AB
:1059E00000C00F4000800D409406002000366E017C
:1059F00008B5034B1B68034A11680348984708BD64
:105A00009C0600209806002000C02B4008B51F29E6
:105A100014D800EB411241F21C03D25AC2F3C01356
:105A2000C26ACA40520002F002021A43436ACB40E3
:105A30009B0003F0040342EA030008BD034B044A41
:105A400040F2AD21034802F0EDF800BFD4D1007060
:105A50003CD2007064D1007070B5002834D0044688
:105A60008368027CDA77C068002834D0A36803EB2F
:105A7000421341F21802995841F21C029D5A05F056
:105A80008005002D14BF01220022A1EB00034FEA84
:105A9000531129D0C9B2637C5BB299422ED0637C8A
:105AA0005BB2CB1A35D449B26174E17C49B2C91AF0
:105AB00049B2E174266816B161682046B04715B155
:105AC000A368227C1A7770BD144B154A40F2BE4180
:105AD000144802F0A7F82568002DC7D00023012242
:105AE00061682046A847EEE71F2B03D9C9B20139E8
:105AF000C9B2D0E7217D0139C9B2CCE7E07C40B220
:105B0000237D5BB2984201D00023CCE7E37C5BB2FB
:105B1000C9E7207D43FA80F3C5E700BF2CD20070AF
:105B200058D2007064D1007008B500210B48FFF70F
:105B30006DFF10F0040F07D110210848FFF766FF32
:105B400010F0040F05D108BD054B1868FFF784FF5E
:105B5000F2E7034B186CFFF77FFFF4E700800E407D
:105B6000A006002008B501210B48FFF74FFF10F0F9
:105B7000040F07D111210848FFF748FF10F0040F68
:105B800005D108BD054B5868FFF766FFF2E7034BE8
:105B9000586CFFF761FFF4E700800E40A00600207C
:105BA00008B502210B48FFF731FF10F0040F07D1B1
:105BB00012210848FFF72AFF10F0040F05D108BD95
:105BC000054B9868FFF748FFF2E7034B986CFFF727
:105BD00043FFF4E700800E40A006002008B5032133
:105BE0000B48FFF713FF10F0040F07D113210848EB
:105BF000FFF70CFF10F0040F05D108BD054BD86866
:105C0000FFF72AFFF2E7034BD86CFFF725FFF4E715
:105C100000800E40A006002008B504210B48FFF7C5
:105C2000F5FE10F0040F07D114210848FFF7EEFE2F
:105C300010F0040F05D108BD054B1869FFF70CFFE4
:105C4000F2E7034B186DFFF707FFF4E700800E4003
:105C5000A006002008B505210B48FFF7D7FE10F07D
:105C6000040F07D115210848FFF7D0FE10F0040FEC
:105C700005D108BD054B5869FFF7EEFEF2E7034B6F
:105C8000586DFFF7E9FEF4E700800E40A006002003
:105C900008B506210B48FFF7B9FE10F0040F07D135
:105CA00016210848FFF7B2FE10F0040F05D108BD19
:105CB000054B9869FFF7D0FEF2E7034B986DFFF7AD
:105CC000CBFEF4E700800E40A006002008B50721B7
:105CD0000B48FFF79BFE10F0040F07D1172108486F
:105CE000FFF794FE10F0040F05D108BD054BD869ED
:105CF000FFF7B2FEF2E7034BD86DFFF7ADFEF4E716
:105D000000800E40A006002008B508210B48FFF7D0
:105D10007DFE10F0040F07D118210848FFF776FE2A
:105D200010F0040F05D108BD054B186AFFF794FE6B
:105D3000F2E7034B186EFFF78FFEF4E700800E408A
:105D4000A006002008B509210B48FFF75FFE10F000
:105D5000040F07D119210848FFF758FE10F0040F6F
:105D600005D108BD054B586AFFF776FEF2E7034BF5
:105D7000586EFFF771FEF4E700800E40A006002089
:105D800008B50A210B48FFF741FE10F0040F07D1B8
:105D90001A210848FFF73AFE10F0040F05D108BD9C
:105DA000054B986AFFF758FEF2E7034B986EFFF732
:105DB00053FEF4E700800E40A006002008B50B213A
:105DC0000B48FFF723FE10F0040F07D11B210848F2
:105DD000FFF71CFE10F0040F05D108BD054BD86A73
:105DE000FFF73AFEF2E7034BD86EFFF735FEF4E714
:105DF00000800E40A006002008B50C210B48FFF7DC
:105E000005FE10F0040F07D11C210848FFF7FEFD26
:105E100010F0040F05D108BD054B186BFFF71CFEF1
:105E2000F2E7034B186FFFF717FEF4E700800E4010
:105E3000A006002008B50D210B48FFF7E7FD10F084
:105E4000040F07D11D210848FFF7E0FD10F0040FF3
:105E500005D108BD054B586BFFF7FEFDF2E7034B7C
:105E6000586FFFF7F9FDF4E700800E40A006002010
:105E700008B50E210B48FFF7C9FD10F0040F07D13C
:105E80001E210848FFF7C2FD10F0040F05D108BD20
:105E9000054B986BFFF7E0FDF2E7034B986FFFF7B8
:105EA000DBFDF4E700800E40A006002008B50F21BE
:105EB0000B48FFF7ABFD10F0040F07D11F21084876
:105EC000FFF7A4FD10F0040F05D108BD054BD86BFA
:105ED000FFF7C2FDF2E7034BD86FFFF7BDFDF4E714
:105EE00000800E40A006002008B50346002000E018
:105EF0000130022804D8074A52F820209A42F7D1EC
:105F0000022800D808BD044B044A4FF49D71044890
:105F100001F088FE20D30070E8D200700CD300702E
:105F200068D2007070B504464668FFF7DDFF05468D
:105F300016F0406F06D0124B1B68124A52F8201020
:105F40002046984716F0407F06D00F4B1B680D4A3D
:105F500052F825102046984716F4C03F05D0094B4B
:105F600053F82510204600239847084B1E4206D0C0
:105F7000074B1B68034A52F825102046984770BD0E
:105F800030070020200700202C07002000007C6044
:105F90002807002008B5034B1968034800239847D9
:105FA00008BD00BF2007002000802D4008B5024832
:105FB000FFF7B8FF08BD00BF00802D4008B50248BC
:105FC000FFF7B0FF08BD00BF00402D4008B5074BEC
:105FD000596821B1064B1B680648984708BD064B17
:105FE000064A40F66A21064801F01CFE34070020EC
:105FF0004407002000001D40C0D30070FCD3007097
:1060000050D3007008B5074B996821B1064B1B6847
:106010000648984708BD064B064A40F678210648D0
:1060200001F000FE340700204407002000401D401E
:10603000D4D3007014D4007050D3007008B5074B4F
:10604000D96821B1064B1B680648984708BD064B26
:10605000064A40F68621064801F0E4FD3407002098
:106060004407002000801D40E8D300702CD400704D
:1060700050D3007010B5002401E00134E4B2012CCB
:106080000CD8074B53F824100029F6D0054B53F8D1
:106090002430054A52F824009847EEE710BD00BFAF
:1060A00048070020500700205807002008B5FFF7D8
:1060B000E1FF08BD08B5FFF7DDFF08BD08B5FFF734
:1060C000D9FF08BD08B502460020092806D8084BAC
:1060D00053F82030934201D00130F6E7092800D868
:1060E00008BD044B044A3921044801F09BFD00BF60
:1060F0001CD5007044D40070F8D4007068D40070CF
:1061000008B51F2908D86AB90368012202FA01F10B
:1061100023EA0101016008BD064B074A6B210748CD
:1061200001F080FD0368012202FA01F119430160C8
:10613000F1E700BFD8D400700CD5007068D40070AF
:1061400010B4C46901238B4024EA0304C4610F29FD
:1061500009D800F10C04013A042A0FD8DFE802F054
:1061600007111C272F0000F110041039F3E72368F2
:106170004A000321914023EA010121605DF8044BAC
:106180007047236848000322824023EA020301216A
:10619000814019432160F1E72368480003228240CF
:1061A00023EA02030221814019432160E6E72368C4
:1061B0004900032202FA01F119432160DEE7C269B6
:1061C0001343C361DAE70000F8B504460E461746EC
:1061D000FFF778FF1A4B33F91010B1F5006F1ED29C
:1061E000080A01F01F05174951F820300322AA4080
:1061F00023EA0203134341F8203063690125B540C7
:10620000EA4323EA050363613B787BB963681A407C
:106210006260BA7831462046FFF792FFF8BD0A4B1C
:106220000A4A4FF475710A4801F0FCFC7A7831464D
:106230002046FFF765FF63681D436560E9E700BF1F
:1062400044D5007068C00F409CCF0070E4D400704B
:10625000A8CF007008B50346002000E001300228F6
:1062600004D8074A52F820209A42F7D1022800D8D1
:1062700008BD044B044A2F21044801F0D3FC00BFA1
:10628000DCD6007050D50070A8D6007074D50070B0
:1062900070B5002956D004460D46FFF7DBFF3D4B95
:1062A00033F91010080A01F01F06B1F5006F4FD244
:1062B000394951F820300322B24023EA0203134344
:1062C00041F8203000232360236843F40043236017
:1062D000236813F40043FBD12A7A002A3FD04FF4FD
:1062E0000072697A00293CD008210A43A97A002962
:1062F00039D020210A43E97A002936D010210A43F7
:10630000297B002933D004210A43697B01B1022390
:10631000134323602B78052B2BD0226822F4B8621C
:106320009B0103F4E073134323606B68013BB3F5F7
:10633000805F29D26168194A0A40C3F30B031343F3
:10634000636070BD164B174A3C21174801F06AFC88
:10635000164B174A4FF47571164801F063FC1A4644
:10636000BFE71946C1E71946C4E71946C7E719460A
:10637000CAE7226822F4B8629B0103F4E073134376
:1063800043F480632360D0E70B4B0C4ADB210C48BD
:1063900001F048FCE8D6007068C00F4000F0FFFF35
:1063A000E0D50070B8D6007074D500709CCF007036
:1063B00080D60070A8CF0070ECD5007094D6007025
:1063C00014D6007010B500220260FFF743FF0D4B9A
:1063D00033F91030B3F5006F0CD2190A03F01F0423
:1063E000094850F821300322A24023EA020340F872
:1063F000213010BD054B064A4FF47571054801F078
:1064000011FC00BFE8D6007068C00F409CCF007040
:1064100080D60070A8CF007008B560B1002101607F
:10642000C16001220270426082724272C1720173C5
:106430000172427308BD034B034A7221034801F005
:10644000F1FB00BF94CF0070C4D6007074D500700B
:1064500038B504460D46036913F0010F06D00A4B08
:106460001B681BB1094A52F821109847D4F8103123
:1064700013F0010F07D0064B1B6823B1054A52F8F1
:1064800025102046984738BD74070020600700207B
:106490008C0700207807002008B501210148FFF78C
:1064A000D7FF08BD00003F4008B502210148FFF7B3
:1064B000CFFF08BD00403F4008B503210148FFF76A
:1064C000C7FF08BD00803F4008B504210148FFF721
:1064D000BFFF08BD00C03F4008B5436A13F0010F7D
:1064E00003D0044B1B68984708BD034B1B689847B3
:1064F000FAE700BFA4070020A807002008B5074B53
:10650000596819B10648FFF7E7FF08BD054B064A71
:1065100040F2D371054801F085FB00BF90070020D1
:106520000040394070D70070C0D70070F8D60070B6
:1065300008B5074B996819B10648FFF7CDFF08BDAC
:10654000054B064A40F2DB71054801F06BFB00BFCA
:10655000900700200080394084D70070D8D70070A1
:10656000F8D6007008B5074BD96819B10648FFF78F
:10657000B3FF08BD054B064A40F2E371054801F040
:1065800051FB00BF9007002000C0394098D7007031
:10659000F0D70070F8D6007008B5074B196919B12B
:1065A0000648FFF799FF08BD054B064A40F2EB711C
:1065B000054801F037FB00BF9007002000003A407B
:1065C000ACD7007008D80070F8D6007008B5024645
:1065D0000020082806D8084B53F82030934201D0F9
:1065E0000130F6E7082800D808BD044B044A7A2198
:1065F000044801F017FB00BFA4D9007098D80070C0
:106600006CD9007028D800702DE9F04179B10546A9
:1066100096460F460A6882B10B7A042B13D84B7A40
:10662000042B16D890460420002426461DE0714B0A
:10663000714AEE21714801F0F5FA714B6E4AEF2173
:106640006E4801F0EFFA6F4B6B4AF1216B4801F095
:10665000E9FA6D4B684AF221684801F0E3FA4145D6
:1066600002D8884604461E460130202817D800FB71
:1066700002F3BEFBF3F39BB203B9012300FB03F16A
:10668000BEFBF1F1891A03FB000CBEFBFCFCA2EB84
:106690000C0C8C45E3D201339BB26146DFE75B4BC8
:1066A000A3FB0232520902EB42024245C0F09E8037
:1066B0002846FFF78BFF564B33F91010080A01F0FC
:1066C0001F0CB1F5006F80F08180524951F82030E5
:1066D000032202FA0CF223EA0203134341F82030AA
:1066E000AB6843F00203AB60AB6823F00203AB601E
:1066F0002B69221F032A01D843F4003323F0F852F8
:10670000631E1B0603F0F8531343434A1A40C6F3B3
:106710000C0616432E612B6923F000532B61AB69E5
:106720003E4919403879FB7B1B0203F4E0630343C5
:10673000BA7B920002F0040213430B437A79012AD8
:106740004BD008B143F01003AB612A6922F4005228
:10675000FB795B0303F4005313432B617A7A3B7A92
:1067600043EA0243EB62AB6A43F08803AB62AB6A75
:1067700043F44043AB62696A7B7B1B0103F0100367
:106780003A7B520102F0200213430B436B62BB7A47
:106790001BB16B6A43F008036B62FB7A1BB16B6A37
:1067A00043F001036B62BB79F3B11D4A6B6913437C
:1067B0006B61AB693A7C0AB143F400237A7C0AB17D
:1067C00043F48023AB610020BDE8F081154B164AED
:1067D0004FF47571154801F025FA10B123F40063E8
:1067E000B2E743F40063AFE7114ADFE740F221501C
:1067F000EAE700BF94CF007080D9007028D80070FD
:10680000C0D80070D8D8007018D900701F85EB511F
:10681000C8D9007068C00F4000E0FFFFE8F8FFFF34
:1068200000C01FE09CCF007058D90070A8CF007046
:1068300000C01FC010B5C36A13F4E06FFBD14369F9
:1068400013F4800FFBD04269104B134343610023C4
:106850008361FFF7BBFE0E4B33F91010080A01F0FD
:106860001F04B1F5006F09D20A4951F82030032204
:10687000A24023EA020341F8203010BD064B074A2C
:106880004FF47571064801F0CDF900BF00C01FC07C
:10689000C8D9007068C00F409CCF007058D90070F4
:1068A000A8CF007008B598B1002242824FF4E131C0
:1068B0000160027142718271C2710272427282720F
:1068C000C272427302738273C2730274427408BD4F
:1068D000034B044A40F20621034801F0A3F900BF2C
:1068E00094CF00708CD9007028D8007008B5034B85
:1068F0001B68034A51680348984708BDD007002029
:10690000AC0700200040184008B5034B1B68034A41
:1069100091680348984708BDD0070020AC070020C5
:106920000080184008B5034B1B68034AD168034830
:10693000984708BDD0070020AC07002000C01840D1
:1069400008B5034B1B68034A11690348984708BD03
:10695000D0070020AC0700200000194008B5034B09
:106960001B68034A51690348984708BDD0070020B7
:10697000AC0700200040194008B5034B1B68034AD0
:1069800091690348984708BDD0070020AC07002054
:106990000080194008B5034B1B68034AD1690348BE
:1069A000984708BDD0070020AC07002000C0194060
:1069B00008B5034B1B68034A116A0348984708BD92
:1069C000D0070020AC07002000001A4008B503469D
:1069D000002008B128B908BD054A9342FAD0013019
:1069E000F7E7044B044A3721044801F01BF900BFC4
:1069F00000400840DCD900706CDA007000DA0070EA
:106A000038B571B104460D46FFF7E0FF144A13682C
:106A100043F440531360236823F0020323600023F0
:106A20000FE0104B104A4621104801F0FBF804EB30
:106A30000311D1F8082122F00102C1F80821013325
:106A4000DBB2032BF3D92B7823B1236823F00103A6
:106A5000236038BD236843F001032360F9E700BFDA
:106A60006CC00F4094CF00707CDA007000DA0070C8
:106A700008B5026842F002020260FFF7A7FF034A6E
:106A8000136823F44053136008BD00BF6CC00F406F
:106A900008B502460020042806D8084B53F82030D9
:106AA000934201D00130F6E7042800D808BD044B1A
:106AB000044A3721044801F0B5F800BFF8DB007044
:106AC00088DA00709CDB0070ACDA0070F8B5002A40
:106AD0006CD005460E4614465379022B6CD0637A6F
:106AE000012B02D1002E00F0C6802846FFF7D0FF10
:106AF00006EB8000624B33F91010080A01F01F0703
:106B0000B1F5006F5CD25F4951F820300322BA40E2
:106B100023EA0203134341F82030B5F88E319BB2CB
:106B200043F00F03A5F88E3106EB460305EB431344
:106B30009B8803F4E651637903F00303E27AD20001
:106B400002F0380213432279120202F44072134316
:106B50002278D20392B213436278920302F4804205
:106B60001343627A920002F0040213430B43E2796A
:106B7000012A2FD0022A39D04AB306EB460205EB90
:106B800042129380D38840F68B711940A3791B0180
:106B900003F07003A27A120392B213430B43227ADA
:106BA000032A31D8DFE802F02E585E64364B374AAC
:106BB0004921374801F036F8002990D101204AE0F8
:106BC000344B354A4FF47571344801F02BF843F4D7
:106BD0000053D2E7B5F8882192B206F10C000121EA
:106BE000814022EA0102A5F88821C6E7B5F888218C
:106BF00092B206F10C00012181400A4392B2A5F83D
:106C00008821BAE743F0040306EB460205EB421283
:106C1000D380B5F89031DBB22BB1B5F8903103F4E5
:106C20007F43A5F89031A3781B0203F4E063E27878
:106C30001343A5F89031E37AFBB906EB460305EB65
:106C400043139B889BB243F0400306EB460605EBDB
:106C50004615AB800020F8BD23F480639BB243F45B
:106C60000063D1E723F400639BB243F48063CBE776
:106C700043F44063C8E70120EDE70020EBE700BFE5
:106C80000CDC007068C00F4094CF0070ACDB00706B
:106C9000ACDA00709CCF007088DB0070A8CF007069
:106CA00038B50C46B0F888319BB201F108050121D6
:106CB000A94023EA0103A0F88831FFF7E9FE04EBBD
:106CC00080040D4B33F91430B3F5006F0CD2190A60
:106CD00003F01F04094850F821300322A24023EAA0
:106CE000020340F8213038BD054B064A4FF4757158
:106CF000054800F097FF00BF0CDC007068C00F4033
:106D00009CCF007088DB0070A8CF007008B568B118
:106D100000220270427042728270C27042718271AF
:106D20000271C27282720272C27108BD024B034AC2
:106D3000D521034800F076FF94CF0070B8DB0070D7
:106D4000ACDA00702DE9F04F83B005469DF830A015
:106D50000D9F0E98F2B19846164617B343B370B321
:106D600053684CF25032934230D8B8F1020F00F21F
:106D700045810C4601EB410105EB4111CB88C3F382
:106D8000021320FA03F3B3FBF7F301931FFA83FB1B
:106D900000276BE09A4B9B4A40F211119A4800F091
:106DA00041FF9A4B974A4FF48971974800F03AFF98
:106DB000974B944A40F21311934800F033FF954BE0
:106DC000904A4FF48A71904800F02CFF924B8D4A04
:106DD00040F215118C4800F025FF4FF6FF739842E2
:106DE00055D0013080B252E04FEA5B014A4292B284
:106DF00004EB440305EB43135A8000225A81D981E6
:106E00003378012B52D04008424292B204EB440343
:106E100005EB43135A83D8833378012B00F0D380DA
:106E2000728904EB440305EB43135A8604220920BC
:106E3000337A002B40F0D08004EB440105EB411184
:106E40004B8C9BB24FF0010C0CFA00F023EA0003CC
:106E50004B84B5F880319BB2111901228A4013434B
:106E60009BB2A5F880310C360137FFB2474580F060
:106E7000C180D6F804904CF250320023ABFB0901DC
:106E8000FCF714F980B24CF250339945A5D0BAF111
:106E9000030FC1D801A353F82AF000BFE96D0070B9
:106EA000C16E0070456F00708B6F007040084242E9
:106EB00092B204EB440305EB43135A82D882ABE74A
:106EC00004EB440305EB431300225A804FEA5B02B4
:106ED0005A81A3F80EB03378012B15D0BDF80430D9
:106EE0000146181A2AD4C0F34F0004EB440205EB04
:106EF000421250835B1823D4C3F34F0304EB4402C4
:106F000005EB4212D38387E7BDF804300146181A17
:106F100010D4C0F34F0004EB440205EB4212508240
:106F20005B1809D4C3F34F0304EB440205EB421290
:106F3000D38271E70130ECE70133F3E70130D2E7A8
:106F40000133D9E74FEA5B03594289B204EB4402AB
:106F500005EB421251804FF0000CA2F80AC0D38119
:106F60003278012A08D004EB440205EB4212518327
:106F7000C01A80B2D0834FE704EB440205EB421203
:106F80005182C31A9BB2D38246E704EB440305EB5C
:106F9000431300225A804FEA5B025A81A3F80EB0D5
:106FA0003378012B07D004EB440305EB4313002295
:106FB0005A83D88330E704EB440305EB43130022E4
:106FC0005A82D88228E7728904EB440305EB431305
:106FD0001A8608220A202BE704EB440105EB411135
:106FE0004B8C9BB24FF0010C0CFA00F003439BB2A8
:106FF0004B842EE7002003B0BDE8F08F0120FAE7B4
:1070000018DB0070D0DB0070ACDA007024DB00709D
:1070100030DB00703CDB007048DB00702DE9F04194
:107020001646069F4CF25032974209D805460C4648
:10703000012E0CD8032B2CD8DFE803F010378CBAC4
:10704000714B724A40F2C111714800F0EBFD714B77
:107050006E4A4FF4E1716E4800F0E4FD01EB41032C
:1070600000EB4313D88980B2400080B2A7FB000137
:107070004CF250320023FCF719F880B2012E0AD0EE
:107080004008424292B204EB440305EB43135A8397
:10709000D883BDE8F0814008424292B204EB440339
:1070A00005EB43135A82D882F3E701EB410300EB6F
:1070B0004313D8891FFA80F880B2A7FB00014CF275
:1070C00050320023FBF7F2FF80B24CF250339F4264
:1070D00018D0012E1DD00246B8EB000035D4C0F305
:1070E0004F0004EB440305EB4313588318EB0208ED
:1070F0002DD4C8F34F0804EB440405EB4414A4F862
:107100001E80C6E74FF6FF739842E2D0013080B28E
:10711000DFE70346B8EB000012D4C0F34F0004EBE6
:10712000440205EB4212508218EB03080AD4C8F35C
:107130004F0804EB440405EB4414A4F81680A8E7B8
:107140000130EAE708F10108F1E70130C7E708F18B
:107150000108CEE701EB410300EB4313D8891FFA86
:1071600080F84FEA480080B2A7FB00014CF2503291
:107170000023FBF79BFF80B2012E0CD0C8F1000268
:1071800092B204EB440305EB43135A83A0EB0800CF
:1071900080B2D8837DE7C8F1000292B204EB4403C9
:1071A00005EB43135A82A0EB080080B2D88270E747
:1071B00001EB410300EB4313D88980B2A7FB000128
:1071C0004CF250320023FBF771FF80B24CF2503387
:1071D0009F4209D0012E0ED004EB440305EB43136C
:1071E00000225A83D88354E74FF6FF739842F1D0B8
:1071F000013080B2EEE704EB440305EB43130022B9
:107200005A82D88245E700BF54DB0070E0DB007093
:10721000ACDA007078DB007008B502460020042864
:1072200006D8084B53F82030934201D00130F6E7DE
:10723000042800D808BD044B044A3621044800F055
:10724000F1FC00BF14DD007034DC0070DCDC007089
:1072500058DC0070F8B5002A3DD005460E461446AD
:10726000FFF7DAFF224B33F91010080A01F01F076D
:10727000B1F5006F35D21F4951F820300322BA40D2
:1072800023EA0203134341F8203023785B0203F41E
:10729000F0536278D20102F4C072134305EB46103A
:1072A0008381E3781B0103F01003A278520102F0FE
:1072B00020021343C381A3799B039BB28382C38AB9
:1072C00003F47843C38223791B0203F4E0636279F9
:1072D0001343C382F8BD084B084A4621084800F012
:1072E000A1FC084B084A4FF47571084800F09AFC5D
:1072F00028DD007068C00F4094CF0070F0DC007093
:1073000058DC00709CCF0070C8DC0070A8CF007003
:1073100010B500EB41118B89C3F30C038B81FFF790
:107320007BFF0D4B33F91030B3F5006F0CD2190A07
:1073300003F01F04094850F821300322A24023EA39
:10734000020340F8213010BD054B064A4FF4757119
:10735000054800F067FC00BF28DD007068C00F40E2
:107360009CCF0070C8DC0070A8CF007008B548B191
:1073700000228271C2708270027142710921017013
:10738000427008BD024B034A7F21034800F04AFCCB
:1073900094CF0070FCDC007058DC007008B51D4B09
:1073A000D968D9B11C4BD3F8883013F4803F05D18C
:1073B000194BD3F8883013F4802F0FD0164BD3F825
:1073C000883013F4807F05D1134BD3F8883013F441
:1073D000806F03D0114B1B680F4898470D4B99687D
:1073E000B9B10D4B9B6813F4803F04D10A4B9B68E5
:1073F00013F4802F0DD0084B9B6813F4807F04D1C9
:10740000054B9B6813F4806F03D0054B1B68024843
:10741000984708BDD407002000403840F4070020FA
:10742000F807002008B51D4B5969D9B11C4BD3F89A
:10743000883013F4803F05D1194BD3F8883013F40A
:10744000802F0FD0164BD3F8883013F4807F05D1EE
:10745000134BD3F8883013F4806F03D0114B1B68A3
:107460000F4898470D4B1969B9B10D4B9B6813F440
:10747000803F04D10A4B9B6813F4802F0DD0084B3A
