:0200000470008A
:10000000464346420004015600000000010303007D
:1000100000000000000000000000000000000000E0
:1000200000000000000000000000000000000000D0
:1000300000000000000000000000000000000000C0
:1000400000000000000408000000000000000000A4
:100050000000400000000000000000000000000060
:100060000000000000000000000000000000000090
:100070000000000000000000000000000000000080
:10008000EB04180A063204260000000000000000FD
:100090000000000000000000000000000000000060
:1000A0000000000000000000000000000000000050
:1000B0000000000000000000000000000000000040
:1000C0000000000000000000000000000000000030
:1000D0000000000000000000000000000000000020
:1000E0000000000000000000000000000000000010
:1000F0000000000000000000000000000000000000
:1001000000000000000000000000000000000000EF
:1001100000000000000000000000000000000000DF
:1001200000000000000000000000000000000000CF
:1001300000000000000000000000000000000000BF
:1001400000000000000000000000000000000000AF
:10015000000000000000000000000000000000009F
:10016000000000000000000000000000000000008F
:10017000000000000000000000000000000000007F
:10018000000000000000000000000000000000006F
:10019000000000000000000000000000000000005F
:1001A000000000000000000000000000000000004F
:1001B000000000000000000000000000000000003F
:1001C000000100000010000000000000000000001E
:1001D000000001000000000000000000000000001E
:1001E000000000000000000000000000000000000F
:1001F00000000000000000000000000000000000FF
:10100000D10020410020007000000000301000706E
:1010100020100070001000700000000000000000B0
:10102000000000700000400000000000FFFFFFFF14
:10103000D2043041CC03AC04400FC068FFFFFFFF77
:10104000400FC06CFFFFFFFF400FC070FFFFFFFFAE
:10105000400FC074FFFFFFFF400FC078FFFFFFFF8E
:10106000400FC07CFFFFFFFF400FC080FFFFFFFF6E
:10107000400D803000002001400D8100001D000067
:10108000400FC01400010D40401F801400000000FC
:10109000401F801800000000401F801C000000005E
:1010A000401F802000000000401F8024000000003E
:1010B000401F802800000000401F802C000000001E
:1010C000401F803000000000401F803400000000FE
:1010D000401F803800000000401F803C00000000DE
:1010E000401F804000000000401F804400000000BE
:1010F000401F804800000000401F804C000000009E
:10110000401F805000000000401F8054000000007D
:10111000401F805800000000401F805C000000005D
:10112000401F806000000000401F8064000000003D
:10113000401F806800000000401F806C000000001D
:10114000401F807000000000401F807400000000FD
:10115000401F807800000000401F807C00000000DD
:10116000401F808000000000401F808400000000BD
:10117000401F808800000000401F808C000000009D
:10118000401F809000000000401F8094000000007D
:10119000401F809800000000401F809C000000005D
:1011A000401F80A000000000401F80A4000000003D
:1011B000401F80A800000000401F80AC000000001D
:1011C000401F80B000000010401F80B400000000ED
:1011D000401F80B800000000401F8204000110F989
:1011E000401F8208000110F9401F820C000110F915
:1011F000401F8210000110F9401F8214000110F9F5
:10120000401F8218000110F9401F821C000110F9D4
:10121000401F8220000110F9401F8224000110F9B4
:10122000401F8228000110F9401F822C000110F994
:10123000401F8230000110F9401F8234000110F974
:10124000401F8238000110F9401F823C000110F954
:10125000401F8240000110F9401F8244000110F934
:10126000401F8248000110F9401F824C000110F914
:10127000401F8250000110F9401F8254000110F9F4
:10128000401F8258000110F9401F825C000110F9D4
:10129000401F8260000110F9401F8264000110F9B4
:1012A000401F8268000110F9401F826C000110F994
:1012B000401F8270000110F9401F8274000110F974
:1012C000401F8278000110F9401F827C000110F954
:1012D000401F8280000110F9401F8284000110F934
:1012E000401F8288000110F9401F828C000110F914
:1012F000401F8290000110F9401F8294000110F9F4
:10130000401F8298000110F9401F829C000110F9D3
:10131000401F82A0000110F9401F82A4000110F9B3
:10132000401F82A8000110F9402F000010000004A7
:10133000402F000800030524402F000C060305245D
:10134000402F00108000001B402F00148200001B63
:10135000402F00188400001B402F001C8600001B3B
:10136000402F002090000021402F0024A0000019F1
:10137000402F0028A8000017402F002CA900001BB8
:10138000402F003000000021402F0004000079A809
:10139000402F004000000F31402F004400652922FB
:1013A000402F004800010920402F004C50210A081E
:1013B000402F008000000021402F00840088888892
:1013C000402F009400000002402F00980000000011
:1013D000402F009080000000402F009CA55A000F75
:1013E000CF000C1C402F003C00000001CC00140476
:1013F000402F009080000000402F009CA55A000C58
:10140000CF000C1C402F003C00000001CC00140455
:10141000402F009080000000402F009CA55A000C37
:10142000CF000C1C402F003C00000001CC001C042D
:10143000402F00A000000033402F009080000000EB
:10144000402F009CA55A000ACF000C1C402F003CE6
:1014500000000001CC000C04402F004C50210A0970
:1020000000000220BD2400704D5600704F56007035
:102010005156007053560070555600700000000075
:102020000000000000000000000000005756007093
:1020300059560070000000005B5600703D4700706C
:102040001D250070212500702525007029250070B0
:102050002D25007031250070352500703925007060
:102060003D25007041250070452500704925007010
:102070004D250070512500705525007059250070C0
:102080005D25007005250070052500700525007090
:102090006125007065250070692500706D25007050
:1020A0007125007075250070792500707D25007000
:1020B0008125007085250070892500708D250070B0
:1020C0009125007095250070992500709D25007060
:1020D000A1250070A525007005250070052500705C
:1020E000052500700525007005250070332C007053
:1020F0000525007005250070052500700525007078
:102100000525007005250070052500700525007067
:102110000525007005250070052500700525007057
:10212000A9250070AD250070B1250070B52500709F
:10213000B925007005250070052500700525007083
:102140000525007005250070052500700525007027
:102150000525007005250070052500700525007017
:102160000525007005250070052500700525007007
:1021700005250070052500700525007005250070F7
:1021800005250070052500700525007005250070E7
:102190009547007005250070052500700525007025
:1021A0000525007005250070BD250070C125007053
:1021B00005250070052500700525007005250070B7
:1021C00005250070052500700525007005250070A7
:1021D0000525007005250070052500700525007097
:1021E000052500700525007005250070C5250070C7
:1021F000C925007005250070CD250070D12500701F
:102200002186007011860070D5250070FD3A00709F
:102210000525007005250070052500700525007056
:102220000525007005250070412C00700525007003
:102230000525007005250070052500700525007036
:102240000525007005250070052500700525007026
:102250000525007005250070052500700525007016
:102260000525007005250070052500700525007006
:1022700005250070052500700525007005250070F6
:1022800005250070052500700525007005250070E6
:1022900005250070052500700525007005250070D6
:1022A000DD250070E1250070E52500700525007032
:1022B000E9250070052500700525007005250070D2
:1022C00005250070052500700525007005250070A6
:1022D0000525007005250070052500700525007096
:1022E0000525007005250070052500700525007086
:1022F0000525007005250070052500700525007076
:102300000525007005250070052500700525007065
:102310000525007005250070052500700525007055
:102320000525007005250070052500700525007045
:102330000525007005250070052500700525007035
:102340000525007005250070052500700525007025
:102350000525007005250070052500700525007015
:102360000525007005250070052500700525007005
:1023700005250070052500700525007005250070F5
:1023800005250070052500700525007005250070E5
:1023900005250070052500700525007005250070D5
:1023A00005250070052500700525007005250070C5
:1023B00005250070052500700525007005250070B5
:1023C00005250070052500700525007005250070A5
:1023D0000525007005250070052500700525007095
:1023E0000525007005250070052500700525007085
:1023F000052500700525007005250070FFFFFFFF13
:1024000010B5054C237833B9044B13B10448AFF32E
:1024100000800123237010BD940400200000000000
:102420008C93007008B5034B1BB103490348AFF30D
:10243000008008BD00000000980400208C9300700C
:10244000A3F5803A704700BF174B002B08BF134B12
:102450009D46FFF7F5FF00218B460F461348144AAF
:10246000121A06F019F90E4B002B00D098470D4BAD
:10247000002B00D098470020002104000D000D48DB
:10248000002802D00C4806F0C7F906F0E1F8200059
:10249000290000F007FC06F0CBF800BF00000800A0
:1024A0000000000000000000000002209404002052
:1024B000F0060020198800702588007072B60A485E
:1024C0000A4901600A6882F3088809488047094977
:1024D000094A0A4B9A42BEBF51F8040B42F8040B5A
:1024E000F8E762B60648804708ED00E0002000707B
:1024F000612D0070B893007000000020940400204B
:1025000049240070FFF7FEBF3848004738480047AD
:10251000384800473848004738480047384800479F
:10252000384800473848004738480047384800478F
:10253000384800473848004738480047384800477F
:10254000384800473848004738480047384800476F
:10255000384800473848004738480047384800475F
:10256000384800473848004738480047384800474F
:10257000384800473848004738480047384800473F
:10258000384800473848004738480047384800472F
:10259000384800473848004738480047384800471F
:1025A000384800473848004738480047384800470F
:1025B00038480047384800473848004738480047FF
:1025C00038480047384800473848004738480047EF
:1025D00038480047384800473848004738480047DF
:1025E0003848004738480047384800474D56007083
:1025F0004F560070575600705B5600703D47007094
:1026000091360070CD360070093700704537007084
:1026100081370070BD370070F937007035380070B1
:1026200071380070AD380070E938007025390070DD
:10263000613900709D390070D9390070153A007009
:102640000525007055440070714400708D44007081
:10265000A9440070C5440070E1440070FD4400705E
:102660001945007001400070114000702140007059
:10267000314000706540007099400070CD4000709E
:1026800001410070353B00706D3B007035450070B6
:10269000BD4500707D46007045460070B54600702F
:1026A000153C00701D3C007005250070052500706C
:1026B000E946007005470070153B00700525007065
:1026C000253B007005250070A53B0070253C00707F
:1026D00053B94AB9002908BF00281CBF4FF0FF3189
:1026E0004FF0FF3000F06EB9ADF1080C6DE904CE8B
:1026F00000F006F8DDF804E0DDE9022304B07047DD
:102700002DE9F047089D04468C46002B40F083805D
:102710008A42174647D9B2FA82F242B1C2F120008A
:1027200024FA00F09140974040EA010C94404FEAAF
:102730001748230CBCFBF8F61FFA87FE08FB16C1EE
:1027400043EA014306FB0EF1994209D9FB1806F151
:10275000FF3080F01981994240F21681023E3B44DD
:102760005B1AA4B2B3FBF8F008FB103344EA03444D
:1027700000FB0EFEA64509D93C1900F1FF3380F09D
:102780000581A64540F2028102383C4440EA0640F9
:10279000A4EB0E0400261DB1D4400023C5E900437C
:1027A0003146BDE8F08702B9FFDEB2FA82F2002AB4
:1027B00050D1CB1B4FEA174E1FFA87F80126B3FB07
:1027C000FEFC210C0EFB1C3341EA034108FB0CF319
:1027D0008B4207D979180CF1FF3002D28B4200F2FC
:1027E000E9808446C91AA3B2B1FBFEF00EFB1011BA
:1027F00043EA014408FB00F8A04507D93C1900F161
:10280000FF3302D2A04500F2D9801846A4EB080499
:1028100040EA0C40BFE78B4209D9002D00F0B1809F
:102820000026C5E9000130463146BDE8F087B3FA1D
:1028300083F6002E4AD18B4202D3824200F2B88046
:10284000841A61EB030101208C46002DA8D0C5E954
:10285000004CA5E7C2F1200320FA03F6974001FAE5
:1028600002F04FEA174ED9403043030CB1FBFEF69D
:102870001FFA87F80EFB161143EA014306FB08F125
:10288000994204FA02F409D9FB1806F1FF3C80F0E2
:102890008D80994240F28A80023E3B445B1A81B2AD
:1028A000B3FBFEF00EFB103341EA034100FB08F3DB
:1028B0008B4207D9791800F1FF3C73D28B4271D952
:1028C00002383944CB1A40EA064678E7C6F1200CB4
:1028D00003FA06F422FA0CF31C4320FA0CF701FA6F
:1028E00006F34FEA144E21FA0CF11F433B0CB1FBE7
:1028F000FEF91FFA84F80EFB191143EA014109FBA6
:1029000008FA8A4502FA06F200FA06F308D96118B5
:1029100009F1FF3048D28A4546D9A9F1020921447C
:10292000A1EB0A01BFB2B1FBFEF00EFB101147EAAA
:10293000014700FB08F8B84507D9E71900F1FF3156
:102940002ED2B8452CD90238274440EA0940A7EBDB
:102950000807A0FB02894F45C64649461AD317D03F
:102960005DB1B3EB0E0267EB010707FA0CFCF24016
:102970004CEA0202F740C5E9002700263146BDE8CF
:10298000F0872E4628460BE70646E9E61846FDE6A0
:102990004345E5D2B8EB020E69EB04010138DFE7ED
:1029A0000846D2E760468DE78146B9E7664675E797
:1029B00030464AE7ACF1020C394413E702383C4494
:1029C00024E700BF704700BFF0B587B0002426E0C1
:1029D0000321012002F042FE584D25F81400042185
:1029E000012002F03BFE631D25F8130005210120A4
:1029F00002F034FE04F10A0325F813000621012039
:102A000002F02CFE04F10F0325F813000921012028
:102A100002F024FE04F1140325F813000134042C01
:102A2000D6DD00211CE00133042B0EDC01EB81021A
:102A30001A44424830F81220A24201D9DEB21446AC
:102A4000AA42F0D2DFB21546EDE73C4A01EB810322
:102A50001E44002022F816003B4422F813000131E6
:102A6000042906DC00234FF461651C461F461E4600
:102A7000DAE7002103910491ADF8141000E0013170
:102A8000042912DC0023042BF9DC01EB81021A4437
:102A90002A4830F8122006A800EB410030F80C4C10
:102AA000224420F80C2C0133EDE700220092019221
:102AB000ADF808200BE006AB03EB420131F80C3C0B
:102AC0001F48A0FB03035B0821F8183C0132042ACD
:102AD000F1DD002317E006AA02EB430232F8182CBE
:102AE00007EE102AB8EE477A164A32F8132007EE9E
:102AF000902AF8EE677AC7EE276A134A02EB830240
:102B0000C2ED006A0133042BE5DD0F4BD3ED047AEF
:102B1000F5EEC07AF1EE10FA05DD0C4A13785B424F
:102B2000137007B0F0BD93ED007AD3ED017AB4EEE7
:102B3000E77AF1EE10FAF4DDEFE700BFC4040020FD
:102B4000ABAAAAAA00000020B00400200A000020BE
:102B500010B4002484628C624FF07651D960D16049
:102B60005DF8044B70470023836243624FF0765355
:102B7000CB60704708B50121292002F0B7FD642021
:102B800005F09AFB0021292002F0B0FD642005F039
:102B900093FB08BD30B583B0054642F210741CE0CB
:102BA00000236B62D5ED097AFDEEE77A95ED087AA0
:102BB000BDEEC77A17EE103AADF8003017EE903A36
:102BC000ADF802300023ADF80430ADF80630042132
:102BD000684600F015F8013CA4B264B114F0010F8E
:102BE000E0D1D5ED097AF5EE407AF1EE10FAD7D1C1
:102BF000024B6B62D6E703B030BD00BF0000C84295
:102C0000F8B507460E460121082005F0F5FC002422
:102C1000A6420DDD37F91410CDB2C1F3072108200B
:102C200005F0EAFC2946082005F0E6FC0134EFE750
:102C3000F8BD08B500F090FCBFF34F8F08BD000051
:102C400008B5174BD3F80C3113F0010F20D1144BFA
:102C5000D3F81C3113F0010F03D0114B0122C3F83C
:102C60001C210F4BD3F82C3113F0010F03D00C4B68
:102C70000122C3F82C210A4BD3F83C3113F0010F89
:102C800003D0074B0122C3F83C21BFF34F8F08BD8F
:102C9000FFF79AFE024B0122C3F80C21D7E700BFD1
:102CA0000040084030B5C5B0EFF3108372B602F0B3
:102CB000A3F9642005F000FB22231F224FF41651D4
:102CC000082005F06FFC34252A46002137A805F0BE
:102CD000E3FC002433943494359436942A462146F8
:102CE00026A805F0D9FC2A46214619A805F0D4FCEF
:102CF0001594169417941894119412941394149490
:102D000015AB11AA19A926A8FFF722FF33A937A8E6
:102D1000FFF729FF47F2480301221146292002F05C
:102D2000B9FC3022214605A805F0B6FC00940194B8
:102D30000294084B0E934FF07E530493064B069378
:102D40004FF074530393FFF715FF694604A8FFF78C
:102D500021FFF8E70000A04100002041704700007B
:102D600010B5454AD2F8883043F47003C2F8883071
:102D7000424A13899BB223F001039BB2138140495D
:102D80000B899BB223F001039BB20B81138813F0D4
:102D9000040F05D013889BB223F004039BB2138069
:102DA000374B1B8813F0040F06D0354A13889BB2AB
:102DB00023F004039BB21380324A334B53604FF627
:102DC000FF739360136823F0A00343F020031360A4
:102DD0002E4B1B6813F0010F04D02C4A136823F00C
:102DE00001031360244B5B6913F4003F13D1BFF35D
:102DF0004F8FBFF36F8F204B0022C3F85022BFF3D9
:102E00004F8FBFF36F8F5A6942F400325A61BFF39C
:102E10004F8FBFF36F8F184B5B6913F4803F02D065
:102E2000FFF79CFF10BD144B0022C3F88420BFF3B2
:102E30004F8FD3F88040C4F34E3100E01946C4F3FD
:102E4000C90243F6E07303EA411343EA82730A4876
:102E5000C0F860321346013A002BF2D14B1E002914
:102E6000ECD1BFF34F8F436943F480334361BFF329
:102E70004F8FBFF36F8FD3E700ED00E000800B4072
:102E800000000D4000C00B4020C528D910E000E034
:102E900010B55AB107290FD8136803F01F03127930
:102EA0000AB143F0800340F8213010BD054B064ABB
:102EB000BF21064801F082FF054B034AC0210348A9
:102EC00001F07CFF64890070E88900701889007047
:102ED000CC89007008B5D8B9104B4FF08042C3F8C8
:102EE00058210E4BD3F8703213F4803FF9D00B4BBE
:102EF0004FF48032C3F85421084BD3F8503113F407
:102F0000004FF9D0054B4FF48032C3F8582108BD6B
:102F1000034B044A9A21044801F050FF00800D4001
:102F2000008A00705C8A0070108A007020B9054B1E
:102F30001022C3F874227047024B1022C3F8782283
:102F4000704700BF00800D40034AD2F8703243F052
:102F50000103C2F87032704700800D400F490B68C2
:102F600023F4E0330279920392B2134343F48033A3
:102F70000B600A680A4B1340026802F07F02134399
:102F800043F400530B60054B1B68002BFBDA034A2C
:102F9000136823F480331360704700BF00800D4036
:102FA00080CFFFFF014B00221A62704700800D4066
:102FB000024B4FF480521A67704700BF00800D40EB
:102FC000024B4FF48052C3F8A020704700800D40A0
:102FD000024B4FF48052C3F8E020704700800D4050
:102FE00070B584B004467A4B0FCB04AD05E90F00F1
:102FF000C4F30B41774A8D5804F01F00012383402E
:103000001D401ED08B5813F4404F07D1D2F87032B8
:1030100013F0100F18D1704B1D6800E000258B587D
:1030200013F480330DD16D4A94425ED00ED96C4AB0
:10303000944200F0B58036D96A4A944240F0C58087
:10304000694D284604B070BD684DE8E7A2F5A002BE
:10305000944200F0AF8013D9654A944221D15D4C6F
:10306000206D226E0023A5FB0001FFF731FB236BCF
:1030700013F0010F33D0162303FB05F50544E0E7F9
:103080000D2C24D0A2F58012944208D1514B1B691B
:1030900013F0020F27D0162303FB05F5D1E71D46D9
:1030A000CFE71D46CDE7534A94424DD002F580024A
:1030B00094420AD1474BD3F8E03003F0030304AA4B
:1030C00002EB830353F8105CBBE71D46B9E7414BA5
:1030D0001B6803F07F0305FB03F56D08B1E705EB03
:1030E0008505AD00CAE71423D6E73A4C266F06F0F3
:1030F0007F06D4F88000D4F890200023A5FB0001BF
:10310000FFF7E6FA05FB0605236F13F4C01315D08D
:10311000B3F5002F14D02F4BD3F8703123F07F4339
:1031200023F4FE0323F4FF4323F07F03B3F5004FA2
:1031300008D0314A934284D1AD0882E7AD08EAE76E
:103140006D08E8E76D087CE7224CD4F8A06006F033
:103150007F06D4F8B000D4F8C0200023A5FB0001FE
:10316000FFF7B6FA05FB0605D4F8A03013F4C01338
:1031700010D0B3F5002F0FD0164BD3F8703103F0F9
:103180004043B3F1804F09D0B3F1404F7FF459AFC2
:10319000AD0856E7AD08EFE76D08EDE76D0850E7BD
:1031A0000C4BD3F8E03003F00C0304AA134453F89B
:1031B000105C46E7074B1B6A13F0020F03D016237F
:1031C00003FB05F53DE71423FAE71D4639E700BF89
:1031D000E488007000800D40FC0400200D007000A9
:1031E0001400E0001500E00040787D0100366E011B
:1031F0000D0030000D00A0000080800010B50446D6
:103200001648FFF7EDFE032C26D8DFE804F0020D88
:10321000151D134BD3F8003103F03F03B0FBF3F05F
:1032200000EBC000400010BD0D4BD3F80031C3F3DC
:103230000523B0FBF3F0F3E7094BD3F80031C3F3F8
:103240000543B0FBF3F0EBE7054BD3F80031C3F3D4
:103250000563B0FBF3F0E3E70020E1E70D00300089
:1032600000800D4008B5284B586910F0007025D03B
:103270009B6903F44053B3F5805F10D0B3F5005F52
:1032800016D043B10020204B5B69C3F3C263013306
:10329000B0FBF3F008BD1D48FFF7A2FEF3E71C4B9F
:1032A000D3F8703213F0100F06D11A4B1868EAE702
:1032B0001948FFF795FEE6E71848E4E7124B9B69CB
:1032C00003F44023B3F5002F1AD007D8A3B1B3F508
:1032D000802FDFD10220FFF791FFDBE7B3F5402F0E
:1032E000D8D10D20FFF77CFE074B1B6903F00703C5
:1032F0000133B0FBF3F0CDE70748FFF771FEC9E7F4
:103300000020FFF77BFFC5E700C00F400D00100055
:1033100000800D40FC0400200D00300000366E01DE
:1033200008B5FFF79FFF044B5B69C3F382230133AA
:10333000B0FBF3F008BD00BF00C00F4008B5FFF7B9
:10334000EFFF044B5B69C3F301230133B0FBF3F0E0
:1033500008BD00BF00C00F4010B504461648FFF777
:103360003FFE032C26D8DFE804F0020D151D134B99
:10337000D3F8F03003F03F03B0FBF3F000EBC000F4
:10338000400010BD0D4BD3F8F030C3F30523B0FB64
:10339000F3F0F3E7094BD3F8F030C3F30543B0FB88
:1033A000F3F0EBE7054BD3F8F030C3F30563B0FB64
:1033B000F3F0E3E70020E1E70D00100000800D408E
:1033C00008B50E4B5B6913F0400F13D00B4B5B69D4
:1033D00013F0800F0AD00120FFF7BEFF074B5B6997
:1033E000C3F302430133B0FBF3F008BD0220FFF743
:1033F00005FFF3E7FFF736FFF0E700BF00C00F401F
:1034000008B5172869D8DFE800F00F0F1215181B50
:103410000C24282C3034383C4044484C5054585CE0
:1034200060644FF4004001E0FFF77AFF08BDFFF74A
:10343000C7FFFBE7FFF782FFF8E700F069F8F5E761
:10344000284BD3F8703213F0100F48D1264B186870
:10345000ECE70D20FFF7C4FDE8E72448FFF7C0FDC7
:10346000E4E70020FFF778FFE0E70120FFF774FFB3
:10347000DCE70220FFF770FFD8E70320FFF76CFFBF
:10348000D4E71B48FFF7ACFDD0E71A48FFF7A8FDCB
:10349000CCE70020FFF7B2FEC8E70120FFF7AEFE41
:1034A000C4E70220FFF7AAFEC0E70320FFF7A6FE4D
:1034B000BCE71148FFF794FDB8E71048FFF790FD0F
:1034C000B4E70F48FFF78CFDB0E70E48FFF788FD23
:1034D000ACE70D48FFF784FDA8E70020A6E70B48FE
:1034E000A4E700BF00800D40FC0400200D00100088
:1034F0000D0020000D0030000D00E0001400E00081
:103500001500E0000D0070000D00A00000366E01F7
:1035100008B50D4BDB6913F0400F0FD00B4BD3F800
:10352000703213F0100F0DD1094B1868064BDB6990
:1035300003F03F030133B0FBF3F008BD0320FFF7B6
:103540005FFFF3E70348F1E700C00F4000800D4044
:10355000FC04002000366E0108B5034B1B68034ACB
:1035600011680348984708BD0405002000050020A5
:1035700000C02B4008B51F2914D800EB411241F2BE
:103580001C03D25AC2F3C013C26ACA40520002F0EE
:1035900002021A43436ACB409B0003F0040342EA51
:1035A000030008BD034B044A40F2AD21034801F07B
:1035B00005FC00BFE48A00704C8B0070988A007094
:1035C00070B5002834D004468368027CDA77C0687E
:1035D000002834D0A36803EB421341F21802995833
:1035E00041F21C029D5A05F08005002D14BF0122F6
:1035F0000022A1EB00034FEA531129D0C9B2637C2A
:103600005BB299422ED0637C5BB2CB1A35D449B2FF
:103610006174E17C49B2C91A49B2E174266816B1F5
:1036200061682046B04715B1A368227C1A7770BD47
:10363000144B154A40F2BE41144801F0BFFB256807
:10364000002DC7D00023012261682046A847EEE77D
:103650001F2B03D9C9B20139C9B2D0E7217D013985
:10366000C9B2CCE7E07C40B2237D5BB2984201D086
:103670000023CCE7E37C5BB2C9E7207D43FA80F30B
:10368000C5E700BF3C8B0070688B0070988A0070A3
:1036900008B500210B48FFF76DFF10F0040F07D1AC
:1036A00010210848FFF766FF10F0040F05D108BD90
:1036B000054B1868FFF784FFF2E7034B186CFFF720
:1036C0007FFFF4E700800E400805002008B50121C7
:1036D0000B48FFF74FFF10F0040F07D111210848E6
:1036E000FFF748FF10F0040F05D108BD054B5868DF
:1036F000FFF766FFF2E7034B586CFFF761FFF4E753
:1037000000800E400805002008B502210B48FFF795
:1037100031FF10F0040F07D112210848FFF72AFFEC
:1037200010F0040F05D108BD054B9868FFF748FF5E
:10373000F2E7034B986CFFF743FFF4E700800E407D
:103740000805002008B503210B48FFF713FF10F010
:10375000040F07D113210848FFF70CFF10F0040FE6
:1037600005D108BD054BD868FFF72AFFF2E7034BE8
:10377000D86CFFF725FFF4E700800E400805002015
:1037800008B504210B48FFF7F5FE10F0040F07D130
:1037900014210848FFF7EEFE10F0040F05D108BD14
:1037A000054B1869FFF70CFFF2E7034B186DFFF7A5
:1037B00007FFF4E700800E400805002008B505214A
:1037C0000B48FFF7D7FE10F0040F07D1152108486A
:1037D000FFF7D0FE10F0040F05D108BD054B586966
:1037E000FFF7EEFEF2E7034B586DFFF7E9FEF4E753
:1037F00000800E400805002008B506210B48FFF7A1
:10380000B9FE10F0040F07D116210848FFF7B2FEE9
:1038100010F0040F05D108BD054B9869FFF7D0FEE5
:10382000F2E7034B986DFFF7CBFEF4E700800E4004
:103830000805002008B507210B48FFF79BFE10F094
:10384000040F07D117210848FFF794FE10F0040F6A
:1038500005D108BD054BD869FFF7B2FEF2E7034B6F
:10386000D86DFFF7ADFEF4E700800E40080500209C
:1038700008B508210B48FFF77DFE10F0040F07D1B3
:1038800018210848FFF776FE10F0040F05D108BD97
:10389000054B186AFFF794FEF2E7034B186EFFF72B
:1038A0008FFEF4E700800E400805002008B50921CE
:1038B0000B48FFF75FFE10F0040F07D119210848ED
:1038C000FFF758FE10F0040F05D108BD054B586AEC
:1038D000FFF776FEF2E7034B586EFFF771FEF4E751
:1038E00000800E400805002008B50A210B48FFF7AC
:1038F00041FE10F0040F07D11A210848FFF73AFEE5
:1039000010F0040F05D108BD054B986AFFF758FE6B
:10391000F2E7034B986EFFF753FEF4E700800E408A
:103920000805002008B50B210B48FFF723FE10F017
:10393000040F07D11B210848FFF71CFE10F0040FED
:1039400005D108BD054BD86AFFF73AFEF2E7034BF5
:10395000D86EFFF735FEF4E700800E400805002022
:1039600008B50C210B48FFF705FE10F0040F07D136
:103970001C210848FFF7FEFD10F0040F05D108BD1B
:10398000054B186BFFF71CFEF2E7034B186FFFF7B0
:1039900017FEF4E700800E400805002008B50D2151
:1039A0000B48FFF7E7FD10F0040F07D11D21084871
:1039B000FFF7E0FD10F0040F05D108BD054B586B73
:1039C000FFF7FEFDF2E7034B586FFFF7F9FDF4E751
:1039D00000800E400805002008B50E210B48FFF7B7
:1039E000C9FD10F0040F07D11E210848FFF7C2FDE2
:1039F00010F0040F05D108BD054B986BFFF7E0FDF3
:103A0000F2E7034B986FFFF7DBFDF4E700800E4011
:103A10000805002008B50F210B48FFF7ABFD10F09B
:103A2000040F07D11F210848FFF7A4FD10F0040F71
:103A300005D108BD054BD86BFFF7C2FDF2E7034B7C
:103A4000D86FFFF7BDFDF4E700800E4008050020A9
:103A500008B50346002000E00130022804D8074AD8
:103A600052F820209A42F7D1022800D808BD044B12
:103A7000044A4FF49D71044801F0A0F90C8C0070C9
:103A8000D48B0070F88B0070788B007070B5044692
:103A90004668FFF7DDFF054616F0406F06D0124B73
:103AA0001B68124A52F820102046984716F0407FB3
:103AB00006D00F4B1B680D4A52F825102046984738
:103AC00016F4C03F05D0094B53F8251020460023BB
:103AD0009847084B1E4206D0074B1B68034A52F812
:103AE00025102046984770BD9805002088050020C5
:103AF0009405002000007C609005002008B5034B71
:103B0000196803480023984708BD00BF88050020B6
:103B100000802D4008B50248FFF7B8FF08BD00BF80
:103B200000802D4008B50248FFF7B0FF08BD00BF78
:103B300000402D4008B5074B596821B1064B1B6862
:103B40000648984708BD064B064A40F66A210648D3
:103B500001F034F99C050020AC05002000001D4058
:103B60008C8C0070C88C00703C8C007008B5074BC2
:103B7000996821B1064B1B680648984708BD064B5B
:103B8000064A40F67821064801F018F99C05002005
:103B9000AC05002000401D40A08C0070E08C00703F
:103BA0003C8C007008B5074BD96821B1064B1B68E7
:103BB0000648984708BD064B064A40F68621064847
:103BC00001F0FCF89C050020AC05002000801D40A1
:103BD000B48C0070F88C00703C8C007010B5002420
:103BE00001E00134E4B2012C0CD8074B53F8241047
:103BF0000029F6D0054B53F82430054A52F824002A
:103C00009847EEE710BD00BFB0050020B8050020C2
:103C1000C005002008B5FFF7E1FF08BD08B5FFF7B4
:103C2000DDFF08BD08B5FFF7D9FF08BD08B502469E
:103C30000020092806D8084B53F82030934201D0C1
:103C40000130F6E7092800D808BD044B044A3921A1
:103C5000044801F0B3F800BFC48D0070108D0070EF
:103C6000A08D0070348D007008B51F2908D86AB97E
:103C70000368012202FA01F123EA0101016008BD93
:103C8000064B074A6B21074801F098F803680122A8
:103C900002FA01F119430160F1E700BF808D007065
:103CA000B48D0070348D007010B4C46901238B4052
:103CB00024EA0304C4610F2909D800F10C04013A75
:103CC000042A0FD8DFE802F007111C272F0000F1AB
:103CD00010041039F3E723684A000321914023EAD6
:103CE000010121605DF8044B7047236848000322FE
:103CF000824023EA02030121814019432160F1E758
:103D0000236848000322824023EA02030221814003
:103D100019432160E6E723684900032202FA01F112
:103D200019432160DEE7C2691343C361DAE700008B
:103D3000F8B504460E461746FFF778FF1A4B33F9DD
:103D40001010B1F5006F1ED2080A01F01F051749C7
:103D500051F820300322AA4023EA0203134341F81A
:103D6000203063690125B540EA4323EA0503636116
:103D70003B787BB963681A406260BA783146204666
:103D8000FFF792FFF8BD0A4B0A4A4FF475710A48D3
:103D900001F014F87A7831462046FFF765FF636832
:103DA0001D436560E9E700BFEC8D007068C00F40FF
:103DB000748900708C8D00708089007008B503468E
:103DC000002000E00130022804D8074A52F82020E1
:103DD0009A42F7D1022800D808BD044B044A2F218B
:103DE000044800F0EBFF00BF448F0070F88D0070B6
:103DF000108F00701C8E007070B5002956D00446DC
:103E00000D46FFF7DBFF3D4B33F91010080A01F0B8
:103E10001F06B1F5006F4FD2394951F82030032207
:103E2000B24023EA0203134341F820300023236009
:103E3000236843F400432360236813F40043FBD159
:103E40002A7A002A3FD04FF40072697A00293CD0C8
:103E500008210A43A97A002939D020210A43E97AA6
:103E6000002936D010210A43297B002933D00421B0
:103E70000A43697B01B10223134323602B78052B8E
:103E80002BD0226822F4B8629B0103F4E073134341
:103E900023606B68013BB3F5805F29D26168194AE2
:103EA0000A40C3F30B031343636070BD164B174AFC
:103EB0003C21174800F082FF164B174A4FF47571EA
:103EC000164800F07BFF1A46BFE71946C1E71946BE
:103ED000C4E71946C7E71946CAE7226822F4B86260
:103EE0009B0103F4E073134343F480632360D0E742
:103EF0000B4B0C4ADB210C4800F060FF508F007028
:103F000068C00F4000F0FFFF688E0070208F0070C7
:103F10001C8E007074890070E88E007080890070BB
:103F2000748E0070FC8E00709C8E007010B50022A4
:103F30000260FFF743FF0D4B33F91030B3F5006F0C
:103F40000CD2190A03F01F04094850F8213003224B
:103F5000A24023EA020340F8213010BD054B064A77
:103F60004FF47571054800F029FF00BF508F0070B5
:103F700068C00F4074890070E88E007080890070FE
:103F800008B560B100210160C16001220270426089
:103F900082724272C17201730172427308BD034B97
:103FA000034A7221034800F009FF00BF6C890070CA
:103FB0002C8F00701C8E007038B504460D460369C6
:103FC00013F0010F06D00A4B1B681BB1094A52F8C7
:103FD00021109847D4F8103113F0010F07D0064B89
:103FE0001B6823B1054A52F825102046984738BD72
:103FF000DC050020C8050020F4050020E0050020B5
:1040000008B501210148FFF7D7FF08BD00003F4078
:1040100008B502210148FFF7CFFF08BD00403F402F
:1040200008B503210148FFF7C7FF08BD00803F40E6
:1040300008B504210148FFF7BFFF08BD00C03F409D
:1040400008B5436A13F0010F03D0044B1B6898476F
:1040500008BD034B1B689847FAE700BF0C06002019
:104060001006002008B5074B596819B10648FFF73C
:10407000E7FF08BD054B064A40F2D371054800F042
:104080009DFE00BFF805002000403940B48F00704D
:1040900004900070608F007008B5074B996819B1E3
:1040A0000648FFF7CDFF08BD054B064A40F2DB711D
:1040B000054800F083FE00BFF8050020008039406D
:1040C000C88F00701C900070608F007008B5074B9F
:1040D000D96819B10648FFF7B3FF08BD054B064A7A
:1040E00040F2E371054800F069FE00BFF8050020CA
:1040F00000C03940DC8F007034900070608F007019
:1041000008B5074B196919B10648FFF799FF08BDB3
:10411000054B064A40F2EB71054800F04FFE00BF28
:10412000F805002000003A40F08F00704C900070BD
:10413000608F007008B502460020082806D8084B9A
:1041400053F82030934201D00130F6E7082800D818
:1041500008BD044B044A7A21044800F02FFE00BF3A
:10416000C4910070B89000708C9100706C900070D9
:104170002DE9F04179B1054696460F460A6882B1AD
:104180000B7A042B13D84B7A042B16D890460420B4
:10419000002426461DE0714B714AEE21714800F063
:1041A0000DFE714B6E4AEF216E4800F007FE6F4B1B
:1041B0006B4AF1216B4800F001FE6D4B684AF22119
:1041C000684800F0FBFD414502D8884604461E467B
:1041D0000130202817D800FB02F3BEFBF3F39BB29B
:1041E00003B9012300FB03F1BEFBF1F1891A03FBC4
:1041F000000CBEFBFCFCA2EB0C0C8C45E3D20133A3
:104200009BB26146DFE75B4BA3FB0232520902EB34
:1042100042024245C0F09E802846FFF78BFF564B76
:1042200033F91010080A01F01F0CB1F5006F80F08F
:104230008180524951F82030032202FA0CF223EA1D
:104240000203134341F82030AB6843F00203AB6034
:10425000AB6823F00203AB602B69221F032A01D84D
:1042600043F4003323F0F852631E1B0603F0F853A7
:104270001343434A1A40C6F30C0616432E612B69BA
:1042800023F000532B61AB693E4919403879FB7B21
:104290001B0203F4E0630343BA7B920002F00402C2
:1042A00013430B437A79012A4BD008B143F0100332
:1042B000AB612A6922F40052FB795B0303F40053DB
:1042C00013432B617A7A3B7A43EA0243EB62AB6A8F
:1042D00043F08803AB62AB6A43F44043AB62696A64
:1042E0007B7B1B0103F010033A7B520102F020029A
:1042F00013430B436B62BB7A1BB16B6A43F0080339
:104300006B62FB7A1BB16B6A43F001036B62BB7992
:10431000F3B11D4A6B6913436B61AB693A7C0AB117
:1043200043F400237A7C0AB143F48023AB6100207C
:10433000BDE8F081154B164A4FF47571154800F031
:104340003DFD10B123F40063B2E743F40063AFE72F
:10435000114ADFE740F22150EAE700BF6C890070A4
:10436000A09100706C900070E0900070F890007068
:10437000389100701F85EB51E891007068C00F40C4
:1043800000E0FFFFE8F8FFFF00C01FE07489007045
:10439000789100708089007000C01FC010B5C36A9A
:1043A00013F4E06FFBD1436913F4800FFBD0426933
:1043B000104B1343436100238361FFF7BBFE0E4B99
:1043C00033F91010080A01F01F04B1F5006F09D28B
:1043D0000A4951F820300322A24023EA020341F89F
:1043E000203010BD064B074A4FF47571064800F0A7
:1043F000E5FC00BF00C01FC0E891007068C00F401E
:1044000074890070789100708089007008B598B147
:10441000002242824FF4E1310160027142718271E7
:10442000C271027242728272C272427302738273EA
:10443000C2730274427408BD034B044A40F2062161
:10444000034800F0BBFC00BF6C890070AC910070A9
:104450006C90007008B5034B1B68034A5168034811
:10446000984708BD38060020140600200040184078
:1044700008B5034B1B68034A91680348984708BD79
:1044800038060020140600200080184008B5034BB1
:104490001B68034AD1680348984708BD38060020C6
:1044A0001406002000C0184008B5034B1B68034ADF
:1044B00011690348984708BD3806002014060020FB
:1044C0000000194008B5034B1B68034A51690348B3
:1044D000984708BD38060020140600200040194007
:1044E00008B5034B1B68034A91690348984708BD08
:1044F00038060020140600200080194008B5034B40
:104500001B68034AD1690348984708BD3806002054
:104510001406002000C0194008B5034B1B68034A6D
:10452000116A0348984708BD380600201406002089
:1045300000001A4008B51D4BD968D9B11C4BD3F8FF
:10454000883013F4803F05D1194BD3F8883013F429
:10455000802F0FD0164BD3F8883013F4807F05D10D
:10456000134BD3F8883013F4806F03D0114B1B68C2
:104570000F4898470D4B9968B9B10D4B9B6813F4E0
:10458000803F04D10A4B9B6813F4802F0DD0084B59
:104590009B6813F4807F04D1054B9B6813F4806FF4
:1045A00003D0054B1B680248984708BD3C06002015
:1045B000004038405C0600206006002008B51D4B16
:1045C0005969D9B11C4BD3F8883013F4803F05D119
:1045D000194BD3F8883013F4802F0FD0164BD3F833
:1045E000883013F4807F05D1134BD3F8883013F44F
:1045F000806F03D0114B1B680F4898470D4B19690A
:10460000B9B10D4B9B6813F4803F04D10A4B9B68F2
:1046100013F4802F0DD0084B9B6813F4807F04D1D6
:10462000054B9B6813F4806F03D0054B1B68024851
:10463000984708BD3C060020008038405C060020FA
:104640006006002008B5074B996921B1064B1B682D
:104650000648984708BD064B064A40F615310648FD
:1046600000F0ACFB3C0600206006002000C0384093
:104670006C920070949200702092007008B5074B05
:10468000D96921B1064B1B680648984708BD064BFF
:10469000064A4FF43261064800F090FB3C060020C9
:1046A0005C06002000C0384080920070B09200701C
:1046B0002092007008B5084B196821B1074B1B68A0
:1046C0000BB107489847044B596821B1054B1B684B
:1046D0000BB10348984708BD64060020700600200F
:1046E000000038406C06002008B5034B1B68034AE5
:1046F00051680348984708BD8006002074060020D2
:1047000000002C4008B5034B1B68034A916803481E
:10471000984708BD800600207406002000402C4009
:1047200018B1012803D1034870470348704700209F
:10473000704700BF840600208C060020024A1368E0
:1047400001331360704700BF8806002008B5FFF7EB
:10475000E7FF18B103460120186008BD0020FCE700
:1047600008B548B90A4B00221A7021B1CB6813B1C1
:1047700009691046984708BD054B01221A700029A7
:10478000F9D08B68002BF6D0096910469847F2E7FC
:10479000B806002008B50D4B9B6913F0100F07D128
:1047A0000A4B4FF0FF329A610120FFF7CFFF08BD9F
:1047B000064B1A68064B5B6A12F0100F19680CBFA3
:1047C00001200020FFF7CCFFEAE700BF00001C40FB
:1047D0009006002038B10346406830B110B54469F6
:1047E0001868A04710BD032070470620704710B519
:1047F0000446012380F86F3000220E21FFF7EAFF04
:10480000022384F86E30002284F86C2008E002EB6A
:10481000420304EB83030021D96019611975013249
:10482000072AF4D9A36800220121204698470020D6
:1048300084F86F0010BD10B584B00A7A102A22D017
:1048400002F00F04D30912F00C0F26D143EA4403FF
:1048500003EB430200EB8202D2680AB30A680192BA
:104860004A6802924A7A8DF80C207AB100220275C9
:1048700080F8202003EB430200EB8202D468126927
:1048800001A9A0470AE0FFF7B2FF07E003EB4302EC
:1048900000EB820200211175ECE7012004B010BD8D
:1048A0000120FBE7B0FA80F35B09002908BF012370
:1048B0002BB910B5836823B1FFF7BDFF10BD0320EE
:1048C00070470120FAE710B44C00E4B242680123BB
:1048D00003FA01F1C2F8AC114268D2F8403143F456
:1048E0000053C2F84031836803EB84139A6A1A6359
:1048F000836803EB8413DA6A5A634368D3F8403160
:1049000013F4005FE8D04268D2F8403123F400533A
:10491000C2F840315DF8044B70474368D3F8AC21CE
:10492000C3F8AC214368D3F8BC21C3F8BC21436869
:104930004FF0FF12C3F8B4214368D3F8B02112F04E
:10494000FF1FF4D1D3F8843113F4807F03D0012307
:1049500080F85630704700B585B0002301931022CF
:104960008DF80C2002938DF80D3001A90068FFF737
:1049700099FF05B05DF804FB2DE9F04385B00546CD
:104980008846174602EB4106002301930293331D2C
:1049900000EB83035C6824F01F0443E0A268A3F5E6
:1049A00080531340A28BC2F30B02134301933DE0EB
:1049B0004FF0FF33029347E0331D05EB83030022E2
:1049C0005A6006F10C0305EB83035A60AB6803EBF6
:1049D000861301219960AB6803EB8613DA6043E02C
:1049E000FB01DBB243EA08038DF80C304FF00009FD
:1049F0008DF80D9001A92868FFF754FFCDF80490B9
:104A0000CDF80890002363602B6923602C6195F931
:104A10005430013385F85430331D05EB83035C6853
:104A200024F01F0464B3019B002BB7D0636813F01C
:104A3000800FBDD1E369C3F312336268C2F30E4243
:104A40009B1A029A13440293331D05EB83035A68A1
:104A500006F10C0305EB83035B689A42ACD0126845
:104A6000331D05EB83035A60636813F4004FB7D11D
:104A7000331D05EB83035B6833F01F03C2D1AFE73F
:104A800005B0BDE8F0832DE9F04F87B005464368D7
:104A9000D3F8AC61002E3AD16B68D3F8BC210192F7
:104AA000C3F8BC21002A40F03A8107B0BDE8F08F7E
:104AB0000134E4B2032CEFD80123A3403342F7D0F2
:104AC000AB686200D2B203EB821303F1300893F8B3
:104AD0003070FF093A4621462846FFF74DFF87F020
:104AE000010221462846FFF747FF8DF81440CDF814
:104AF0000C800823049301238DF8153021462846A5
:104B0000FFF7E1FE03A92868FFF7CCFED0E70024F9
:104B1000D0E7D8464FF00009B8F1030F16D90BF1D2
:104B2000010B5FFA8BFBBBF11F0FBED8012303FA09
:104B30000BF3019A1342F2D0BBF10F0FE9D9ABF19D
:104B400010085FFA88F84FF00109E5E74FEA480AD4
:104B50005FFA8AFACA445FFA8AFA0023039304933D
:104B6000984508BF4B468BB1AB684FEA8A1103EBFF
:104B70008A1292F8382012F0020F07D05A5812F019
:104B8000005F03D15A5842F000525A5056460AF17B
:104B9000040305EB83035C6824F01F04002CBED0E3
:104BA000331D05EB83035C6824F01F042346BBB16F
:104BB0005A6812F0800F07D15A6812F4004F03D1DF
:104BC0001B6823F01F03F2E75A6812F0800F40F0D1
:104BD00084805A6812F4004F40F08180002200E087
:104BE000002282F00102002B14BF13460023002B89
:104BF00095D1002CD2D0636813F0800FCED1039BE7
:104C0000002B6ED0E369C3F312336268C2F30E4225
:104C10009B1A049A13440493331D05EB83035A68CB
:104C200006F10C0305EB83035B689A4263D01268BC
:104C3000331D05EB83035A60636813F4004F06D1FC
:104C4000331D05EB83035B6833F01F030CD148EA87
:104C5000C9138DF8143000278DF8157003A9286842
:104C6000FFF720FE03970497002363602B692360FE
:104C70002C6195F95430013385F85430331D05EB20
:104C800083035C6824F01F042246002CB1D06368C3
:104C900013F0800FADD008EB0913012101FA03F3E3
:104CA0006968C1F8B0316868D0F8B8111942A0D16C
:104CB000D0F8B0111942FBD1D0F8B811194298D1EF
:104CC000A96801EB8A118A60AA6802EB8A120021A6
:104CD000D1606A68C2F8B0318BE7002281E7012217
:104CE0007FE7A268A3F580531340A28BC2F30B02A7
:104CF0001343039386E7331D05EB830300225A60B9
:104D000006F10C0305EB83035A60AB6803EB8A13CF
:104D100001219960AB6803EB8A13DA608CE74FF0EE
:104D2000000B00E710B584B00023019302938DF8C7
:104D30000D304368D3F8842112F4807F0BD10446F0
:104D4000D3F8843113F4007F07D0022380F8583061
:104D500094F856302BB904B010BD002380F85830B9
:104D6000F6E710238DF80C3001A92068FFF79AFDB3
:104D7000002384F85630EEE7F8B138B505686B6863
:104D8000D3F84441D3F848211440C3F8444114F007
:104D9000400F06D114F0010F07D114F0040F08D111
:104DA00038BD2846FFF7B9FDF4E72846FFF76BFE4C
:104DB000F3E72846FFF7B6FFF2E7704700BEFDE7CE
:104DC00008B5134B1B6813F0400F0FD0114BD3F8ED
:104DD000703213F0100F18D10F4B18680C4B1B6872
:104DE00003F03F030133B0FBF3F008BD0B48FEF7BF
:104DF000F7F80B4BA3FB00308008054B1B6803F052
:104E00003F030133B0FBF3F0EFE70648E6E700BFEE
:104E100024C00F4000800D40FC0400200D00100055
:104E2000ABAAAAAA00366E0108B5FFF7C9FF08BDF4
:104E300010B45F4B5B6913F4003F0FD0BFF34F8F8B
:104E4000BFF36F8F5A4B5A6922F400325A61002225
:104E5000C3F85022BFF34F8FBFF36F8F544B5B6982
:104E600013F4803F47D1BFF34F8FBFF36F8F504A8A
:104E7000536A23F4803353624E4B596821F0010189
:104E800059604D49D9604D4919614D49D9604D4925
:104E900019614D48D8604D4818611320D8601961D8
:104EA0001421D9604A4919614A49D9604A491961AE
:104EB0004A48D86019614A49D9604A4919614A4942
:104EC000D9604A4919614A49D9604A491961BFF311
:104ED0004F8FBFF36F8F05215960536A43F48033BE
:104EE00053620023C2F88430BFF34F8FD2F88000A2
:104EF000C0F34E3229E02E4B0022C3F88420BFF3CA
:104F00004F8F5A6922F480325A61BFF34F8FD3F822
:104F10008040C4F34E3100E01946C4F3C90243F6A1
:104F2000E07303EA411343EA82732148C0F8743204
:104F30001346013A002BF2D14B1E0029ECD1BFF3EE
:104F40004F8FBFF36F8F8EE71A46C0F3C90143F648
:104F5000E07303EA421343EA8173154CC4F86032EC
:104F60000B460139002BF2D1531E002AECD1BFF3BE
:104F70004F8F626942F480326261BFF34F8FBFF39B
:104F80006F8FBFF34F8FBFF36F8F0022C4F8502293
:104F9000BFF34F8FBFF36F8F626942F400326261DB
:104FA000BFF34F8FBFF36F8F5DF8044B704700BFA7
:104FB00000ED00E090ED00E0100000C039001003AB
:104FC000110000803B001003120000702B0003064C
:104FD0001F000303150000202500030316002020F6
:104FE0001700282009000303180000803100030384
:104FF0001900E0812900080308B5FFF719FF00F048
:1050000013F800F01FFBFFF70FFF0549CA6822F4F1
:10501000E0621204120C034B1343CB6008BD00BFC7
:1050200000ED00E00003FA052DE9F041BC4B4FF420
:1050300000421A60BB4BD3F8C02242F48032C3F85E
:10504000C022D3F8C02222F40032C3F8C022B64BEB
:10505000B64A1A600020FDF73DFFFDF775FF0120FD
:10506000FDF764FFB24A136823F0FF0343F07F03A8
:1050700013601832136823F4405343F480531360D1
:10508000043A136843F000731360A94B9B6C13F050
:10509000200FFAD1A74AD36823F01F0343F013036C
:1050A000D360A44B1B68002BFBDAA348FDF756FF27
:1050B000FDF77EFF4FF48035A04B1D60994CD4F86E
:1050C000703123F40043C4F87031D4F8703123F404
:1050D0000003C4F87031236F43F400532367FDF7D6
:1050E0006FFFD4F8A0302B43C4F8A030D4F870314F
:1050F00023F04043C4F87031D4F8A03043F4005397
:10510000C4F8A030FDF764FF8D4B1D60D4F8E0308B
:1051100023F0030343F00103C4F8E030D4F8E03097
:1051200043F40053C4F8E030D4F8E03023F00C032B
:10513000C4F8E030D4F8E03043F48013C4F8E03031
:10514000D4F8E03043F40013C4F8E030FDF72AFF50
:105150007C4B1D60236A43F4005323627A4A136830
:1051600023F4E0531360724B9B6C13F0020FFAD1DF
:10517000764B1A6822F440321A601A6822F44072A0
:105180001A6004331A6822F440021A601A6822F086
:1051900040721A606C4A136843F440731360043A17
:1051A000136823F0070343F001031360604B9B6C0B
:1051B00013F4803FFAD1664A136843F44023136026
:1051C000043A136823F000731360594B9B6C13F07F
:1051D000200FFAD15C4A136823F0605313605C4DD2
:1051E0002B6823F440532B6058490B6823F4401379
:1051F0000B600B6823F440030B60564B1A6822F0D7
:1052000040721A601A6822F040621A600A6822F43A
:1052100040520A60504A106820F03F0040F0010000
:105220001060106820F040001060DFF844C1DCF826
:10523000000020F00C00CCF80000484E306820F44C
:10524000605040F400603060106820F480301060DE
:10525000DCF8000020F03000CCF80000306820F4CA
:10526000E02040F480303060106820F4003010609E
:10527000DCF8000020F44060CCF80000106820F05A
:1052800060701060106840F0C0401060344F3868A3
:1052900020F00C003860334C206820F4605040F45B
:1052A00000602060206820F4C0602060086820F062
:1052B00003000860086820F00C000860086820F00F
:1052C00030000860086820F0C0000860286820F0FE
:1052D000E05040F080502860286820F0300040F016
:1052E00020002860186820F440001860306820F022
:1052F000C06040F080603060286820F4404040F496
:10530000004028601848046824F440240460174CC6
:10531000D4F800E02EF4E07E4EF0C00E2AE000BF8C
:10532000F804002000800D40FC04002000366E01CF
:1053300000C00F4000000840CC92007074800D4007
:10534000E4800D4024800D4014C00F406CC00F401D
:1053500018C00F4068C00F401CC00F4024C00F4051
:1053600070C00F403CC00F407CC00F4028C00F40B1
:1053700080C00F40C4F800E0D4F800E02EF03F0EEB
:105380004EF0010EC4F800E0D2F800E02EF4406EBA
:10539000C2F800E0D0F800E02EF4401EC0F800E0B3
:1053A000DFF86C82D8F800E02EF4E07E4EF0C00EFC
:1053B000C8F800E0D8F800E02EF03F0E4EF0010EE5
:1053C000C8F800E0D2F800E02EF4405EC2F800E039
:1053D000D0F800E02EF4400EC0F800E0D4F800E071
:1053E0002EF0E07E4EF4400EC4F800E0D4F800E069
:1053F0002EF47C1E4EF4803EC4F800E0D2F800E0AB
:105400002EF4404EC2F800E03A6822F0C0023A6042
:105410003A6822F440723A603A6822F440623A6094
:10542000383F3A6822F0FC723A603A6822F48022EF
:105430003A601A6822F440421A601A6822F4402244
:105440001A606C4AD2F800E02EF0C00EC2F800E0FC
:10545000D3F800E02EF4403EC3F800E0D3F800E0BB
:105460002EF4401EC3F800E0D2F800E02EF4407E97
:10547000C2F800E0DFF89CE1DEF8002022F0FC0238
:1054800042F00402CEF80020DEF8002022F4407240
:1054900042F40072CEF80020026822F040720260EE
:1054A0001A6822F040521A601A6822F440521A60B8
:1054B0000B6823F040730B604F4A136823F00C0312
:1054C0001360136823F0C0031360036823F0406384
:1054D0000360DCF8003023F44043CCF8003033683C
:1054E00023F03F033360336823F0400333601368D5
:1054F00023F4406313603B6823F4E04343F4805398
:105500003B602B6823F0607343F0C0732B603B68F3
:1055100023F4603343F420333B60036823F44043B7
:105520000360364B196821F0606141F00071196029
:10553000196841F0E0711960196841F4401119606F
:10554000016821F00C010160196821F4E04141F487
:1055500080511960196841F460611960196841F45B
:10556000C0711960136823F003031360236823F4E8
:10557000606343F400732360236823F0606343F0A7
:1055800000732360DEF8003043F4C013CEF800301F
:10559000683A136823F001031360194AD2F86031A6
:1055A00023F01F03C2F86031164B1A6E22F070020E
:1055B0001A661A6E22F00F0242F001021A661A6E83
:1055C00022F460021A661A6E22F4F81242F4901263
:1055D0001A661A6E22F480721A661A6E22F080021F
:1055E0001A661A6E22F080721A66074B074A1A6012
:1055F000BDE8F08184C00F4074C00F4030C00F4040
:1056000000800D4000C00F400C0000200046C32366
:105610002CC00F4020C00F40094A136843F00C0310
:105620001360022302F57C2274321360043213608B
:1056300041F2B00302F5F672136004321360704752
:1056400078C00F4008B5FFF7E7FF08BDFEE7FEE7AB
:10565000FEE7FEE7FEE7FEE7FEE7FEE710B582B0F5
:1056600001F00F01009100218DF8041004466A46F4
:10567000074B53F82000FDF70BFC054B53F8243083
:105680001A6A12F0010FF8D0586A80B202B010BD49
:105690001000002010B582B0044610461A460129B9
:1056A00004D031B900238DF8043002E001238DF8D5
:1056B0000430A0B101238DF8053000238DF80630A9
:1056C0000521204600F02EF8600901AA04F01F0110
:1056D000054B53F82000FEF72BFB02B010BD002352
:1056E0008DF80530E9E700BF1C00002059B14209E0
:1056F0000B4B53F8222000F01F00012303FA00F0A7
:10570000C2F8840070474209054B53F8222000F08C
:105710001F00012303FA00F0C2F88800704700BFA1
:105720001C00002010B5964C236843F00C03236046
:10573000A0F120039BB21F2B01F29E8020381F286E
:1057400000F29381DFE810F020006200A400E20084
:105750009101910191019101910140018B01D601CB
:1057600026027F02BB02FA0246039403FD034E04A5
:10577000A30408055105A305F6055506A606F80677
:105780004607AE07FC074E0859B97E4B196003F572
:105790006E7302211960002A00F067817A4B1A604B
:1057A00063E1012912D0022917D0032918D0042956
:1057B0001DD005291ED006291FD0072920D1714BE5
:1057C000196003F2544300211960E4E76D4B19603E
:1057D00003F5B16300211960DDE76A4B1960DAE770
:1057E000684B196003F54F7300211960D3E7654BCF
:1057F0001960D0E7634B1960CDE7624B1960CAE7C7
:10580000624B634A3E216348FFF7D8FA59B9624BAD
:10581000196003F5717302211960002A00F02581D7
:105820005E4B1A6021E1012912D0022917D0032909
:1058300018D004291DD005291ED006291FD00729FC
:1058400020D1554B196003F58B6300211960E4E703
:10585000514B196003F5B16300211960DDE74E4B30
:105860001960DAE74C4B196003F54D73002119609C
:10587000D3E7494B1960D0E7474B1960CDE7464B5A
:105880001960CAE7414B424A57214248FFF796FA4E
:1058900039B9434B1960002A00F0E780414B1A6088
:1058A000E3E0012912D0022917D003291CD00429D2
:1058B0001DD005291ED006291FD0072920D1384B1D
:1058C000196003F58A6300211960E4E7344B19601D
:1058D00003F5B16300211960DDE7314B196003F571
:1058E000926301211960D6E72D4B1960D3E72C4B49
:1058F0001960D0E72A4B1960CDE7294B1960CAE738
:10590000224B234A70212348FFF758FA59B9264BF6
:10591000196003F5627301211960002A00F0A58067
:10592000224B1A60A1E0012912D0022917D00329C5
:105930001CD0042921D005293AD006293BD00729BB
:105940003CD1194B196003F2444300211960E4E78C
:10595000012315490B6001F264510B60DDE7124B26
:10596000196003F5916301211960D6E70E4B1960A8
:1059700003F5A16300211960CFE70B4B1960CCE759
:1059800078C00F40BC801F40AC821F40D492007092
:1059900024930070D8920070C0801F40B0821F40D6
:1059A000C4801F40B4821F40C8801F40B8821F407F
:1059B000954B1960B1E7944B1960AEE7934B944A4D
:1059C00089219448FFF7FAF931B9934B1960002AFD
:1059D0004BD0924B1A6048E0012914D0022919D00B
:1059E00003291AD004291BD0052920D0062921D04B
:1059F000072926D009292BD1874B196003F5D563D8
:105A000002211960E3E7844B196003F565730321F4
:105A10001960DCE7804B1960D9E77F4B1960D6E746
:105A20007D4B196003F54A7301211960CFE77A4B6A
:105A30001960CCE7784B196003F5AF630121196059
:105A4000C5E7754B196003F28C6300211960BEE74E
:105A50006E4B6F4A40F229116E48FFF7AFF929B932
:105A60006F4B19600AB16F4B1A6010BD012912D03B
:105A7000022917D0032918D004291DD0052922D0C6
:105A8000062923D0072928D0082929D009292AD175
:105A9000634B1960E6E7624B196003F55C73032101
:105AA0001960DFE75E4B1960DCE75D4B196003F2BC
:105AB000CC4301211960D5E7594B196003F54873B0
:105AC00001211960CEE7564B1960CBE7544B1960A2
:105AD00003F2545301211960C4E7514B1960C1E727
:105AE0004F4B1960BEE7494B494A4FF4A3714948EF
:105AF000FFF764F931B94C4B1960002AB5D04B4B14
:105B00001A60B2E7012912D0022917D0032918D050
:105B1000042919D005291ED006291FD0072924D011
:105B2000082929D009292ED13F4B1960E5E73E4BC2
:105B3000196003F55F7303211960DEE73A4B1960C2
:105B4000DBE7394B1960D8E7374B196003F546732B
:105B500001211960D1E7344B1960CEE7324B19604F
:105B600003F2545301211960C7E72F4B196003F565
:105B7000577301211960C0E72B4B196003F2A4632E
:105B800002211960B9E7214B214A40F263112148F3
:105B9000FFF714F961B9264B1021196003F57E73E4
:105BA00001211960002A3FF460AF224B1A605CE7C4
:105BB000012912D0022917D0032918D0042919D09D
:105BC00005291AD006291BD0072935D1184B196091
:105BD00003F27C4300211960E4E7012314490B60C0
:105BE00001F544710B60DDE7114B1960DAE7104BEA
:105BF0001960D7E70E4B1960D4E70D4B1960D1E758
:105C00000B4B1960CEE700BFC8801F40D4920070D4
:105C100024930070D8920070E0801F40D0821F4013
:105C2000E4801F40D4821F40E8801F40D8821F407C
:105C3000EC801F40DC821F40924B934A4FF4BE71B0
:105C40009248FFF7BBF861B9914B1021196003F539
:105C50007E7301211960002A3FF407AF8D4B1A6053
:105C600003E701290ED0022913D0032914D00429F7
:105C700015D0052916D0062917D0072918D1844B2D
:105C80001960E8E7824B196003F5CE6300211960C3
:105C9000E1E77F4B1960DEE77D4B1960DBE77C4B6A
:105CA0001960D8E77A4B1960D5E7794B1960D2E7CC
:105CB000744B754A40F295117448FFF77FF859B953
:105CC000002375490B6001F59B610B60002A3FF4CE
:105CD000CCAE724B1A60C8E601290ED0022913D04F
:105CE000032914D0042915D005291AD006291BD060
:105CF00008291CD1684B1960E8E7012366490B604D
:105D000001F24C510B60E1E7634B1960DEE7624B37
:105D10001960DBE7604B196003F54D7300211960D2
:105D2000D4E75D4B1960D1E75B4B1960CEE7554B6B
:105D3000554A4FF4D7715548FFF740F839B9584BD9
:105D40001960002A3FF491AE564B1A608DE6012986
:105D500014D0022919D003291AD004291FD00529EB
:105D600024D0062925D007292AD008292BD14C4B2D
:105D7000196003F2946301211960E2E7484B19604E
:105D800003F5AB6300211960DBE7454B1960D8E7E9
:105D9000434B196003F5537300211960D1E7404B61
:105DA000196003F54A7300211960CAE73C4B19607A
:105DB000C7E73B4B196003F5567302211960C0E732
:105DC000374B1960BDE72F4B2F4A40F2C9112F48BE
:105DD000FEF7F4FF59B9344B196003F53F73012105
:105DE0001960002A3FF441AE304B1A603DE60129AC
:105DF00012D0022917D0032918D004291ED0052952
:105E00001FD0062920D0072925D0082926D0092906
:105E100027D1254B1960E4E7012323490B6001F5E5
:105E200090610B60DDE7204B1960DAE71E4B132110
:105E3000196003F5747301211960D2E71A4B1960D8
:105E4000CFE7194B1960CCE7174B196003F2DC431D
:105E500002211960C5E7144B1960C2E7124B1960A3
:105E6000BFE7084B084A4FF4F3710848FEF7A6FF56
:105E700011BB0F4B1960002A3FF4F7AD0D4B1A60B0
:105E8000F3E500BFD492007024930070D8920070A4
:105E9000F0801F40E0821F40F4801F40E4821F40DA
:105EA000F8801F40E8821F40FC801F40EC821F40AA
:105EB00000811F40F0821F40012912D0022917D013
:105EC000032918D004291ED0052923D0062924D05F
:105ED000072925D0082926D009292BD1944B1960F0
:105EE000C9E7934B196003F5906300211960C2E77D
:105EF0008F4B1960BFE78E4B1321196003F5747344
:105F000001211960B7E78A4B196003F53F7302213D
:105F10001960B0E7864B1960ADE7854B1960AAE7B9
:105F2000834B1960A7E7824B196003F224630021B9
:105F30001960A0E77F4B804A40F203217F48FEF7BB
:105F40003DFF59B97E4B196003F53C73012119607F
:105F5000002A3FF48AAD7B4B1A6086E5012912D0F6
:105F6000022917D003291CD004291DD005291ED0D1
:105F700006291FD0072924D0082925D009292AD18C
:105F80006F4B1960E4E701236D490B6001F59061E7
:105F90000B60DDE76A4B196003F22C4301211960A5
:105FA000D6E7674B1960D3E7654B1960D0E7644BC0
:105FB0001960CDE7624B196003F59A6301211960FE
:105FC000C6E75F4B1960C3E75D4B196003F5CD630E
:105FD00001211960BCE7574B574A4FF408715748E5
:105FE000FEF7ECFE59B9584B196003F5996301218E
:105FF0001960002A3FF439AD544B1A6035E5012988
:1060000012D0022917D003291CD0042921D0052938
:1060100022D0062923D0072928D0082929D00929E8
:106020002ED1494B1960E4E7012347490B6001F584
:1060300090610B60DDE7444B196003F224430121BA
:106040001960D6E7404B196003F598630021196089
:10605000CFE73D4B1960CCE73B4B1960C9E73A4BA2
:10606000196003F59B6300211960C2E7364B196084
:10607000BFE7354B196003F25C6301211960B8E793
:106080002C4B2D4A40F23D212C48FEF797FE59B982
:106090002F4B196003F56E7301211960002A3FF43C
:1060A000E4AC2C4B1A60E0E4012912D0022913D091
:1060B000032918D0042919D005291ED006291FD07C
:1060C000072924D0082925D009292AD1204B196075
:1060D000E4E71F4B1960E1E71D4B196003F5856389
:1060E00001211960DAE71A4B1960D7E7184B1960DC
:1060F00003F5467300211960D0E7154B1960CDE711
:10610000134B196003F2DC4301211960C6E7104B01
:106110001960C3E70E4B196003F25C63012119603B
:10612000BCE7044B044A40F25A210448FEF746FEFD
:1061300000811F40D492007024930070D8920070A8
:1061400004811F40F4821F4008811F40F8821F40D5
:106150000C811F40FC821F4059B9974B196003F511
:106160006C7301211960002A3FF47FAC934B1A60D5
:106170007BE4012912D0022917D0032918D0042961
:1061800019D005291AD006291BD0072920D00829A3
:1061900021D0092922D1884B1960E4E7864B196088
:1061A00003F5487300211960DDE7834B1960DAE7D6
:1061B000814B1960D7E7804B1960D4E77E4B19609B
:1061C000D1E77D4B196003F2DC4301211960CAE776
:1061D000794B1960C7E7784B1960C4E7784B794A67
:1061E00040F277217848FEF7E9FD59B9774B1960FD
:1061F00003F56A7301211960002A3FF436AC744B31
:106200001A6032E4012912D0022918D003291DD0C6
:1062100004291ED0052923D0062924D0072929D0F6
:1062200008292AD009292BD1684B1960E4E7674B6C
:106230001121196003F5737302211960DCE7634BC8
:10624000196003F5856300211960D5E75F4B19607C
:10625000D2E75E4B196003F5457301211960CBE766
:106260005A4B1960C8E7594B196003F2DC4301210E
:106270001960C1E7554B1960BEE7544B1960BBE785
:106280004F4B504A4FF425714F48FEF797FD61B9C7
:10629000504B196003F5687301211960002A3FF41F
:1062A000E4AB4D4B1A60FFF7E0BB012912D0022985
:1062B00018D003291DD004291ED0052923D0062972
:1062C00024D0072929D008292AD009292BD1414BCC
:1062D0001960E3E73F4B1121196003F57173022147
:1062E0001960DBE73B4B196003F5846300211960FB
:1062F000D4E7384B1960D1E7364B196003F5427388
:1063000001211960CAE7334B1960C7E7314B1960A7
:1063100003F2DC4301211960C0E72E4B1960BDE791
:106320002C4B1960BAE7264B264A40F2B121264889
:10633000FEF744FD41B9294B1960002A3FF495ABA3
:10634000274B1A60FFF791BB012910D0022915D005
:10635000032916D004291BD0052920D0062921D0D5
:10636000072926D009293DD11C4B1960E5E70123F7
:106370001A490B6001F55E710B60DEE7174B19607F
:10638000DBE7032315490B6001F538710B60D4E797
:10639000124B196003F5407300211960CDE70F4BD4
:1063A0001960CAE70D4B196003F599630121196063
:1063B000C3E70A4B1960C0E710811F4000831F40EC
:1063C000D492007024930070D892007014811F4002
:1063D00004831F4018811F4008831F401C811F40F9
:1063E0000C831F409A4B9B4A4FF433719A48FEF737
:1063F000E5FC61B9994B196003F5617301211960DE
:10640000002A3FF432AB964B1A60FFF72EBB0129EE
:1064100010D0022915D003291AD004291FD005292C
:1064200024D0062925D007292AD009292BD18B4B26
:106430001960E5E7012389490B6001F55E710B6086
:10644000DEE7022385490B6001F54B710B60D7E74E
:10645000824B196003F26C4301211960D0E77F4B36
:10646000196003F53E7300211960C9E77B4B196081
:10647000C6E77A4B196003F2BC4301211960BFE7FC
:10648000764B1960BCE7724B724A40F2E7217248C2
:10649000FEF794FC61B9734B196003F56473012135
:1064A0001960002A3FF4E1AA6F4B1A60FFF7DDBACA
:1064B000012912D0022913D0032918D004291DD094
:1064C000052922D0062923D0072928D0082929D038
:1064D00009292AD1634B1960E3E7624B1960E0E7B1
:1064E000604B196003F5886301211960D9E75D4BA2
:1064F000196003F5906301211960D2E7594B1960C7
:1065000003F53C7300211960CBE7564B1960C8E7CF
:10651000544B196003F2E44301211960C1E7514B68
:106520001960BEE74F4B1960BBE7494B494A4FF42E
:1065300041714948FEF742FC61B94C4B196003F5C3
:10654000627301211960002A3FF48FAA484B1A6038
:10655000FFF78BBA012912D0022913D0032918D0D2
:1065600004291DD0052922D0062923D0072924D0AB
:10657000082925D0092926D13C4B1960E3E73B4B7C
:106580001960E0E7394B196003F587630121196051
:10659000D9E7364B196003F58D6301211960D2E705
:1065A000324B196003F53A7300211960CBE72F4B8A
:1065B0001960C8E72D4B1960C5E72C4B1960C2E77D
:1065C0002A4B1960BFE7224B224A40F22131224870
:1065D000FEF7F4FB61B9274B196003F560730121E5
:1065E0001960002A3FF441AA234B1A60FFF73DBA15
:1065F000012912D0022913D0032918D004291DD053
:10660000052922D0062939D007293ED008293FD0B4
:10661000092940D1174B1960E3E7164B1960E0E7F1
:10662000144B196003F5787301211960D9E7114BF8
:10663000196003F58D6301211960D2E70D4B1960D4
:1066400003F5387300211960CBE70A4B1960C8E7DE
:10665000D492007024930070D892007020811F4063
:1066600010831F4024811F4014831F4028811F4036
:1066700018831F402C811F401C831F40944B1960BE
:1066800003F2CC4301211960ABE7914B1960A8E7F5
:106690008F4B1960A5E78F4B8F4A40F23E318F48F0
:1066A000FEF78CFB61B98E4B196003F55E73012117
:1066B0001960002A3FF4D9A98A4B1A60FFF7D5B9AF
:1066C000012912D0022913D0032918D0042919D086
:1066D00005291ED006291FD0072924D0082925D036
:1066E000092926D17E4B1960E3E77D4B1960E0E76D
:1066F0007B4B196003F5797301211960D9E7784B59
:106700001960D6E7764B196003F5367300211960DE
:10671000CFE7734B1960CCE7714B196003F2CC43A0
:1067200001211960C5E76E4B1960C2E76C4B196017
:10673000BFE7684B684A40F25B316848FEF73EFBB2
:1067400061B9694B196003F5657301211960002A6D
:106750003FF48BA9654B1A60FFF787B9012912D066
:10676000022913D0032918D004291DD0052922D0CD
:10677000062923D0072928D0082929D009292AD178
:10678000594B1960E3E7584B1960E0E7564B196025
:1067900003F5797301211960D9E7534B196003F2AE
:1067A000744301211960D2E74F4B196003F534732C
:1067B00000211960CBE74C4B1960C8E74A4B1960C0
:1067C00003F2CC4301211960C1E7474B1960BEE7D2
:1067D000454B1960BBE73F4B3F4A4FF45E713F4862
:1067E000FEF7ECFA41B9424B1960002A3FF43DA98B
:1067F000404B1A60FFF739B9012912D0022913D092
:10680000032914D0042919D005291ED006291FD028
:10681000072924D0082925D0092926D1344B19600D
:10682000E3E7334B1960E0E7314B1960DDE7304BAC
:10683000196003F2744301211960D6E72C4B1960EB
:1068400003F5327300211960CFE7294B1960CCE7BB
:10685000274B196003F2CC4301211960C5E7244B93
:106860001960C2E7224B1960BFE71A4B1A4A40F27F
:1068700095311A48FEF7A2FAA0F140039BB21F2BF4
:1068800001F2C78040381F283FF6EFA8DFE810F07C
:1068900034006C00A800E00024017C01B901F5017E
:1068A00031027102C802040340037803B003E80315
:1068B0004B049804E1042A058C05CC050C064C0613
:1068C0008406D9061A075A079207D20737087C08A8
:1068D0002C811F40D492007024930070D8920070D5
:1068E00030811F4020831F4034811F4024831F407C
:1068F00038811F4028831F4041B9964B1960002AF8
:106900003FF4B3A8944B1A60FFF7AFB801290ED03B
:1069100002290FD0032910D0042915D0052916D03B
:10692000062917D0082918D18A4B1960E7E7894B47
:106930001960E4E7874B1960E1E7864B196003F5BE
:10694000787300211960DAE7824B1960D7E7814B31
:106950001960D4E77F4B1960D1E7804B804A40F241
:10696000B6318048FEF72AFA41B97F4B1960002AF8
:106970003FF47BA87D4B1A60FFF777B8012912D04E
:10698000022913D0032914D0042919D005291AD0BB
:1069900006291BD008291CD1734B196003F5BA6373
:1069A00001211960E3E7704B1960E0E76E4B196055
:1069B000DDE76D4B196003F5797300211960D6E7A7
:1069C000694B1960D3E7684B1960D0E7664B1960D3
:1069D000CDE7624B624A40F2CF316248FEF7EEF9F2
:1069E00041B9634B1960002A3FF43FA8614B1A601C
:1069F000FFF73BB801290ED002290FD0032910D090
:106A0000042915D0052916D0062917D0082918D130
:106A1000574B1960E7E7564B1960E4E7544B196090
:106A2000E1E7534B196003F5797300211960DAE748
:106A30004F4B1960D7E74E4B1960D4E74C4B1960A8
:106A4000D1E7464B464A4FF47A714648FEF7B6F90D
:106A500041B9494B1960002A3FF407A8474B1A6017
:106A6000FFF703B8012912D0022917D003291CD03F
:106A7000042921D0052922D0062923D0082924D190
:106A80003D4B196003F2DC5301211960E3E7012358
:106A900039490B6001F224410B60DCE7364B196089
:106AA00003F5417303211960D5E7334B196003F5F2
:106AB000767300211960CEE72F4B1960CBE72E4B80
:106AC0001960C8E72C4B1960C5E7244B244A40F2F3
:106AD00001412448FEF772F941B9294B1960002A97
:106AE0003EF4C3AF274B1A60FEF7BFBF01290ED09B
:106AF000022913D0032919D004291AD005291BD043
:106B000006291CD008291DD11D4B1960E7E7012378
:106B10001B490B6001F224410B60E0E7184B122186
:106B2000196003F5627301211960D8E7144B1960ED
:106B3000D5E7134B1960D2E7114B1960CFE7104B23
:106B40001960CCE7054B064A40F21A410548FEF7AA
:106B500035F900BF3C811F402C831F40D492007048
:106B600024930070D892007040811F4030831F40F2
:106B700044811F4034831F4048811F4038831F4099
:106B80004C811F403C831F4041B9984B1960002A3B
:106B90003EF46BAF964B1A60FEF767BF01290ED02B
:106BA000022913D0032919D004291AD005291BD092
:106BB00006291CD008291DD18C4B1960E7E7012359
:106BC0008A490B6001F224410B60E0E7874B1221F8
:106BD000196003F5627301211960D8E7834B1960CE
:106BE000D5E7824B1960D2E7804B1960CFE77F4B26
:106BF0001960CCE77F4B804A40F233417F48FEF773
:106C0000DDF841B97E4B1960002A3EF42EAF7D4B72
:106C10001A60FEF72ABF01290ED0022913D00329DA
:106C200018D0042919D005291AD006291BD0082903
:106C30001CD1734B1960E7E7714B196003F585634D
:106C400002211960E0E76E4B196003F549730121D9
:106C50001960D9E76A4B1960D6E7694B1960D3E729
:106C6000674B1960D0E7664B1960CDE7614B624A0C
:106C700040F24C416148FEF7A1F841B9624B1960FE
:106C8000002A3EF4F2AE614B1A60FEF7EEBE012917
:106C90000ED0022913D0032918D0042919D00529B0
:106CA0001AD006291BD008291CD1574B1960E7E7D9
:106CB000554B196003F5856302211960E0E7524BDB
:106CC000196003F54C7301211960D9E74E4B196027
:106CD000D6E74D4B1960D3E74B4B1960D0E74A4BD1
:106CE0001960CDE7434B444A40F265414348FEF703
:106CF00065F841B9464B1960002A3EF4B6AE454BE3
:106D00001A60FEF7B2BE01290ED0022913D0032962
:106D100018D004291DD005291ED006291FD0082906
:106D200020D13B4B1960E7E7394B196003F58563C8
:106D300002211960E0E7364B196003F54873012121
:106D40001960D9E7324B196003F578730221196095
:106D5000D2E72F4B1960CFE72D4B1960CCE72C4BB6
:106D60001960C9E7234B244A40F27E412348FEF7CD
:106D700025F841B9284B1960002A3EF476AE274B1E
:106D80001A60FEF772BE01290ED002290FD0032926
:106D900014D0042919D005291AD006291BD0082996
:106DA0001CD11D4B1960E7E71B4B1960E4E71A4B38
:106DB000196003F54B7301211960DDE7164B19606B
:106DC00003F5767302211960D6E7134B1960D3E7F8
:106DD000114B1960D0E7104B1960CDE7054B064AFF
:106DE00040F297410548FDF7E9FF00BF50811F4081
:106DF00040831F40D492007024930070D89200709A
:106E000054811F4044831F4058811F4048831F40C6
:106E10005C811F404C831F4060811F4050831F4096
:106E200041B9944B1960002A3EF41FAE924B1A6090
:106E3000FEF71BBE01290ED002290FD0032914D062
:106E4000042919D005291AD006291BD008291CD1DC
:106E5000884B1960E7E7874B1960E4E7854B1960B9
:106E600003F5477301211960DDE7824B196003F2D6
:106E7000344301211960D6E77E4B1960D3E77D4B7F
:106E80001960D0E77B4B1960CDE77C4B7C4A4FF40F
:106E900096617C48FDF792FF41B97B4B1960002A4F
:106EA0003EF4E3AD794B1A60FEF7DFBD01290ED049
:106EB00002290FD0032914D0042919D005291AD08A
:106EC00006291BD008291CD16F4B1960E7E76E4BD0
:106ED0001960E4E76C4B196003F54A7301211960EE
:106EE000DDE7694B196003F2344301211960D6E7ED
:106EF000654B1960D3E7644B1960D0E7624B1960AA
:106F0000CDE75E4B5E4A40F2C9415E48FDF756FF51
:106F100041B95F4B1960002A3EF4A7AD5D4B1A6082
:106F2000FEF7A3BD01290ED002290FD0032910D0EE
:106F3000042915D0052916D0062917D0082918D1FB
:106F4000534B1960E7E7524B1960E4E7504B196067
:106F5000E1E74F4B196003F2344301211960DAE78E
:106F60004B4B1960D7E74A4B1960D4E7484B19607F
:106F7000D1E7424B424A40F2E2414248FDF71EFF50
:106F800041B9454B1960002A3EF46FAD434B1A607E
:106F9000FEF76BBD01290ED002290FD0032910D0B6
:106FA000042915D0052916D0062917D0082918D18B
:106FB000394B1960E7E7384B1960E4E7364B196045
:106FC000E1E7354B196003F21C4302211960DAE74F
:106FD000314B1960D7E7304B1960D4E72E4B19605D
:106FE000D1E7264B264A40F2FB412648FDF7E6FE54
:106FF00041B92B4B1960002A3EF437AD294B1A607A
:10700000FEF733BD01290ED002290FD0032910D07D
:10701000042915D0052916D0062917D0082918D11A
:107020001F4B1960E7E71E4B1960E4E71C4B196022
:10703000E1E71B4B196003F5866302211960DAE76B
:10704000174B1960D7E7164B1960D4E7144B19603A
:10705000D1E70A4B0A4A40F214510A48FDF7AEFE46
:1070600031BB114B1960002A3EF4FFAC0F4B1A6084
:10707000FEF7FBBC64811F4054831F40D492007014
:1070800024930070D892007068811F4058831F407D
:107090006C811F405C831F4070811F4060831F40D4
:1070A00074811F4064831F4078811F4068831F40A4
:1070B000012914D0022915D0032916D004291BD088
:1070C00005291CD006291DD008291ED0092923D145
:1070D000984B196003F2945302211960C3E7954B52
:1070E0001960C0E7934B1960BDE7924B196003F537
:1070F000836302211960B6E78E4B1960B3E78D4BAD
:107100001960B0E78B4B1960ADE78A4B196003F546
:10711000B66302211960A6E7874B884A40F22F51D7
:107120008748FDF74BFE41B9864B1960002A3EF4B3
:107130009CAC854B1A60FEF798BC012910D002293F
:1071400015D003291AD004291FD0052920D00629DB
:1071500021D0082926D009292BD17A4B1960E5E7DF
:10716000012378490B6001F599610B60DEE702238A
:1071700074490B6001F572710B60D7E7714B1960B0
:1071800003F5836302211960D0E76E4B1960CDE7E8
:107190006C4B1960CAE76B4B196003F53673042119
:1071A0001960C3E7674B196003F2A4530221196009
:1071B000BCE7614B614A40F24A516148FDF7FEFD70
:1071C00041B9624B1960002A3EF44FAC604B1A6023
:1071D000FEF74BBC012910D0022915D003291AD083
:1071E00004291BD005291CD006291DD0082922D02E
:1071F000092927D1554B1960E5E7012353490B6055
:1072000001F599610B60DEE7022350490B6001F53F
:1072100070710B60D7E74D4B1960D4E74B4B196089
:10722000D1E74A4B1960CEE7484B196003F5397333
:1072300004211960C7E7454B196003F294530221FA
:107240001960C0E73C4B3D4A40F265513C48FDF7B0
:10725000B5FD41B93F4B1960002A3EF406AC3E4BE8
:107260001A60FEF702BC012910D0022915D00329AB
:1072700016D004291BD005291CD006291DD00829A9
:1072800022D0092927D1334B1960E5E70123314981
:107290000B6001F599610B60DEE72E4B1960DBE7AF
:1072A0002C4B196003F2244302211960D4E7294BC7
:1072B0001960D1E7274B1960CEE7264B196003F51B
:1072C0003C7304211960C7E7224B196003F2945301
:1072D00002211960C0E7184B184A4FF4B0611848F2
:1072E000FDF76CFD41B91D4B1960002A3EF4BDABA2
:1072F0001B4B1A60FEF7B9BB012910D0022915D02B
:1073000003292FD0042934D0052935D0062936D0B9
:1073100008293BD0092940D1104B1960E5E70F4BF4
:10732000196003F2A44303211960DEE70B4B1960D7
:10733000DBE700BF78811F40D49200702493007077
:10734000D89200707C811F406C831F4080811F4059
:1073500070831F4084811F4074831F4088811F40B9
:1073600078831F40914B196003F224430221196076
:10737000BBE78E4B1960B8E78C4B1960B5E78B4BB8
:10738000196003F53F7303211960AEE7874B19605D
:1073900003F2945302211960A7E7854B854A40F216
:1073A0009B518548FDF70AFD41B9844B1960002ABD
:1073B0003EF45BAB824B1A60FEF757BB01290ED03F
:1073C000022913D0032914D0042919D005291AD071
:1073D00008291BD0092920D1784B1960E7E7012340
:1073E00076490B6001F564710B60E0E7734B19603F
:1073F000DDE7724B196003F52A7301211960D6E7A6
:107400006E4B1960D3E76D4B1960D0E76B4B196079
:1074100003F2D45301211960C9E7654B654A40F274
:10742000B4516548FDF7CAFC41B9664B1960002AA2
:107430003EF41BAB644B1A60FEF717BB01290ED05C
:10744000022913D0032914D0042919D005291AD0F0
:1074500008291BD0092920D15A4B1960E7E70123DD
:1074600058490B6001F565710B60E0E7554B1960F9
:10747000DDE7544B196003F52A7301211960D6E743
