:0200000470008A
:10000000464346420004015600000000010303007D
:1000100000000000000000000000000000000000E0
:1000200000000000000000000000000000000000D0
:1000300000000000000000000000000000000000C0
:1000400000000000000408000000000000000000A4
:100050000000400000000000000000000000000060
:100060000000000000000000000000000000000090
:100070000000000000000000000000000000000080
:10008000EB04180A063204260000000000000000FD
:100090000000000000000000000000000000000060
:1000A0000000000000000000000000000000000050
:1000B0000000000000000000000000000000000040
:1000C0000000000000000000000000000000000030
:1000D0000000000000000000000000000000000020
:1000E0000000000000000000000000000000000010
:1000F0000000000000000000000000000000000000
:1001000000000000000000000000000000000000EF
:1001100000000000000000000000000000000000DF
:1001200000000000000000000000000000000000CF
:1001300000000000000000000000000000000000BF
:1001400000000000000000000000000000000000AF
:10015000000000000000000000000000000000009F
:10016000000000000000000000000000000000008F
:10017000000000000000000000000000000000007F
:10018000000000000000000000000000000000006F
:10019000000000000000000000000000000000005F
:1001A000000000000000000000000000000000004F
:1001B000000000000000000000000000000000003F
:1001C000000100000010000000000000000000001E
:1001D000000001000000000000000000000000001E
:1001E000000000000000000000000000000000000F
:1001F00000000000000000000000000000000000FF
:10100000D10020410020007000000000301000706E
:1010100020100070001000700000000000000000B0
:10102000000000700000400000000000FFFFFFFF14
:10103000D2043041CC03AC04400FC068FFFFFFFF77
:10104000400FC06CFFFFFFFF400FC070FFFFFFFFAE
:10105000400FC074FFFFFFFF400FC078FFFFFFFF8E
:10106000400FC07CFFFFFFFF400FC080FFFFFFFF6E
:10107000400D803000002001400D8100001D000067
:10108000400FC01400010D40401F801400000000FC
:10109000401F801800000000401F801C000000005E
:1010A000401F802000000000401F8024000000003E
:1010B000401F802800000000401F802C000000001E
:1010C000401F803000000000401F803400000000FE
:1010D000401F803800000000401F803C00000000DE
:1010E000401F804000000000401F804400000000BE
:1010F000401F804800000000401F804C000000009E
:10110000401F805000000000401F8054000000007D
:10111000401F805800000000401F805C000000005D
:10112000401F806000000000401F8064000000003D
:10113000401F806800000000401F806C000000001D
:10114000401F807000000000401F807400000000FD
:10115000401F807800000000401F807C00000000DD
:10116000401F808000000000401F808400000000BD
:10117000401F808800000000401F808C000000009D
:10118000401F809000000000401F8094000000007D
:10119000401F809800000000401F809C000000005D
:1011A000401F80A000000000401F80A4000000003D
:1011B000401F80A800000000401F80AC000000001D
:1011C000401F80B000000010401F80B400000000ED
:1011D000401F80B800000000401F8204000110F989
:1011E000401F8208000110F9401F820C000110F915
:1011F000401F8210000110F9401F8214000110F9F5
:10120000401F8218000110F9401F821C000110F9D4
:10121000401F8220000110F9401F8224000110F9B4
:10122000401F8228000110F9401F822C000110F994
:10123000401F8230000110F9401F8234000110F974
:10124000401F8238000110F9401F823C000110F954
:10125000401F8240000110F9401F8244000110F934
:10126000401F8248000110F9401F824C000110F914
:10127000401F8250000110F9401F8254000110F9F4
:10128000401F8258000110F9401F825C000110F9D4
:10129000401F8260000110F9401F8264000110F9B4
:1012A000401F8268000110F9401F826C000110F994
:1012B000401F8270000110F9401F8274000110F974
:1012C000401F8278000110F9401F827C000110F954
:1012D000401F8280000110F9401F8284000110F934
:1012E000401F8288000110F9401F828C000110F914
:1012F000401F8290000110F9401F8294000110F9F4
:10130000401F8298000110F9401F829C000110F9D3
:10131000401F82A0000110F9401F82A4000110F9B3
:10132000401F82A8000110F9402F000010000004A7
:10133000402F000800030524402F000C060305245D
:10134000402F00108000001B402F00148200001B63
:10135000402F00188400001B402F001C8600001B3B
:10136000402F002090000021402F0024A0000019F1
:10137000402F0028A8000017402F002CA900001BB8
:10138000402F003000000021402F0004000079A809
:10139000402F004000000F31402F004400652922FB
:1013A000402F004800010920402F004C50210A081E
:1013B000402F008000000021402F00840088888892
:1013C000402F009400000002402F00980000000011
:1013D000402F009080000000402F009CA55A000F75
:1013E000CF000C1C402F003C00000001CC00140476
:1013F000402F009080000000402F009CA55A000C58
:10140000CF000C1C402F003C00000001CC00140455
:10141000402F009080000000402F009CA55A000C37
:10142000CF000C1C402F003C00000001CC001C042D
:10143000402F00A000000033402F009080000000EB
:10144000402F009CA55A000ACF000C1C402F003CE6
:1014500000000001CC000C04402F004C50210A0970
:1020000000000220BD240070E5570070E757007003
:10201000E9570070EB570070ED57007000000000AA
:10202000000000000000000000000000EF570070FA
:10203000F157007000000000F3570070D5480070A1
:102040001D250070212500702525007029250070B0
:102050002D25007031250070352500703925007060
:102060003D25007041250070452500704925007010
:102070004D250070512500705525007059250070C0
:102080005D25007005250070052500700525007090
:102090006125007065250070692500706D25007050
:1020A0007125007075250070792500707D25007000
:1020B0008125007085250070892500708D250070B0
:1020C0009125007095250070992500709D25007060
:1020D000A1250070A525007005250070052500705C
:1020E000052500700525007005250070E9290070A0
:1020F0000525007005250070052500700525007078
:102100000525007005250070052500700525007067
:102110000525007005250070052500700525007057
:10212000A9250070AD250070B1250070B52500709F
:10213000B925007005250070052500700525007083
:102140000525007005250070052500700525007027
:102150000525007005250070052500700525007017
:102160000525007005250070052500700525007007
:1021700005250070052500700525007005250070F7
:1021800005250070052500700525007005250070E7
:102190002D4900700525007005250070052500708B
:1021A0000525007005250070BD250070C125007053
:1021B00005250070052500700525007005250070B7
:1021C00005250070052500700525007005250070A7
:1021D0000525007005250070052500700525007097
:1021E000052500700525007005250070C5250070C7
:1021F000C925007005250070CD250070D12500701F
:10220000458B0070358B0070D52500702D3800701F
:102210000525007005250070052500700525007056
:102220000525007005250070F52900700525007052
:102230000525007005250070052500700525007036
:102240000525007005250070052500700525007026
:102250000525007005250070052500700525007016
:102260000525007005250070052500700525007006
:1022700005250070052500700525007005250070F6
:1022800005250070052500700525007005250070E6
:1022900005250070052500700525007005250070D6
:1022A000DD250070E1250070E52500700525007032
:1022B000E9250070052500700525007005250070D2
:1022C00005250070052500700525007005250070A6
:1022D0000525007005250070052500700525007096
:1022E0000525007005250070052500700525007086
:1022F0000525007005250070052500700525007076
:102300000525007005250070052500700525007065
:102310000525007005250070052500700525007055
:102320000525007005250070052500700525007045
:102330000525007005250070052500700525007035
:102340000525007005250070052500700525007025
:102350000525007005250070052500700525007015
:102360000525007005250070052500700525007005
:1023700005250070052500700525007005250070F5
:1023800005250070052500700525007005250070E5
:1023900005250070052500700525007005250070D5
:1023A00005250070052500700525007005250070C5
:1023B00005250070052500700525007005250070B5
:1023C00005250070052500700525007005250070A5
:1023D0000525007005250070052500700525007095
:1023E0000525007005250070052500700525007085
:1023F000052500700525007005250070FFFFFFFF13
:1024000010B5054C237833B9044B13B10448AFF32E
:1024100000800123237010BD5C0400200000000038
:102420001898007008B5034B1BB103490348AFF37C
:10243000008008BD000000006004002018980070B3
:10244000A3F5803A704700BF174B002B08BF134B12
:102450009D46FFF7F5FF00218B460F461348144AAF
:10246000121A06F0ABFB0E4B002B00D098470D4B19
:10247000002B00D098470020002104000D000D48DB
:10248000002802D00C4806F059FC06F073FB20002F
:10249000290000F0DDFA06F05DFB00BF0000080037
:1024A0000000000000000000000002205C0400208A
:1024B000700600203D8D0070498D007072B60A488C
:1024C0000A4901600A6882F3088809488047094977
:1024D000094A0A4B9A42BEBF51F8040B42F8040B5A
:1024E000F8E762B60648804708ED00E0002000707B
:1024F000D52A007044980070000000205C04002081
:1025000049240070FFF7FEBF3848004738480047AD
:10251000384800473848004738480047384800479F
:10252000384800473848004738480047384800478F
:10253000384800473848004738480047384800477F
:10254000384800473848004738480047384800476F
:10255000384800473848004738480047384800475F
:10256000384800473848004738480047384800474F
:10257000384800473848004738480047384800473F
:10258000384800473848004738480047384800472F
:10259000384800473848004738480047384800471F
:1025A000384800473848004738480047384800470F
:1025B00038480047384800473848004738480047FF
:1025C00038480047384800473848004738480047EF
:1025D00038480047384800473848004738480047DF
:1025E000384800473848004738480047E5570070EA
:1025F000E7570070EF570070F3570070D548007030
:10260000C1330070FD3300703934007075340070D0
:10261000B1340070ED3400702935007065350070FC
:10262000A1350070DD350070193600705536007028
:1026300091360070CD360070093700704537007054
:1026400005250070653E0070813E00709D3E007063
:10265000B93E0070D53E0070F13E00700D3F007035
:10266000293F0070313D0070413D0070513D0070C8
:10267000613D0070953D0070C93D0070FD3D0070EA
:10268000313E0070653800709D380070CD46007096
:102690005547007015480070DD4700704D480070C8
:1026A000453900704D390070052500700525007012
:1026B000814800709D480070453800700525007005
:1026C0005538007005250070D538007055390070F8
:1026D00053B94AB9002908BF00281CBF4FF0FF3189
:1026E0004FF0FF3000F06EB9ADF1080C6DE904CE8B
:1026F00000F006F8DDF804E0DDE9022304B07047DD
:102700002DE9F047089D04468C46002B40F083805D
:102710008A42174647D9B2FA82F242B1C2F120008A
:1027200024FA00F09140974040EA010C94404FEAAF
:102730001748230CBCFBF8F61FFA87FE08FB16C1EE
:1027400043EA014306FB0EF1994209D9FB1806F151
:10275000FF3080F01981994240F21681023E3B44DD
:102760005B1AA4B2B3FBF8F008FB103344EA03444D
:1027700000FB0EFEA64509D93C1900F1FF3380F09D
:102780000581A64540F2028102383C4440EA0640F9
:10279000A4EB0E0400261DB1D4400023C5E900437C
:1027A0003146BDE8F08702B9FFDEB2FA82F2002AB4
:1027B00050D1CB1B4FEA174E1FFA87F80126B3FB07
:1027C000FEFC210C0EFB1C3341EA034108FB0CF319
:1027D0008B4207D979180CF1FF3002D28B4200F2FC
:1027E000E9808446C91AA3B2B1FBFEF00EFB1011BA
:1027F00043EA014408FB00F8A04507D93C1900F161
:10280000FF3302D2A04500F2D9801846A4EB080499
:1028100040EA0C40BFE78B4209D9002D00F0B1809F
:102820000026C5E9000130463146BDE8F087B3FA1D
:1028300083F6002E4AD18B4202D3824200F2B88046
:10284000841A61EB030101208C46002DA8D0C5E954
:10285000004CA5E7C2F1200320FA03F6974001FAE5
:1028600002F04FEA174ED9403043030CB1FBFEF69D
:102870001FFA87F80EFB161143EA014306FB08F125
:10288000994204FA02F409D9FB1806F1FF3C80F0E2
:102890008D80994240F28A80023E3B445B1A81B2AD
:1028A000B3FBFEF00EFB103341EA034100FB08F3DB
:1028B0008B4207D9791800F1FF3C73D28B4271D952
:1028C00002383944CB1A40EA064678E7C6F1200CB4
:1028D00003FA06F422FA0CF31C4320FA0CF701FA6F
:1028E00006F34FEA144E21FA0CF11F433B0CB1FBE7
:1028F000FEF91FFA84F80EFB191143EA014109FBA6
:1029000008FA8A4502FA06F200FA06F308D96118B5
:1029100009F1FF3048D28A4546D9A9F1020921447C
:10292000A1EB0A01BFB2B1FBFEF00EFB101147EAAA
:10293000014700FB08F8B84507D9E71900F1FF3156
:102940002ED2B8452CD90238274440EA0940A7EBDB
:102950000807A0FB02894F45C64649461AD317D03F
:102960005DB1B3EB0E0267EB010707FA0CFCF24016
:102970004CEA0202F740C5E9002700263146BDE8CF
:10298000F0872E4628460BE70646E9E61846FDE6A0
:102990004345E5D2B8EB020E69EB04010138DFE7ED
:1029A0000846D2E760468DE78146B9E7664675E797
:1029B00030464AE7ACF1020C394413E702383C4494
:1029C00024E700BF704700BF08B50121292002F0AD
:1029D0003DFF642006F09CF80021292002F036FF1C
:1029E000642006F095F808BD08B500F04DFCBFF373
:1029F0004F8F08BD154BD3F80C3113F0010F03D0E6
:102A0000124B0122C3F80C21104BD3F81C3113F0E8
:102A1000010F03D00D4B0122C3F81C210B4BD3F83F
:102A20002C3113F0010F03D0084B0122C3F82C21E5
:102A3000064BD3F83C3113F0010F03D0034B0122B6
:102A4000C3F83C21BFF34F8F704700BF00400840E0
:102A500008B5EFF3108372B602F09AFB642006F01B
:102A600057F847F2480301221146292002F0C2FE1E
:102A700040F6F2523221B92005F0F8FEFFF7A4FF2C
:102A80004FF47A7006F044F840F67B41B92005F027
:102A9000C3FF4FF47A7006F03BF840F6F251B920CC
:102AA00005F0BAFF4FF47A7006F032F840F669711B
:102AB000B92005F0B1FF4FF47A7006F029F840F61E
:102AC000F251B92005F0A8FF4FF47A7006F020F813
:102AD000D4E7704710B5454AD2F8883043F4700304
:102AE000C2F88830424A13899BB223F001039BB29B
:102AF000138140490B899BB223F001039BB20B81E8
:102B0000138813F0040F05D013889BB223F004033D
:102B10009BB21380374B1B8813F0040F06D0354A45
:102B200013889BB223F004039BB21380324A334BC9
:102B300053604FF6FF739360136823F0A00343F0D4
:102B4000200313602E4B1B6813F0010F04D02C4A96
:102B5000136823F001031360244B5B6913F4003FF7
:102B600013D1BFF34F8FBFF36F8F204B0022C3F8F9
:102B70005022BFF34F8FBFF36F8F5A6942F4003278
:102B80005A61BFF34F8FBFF36F8F184B5B6913F41C
:102B9000803F02D0FFF79DFF10BD144B0022C3F809
:102BA0008420BFF34F8FD3F88040C4F34E3100E050
:102BB0001946C4F3C90243F6E07303EA411343EA3A
:102BC00082730A48C0F860321346013A002BF2D1F2
:102BD0004B1E0029ECD1BFF34F8F436943F4803380
:102BE0004361BFF34F8FBFF36F8FD3E700ED00E07A
:102BF00000800B4000000D4000C00B4020C528D9CC
:102C000010E000E008B5D8B9104B4FF08042C3F88F
:102C100058210E4BD3F8703213F4803FF9D00B4B90
:102C20004FF48032C3F85421084BD3F8503113F4D9
:102C3000004FF9D0054B4FF48032C3F8582108BD3E
:102C4000034B044A9A21044802F084F900800D40A5
:102C5000188E0070748E0070288E007020B9054B9D
:102C60001022C3F874227047024B1022C3F8782256
:102C7000704700BF00800D40034AD2F8703243F025
:102C80000103C2F87032704700800D400F490B6895
:102C900023F4E0330279920392B2134343F4803376
:102CA0000B600A680A4B1340026802F07F0213436C
:102CB00043F400530B60054B1B68002BFBDA034AFF
:102CC000136823F480331360704700BF00800D4009
:102CD00080CFFFFF014B00221A62704700800D4039
:102CE000024B4FF480521A67704700BF00800D40BE
:102CF000024B4FF48052C3F8A020704700800D4073
:102D0000024B4FF48052C3F8E020704700800D4022
:102D100070B584B004467A4B0FCB04AD05E90F00C3
:102D2000C4F30B41774A8D5804F01F000123834000
:102D30001D401ED08B5813F4404F07D1D2F870328B
:102D400013F0100F18D1704B1D6800E000258B5850
:102D500013F480330DD16D4A94425ED00ED96C4A83
:102D6000944200F0B58036D96A4A944240F0C5805A
:102D7000694D284604B070BD684DE8E7A2F5A00291
:102D8000944200F0AF8013D9654A944221D15D4C42
:102D9000206D226E0023A5FB0001FFF799FC236B39
:102DA00013F0010F33D0162303FB05F50544E0E7CC
:102DB0000D2C24D0A2F58012944208D1514B1B69EE
:102DC00013F0020F27D0162303FB05F5D1E71D46AC
:102DD000CFE71D46CDE7534A94424DD002F580021D
:102DE00094420AD1474BD3F8E03003F0030304AA1E
:102DF00002EB830353F8105CBBE71D46B9E7414B78
:102E00001B6803F07F0305FB03F56D08B1E705EBD5
:102E10008505AD00CAE71423D6E73A4C266F06F0C5
:102E20007F06D4F88000D4F890200023A5FB000191
:102E3000FFF74EFC05FB0605236F13F4C01315D0F6
:102E4000B3F5002F14D02F4BD3F8703123F07F430C
:102E500023F4FE0323F4FF4323F07F03B3F5004F75
:102E600008D0314A934284D1AD0882E7AD08EAE741
:102E70006D08E8E76D087CE7224CD4F8A06006F006
:102E80007F06D4F8B000D4F8C0200023A5FB0001D1
:102E9000FFF71EFC05FB0605D4F8A03013F4C013A1
:102EA00010D0B3F5002F0FD0164BD3F8703103F0CC
:102EB0004043B3F1804F09D0B3F1404F7FF459AF95
:102EC000AD0856E7AD08EFE76D08EDE76D0850E790
:102ED0000C4BD3F8E03003F00C0304AA134453F86E
:102EE000105C46E7074B1B6A13F0020F03D0162352
:102EF00003FB05F53DE71423FAE71D4639E700BF5C
:102F0000088E007000800D407C0400200D007000D1
:102F10001400E0001500E00040787D0100366E01ED
:102F20000D0030000D00A0000080800010B50446A8
:102F30001648FFF7EDFE032C26D8DFE804F0020D5B
:102F4000151D134BD3F8003103F03F03B0FBF3F032
:102F500000EBC000400010BD0D4BD3F80031C3F3AF
:102F60000523B0FBF3F0F3E7094BD3F80031C3F3CB
:102F70000543B0FBF3F0EBE7054BD3F80031C3F3A7
:102F80000563B0FBF3F0E3E70020E1E70D0030005C
:102F900000800D4008B5284B586910F0007025D00E
:102FA0009B6903F44053B3F5805F10D0B3F5005F25
:102FB00016D043B10020204B5B69C3F3C2630133D9
:102FC000B0FBF3F008BD1D48FFF7A2FEF3E71C4B72
:102FD000D3F8703213F0100F06D11A4B1868EAE7D5
:102FE0001948FFF795FEE6E71848E4E7124B9B699E
:102FF00003F44023B3F5002F1AD007D8A3B1B3F5DB
:10300000802FDFD10220FFF791FFDBE7B3F5402FE0
:10301000D8D10D20FFF77CFE074B1B6903F0070397
:103020000133B0FBF3F0CDE70748FFF771FEC9E7C6
:103030000020FFF77BFFC5E700C00F400D00100028
:1030400000800D407C0400200D00300000366E0131
:1030500008B5FFF79FFF044B5B69C3F3822301337D
:10306000B0FBF3F008BD00BF00C00F4008B5FFF78C
:10307000EFFF044B5B69C3F301230133B0FBF3F0B3
:1030800008BD00BF00C00F4010B504461648FFF74A
:103090003FFE032C26D8DFE804F0020D151D134B6C
:1030A000D3F8F03003F03F03B0FBF3F000EBC000C7
:1030B000400010BD0D4BD3F8F030C3F30523B0FB37
:1030C000F3F0F3E7094BD3F8F030C3F30543B0FB5B
:1030D000F3F0EBE7054BD3F8F030C3F30563B0FB37
:1030E000F3F0E3E70020E1E70D00100000800D4061
:1030F00008B50E4B5B6913F0400F13D00B4B5B69A7
:1031000013F0800F0AD00120FFF7BEFF074B5B6969
:10311000C3F302430133B0FBF3F008BD0220FFF715
:1031200005FFF3E7FFF736FFF0E700BF00C00F40F1
:1031300008B5172869D8DFE800F00F0F1215181B23
:103140000C24282C3034383C4044484C5054585CB3
:1031500060644FF4004001E0FFF77AFF08BDFFF71D
:10316000C7FFFBE7FFF782FFF8E700F069F8F5E734
:10317000284BD3F8703213F0100F48D1264B186843
:10318000ECE70D20FFF7C4FDE8E72448FFF7C0FD9A
:10319000E4E70020FFF778FFE0E70120FFF774FF86
:1031A000DCE70220FFF770FFD8E70320FFF76CFF92
:1031B000D4E71B48FFF7ACFDD0E71A48FFF7A8FD9E
:1031C000CCE70020FFF7B2FEC8E70120FFF7AEFE14
:1031D000C4E70220FFF7AAFEC0E70320FFF7A6FE20
:1031E000BCE71148FFF794FDB8E71048FFF790FDE2
:1031F000B4E70F48FFF78CFDB0E70E48FFF788FDF6
:10320000ACE70D48FFF784FDA8E70020A6E70B48D0
:10321000A4E700BF00800D407C0400200D001000DA
:103220000D0020000D0030000D00E0001400E00053
:103230001500E0000D0070000D00A00000366E01CA
:1032400008B50D4BDB6913F0400F0FD00B4BD3F8D3
:10325000703213F0100F0DD1094B1868064BDB6963
:1032600003F03F030133B0FBF3F008BD0320FFF789
:103270005FFFF3E70348F1E700C00F4000800D4017
:103280007C04002000366E0108B5034B1B68034A1E
:1032900011680348984708BD84040020800400207A
:1032A00000C02B4008B51F2914D800EB411241F291
:1032B0001C03D25AC2F3C013C26ACA40520002F0C1
:1032C00002021A43436ACB409B0003F0040342EA24
:1032D000030008BD034B044A40F2AD21034801F04E
:1032E00039FE00BFFC8E0070648F0070B08E0070DD
:1032F00070B5002834D004468368027CDA77C06851
:10330000002834D0A36803EB421341F21802995805
:1033100041F21C029D5A05F08005002D14BF0122C8
:103320000022A1EB00034FEA531129D0C9B2637CFC
:103330005BB299422ED0637C5BB2CB1A35D449B2D2
:103340006174E17C49B2C91A49B2E174266816B1C8
:1033500061682046B04715B1A368227C1A7770BD1A
:10336000144B154A40F2BE41144801F0F3FD2568A4
:10337000002DC7D00023012261682046A847EEE750
:103380001F2B03D9C9B20139C9B2D0E7217D013958
:10339000C9B2CCE7E07C40B2237D5BB2984201D059
:1033A0000023CCE7E37C5BB2C9E7207D43FA80F3DE
:1033B000C5E700BF548F0070808F0070B08E007022
:1033C00008B500210B48FFF76DFF10F0040F07D17F
:1033D00010210848FFF766FF10F0040F05D108BD63
:1033E000054B1868FFF784FFF2E7034B186CFFF7F3
:1033F0007FFFF4E700800E408804002008B501211B
:103400000B48FFF74FFF10F0040F07D111210848B8
:10341000FFF748FF10F0040F05D108BD054B5868B1
:10342000FFF766FFF2E7034B586CFFF761FFF4E725
:1034300000800E408804002008B502210B48FFF7E9
:1034400031FF10F0040F07D112210848FFF72AFFBF
:1034500010F0040F05D108BD054B9868FFF748FF31
:10346000F2E7034B986CFFF743FFF4E700800E4050
:103470008804002008B503210B48FFF713FF10F064
:10348000040F07D113210848FFF70CFF10F0040FB9
:1034900005D108BD054BD868FFF72AFFF2E7034BBB
:1034A000D86CFFF725FFF4E700800E408804002069
:1034B00008B504210B48FFF7F5FE10F0040F07D103
:1034C00014210848FFF7EEFE10F0040F05D108BDE7
:1034D000054B1869FFF70CFFF2E7034B186DFFF778
:1034E00007FFF4E700800E408804002008B505219E
:1034F0000B48FFF7D7FE10F0040F07D1152108483D
:10350000FFF7D0FE10F0040F05D108BD054B586938
:10351000FFF7EEFEF2E7034B586DFFF7E9FEF4E725
:1035200000800E408804002008B506210B48FFF7F4
:10353000B9FE10F0040F07D116210848FFF7B2FEBC
:1035400010F0040F05D108BD054B9869FFF7D0FEB8
:10355000F2E7034B986DFFF7CBFEF4E700800E40D7
:103560008804002008B507210B48FFF79BFE10F0E8
:10357000040F07D117210848FFF794FE10F0040F3D
:1035800005D108BD054BD869FFF7B2FEF2E7034B42
:10359000D86DFFF7ADFEF4E700800E4088040020F0
:1035A00008B508210B48FFF77DFE10F0040F07D186
:1035B00018210848FFF776FE10F0040F05D108BD6A
:1035C000054B186AFFF794FEF2E7034B186EFFF7FE
:1035D0008FFEF4E700800E408804002008B5092122
:1035E0000B48FFF75FFE10F0040F07D119210848C0
:1035F000FFF758FE10F0040F05D108BD054B586ABF
:10360000FFF776FEF2E7034B586EFFF771FEF4E723
:1036100000800E408804002008B50A210B48FFF7FF
:1036200041FE10F0040F07D11A210848FFF73AFEB7
:1036300010F0040F05D108BD054B986AFFF758FE3E
:10364000F2E7034B986EFFF753FEF4E700800E405D
:103650008804002008B50B210B48FFF723FE10F06B
:10366000040F07D11B210848FFF71CFE10F0040FC0
:1036700005D108BD054BD86AFFF73AFEF2E7034BC8
:10368000D86EFFF735FEF4E700800E408804002076
:1036900008B50C210B48FFF705FE10F0040F07D109
:1036A0001C210848FFF7FEFD10F0040F05D108BDEE
:1036B000054B186BFFF71CFEF2E7034B186FFFF783
:1036C00017FEF4E700800E408804002008B50D21A5
:1036D0000B48FFF7E7FD10F0040F07D11D21084844
:1036E000FFF7E0FD10F0040F05D108BD054B586B46
:1036F000FFF7FEFDF2E7034B586FFFF7F9FDF4E724
:1037000000800E408804002008B50E210B48FFF70A
:10371000C9FD10F0040F07D11E210848FFF7C2FDB4
:1037200010F0040F05D108BD054B986BFFF7E0FDC5
:10373000F2E7034B986FFFF7DBFDF4E700800E40E4
:103740008804002008B50F210B48FFF7ABFD10F0EF
:10375000040F07D11F210848FFF7A4FD10F0040F44
:1037600005D108BD054BD86BFFF7C2FDF2E7034B4F
:10377000D86FFFF7BDFDF4E700800E4088040020FD
:1037800008B50346002000E00130022804D8074AAB
:1037900052F820209A42F7D1022800D808BD044BE5
:1037A000044A4FF49D71044801F0D4FB2C90007042
:1037B000F48F007018900070988F007070B50446F8
:1037C0004668FFF7DDFF054616F0406F06D0124B46
:1037D0001B68124A52F820102046984716F0407F86
:1037E00006D00F4B1B680D4A52F82510204698470B
:1037F00016F4C03F05D0094B53F82510204600238E
:103800009847084B1E4206D0074B1B68034A52F8E4
:1038100025102046984770BD180500200805002097
:103820001405002000007C601005002008B5034B43
:10383000196803480023984708BD00BF0805002009
:1038400000802D4008B50248FFF7B8FF08BD00BF53
:1038500000802D4008B50248FFF7B0FF08BD00BF4B
:1038600000402D4008B5074B596821B1064B1B6835
:103870000648984708BD064B064A40F66A210648A6
:1038800001F068FB1C0500202C05002000001D40F5
:10389000AC900070E89000705C90007008B5074B29
:1038A000996821B1064B1B680648984708BD064B2E
:1038B000064A40F67821064801F04CFB1C05002022
:1038C0002C05002000401D40C09000700091007049
:1038D0005C90007008B5074BD96821B1064B1B6896
:1038E0000648984708BD064B064A40F6862106481A
:1038F00001F030FB1C0500202C05002000801D403D
:10390000D4900070189100705C90007010B5002485
:1039100001E00134E4B2012C0CD8074B53F8241019
:103920000029F6D0054B53F82430054A52F82400FC
:103930009847EEE710BD00BF300500203805002095
:103940004005002008B5FFF7E1FF08BD08B5FFF707
:10395000DDFF08BD08B5FFF7D9FF08BD08B5024671
:103960000020092806D8084B53F82030934201D094
:103970000130F6E7092800D808BD044B044A392174
:10398000044801F0E7FA00BF3C92007030910070EB
:10399000189200705491007008B51F2908D86AB9B0
:1039A0000368012202FA01F123EA0101016008BD66
:1039B000064B074A6B21074801F0CCFA0368012245
:1039C00002FA01F119430160F1E700BFA091007014
:1039D0002C9200705491007010B4C46901238B4084
:1039E00024EA0304C4610F2909D800F10C04013A48
:1039F000042A0FD8DFE802F007111C272F0000F17E
:103A000010041039F3E723684A000321914023EAA8
:103A1000010121605DF8044B7047236848000322D0
:103A2000824023EA02030121814019432160F1E72A
:103A3000236848000322824023EA020302218140D6
:103A400019432160E6E723684900032202FA01F1E5
:103A500019432160DEE7C2691343C361DAE700005E
:103A6000F8B504460E461746FFF778FF1A4B33F9B0
:103A70001010B1F5006F1ED2080A01F01F0517499A
:103A800051F820300322AA4023EA0203134341F8ED
:103A9000203063690125B540EA4323EA05036361E9
:103AA0003B787BB963681A406260BA783146204639
:103AB000FFF792FFF8BD0A4B0A4A4FF475710A48A6
:103AC00001F048FA7A7831462046FFF765FF6368CF
:103AD0001D436560E9E700BF6492007068C00F4055
:103AE000AC91007004920070B891007008B5034664
:103AF000002000E00130022804D8074A52F82020B4
:103B00009A42F7D1022800D808BD044B044A2F215D
:103B1000044801F01FFA00BFBC930070709200705F
:103B2000889300709492007070B5002956D00446B6
:103B30000D46FFF7DBFF3D4B33F91010080A01F08B
:103B40001F06B1F5006F4FD2394951F820300322DA
:103B5000B24023EA0203134341F8203000232360DC
:103B6000236843F400432360236813F40043FBD12C
:103B70002A7A002A3FD04FF40072697A00293CD09B
:103B800008210A43A97A002939D020210A43E97A79
:103B9000002936D010210A43297B002933D0042183
:103BA0000A43697B01B10223134323602B78052B61
:103BB0002BD0226822F4B8629B0103F4E073134314
:103BC00023606B68013BB3F5805F29D26168194AB5
:103BD0000A40C3F30B031343636070BD164B174ACF
:103BE0003C21174801F0B6F9164B174A4FF475718E
:103BF000164801F0AFF91A46BFE71946C1E7194662
:103C0000C4E71946C7E71946CAE7226822F4B86232
:103C10009B0103F4E073134343F480632360D0E714
:103C20000B4B0C4ADB210C4801F094F9C89300704F
:103C300068C00F4000F0FFFFE092007098930070A2
:103C400094920070AC91007060930070B891007015
:103C5000EC920070749300701493007010B5002201
:103C60000260FFF743FF0D4B33F91030B3F5006FDF
:103C70000CD2190A03F01F04094850F8213003221E
:103C8000A24023EA020340F8213010BD054B064A4A
:103C90004FF47571054801F05DF900BFC8930070DD
:103CA00068C00F40AC91007060930070B8910070D4
:103CB00008B560B100210160C1600122027042605C
:103CC00082724272C17201730172427308BD034B6A
:103CD000034A7221034801F03DF900BF908F007044
:103CE000A49300709492007038B504460D460369A1
:103CF00013F0010F06D00A4B1B681BB1094A52F89A
:103D000021109847D4F8103113F0010F07D0064B5B
:103D10001B6823B1054A52F825102046984738BD44
:103D20005C05002048050020740500206005002087
:103D300008B501210148FFF7D7FF08BD00003F404B
:103D400008B502210148FFF7CFFF08BD00403F4002
:103D500008B503210148FFF7C7FF08BD00803F40B9
:103D600008B504210148FFF7BFFF08BD00C03F4070
:103D700008B5436A13F0010F03D0044B1B68984742
:103D800008BD034B1B689847FAE700BF8C0500206D
:103D90009005002008B5074B596819B10648FFF790
:103DA000E7FF08BD054B064A40F2D371054801F014
:103DB000D1F800BF78050020004039402C940070F5
:103DC0007C940070D893007008B5074B996819B1BE
:103DD0000648FFF7CDFF08BD054B064A40F2DB71F0
:103DE000054801F0B7F800BF780500200080394091
:103DF0004094007094940070D893007008B5074BFD
:103E0000D96819B10648FFF7B3FF08BD054B064A4C
:103E100040F2E371054801F09DF800BF78050020ED
:103E200000C0394054940070AC940070D893007076
:103E300008B5074B196919B10648FFF799FF08BD86
:103E4000054B064A40F2EB71054801F083F800BFCC
:103E50007805002000003A4068940070C494007017
:103E6000D893007008B5034B1B68034A5168034898
:103E7000984708BDB8050020940500200040184070
:103E800008B5034B1B68034A91680348984708BD6F
:103E9000B8050020940500200080184008B5034BA9
:103EA0001B68034AD1680348984708BDB80500203D
:103EB0009405002000C0184008B5034B1B68034A56
:103EC00011690348984708BDB805002094050020F3
:103ED0000000194008B5034B1B68034A51690348A9
:103EE000984708BDB80500209405002000401940FF
:103EF00008B5034B1B68034A91690348984708BDFE
:103F0000B8050020940500200080194008B5034B37
:103F10001B68034AD1690348984708BDB8050020CB
:103F20009405002000C0194008B5034B1B68034AE4
:103F3000116A0348984708BDB80500209405002081
:103F400000001A4008B502460020042806D8084B95
:103F500053F82030934201D00130F6E7042800D80E
:103F600008BD044B044A3721044800F0F3FF00BFAA
:103F70002C960070DC940070D09500700095007055
:103F8000F8B5002A6CD005460E4614465379022B2C
:103F90006CD0637A012B02D1002E00F0C680284637
:103FA000FFF7D0FF06EB8000624B33F91010080AD0
:103FB00001F01F07B1F5006F5CD25F4951F8203066
:103FC0000322BA4023EA0203134341F82030B5F834
:103FD0008E319BB243F00F03A5F88E3106EB4603FA
:103FE00005EB43139B8803F4E651637903F0030365
:103FF000E27AD20002F0380213432279120202F46C
:10400000407213432278D20392B213436278920330
:1040100002F480421343627A920002F004021343D6
:104020000B43E279012A2FD0022A39D04AB306EB9A
:10403000460205EB42129380D38840F68B711940FB
:10404000A3791B0103F07003A27A120392B2134307
:104050000B43227A032A31D8DFE802F02E585E643F
:10406000364B374A4921374800F074FF002990D178
:1040700001204AE0344B354A4FF47571344800F062
:1040800069FF43F40053D2E7B5F8882192B206F1F4
:104090000C000121814022EA0102A5F88821C6E72F
:1040A000B5F8882192B206F10C00012181400A4343
:1040B00092B2A5F88821BAE743F0040306EB460262
:1040C00005EB4212D380B5F89031DBB22BB1B5F8D5
:1040D000903103F47F43A5F89031A3781B0203F4D9
:1040E000E063E2781343A5F89031E37AFBB906EB7D
:1040F000460305EB43139B889BB243F0400306EB5A
:10410000460605EB4615AB800020F8BD23F480631E
:104110009BB243F40063D1E723F400639BB243F402
:104120008063CBE743F44063C8E70120EDE700205C
:10413000EBE700BF4096007068C00F40908F0070A2
:10414000E095007000950070AC910070BC95007017
:10415000B891007038B50C46B0F888319BB201F1C7
:1041600008050121A94023EA0103A0F88831FFF7DF
:10417000E9FE04EB80040D4B33F91430B3F5006F06
:104180000CD2190A03F01F04094850F82130032209
:10419000A24023EA020340F8213038BD054B064A0D
:1041A0004FF47571054800F0D5FE00BF40960070D1
:1041B00068C00F40AC910070BC950070B891007061
:1041C00008B568B100220270427042728270C270FB
:1041D000427182710271C27282720272C27108BD32
:1041E000024B034AD521034800F0B4FE908F0070C3
:1041F000EC950070009500702DE9F04F83B00546F6
:104200009DF830A00D9F0E98F2B19846164617B350
:1042100043B370B353684CF25032934230D8B8F184
:10422000020F00F245810C4601EB410105EB411103
:10423000CB88C3F3021320FA03F3B3FBF7F3019324
:104240001FFA83FB00276BE09A4B9B4A40F2111147
:104250009A4800F07FFE9A4B974A4FF4897197482D
:1042600000F078FE974B944A40F21311934800F007
:1042700071FE954B904A4FF48A71904800F06AFEA7
:10428000924B8D4A40F215118C4800F063FE4FF6B8
:10429000FF73984255D0013080B252E04FEA5B0183
:1042A0004A4292B204EB440305EB43135A800022C6
:1042B0005A81D9813378012B52D04008424292B2C0
:1042C00004EB440305EB43135A83D8833378012B63
:1042D00000F0D380728904EB440305EB43135A8644
:1042E00004220920337A002B40F0D08004EB4401F3
:1042F00005EB41114B8C9BB24FF0010C0CFA00F016
:1043000023EA00034B84B5F880319BB211190122D6
:104310008A4013439BB2A5F880310C360137FFB2B7
:10432000474580F0C180D6F804904CF2503200230B
:10433000ABFB0901FEF7CCF980B24CF25033994542
:10434000A5D0BAF1030FC1D801A353F82AF000BFDA
:104350009D42007075430070F94300703F44007047
:104360004008424292B204EB440305EB43135A82E5
:10437000D882ABE704EB440305EB431300225A80D9
:104380004FEA5B025A81A3F80EB03378012B15D0A7
:10439000BDF804300146181A2AD4C0F34F0004EBCC
:1043A000440205EB421250835B1823D4C3F34F033E
:1043B00004EB440205EB4212D38387E7BDF80430D7
:1043C0000146181A10D4C0F34F0004EB440205EB69
:1043D000421250825B1809D4C3F34F0304EB44022A
:1043E00005EB4212D38271E70130ECE70133F3E7CA
:1043F0000130D2E70133D9E74FEA5B03594289B272
:1044000004EB440205EB421251804FF0000CA2F87D
:104410000AC0D3813278012A08D004EB440205EBAC
:1044200042125183C01A80B2D0834FE704EB44029A
:1044300005EB42125182C31A9BB2D38246E704EBCA
:10444000440305EB431300225A804FEA5B025A8172
:10445000A3F80EB03378012B07D004EB440305EB2F
:10446000431300225A83D88330E704EB440305EB5F
:10447000431300225A82D88228E7728904EB44034E
:1044800005EB43131A8608220A202BE704EB4401AC
:1044900005EB41114B8C9BB24FF0010C0CFA00F074
:1044A00003439BB24B842EE7002003B0BDE8F08F9E
:1044B0000120FAE74C95007004960070009500709A
:1044C0005895007064950070709500707C95007030
:1044D0002DE9F0411646069F4CF25032974209D81A
:1044E00005460C46012E0CD8032B2CD8DFE803F030
:1044F00010378CBA714B724A40F2C111714800F00A
:1045000029FD714B6E4A4FF4E1716E4800F022FDB7
:1045100001EB410300EB4313D88980B2400080B225
:10452000A7FB00014CF250320023FEF7D1F880B215
:10453000012E0AD04008424292B204EB440305EB3C
:1045400043135A83D883BDE8F0814008424292B2B7
:1045500004EB440305EB43135A82D882F3E701EBE3
:10456000410300EB4313D8891FFA80F880B2A7FB00
:1045700000014CF250320023FEF7AAF880B24CF250
:1045800050339F4218D0012E1DD00246B8EB0000D8
:1045900035D4C0F34F0004EB440305EB43135883B9
:1045A00018EB02082DD4C8F34F0804EB440405EBC4
:1045B0004414A4F81E80C6E74FF6FF739842E2D079
:1045C000013080B2DFE70346B8EB000012D4C0F33D
:1045D0004F0004EB440205EB4212508218EB030833
:1045E0000AD4C8F34F0804EB440405EB4414A4F8C0
:1045F0001680A8E70130EAE708F10108F1E7013089
:10460000C7E708F10108CEE701EB410300EB4313D4
:10461000D8891FFA80F84FEA480080B2A7FB000152
:104620004CF250320023FEF753F880B2012E0CD02A
:10463000C8F1000292B204EB440305EB43135A8322
:10464000A0EB080080B2D8837DE7C8F1000292B2E7
:1046500004EB440305EB43135A82A0EB080080B23D
:10466000D88270E701EB410300EB4313D88980B295
:10467000A7FB00014CF250320023FEF729F880B26C
:104680004CF250339F4209D0012E0ED004EB44036C
:1046900005EB431300225A83D88354E74FF6FF7388
:1046A0009842F1D0013080B2EEE704EB440305EB11
:1046B000431300225A82D88245E700BF88950070D4
:1046C0001496007000950070AC95007008B51D4BF5
:1046D000D968D9B11C4BD3F8883013F4803F05D189
:1046E000194BD3F8883013F4802F0FD0164BD3F822
:1046F000883013F4807F05D1134BD3F8883013F43E
:10470000806F03D0114B1B680F4898470D4B996879
:10471000B9B10D4B9B6813F4803F04D10A4B9B68E1
:1047200013F4802F0DD0084B9B6813F4807F04D1C5
:10473000054B9B6813F4806F03D0054B1B68024840
:10474000984708BDBC05002000403840DC0500202B
:10475000E005002008B51D4B5969D9B11C4BD3F8B1
:10476000883013F4803F05D1194BD3F8883013F407
:10477000802F0FD0164BD3F8883013F4807F05D1EB
:10478000134BD3F8883013F4806F03D0114B1B68A0
:104790000F4898470D4B1969B9B10D4B9B6813F43D
:1047A000803F04D10A4B9B6813F4802F0DD0084B37
:1047B0009B6813F4807F04D1054B9B6813F4806FD2
:1047C00003D0054B1B680248984708BDBC05002074
:1047D00000803840DC050020E005002008B5074BCC
:1047E000996921B1064B1B680648984708BD064BDE
:1047F000064A40F61531064800F0ACFBBC05002027
:10480000E005002000C03840D89600700097007086
:104810008C96007008B5074BD96921B1064B1B680F
:104820000648984708BD064B064A4FF432610648D1
:1048300000F090FBBC050020DC05002000C03840E3
:10484000EC9600701C9700708C96007008B5084BB1
:10485000196821B1074B1B680BB107489847044BF7
:10486000596821B1054B1B680BB10348984708BD37
:10487000E4050020F005002000003840EC05002091
:1048800008B5034B1B68034A51680348984708BDA5
:1048900000060020F405002000002C4008B5034B62
:1048A0001B68034A91680348984708BD000600202A
:1048B000F405002000402C4018B1012803D1034822
:1048C0007047034870470020704700BF040600206F
:1048D0000C060020024A136801331360704700BFC2
:1048E0000806002008B5FFF7E7FF18B103460120CE
:1048F000186008BD0020FCE708B548B90A4B002243
:104900001A7021B1CB6813B109691046984708BDE8
:10491000054B01221A700029F9D08B68002BF6D0C4
:10492000096910469847F2E73806002008B50D4B94
:104930009B6913F0100F07D10A4B4FF0FF329A61B9
:104940000120FFF7CFFF08BD064B1A68064B5B6AD4
:1049500012F0100F19680CBF01200020FFF7CCFFE8
:10496000EAE700BF00001C401006002038B10346F3
:10497000406830B110B544691868A04710BD0320E5
:1049800070470620704710B50446012380F86F3049
:1049900000220E21FFF7EAFF022384F86E30002286
:1049A00084F86C2008E002EB420304EB830300214F
:1049B000D960196119750132072AF4D9A368002258
:1049C000012120469847002084F86F0010BD10B5E3
:1049D00084B00A7A102A22D002F00F04D30912F010
:1049E0000C0F26D143EA440303EB430200EB82029F
:1049F000D2680AB30A6801924A6802924A7A8DF82C
:104A00000C207AB10022027580F8202003EB4302CB
:104A100000EB8202D468126901A9A0470AE0FFF7FF
:104A2000B2FF07E003EB430200EB820200211175A5
:104A3000ECE7012004B010BD0120FBE7B0FA80F3E1
:104A40005B09002908BF01232BB910B5836823B186
:104A5000FFF7BDFF10BD032070470120FAE710B437
:104A60004C00E4B24268012303FA01F1C2F8AC1130
:104A70004268D2F8403143F40053C2F840318368B1
:104A800003EB84139A6A1A63836803EB8413DA6A6C
:104A90005A634368D3F8403113F4005FE8D04268AA
:104AA000D2F8403123F40053C2F840315DF8044B92
:104AB00070474368D3F8AC21C3F8AC214368D3F8FE
:104AC000BC21C3F8BC2143684FF0FF12C3F8B421E6
:104AD0004368D3F8B02112F0FF1FF4D1D3F884312A
:104AE00013F4807F03D0012380F85630704700B55F
:104AF00085B00023019310228DF80C2002938DF8CD
:104B00000D3001A90068FFF799FF05B05DF804FBBF
:104B10002DE9F04385B005468846174602EB41066D
:104B2000002301930293331D00EB83035C6824F0A0
:104B30001F0443E0A268A3F580531340A28BC2F385
:104B40000B02134301933DE04FF0FF33029347E024
:104B5000331D05EB830300225A6006F10C0305EBBD
:104B600083035A60AB6803EB861301219960AB683D
:104B700003EB8613DA6043E0FB01DBB243EA080390
:104B80008DF80C304FF000098DF80D9001A92868C0
:104B9000FFF754FFCDF80490CDF808900023636030
:104BA0002B6923602C6195F95430013385F854301A
:104BB000331D05EB83035C6824F01F0464B3019B81
:104BC000002BB7D0636813F0800FBDD1E369C3F346
:104BD00012336268C2F30E429B1A029A1344029384
:104BE000331D05EB83035A6806F10C0305EB8303C1
:104BF0005B689A42ACD01268331D05EB83035A60A0
:104C0000636813F4004FB7D1331D05EB83035B6872
:104C100033F01F03C2D1AFE705B0BDE8F0832DE943
:104C2000F04F87B005464368D3F8AC61002E3AD107
:104C30006B68D3F8BC210192C3F8BC21002A40F074
:104C40003A8107B0BDE8F08F0134E4B2032CEFD80D
:104C50000123A3403342F7D0AB686200D2B203EB2A
:104C6000821303F1300893F83070FF093A46214669
:104C70002846FFF74DFF87F0010221462846FFF73F
:104C800047FF8DF81440CDF80C80082304930123CE
:104C90008DF8153021462846FFF7E1FE03A9286864
:104CA000FFF7CCFED0E70024D0E7D8464FF000094C
:104CB000B8F1030F16D90BF1010B5FFA8BFBBBF1B7
:104CC0001F0FBED8012303FA0BF3019A1342F2D04F
:104CD000BBF10F0FE9D9ABF110085FFA88F84FF07C
:104CE0000109E5E74FEA480A5FFA8AFACA445FFA1F
:104CF0008AFA002303930493984508BF4B468BB16F
:104D0000AB684FEA8A1103EB8A1292F8382012F04E
:104D1000020F07D05A5812F0005F03D15A5842F0E0
:104D200000525A5056460AF1040305EB83035C68AF
:104D300024F01F04002CBED0331D05EB83035C68F8
:104D400024F01F042346BBB15A6812F0800F07D12C
:104D50005A6812F4004F03D11B6823F01F03F2E7D7
:104D60005A6812F0800F40F084805A6812F4004FA5
:104D700040F08180002200E0002282F00102002B3E
:104D800014BF13460023002B95D1002CD2D06368AA
:104D900013F0800FCED1039B002B6ED0E369C3F3D9
:104DA00012336268C2F30E429B1A049A13440493AE
:104DB000331D05EB83035A6806F10C0305EB8303EF
:104DC0005B689A4263D01268331D05EB83035A6017
:104DD000636813F4004F06D1331D05EB83035B6852
:104DE00033F01F030CD148EAC9138DF814300027A3
:104DF0008DF8157003A92868FFF720FE0397049724
:104E0000002363602B6923602C6195F954300133D2
:104E100085F85430331D05EB83035C6824F01F04D0
:104E20002246002CB1D0636813F0800FADD008EBA0
:104E30000913012101FA03F36968C1F8B031686808
:104E4000D0F8B8111942A0D1D0F8B0111942FBD155
:104E5000D0F8B811194298D1A96801EB8A118A607B
:104E6000AA6802EB8A120021D1606A68C2F8B031E8
:104E70008BE7002281E701227FE7A268A3F5805338
:104E80001340A28BC2F30B021343039386E7331D37
:104E900005EB830300225A6006F10C0305EB830344
:104EA0005A60AB6803EB8A1301219960AB6803EB8E
:104EB0008A13DA608CE74FF0000B00E710B584B07E
:104EC0000023019302938DF80D304368D3F88421B9
:104ED00012F4807F0BD10446D3F8843113F4007FA1
:104EE00007D0022380F8583094F856302BB904B01C
:104EF00010BD002380F85830F6E710238DF80C30F1
:104F000001A92068FFF79AFD002384F85630EEE7E8
:104F1000F8B138B505686B68D3F84441D3F8482137
:104F20001440C3F8444114F0400F06D114F0010FAF
:104F300007D114F0040F08D138BD2846FFF7B9FD9A
:104F4000F4E72846FFF76BFEF3E72846FFF7B6FFC6
:104F5000F2E7704700BEFDE708B5134B1B6813F07E
:104F6000400F0FD0114BD3F8703213F0100F18D13F
:104F70000F4B18680C4B1B6803F03F030133B0FB69
:104F8000F3F008BD0B48FDF7C3FE0B4BA3FB00304D
:104F90008008054B1B6803F03F030133B0FBF3F0BF
:104FA000EFE70648E6E700BF24C00F4000800D4051
:104FB0007C0400200D001000ABAAAAAA00366E01E6
:104FC00008B5FFF7C9FF08BD10B45F4B5B6913F468
:104FD000003F0FD0BFF34F8FBFF36F8F5A4B5A690B
:104FE00022F400325A610022C3F85022BFF34F8FDF
:104FF000BFF36F8F544B5B6913F4803F47D1BFF30E
:105000004F8FBFF36F8F504A536A23F4803353623C
:105010004E4B596821F0010159604D49D9604D4905
:1050200019614D49D9604D4919614D48D8604D48C5
:1050300018611320D86019611421D9604A49196197
:105040004A49D9604A4919614A48D86019614A49B0
:10505000D9604A4919614A49D9604A4919614A499E
:10506000D9604A491961BFF34F8FBFF36F8F052194
:105070005960536A43F4803353620023C2F884308A
:10508000BFF34F8FD2F88000C0F34E3229E02E4B91
:105090000022C3F88420BFF34F8F5A6922F4803274
:1050A0005A61BFF34F8FD3F88040C4F34E3100E014
:1050B0001946C4F3C90243F6E07303EA411343EA15
:1050C00082732148C0F874321346013A002BF2D1A2
:1050D0004B1E0029ECD1BFF34F8FBFF36F8F8EE7CC
:1050E0001A46C0F3C90143F6E07303EA421343EAE8
:1050F0008173154CC4F860320B460139002BF2D194
:10510000531E002AECD1BFF34F8F626942F4803204
:105110006261BFF34F8FBFF36F8FBFF34F8FBFF34A
:105120006F8F0022C4F85022BFF34F8FBFF36F8FF1
:10513000626942F400326261BFF34F8FBFF36F8F39
:105140005DF8044B704700BF00ED00E090ED00E01B
:10515000100000C039001003110000803B00100354
:10516000120000702B0003061F000303150000202F
:105170002500030316002020170028200900030340
:1051800018000080310003031900E08129000803A2
:1051900008B5FFF719FF00F013F800F01FFBFFF749
:1051A0000FFF0549CA6822F4E0621204120C034B97
:1051B0001343CB6008BD00BF00ED00E00003FA051B
:1051C0002DE9F041BC4B4FF400421A60BB4BD3F8C1
:1051D000C02242F48032C3F8C022D3F8C02222F4A5
:1051E0000032C3F8C022B64BB64A1A600020FDF761
:1051F00009FDFDF741FD0120FDF730FDB24A1368BE
:1052000023F0FF0343F07F0313601832136823F485
:10521000405343F480531360043A136843F000731F
:105220001360A94B9B6C13F0200FFAD1A74AD368E7
:1052300023F01F0343F01303D360A44B1B68002B20
:10524000FBDAA348FDF722FDFDF74AFD4FF4803558
:10525000A04B1D60994CD4F8703123F40043C4F87E
:105260007031D4F8703123F40003C4F87031236F27
:1052700043F400532367FDF73BFDD4F8A0302B43E4
:10528000C4F8A030D4F8703123F04043C4F8703132
:10529000D4F8A03043F40053C4F8A030FDF730FD3B
:1052A0008D4B1D60D4F8E03023F0030343F001037D
:1052B000C4F8E030D4F8E03043F40053C4F8E030F0
:1052C000D4F8E03023F00C03C4F8E030D4F8E03038
:1052D00043F48013C4F8E030D4F8E03043F4001312
:1052E000C4F8E030FDF7F6FC7C4B1D60236A43F404
:1052F000005323627A4A136823F4E0531360724B1D
:105300009B6C13F0020FFAD1764B1A6822F44032EC
:105310001A601A6822F440721A6004331A6822F480
:1053200040021A601A6822F040721A606C4A1368D0
:1053300043F440731360043A136823F0070343F007
:1053400001031360604B9B6C13F4803FFAD1664AF3
:10535000136843F440231360043A136823F0007386
:105360001360594B9B6C13F0200FFAD15C4A136801
:1053700023F0605313605C4D2B6823F440532B6083
:1053800058490B6823F440130B600B6823F4400367
:105390000B60564B1A6822F040721A601A6822F0AD
:1053A00040621A600A6822F440520A60504A10684B
:1053B00020F03F0040F001001060106820F0400035
:1053C0001060DFF844C1DCF8000020F00C00CCF8DD
:1053D0000000484E306820F4605040F400603060B7
:1053E000106820F480301060DCF8000020F03000FD
:1053F000CCF80000306820F4E02040F480303060C9
:10540000106820F400301060DCF8000020F44060E8
:10541000CCF80000106820F060701060106840F058
:10542000C0401060344F386820F00C003860334CB6
:10543000206820F4605040F400602060206820F470
:10544000C0602060086820F003000860086820F051
:105450000C000860086820F030000860086820F040
:10546000C0000860286820F0E05040F080502860BC
:10547000286820F0300040F020002860186820F4F0
:1054800040001860306820F0C06040F080603060FC
:10549000286820F4404040F4004028601848046820
:1054A00024F440240460174CD4F800E02EF4E07E8D
:1054B0004EF0C00E2AE000BF7804002000800D40AE
:1054C0007C04002000366E0100C00F400000084040
:1054D0003897007074800D40E4800D4024800D40AA
:1054E00014C00F406CC00F4018C00F4068C00F4080
:1054F0001CC00F4024C00F4070C00F403CC00F4084
:105500007CC00F4028C00F4080C00F40C4F800E0AE
:10551000D4F800E02EF03F0E4EF0010EC4F800E08B
:10552000D2F800E02EF4406EC2F800E0D0F800E0BF
:105530002EF4401EC0F800E0DFF86C82D8F800E0DE
:105540002EF4E07E4EF0C00EC8F800E0D8F800E07F
:105550002EF03F0E4EF0010EC8F800E0D2F800E049
:105560002EF4405EC2F800E0D0F800E02EF4400EC9
:10557000C0F800E0D4F800E02EF0E07E4EF4400EDB
:10558000C4F800E0D4F800E02EF47C1E4EF4803E17
:10559000C4F800E0D2F800E02EF4404EC2F800E07B
:1055A0003A6822F0C0023A603A6822F440723A60E7
:1055B0003A6822F440623A60383F3A6822F0FC725E
:1055C0003A603A6822F480223A601A6822F4404233
:1055D0001A601A6822F440221A606C4AD2F800E07D
:1055E0002EF0C00EC2F800E0D3F800E02EF4403EEA
:1055F000C3F800E0D3F800E02EF4401EC3F800E04A
:10560000D2F800E02EF4407EC2F800E0DFF89CE122
:10561000DEF8002022F0FC0242F00402CEF8002066
:10562000DEF8002022F4407242F40072CEF800202E
:10563000026822F0407202601A6822F040521A603A
:105640001A6822F440521A600B6823F040730B6012
:105650004F4A136823F00C031360136823F0C00350
:105660001360036823F040630360DCF8003023F428
:105670004043CCF80030336823F03F033360336895
:1056800023F040033360136823F4406313603B68E6
:1056900023F4E04343F480533B602B6823F06073B2
:1056A00043F0C0732B603B6823F4603343F4203332
:1056B0003B60036823F440430360364B196821F0D4
:1056C000606141F000711960196841F0E071196082
:1056D000196841F440111960016821F00C01016062
:1056E000196821F4E04141F480511960196841F4CE
:1056F00060611960196841F4C0711960136823F082
:1057000003031360236823F4606343F4007323608E
:10571000236823F0606343F000732360DEF80030F9
:1057200043F4C013CEF80030683A136823F0010345
:105730001360194AD2F8603123F01F03C2F86031B8
:10574000164B1A6E22F070021A661A6E22F00F02C1
:1057500042F001021A661A6E22F460021A661A6E8C
:1057600022F4F81242F490121A661A6E22F4807231
:105770001A661A6E22F080021A661A6E22F0807281
:105780001A66074B074A1A60BDE8F08184C00F40D3
:1057900074C00F4030C00F4000800D4000C00F406B
:1057A000000000200046C3232CC00F4020C00F4043
:1057B000094A136843F00C031360022302F57C22AC
:1057C000743213600432136041F2B00302F5F672D2
:1057D000136004321360704778C00F4008B5FFF7BC
:1057E000E7FF08BDFEE7FEE7FEE7FEE7FEE7FEE7B0
:1057F000FEE7FEE710B582B0044610461A460129BE
:1058000004D031B900238DF8043002E001238DF873
:105810000430A0B101238DF8053000238DF8063047
:105820000521204600F02EF8600901AA04F01F01AE
:10583000054B53F82000FEF713F902B010BD00230A
:105840008DF80530E9E700BF0400002059B1420996
:105850000B4B53F8222000F01F00012303FA00F045
:10586000C2F8840070474209054B53F8222000F02B
:105870001F00012303FA00F0C2F88800704700BF40
:105880000400002010B5964C236843F00C032360FD
:10589000A0F120039BB21F2B01F29E8020381F280D
:1058A00000F29381DFE810F020006200A400E20023
:1058B0009101910191019101910140018B01D6016A
:1058C00026027F02BB02FA0246039403FD034E0444
:1058D000A30408055105A305F6055506A606F80616
:1058E0004607AE07FC074E0859B97E4B196003F511
:1058F0006E7302211960002A00F067817A4B1A60EA
:1059000063E1012912D0022917D0032918D00429F4
:105910001DD005291ED006291FD0072920D1714B83
:10592000196003F2544300211960E4E76D4B1960DC
:1059300003F5B16300211960DDE76A4B1960DAE70E
:10594000684B196003F54F7300211960D3E7654B6D
:105950001960D0E7634B1960CDE7624B1960CAE765
:10596000624B634A3E216348FFF7F4FA59B9624B30
:10597000196003F5717302211960002A00F0258176
:105980005E4B1A6021E1012912D0022917D00329A8
:1059900018D004291DD005291ED006291FD007299B
:1059A00020D1554B196003F58B6300211960E4E7A2
:1059B000514B196003F5B16300211960DDE74E4BCF
:1059C0001960DAE74C4B196003F54D73002119603B
:1059D000D3E7494B1960D0E7474B1960CDE7464BF9
:1059E0001960CAE7414B424A57214248FFF7B2FAD1
:1059F00039B9434B1960002A00F0E780414B1A6027
:105A0000E3E0012912D0022917D003291CD0042970
:105A10001DD005291ED006291FD0072920D1384BBB
:105A2000196003F58A6300211960E4E7344B1960BB
:105A300003F5B16300211960DDE7314B196003F50F
:105A4000926301211960D6E72D4B1960D3E72C4BE7
:105A50001960D0E72A4B1960CDE7294B1960CAE7D6
:105A6000224B234A70212348FFF774FA59B9264B79
:105A7000196003F5627301211960002A00F0A58006
:105A8000224B1A60A1E0012912D0022917D0032964
:105A90001CD0042921D005293AD006293BD007295A
:105AA0003CD1194B196003F2444300211960E4E72B
:105AB000012315490B6001F264510B60DDE7124BC5
:105AC000196003F5916301211960D6E70E4B196047
:105AD00003F5A16300211960CFE70B4B1960CCE7F8
:105AE00078C00F40BC801F40AC821F4040970070C0
:105AF0009097007044970070C0801F40B0821F4094
:105B0000C4801F40B4821F40C8801F40B8821F401D
:105B1000954B1960B1E7944B1960AEE7934B944AEB
:105B200089219448FFF716FA31B9934B1960002A7E
:105B30004BD0924B1A6048E0012914D0022919D0A9
:105B400003291AD004291BD0052920D0062921D0E9
:105B5000072926D009292BD1874B196003F5D56376
:105B600002211960E3E7844B196003F56573032193
:105B70001960DCE7804B1960D9E77F4B1960D6E7E5
:105B80007D4B196003F54A7301211960CFE77A4B09
:105B90001960CCE7784B196003F5AF6301211960F8
:105BA000C5E7754B196003F28C6300211960BEE7ED
:105BB0006E4B6F4A40F229116E48FFF7CBF929B9B5
:105BC0006F4B19600AB16F4B1A6010BD012912D0DA
:105BD000022917D0032918D004291DD0052922D065
:105BE000062923D0072928D0082929D009292AD114
:105BF000634B1960E6E7624B196003F55C730321A0
:105C00001960DFE75E4B1960DCE75D4B196003F25A
:105C1000CC4301211960D5E7594B196003F548734E
:105C200001211960CEE7564B1960CBE7544B196040
:105C300003F2545301211960C4E7514B1960C1E7C5
:105C40004F4B1960BEE7494B494A4FF4A37149488D
:105C5000FFF780F931B94C4B1960002AB5D04B4B96
:105C60001A60B2E7012912D0022917D0032918D0EF
:105C7000042919D005291ED006291FD0072924D0B0
:105C8000082929D009292ED13F4B1960E5E73E4B61
:105C9000196003F55F7303211960DEE73A4B196061
:105CA000DBE7394B1960D8E7374B196003F54673CA
:105CB00001211960D1E7344B1960CEE7324B1960EE
:105CC00003F2545301211960C7E72F4B196003F504
:105CD000577301211960C0E72B4B196003F2A463CD
:105CE00002211960B9E7214B214A40F26311214892
:105CF000FFF730F961B9264B1021196003F57E7367
:105D000001211960002A3FF460AF224B1A605CE762
:105D1000012912D0022917D0032918D0042919D03B
:105D200005291AD006291BD0072935D1184B19602F
:105D300003F27C4300211960E4E7012314490B605E
:105D400001F544710B60DDE7114B1960DAE7104B88
:105D50001960D7E70E4B1960D4E70D4B1960D1E7F6
:105D60000B4B1960CEE700BFC8801F404097007002
:105D70009097007044970070E0801F40D0821F40D1
:105D8000E4801F40D4821F40E8801F40D8821F401B
:105D9000EC801F40DC821F40924B934A4FF4BE714F
:105DA0009248FFF7D7F861B9914B1021196003F5BC
:105DB0007E7301211960002A3FF407AF8D4B1A60F2
:105DC00003E701290ED0022913D0032914D0042996
:105DD00015D0052916D0062917D0072918D1844BCC
:105DE0001960E8E7824B196003F5CE630021196062
:105DF000E1E77F4B1960DEE77D4B1960DBE77C4B09
:105E00001960D8E77A4B1960D5E7794B1960D2E76A
:105E1000744B754A40F295117448FFF79BF859B9D5
:105E2000002375490B6001F59B610B60002A3FF46C
:105E3000CCAE724B1A60C8E601290ED0022913D0ED
:105E4000032914D0042915D005291AD006291BD0FE
:105E500008291CD1684B1960E8E7012366490B60EB
:105E600001F24C510B60E1E7634B1960DEE7624BD6
:105E70001960DBE7604B196003F54D730021196071
:105E8000D4E75D4B1960D1E75B4B1960CEE7554B0A
:105E9000554A4FF4D7715548FFF75CF839B9584B5C
:105EA0001960002A3FF491AE564B1A608DE6012925
:105EB00014D0022919D003291AD004291FD005298A
:105EC00024D0062925D007292AD008292BD14C4BCC
:105ED000196003F2946301211960E2E7484B1960ED
:105EE00003F5AB6300211960DBE7454B1960D8E788
:105EF000434B196003F5537300211960D1E7404B00
:105F0000196003F54A7300211960CAE73C4B196018
:105F1000C7E73B4B196003F5567302211960C0E7D0
:105F2000374B1960BDE72F4B2F4A40F2C9112F485C
:105F3000FFF710F859B9344B196003F53F7301218D
:105F40001960002A3FF441AE304B1A603DE601294A
:105F500012D0022917D0032918D004291ED00529F0
:105F60001FD0062920D0072925D0082926D00929A5
:105F700027D1254B1960E4E7012323490B6001F584
:105F800090610B60DDE7204B1960DAE71E4B1321AF
:105F9000196003F5747301211960D2E71A4B196077
:105FA000CFE7194B1960CCE7174B196003F2DC43BC
:105FB00002211960C5E7144B1960C2E7124B196042
:105FC000BFE7084B084A4FF4F3710848FEF7C2FFD9
:105FD00011BB0F4B1960002A3FF4F7AD0D4B1A604F
:105FE000F3E500BF409700709097007044970070F1
:105FF000F0801F40E0821F40F4801F40E4821F4079
:10600000F8801F40E8821F40FC801F40EC821F4048
:1060100000811F40F0821F40012912D0022917D0B1
:10602000032918D004291ED0052923D0062924D0FD
:10603000072925D0082926D009292BD1944B19608E
:10604000C9E7934B196003F5906300211960C2E71B
:106050008F4B1960BFE78E4B1321196003F57473E2
:1060600001211960B7E78A4B196003F53F730221DC
:106070001960B0E7864B1960ADE7854B1960AAE758
:10608000834B1960A7E7824B196003F22463002158
:106090001960A0E77F4B804A40F203217F48FEF75A
:1060A00059FF59B97E4B196003F53C730121196002
:1060B000002A3FF48AAD7B4B1A6086E5012912D095
:1060C000022917D003291CD004291DD005291ED070
:1060D00006291FD0072924D0082925D009292AD12B
:1060E0006F4B1960E4E701236D490B6001F5906186
:1060F0000B60DDE76A4B196003F22C430121196044
:10610000D6E7674B1960D3E7654B1960D0E7644B5E
:106110001960CDE7624B196003F59A63012119609C
:10612000C6E75F4B1960C3E75D4B196003F5CD63AC
:1061300001211960BCE7574B574A4FF40871574883
:10614000FEF708FF59B9584B196003F5996301210F
:106150001960002A3FF439AD544B1A6035E5012926
:1061600012D0022917D003291CD0042921D00529D7
:1061700022D0062923D0072928D0082929D0092987
:106180002ED1494B1960E4E7012347490B6001F523
:1061900090610B60DDE7444B196003F22443012159
:1061A0001960D6E7404B196003F598630021196028
:1061B000CFE73D4B1960CCE73B4B1960C9E73A4B41
:1061C000196003F59B6300211960C2E7364B196023
:1061D000BFE7354B196003F25C6301211960B8E732
:1061E0002C4B2D4A40F23D212C48FEF7B3FE59B905
:1061F0002F4B196003F56E7301211960002A3FF4DB
:10620000E4AC2C4B1A60E0E4012912D0022913D02F
:10621000032918D0042919D005291ED006291FD01A
:10622000072924D0082925D009292AD1204B196013
:10623000E4E71F4B1960E1E71D4B196003F5856327
:1062400001211960DAE71A4B1960D7E7184B19607A
:1062500003F5467300211960D0E7154B1960CDE7AF
:10626000134B196003F2DC4301211960C6E7104BA0
:106270001960C3E70E4B196003F25C6301211960DA
:10628000BCE7044B044A40F25A210448FEF762FE80
:1062900000811F40409700709097007044970070F5
:1062A00004811F40F4821F4008811F40F8821F4074
:1062B0000C811F40FC821F4059B9974B196003F5B0
:1062C0006C7301211960002A3FF47FAC934B1A6074
:1062D0007BE4012912D0022917D0032918D0042900
:1062E00019D005291AD006291BD0072920D0082942
:1062F00021D0092922D1884B1960E4E7864B196027
:1063000003F5487300211960DDE7834B1960DAE774
:10631000814B1960D7E7804B1960D4E77E4B196039
:10632000D1E77D4B196003F2DC4301211960CAE714
:10633000794B1960C7E7784B1960C4E7784B794A05
:1063400040F277217848FEF705FE59B9774B19607E
:1063500003F56A7301211960002A3FF436AC744BCF
:106360001A6032E4012912D0022918D003291DD065
:1063700004291ED0052923D0062924D0072929D095
:1063800008292AD009292BD1684B1960E4E7674B0B
:106390001121196003F5737302211960DCE7634B67
:1063A000196003F5856300211960D5E75F4B19601B
:1063B000D2E75E4B196003F5457301211960CBE705
:1063C0005A4B1960C8E7594B196003F2DC430121AD
:1063D0001960C1E7554B1960BEE7544B1960BBE724
:1063E0004F4B504A4FF425714F48FEF7B3FD61B94A
:1063F000504B196003F5687301211960002A3FF4BE
:10640000E4AB4D4B1A60FFF7E0BB012912D0022923
:1064100018D003291DD004291ED0052923D0062910
:1064200024D0072929D008292AD009292BD1414B6A
:106430001960E3E73F4B1121196003F571730221E5
:106440001960DBE73B4B196003F584630021196099
:10645000D4E7384B1960D1E7364B196003F5427326
:1064600001211960CAE7334B1960C7E7314B196046
:1064700003F2DC4301211960C0E72E4B1960BDE730
:106480002C4B1960BAE7264B264A40F2B121264828
:10649000FEF760FD41B9294B1960002A3FF495AB26
:1064A000274B1A60FFF791BB012910D0022915D0A4
:1064B000032916D004291BD0052920D0062921D074
:1064C000072926D009293DD11C4B1960E5E7012396
:1064D0001A490B6001F55E710B60DEE7174B19601E
:1064E000DBE7032315490B6001F538710B60D4E736
:1064F000124B196003F5407300211960CDE70F4B73
:106500001960CAE70D4B196003F599630121196001
:10651000C3E70A4B1960C0E710811F4000831F408A
:1065200040970070909700704497007014811F404E
:1065300004831F4018811F4008831F401C811F4097
:106540000C831F409A4B9B4A4FF433719A48FEF7D5
:1065500001FD61B9994B196003F56173012119605F
:10656000002A3FF432AB964B1A60FFF72EBB01298D
:1065700010D0022915D003291AD004291FD00529CB
:1065800024D0062925D007292AD009292BD18B4BC5
:106590001960E5E7012389490B6001F55E710B6025
:1065A000DEE7022385490B6001F54B710B60D7E7ED
:1065B000824B196003F26C4301211960D0E77F4BD5
:1065C000196003F53E7300211960C9E77B4B196020
:1065D000C6E77A4B196003F2BC4301211960BFE79B
:1065E000764B1960BCE7724B724A40F2E721724861
:1065F000FEF7B0FC61B9734B196003F564730121B8
:106600001960002A3FF4E1AA6F4B1A60FFF7DDBA68
:10661000012912D0022913D0032918D004291DD032
:10662000052922D0062923D0072928D0082929D0D6
:1066300009292AD1634B1960E3E7624B1960E0E74F
:10664000604B196003F5886301211960D9E75D4B40
:10665000196003F5906301211960D2E7594B196065
:1066600003F53C7300211960CBE7564B1960C8E76E
:10667000544B196003F2E44301211960C1E7514B07
:106680001960BEE74F4B1960BBE7494B494A4FF4CD
:1066900041714948FEF75EFC61B94C4B196003F546
:1066A000627301211960002A3FF48FAA484B1A60D7
:1066B000FFF78BBA012912D0022913D0032918D071
:1066C00004291DD0052922D0062923D0072924D04A
:1066D000082925D0092926D13C4B1960E3E73B4B1B
:1066E0001960E0E7394B196003F5876301211960F0
:1066F000D9E7364B196003F58D6301211960D2E7A4
:10670000324B196003F53A7300211960CBE72F4B28
:106710001960C8E72D4B1960C5E72C4B1960C2E71B
:106720002A4B1960BFE7224B224A40F2213122480E
:10673000FEF710FC61B9274B196003F56073012166
:106740001960002A3FF441AA234B1A60FFF73DBAB3
:10675000012912D0022913D0032918D004291DD0F1
:10676000052922D0062939D007293ED008293FD053
:10677000092940D1174B1960E3E7164B1960E0E790
:10678000144B196003F5787301211960D9E7114B97
:10679000196003F58D6301211960D2E70D4B196073
:1067A00003F5387300211960CBE70A4B1960C8E77D
:1067B00040970070909700704497007020811F40B0
:1067C00010831F4024811F4014831F4028811F40D5
:1067D00018831F402C811F401C831F40944B19605D
:1067E00003F2CC4301211960ABE7914B1960A8E794
:1067F0008F4B1960A5E78F4B8F4A40F23E318F488F
:10680000FEF7A8FB61B98E4B196003F55E73012199
:106810001960002A3FF4D9A98A4B1A60FFF7D5B94D
:10682000012912D0022913D0032918D0042919D024
:1068300005291ED006291FD0072924D0082925D0D4
:10684000092926D17E4B1960E3E77D4B1960E0E70B
:106850007B4B196003F5797301211960D9E7784BF7
:106860001960D6E7764B196003F53673002119607D
:10687000CFE7734B1960CCE7714B196003F2CC433F
:1068800001211960C5E76E4B1960C2E76C4B1960B6
:10689000BFE7684B684A40F25B316848FEF75AFB35
:1068A00061B9694B196003F5657301211960002A0C
:1068B0003FF48BA9654B1A60FFF787B9012912D005
:1068C000022913D0032918D004291DD0052922D06C
:1068D000062923D0072928D0082929D009292AD117
:1068E000594B1960E3E7584B1960E0E7564B1960C4
:1068F00003F5797301211960D9E7534B196003F24D
:10690000744301211960D2E74F4B196003F53473CA
:1069100000211960CBE74C4B1960C8E74A4B19605E
:1069200003F2CC4301211960C1E7474B1960BEE770
:10693000454B1960BBE73F4B3F4A4FF45E713F4800
:10694000FEF708FB41B9424B1960002A3FF43DA90C
:10695000404B1A60FFF739B9012912D0022913D030
:10696000032914D0042919D005291ED006291FD0C7
:10697000072924D0082925D0092926D1344B1960AC
:10698000E3E7334B1960E0E7314B1960DDE7304B4B
:10699000196003F2744301211960D6E72C4B19608A
:1069A00003F5327300211960CFE7294B1960CCE75A
:1069B000274B196003F2CC4301211960C5E7244B32
:1069C0001960C2E7224B1960BFE71A4B1A4A40F21E
:1069D00095311A48FEF7BEFAA0F140039BB21F2B77
:1069E00001F2C78040381F283FF6EFA8DFE810F01B
:1069F00034006C00A800E00024017C01B901F5011D
:106A000031027102C802040340037803B003E803B3
:106A10004B049804E1042A058C05CC050C064C06B1
:106A20008406D9061A075A079207D20737087C0846
:106A30002C811F4040970070909700704497007021
:106A400030811F4020831F4034811F4024831F401A
:106A500038811F4028831F4041B9964B1960002A96
:106A60003FF4B3A8944B1A60FFF7AFB801290ED0DA
:106A700002290FD0032910D0042915D0052916D0DA
:106A8000062917D0082918D18A4B1960E7E7894BE6
:106A90001960E4E7874B1960E1E7864B196003F55D
:106AA000787300211960DAE7824B1960D7E7814BD0
:106AB0001960D4E77F4B1960D1E7804B804A40F2E0
:106AC000B6318048FEF746FA41B97F4B1960002A7B
:106AD0003FF47BA87D4B1A60FFF777B8012912D0ED
:106AE000022913D0032914D0042919D005291AD05A
:106AF00006291BD008291CD1734B196003F5BA6312
:106B000001211960E3E7704B1960E0E76E4B1960F3
:106B1000DDE76D4B196003F5797300211960D6E745
:106B2000694B1960D3E7684B1960D0E7664B196071
:106B3000CDE7624B624A40F2CF316248FEF70AFA73
:106B400041B9634B1960002A3FF43FA8614B1A60BA
:106B5000FFF73BB801290ED002290FD0032910D02E
:106B6000042915D0052916D0062917D0082918D1CF
:106B7000574B1960E7E7564B1960E4E7544B19602F
:106B8000E1E7534B196003F5797300211960DAE7E7
:106B90004F4B1960D7E74E4B1960D4E74C4B196047
:106BA000D1E7464B464A4FF47A714648FEF7D2F990
:106BB00041B9494B1960002A3FF407A8474B1A60B6
:106BC000FFF703B8012912D0022917D003291CD0DE
:106BD000042921D0052922D0062923D0082924D12F
:106BE0003D4B196003F2DC5301211960E3E70123F7
:106BF00039490B6001F224410B60DCE7364B196028
:106C000003F5417303211960D5E7334B196003F590
:106C1000767300211960CEE72F4B1960CBE72E4B1E
:106C20001960C8E72C4B1960C5E7244B244A40F291
:106C300001412448FEF78EF941B9294B1960002A19
:106C40003EF4C3AF274B1A60FEF7BFBF01290ED039
:106C5000022913D0032919D004291AD005291BD0E1
:106C600006291CD008291DD11D4B1960E7E7012317
:106C70001B490B6001F224410B60E0E7184B122125
:106C8000196003F5627301211960D8E7144B19608C
:106C9000D5E7134B1960D2E7114B1960CFE7104BC2
:106CA0001960CCE7054B064A40F21A410548FEF749
:106CB00051F900BF3C811F402C831F40409700705A
:106CC000909700704497007040811F4030831F40B0
:106CD00044811F4034831F4048811F4038831F4038
:106CE0004C811F403C831F4041B9984B1960002ADA
:106CF0003EF46BAF964B1A60FEF767BF01290ED0CA
:106D0000022913D0032919D004291AD005291BD030
:106D100006291CD008291DD18C4B1960E7E70123F7
:106D20008A490B6001F224410B60E0E7874B122196
:106D3000196003F5627301211960D8E7834B19606C
:106D4000D5E7824B1960D2E7804B1960CFE77F4BC4
:106D50001960CCE77F4B804A40F233417F48FEF711
:106D6000F9F841B97E4B1960002A3EF42EAF7D4BF5
:106D70001A60FEF72ABF01290ED0022913D0032979
:106D800018D0042919D005291AD006291BD00829A2
:106D90001CD1734B1960E7E7714B196003F58563EC
:106DA00002211960E0E76E4B196003F54973012178
:106DB0001960D9E76A4B1960D6E7694B1960D3E7C8
:106DC000674B1960D0E7664B1960CDE7614B624AAB
:106DD00040F24C416148FEF7BDF841B9624B196081
:106DE000002A3EF4F2AE614B1A60FEF7EEBE0129B6
:106DF0000ED0022913D0032918D0042919D005294F
:106E00001AD006291BD008291CD1574B1960E7E777
:106E1000554B196003F5856302211960E0E7524B79
:106E2000196003F54C7301211960D9E74E4B1960C5
:106E3000D6E74D4B1960D3E74B4B1960D0E74A4B6F
:106E40001960CDE7434B444A40F265414348FEF7A1
:106E500081F841B9464B1960002A3EF4B6AE454B65
:106E60001A60FEF7B2BE01290ED0022913D0032901
:106E700018D004291DD005291ED006291FD00829A5
:106E800020D13B4B1960E7E7394B196003F5856367
:106E900002211960E0E7364B196003F548730121C0
:106EA0001960D9E7324B196003F578730221196034
:106EB000D2E72F4B1960CFE72D4B1960CCE72C4B55
:106EC0001960C9E7234B244A40F27E412348FEF76C
:106ED00041F841B9284B1960002A3EF476AE274BA1
:106EE0001A60FEF772BE01290ED002290FD00329C5
:106EF00014D0042919D005291AD006291BD0082935
:106F00001CD11D4B1960E7E71B4B1960E4E71A4BD6
:106F1000196003F54B7301211960DDE7164B196009
:106F200003F5767302211960D6E7134B1960D3E796
:106F3000114B1960D0E7104B1960CDE7054B064A9D
:106F400040F297410548FEF705F800BF50811F4009
:106F500040831F40409700709097007044970070E6
:106F600054811F4044831F4058811F4048831F4065
:106F70005C811F404C831F4060811F4050831F4035
:106F800041B9944B1960002A3EF41FAE924B1A602F
:106F9000FEF71BBE01290ED002290FD0032914D001
:106FA000042919D005291AD006291BD008291CD17B
:106FB000884B1960E7E7874B1960E4E7854B196058
:106FC00003F5477301211960DDE7824B196003F275
:106FD000344301211960D6E77E4B1960D3E77D4B1E
:106FE0001960D0E77B4B1960CDE77C4B7C4A4FF4AE
:106FF00096617C48FDF7AEFF41B97B4B1960002AD2
:107000003EF4E3AD794B1A60FEF7DFBD01290ED0E7
:1070100002290FD0032914D0042919D005291AD028
:1070200006291BD008291CD16F4B1960E7E76E4B6E
:107030001960E4E76C4B196003F54A73012119608C
:10704000DDE7694B196003F2344301211960D6E78B
:10705000654B1960D3E7644B1960D0E7624B196048
:10706000CDE75E4B5E4A40F2C9415E48FDF772FFD4
:1070700041B95F4B1960002A3EF4A7AD5D4B1A6021
:10708000FEF7A3BD01290ED002290FD0032910D08D
:10709000042915D0052916D0062917D0082918D19A
:1070A000534B1960E7E7524B1960E4E7504B196006
:1070B000E1E74F4B196003F2344301211960DAE72D
:1070C0004B4B1960D7E74A4B1960D4E7484B19601E
:1070D000D1E7424B424A40F2E2414248FDF73AFFD3
:1070E00041B9454B1960002A3EF46FAD434B1A601D
:1070F000FEF76BBD01290ED002290FD0032910D055
:10710000042915D0052916D0062917D0082918D129
:10711000394B1960E7E7384B1960E4E7364B1960E3
:10712000E1E7354B196003F21C4302211960DAE7ED
:10713000314B1960D7E7304B1960D4E72E4B1960FB
:10714000D1E7264B264A40F2FB412648FDF702FFD5
:1071500041B92B4B1960002A3EF437AD294B1A6018
:10716000FEF733BD01290ED002290FD0032910D01C
:10717000042915D0052916D0062917D0082918D1B9
:107180001F4B1960E7E71E4B1960E4E71C4B1960C1
:10719000E1E71B4B196003F5866302211960DAE70A
:1071A000174B1960D7E7164B1960D4E7144B1960D9
:1071B000D1E70A4B0A4A40F214510A48FDF7CAFEC9
:1071C00031BB114B1960002A3EF4FFAC0F4B1A6023
:1071D000FEF7FBBC64811F4054831F404097007042
:1071E000909700704497007068811F4058831F403B
:1071F0006C811F405C831F4070811F4060831F4073
:1072000074811F4064831F4078811F4068831F4042
:10721000012914D0022915D0032916D004291BD026
:1072200005291CD006291DD008291ED0092923D1E3
:10723000984B196003F2945302211960C3E7954BF0
:107240001960C0E7934B1960BDE7924B196003F5D5
:10725000836302211960B6E78E4B1960B3E78D4B4B
:107260001960B0E78B4B1960ADE78A4B196003F5E5
:10727000B66302211960A6E7874B884A40F22F5176
:107280008748FDF767FE41B9864B1960002A3EF436
:107290009CAC854B1A60FEF798BC012910D00229DE
:1072A00015D003291AD004291FD0052920D006297A
:1072B00021D0082926D009292BD17A4B1960E5E77E
:1072C000012378490B6001F599610B60DEE7022329
:1072D00074490B6001F572710B60D7E7714B19604F
:1072E00003F5836302211960D0E76E4B1960CDE787
:1072F0006C4B1960CAE76B4B196003F536730421B8
:107300001960C3E7674B196003F2A45302211960A7
:10731000BCE7614B614A40F24A516148FDF71AFEF1
:1073200041B9624B1960002A3EF44FAC604B1A60C1
:10733000FEF74BBC012910D0022915D003291AD021
:1073400004291BD005291CD006291DD0082922D0CC
:10735000092927D1554B1960E5E7012353490B60F3
:1073600001F599610B60DEE7022350490B6001F5DE
:1073700070710B60D7E74D4B1960D4E74B4B196028
:10738000D1E74A4B1960CEE7484B196003F53973D2
:1073900004211960C7E7454B196003F29453022199
:1073A0001960C0E73C4B3D4A40F265513C48FDF74F
:1073B000D1FD41B93F4B1960002A3EF406AC3E4B6B
:1073C0001A60FEF702BC012910D0022915D003294A
:1073D00016D004291BD005291CD006291DD0082948
:1073E00022D0092927D1334B1960E5E70123314920
:1073F0000B6001F599610B60DEE72E4B1960DBE74E
:107400002C4B196003F2244302211960D4E7294B65
:107410001960D1E7274B1960CEE7264B196003F5B9
:107420003C7304211960C7E7224B196003F294539F
:1074300002211960C0E7184B184A4FF4B061184890
:10744000FDF788FD41B91D4B1960002A3EF4BDAB24
:107450001B4B1A60FEF7B9BB012910D0022915D0C9
:1074600003292FD0042934D0052935D0062936D058
:1074700008293BD0092940D1104B1960E5E70F4B93
