:0200000470008A
:10000000464346420004015600000000010303007D
:1000100000000000000000000000000000000000E0
:1000200000000000000000000000000000000000D0
:1000300000000000000000000000000000000000C0
:1000400000000000000408000000000000000000A4
:100050000000400000000000000000000000000060
:100060000000000000000000000000000000000090
:100070000000000000000000000000000000000080
:10008000EB04180A063204260000000000000000FD
:100090000000000000000000000000000000000060
:1000A0000000000000000000000000000000000050
:1000B0000000000000000000000000000000000040
:1000C0000000000000000000000000000000000030
:1000D0000000000000000000000000000000000020
:1000E0000000000000000000000000000000000010
:1000F0000000000000000000000000000000000000
:1001000000000000000000000000000000000000EF
:1001100000000000000000000000000000000000DF
:1001200000000000000000000000000000000000CF
:1001300000000000000000000000000000000000BF
:1001400000000000000000000000000000000000AF
:10015000000000000000000000000000000000009F
:10016000000000000000000000000000000000008F
:10017000000000000000000000000000000000007F
:10018000000000000000000000000000000000006F
:10019000000000000000000000000000000000005F
:1001A000000000000000000000000000000000004F
:1001B000000000000000000000000000000000003F
:1001C000000100000010000000000000000000001E
:1001D000000001000000000000000000000000001E
:1001E000000000000000000000000000000000000F
:1001F00000000000000000000000000000000000FF
:10100000D10020410020007000000000301000706E
:1010100020100070001000700000000000000000B0
:10102000000000700000400000000000FFFFFFFF14
:10103000D2043041CC03AC04400FC068FFFFFFFF77
:10104000400FC06CFFFFFFFF400FC070FFFFFFFFAE
:10105000400FC074FFFFFFFF400FC078FFFFFFFF8E
:10106000400FC07CFFFFFFFF400FC080FFFFFFFF6E
:10107000400D803000002001400D8100001D000067
:10108000400FC01400010D40401F801400000000FC
:10109000401F801800000000401F801C000000005E
:1010A000401F802000000000401F8024000000003E
:1010B000401F802800000000401F802C000000001E
:1010C000401F803000000000401F803400000000FE
:1010D000401F803800000000401F803C00000000DE
:1010E000401F804000000000401F804400000000BE
:1010F000401F804800000000401F804C000000009E
:10110000401F805000000000401F8054000000007D
:10111000401F805800000000401F805C000000005D
:10112000401F806000000000401F8064000000003D
:10113000401F806800000000401F806C000000001D
:10114000401F807000000000401F807400000000FD
:10115000401F807800000000401F807C00000000DD
:10116000401F808000000000401F808400000000BD
:10117000401F808800000000401F808C000000009D
:10118000401F809000000000401F8094000000007D
:10119000401F809800000000401F809C000000005D
:1011A000401F80A000000000401F80A4000000003D
:1011B000401F80A800000000401F80AC000000001D
:1011C000401F80B000000010401F80B400000000ED
:1011D000401F80B800000000401F8204000110F989
:1011E000401F8208000110F9401F820C000110F915
:1011F000401F8210000110F9401F8214000110F9F5
:10120000401F8218000110F9401F821C000110F9D4
:10121000401F8220000110F9401F8224000110F9B4
:10122000401F8228000110F9401F822C000110F994
:10123000401F8230000110F9401F8234000110F974
:10124000401F8238000110F9401F823C000110F954
:10125000401F8240000110F9401F8244000110F934
:10126000401F8248000110F9401F824C000110F914
:10127000401F8250000110F9401F8254000110F9F4
:10128000401F8258000110F9401F825C000110F9D4
:10129000401F8260000110F9401F8264000110F9B4
:1012A000401F8268000110F9401F826C000110F994
:1012B000401F8270000110F9401F8274000110F974
:1012C000401F8278000110F9401F827C000110F954
:1012D000401F8280000110F9401F8284000110F934
:1012E000401F8288000110F9401F828C000110F914
:1012F000401F8290000110F9401F8294000110F9F4
:10130000401F8298000110F9401F829C000110F9D3
:10131000401F82A0000110F9401F82A4000110F9B3
:10132000401F82A8000110F9402F000010000004A7
:10133000402F000800030524402F000C060305245D
:10134000402F00108000001B402F00148200001B63
:10135000402F00188400001B402F001C8600001B3B
:10136000402F002090000021402F0024A0000019F1
:10137000402F0028A8000017402F002CA900001BB8
:10138000402F003000000021402F0004000079A809
:10139000402F004000000F31402F004400652922FB
:1013A000402F004800010920402F004C50210A081E
:1013B000402F008000000021402F00840088888892
:1013C000402F009400000002402F00980000000011
:1013D000402F009080000000402F009CA55A000F75
:1013E000CF000C1C402F003C00000001CC00140476
:1013F000402F009080000000402F009CA55A000C58
:10140000CF000C1C402F003C00000001CC00140455
:10141000402F009080000000402F009CA55A000C37
:10142000CF000C1C402F003C00000001CC001C042D
:10143000402F00A000000033402F009080000000EB
:10144000402F009CA55A000ACF000C1C402F003CE6
:1014500000000001CC000C04402F004C50210A0970
:1020000000000220BD240070498400704B840070E1
:102010004D8400704F8400705184007000000000F7
:102020000000000000000000000000005384007069
:10203000558400700000000057840070FD7000702F
:102040001D250070212500702525007029250070B0
:102050002D25007031250070352500703925007060
:102060003D25007041250070452500704925007010
:102070004D250070512500705525007059250070C0
:102080005D25007005250070052500700525007090
:102090006125007065250070692500706D25007050
:1020A0007125007075250070792500707D25007000
:1020B0008125007085250070892500708D250070B0
:1020C0009125007095250070992500709D25007060
:1020D000A1250070A525007005250070052500705C
:1020E0000525007005250070052500701549007054
:1020F0000525007005250070052500700525007078
:102100000525007005250070052500700525007067
:102110000525007005250070052500700525007057
:10212000A9250070AD250070B1250070B52500709F
:10213000B925007005250070052500700525007083
:102140000525007005250070052500700525007027
:102150000525007005250070052500700525007017
:102160000525007005250070052500700525007007
:1021700005250070052500700525007005250070F7
:1021800005250070052500700525007005250070E7
:10219000557100700525007005250070052500703B
:1021A0000525007005250070BD250070C125007053
:1021B00005250070052500700525007005250070B7
:1021C00005250070052500700525007005250070A7
:1021D0000525007005250070052500700525007097
:1021E000052500700525007005250070C5250070C7
:1021F000C925007005250070CD250070D12500701F
:1022000021C3007011C30070D5250070ED5A007015
:102210000525007005250070052500700525007056
:102220000525007005250070214900700525007006
:102230000525007005250070052500700525007036
:102240000525007005250070052500700525007026
:102250000525007005250070052500700525007016
:102260000525007005250070052500700525007006
:1022700005250070052500700525007005250070F6
:1022800005250070052500700525007005250070E6
:1022900005250070052500700525007005250070D6
:1022A000DD250070E1250070E52500700525007032
:1022B000E9250070052500700525007005250070D2
:1022C00005250070052500700525007005250070A6
:1022D0000525007005250070052500700525007096
:1022E0000525007005250070052500700525007086
:1022F0000525007005250070052500700525007076
:102300000525007005250070052500700525007065
:102310000525007005250070052500700525007055
:102320000525007005250070052500700525007045
:102330000525007005250070052500700525007035
:102340000525007005250070052500700525007025
:102350000525007005250070052500700525007015
:102360000525007005250070052500700525007005
:1023700005250070052500700525007005250070F5
:1023800005250070052500700525007005250070E5
:1023900005250070052500700525007005250070D5
:1023A00005250070052500700525007005250070C5
:1023B00005250070052500700525007005250070B5
:1023C00005250070052500700525007005250070A5
:1023D0000525007005250070052500700525007095
:1023E0000525007005250070052500700525007085
:1023F000052500700525007005250070FFFFFFFF13
:1024000010B5054C237833B9044B13B10448AFF32E
:1024100000800123237010BDFC0400200000000098
:1024200050DF007008B5034B1BB103490348AFF3FD
:10243000008008BD000000000005002050DF007093
:10244000A3F5803A704700BF174B002B08BF134B12
:102450009D46FFF7F5FF00218B460F461348144AAF
:10246000121A0AF093F90E4B002B00D098470D4B2F
:10247000002B00D098470020002104000D000D48DB
:10248000002802D00C480AF041FA0AF05BF920005B
:10249000290002F0B3FA0AF045F900BF0000080075
:1024A000000000000000000000000220FC040020EA
:1024B000B40800200DC9007019C9007072B60A482E
:1024C0000A4901600A6882F3088809488047094977
:1024D000094A0A4B9A42BEBF51F8040B42F8040B5A
:1024E000F8E762B60648804708ED00E0002000707B
:1024F0009D4B00707CDF007000000020FC04002079
:1025000049240070FFF7FEBF3848004738480047AD
:10251000384800473848004738480047384800479F
:10252000384800473848004738480047384800478F
:10253000384800473848004738480047384800477F
:10254000384800473848004738480047384800476F
:10255000384800473848004738480047384800475F
:10256000384800473848004738480047384800474F
:10257000384800473848004738480047384800473F
:10258000384800473848004738480047384800472F
:10259000384800473848004738480047384800471F
:1025A000384800473848004738480047384800470F
:1025B00038480047384800473848004738480047FF
:1025C00038480047384800473848004738480047EF
:1025D00038480047384800473848004738480047DF
:1025E0003848004738480047384800474984007059
:1025F0004B8400705384007057840070FD7000702D
:1026000081560070BD560070F95600703557007045
:1026100071570070AD570070E95700702558007071
:10262000615800709D580070D9580070155900709D
:10263000515900708D590070C9590070055A0070C9
:102640000525007045640070616400707D64007051
:1026500099640070B5640070D1640070ED6400701E
:1026600009650070F15F007001600070116000701A
:10267000216000705560007089600070BD6000705E
:10268000F1600070255B00705D5B0070F56E00709E
:102690007D6F00703D700070057000707570007087
:1026A000055C00700D5C007005250070052500704C
:1026B000A9700070C5700070055B00700525007082
:1026C000155B007005250070955B0070155C00704F
:1026D00081F0004102E000BF83F0004330B54FEAD3
:1026E00041044FEA430594EA050F08BF90EA020F40
:1026F0001FBF54EA000C55EA020C7FEA645C7FEAD3
:10270000655C00F0E2804FEA5454D4EB5555B8BFF5
:102710006D420CDD2C4480EA020281EA030382EA66
:10272000000083EA010180EA020281EA0303362DF8
:1027300088BF30BD11F0004F4FEA01314FF4801CCB
:102740004CEA113102D0404261EB410113F0004FDD
:102750004FEA03334CEA133302D0524263EB430394
:1027600094EA050F00F0A780A4F10104D5F1200E32
:102770000DDB02FA0EFC22FA05F2801841F100018D
:1027800003FA0EF2801843FA05F359410EE0A5F161
:1027900020050EF1200E012A03FA0EFC28BF4CF092
:1027A000020C43FA05F3C01851EBE37101F0004548
:1027B00007D54FF0000EDCF1000C7EEB00006EEB55
:1027C0000101B1F5801F1BD3B1F5001F0CD34908DF
:1027D0005FEA30004FEA3C0C04F101044FEA445236
:1027E00012F5800F80F09A80BCF1004F08BF5FEABD
:1027F000500C50F1000041EB045141EA050130BD9D
:102800005FEA4C0C404141EB0101013C28BFB1F5AE
:10281000801FE9D291F0000F04BF01460020B1FAF9
:1028200081F308BF2033A3F10B03B3F120020CDACC
:102830000C3208DD02F1140CC2F10C0201FA0CF0AA
:1028400021FA02F10CE002F11402D8BFC2F1200C0F
:1028500001FA02F120FA0CFCDCBF41EA0C019040C5
:10286000E41AA2BF01EB0451294330BD6FEA04040E
:102870001F3C1CDA0C340EDC04F11404C4F12002F9
:1028800020FA04F001FA02F340EA030021FA04F30B
:1028900045EA030130BDC4F10C04C4F1200220FA62
:1028A00002F001FA04F340EA0300294630BD21FAA0
:1028B00004F0294630BD94F0000F83F4801306BF66
:1028C00081F480110134013D4EE77FEA645C18BF5A
:1028D0007FEA655C29D094EA050F08BF90EA020FF1
:1028E00005D054EA000C04BF1946104630BD91EAE9
:1028F000030F1EBF0021002030BD5FEA545C05D1EC
:102900004000494128BF41F0004130BD14F580042A
:102910003CBF01F5801130BD01F0004545F0FE419E
:1029200041F470014FF0000030BD7FEA645C1ABFD3
:10293000194610467FEA655C1CBF0B46024650EA0A
:10294000013406BF52EA033591EA030F41F4002136
:1029500030BD00BF90F0000F04BF0021704730B5BC
:102960004FF4806404F132044FF000054FF0000191
:1029700050E700BF90F0000F04BF0021704730B552
:102980004FF4806404F1320410F0004548BF404227
:102990004FF000013EE700BF42004FEAE2014FEA7C
:1029A00031014FEA02701FBF12F07F4393F07F4F57
:1029B00081F06051704732F07F4208BF704793F05A
:1029C0007F4F04BF41F40021704730B54FF460746D
:1029D00001F0004521F000411CE700BF50EA010270
:1029E00008BF704730B54FF000050AE050EA010219
:1029F00008BF704730B511F0004502D5404261EB89
:102A000041014FF4806404F132045FEA915C3FF4C9
:102A1000D8AE4FF003025FEADC0C18BF03325FEA66
:102A2000DC0C18BF033202EBDC02C2F1200300FA17
:102A300003FC20FA02F001FA03FE40EA0E0021FA3C
:102A400002F11444BDE600BF70B54FF0FF0C4CF42A
:102A5000E06C1CEA11541DBF1CEA135594EA0C0FDC
:102A600095EA0C0F00F0DEF82C4481EA030621EA17
:102A70004C5123EA4C5350EA013518BF52EA033552
:102A800041F4801143F4801338D0A0FB02CE4FF004
:102A90000005E1FB02E506F00042E0FB03E54FF034
:102AA0000006E1FB03569CF0000F18BF4EF0010E2C
:102AB000A4F1FF04B6F5007F64F5407404D25FEA28
:102AC0004E0E6D4146EB060642EAC62141EA5551DB
:102AD0004FEAC52040EA5E504FEACE2EB4F1FD0C1D
:102AE00088BFBCF5E06F1ED8BEF1004F08BF5FEA9B
:102AF000500E50F1000041EB045170BD06F000464D
:102B000046EA010140EA020081EA0301B4EB5C04F9
:102B1000C2BFD4EB0C0541EA045170BD41F48011F1
:102B20004FF0000E013C00F3AB8014F1360FDEBF16
:102B3000002001F0004170BDC4F10004203C35DAF2
:102B40000C341BDC04F11404C4F1200500FA05F375
:102B500020FA04F001FA05F240EA020001F0004216
:102B600021F0004110EBD37021FA04F642EB06018C
:102B70005EEA430E08BF20EAD37070BDC4F10C04B6
:102B8000C4F1200500FA04F320FA05F001FA04F27A
:102B900040EA020001F0004110EBD37041F1000166
:102BA0005EEA430E08BF20EAD37070BDC4F1200571
:102BB00000FA05F24EEA020E20FA04F301FA05F2D9
:102BC00043EA020321FA04F001F0004121FA04F281
:102BD00020EA020000EBD3705EEA430E08BF20EA51
:102BE000D37070BD94F0000F0FD101F0004640008B
:102BF00041EB010111F4801F08BF013CF7D041EA0D
:102C0000060195F0000F18BF704703F00046520010
:102C100043EB030313F4801F08BF013DF7D043EAE1
:102C20000603704794EA0C0F0CEA135518BF95EA97
:102C30000C0F0CD050EA410618BF52EA4306D1D11E
:102C400081EA030101F000414FF0000070BD50EA3D
:102C5000410606BF1046194652EA430619D094EAC7
:102C60000C0F02D150EA013613D195EA0C0F05D1B1
:102C700052EA03361CBF104619460AD181EA030105
:102C800001F0004141F0FE4141F470014FF00000BD
:102C900070BD41F0FE4141F4780170BD70B54FF058
:102CA000FF0C4CF4E06C1CEA11541DBF1CEA1355D8
:102CB00094EA0C0F95EA0C0F00F0A7F8A4EB0504BA
:102CC00081EA030E52EA03354FEA013100F08880B1
:102CD0004FEA03334FF0805545EA131343EA12637A
:102CE0004FEA022245EA111545EA10654FEA00262F
:102CF0000EF000419D4208BF964244F1FD0404F5E8
:102D0000407402D25B084FEA3202B61A65EB030543
:102D10005B084FEA32024FF480104FF4002CB6EB00
:102D2000020E75EB030E22BFB61A754640EA0C0080
:102D30005B084FEA3202B6EB020E75EB030E22BFC0
:102D4000B61A754640EA5C005B084FEA3202B6EB01
:102D5000020E75EB030E22BFB61A754640EA9C00C0
:102D60005B084FEA3202B6EB020E75EB030E22BF90
:102D7000B61A754640EADC0055EA060E18D04FEA4E
:102D8000051545EA16754FEA06164FEAC30343EAEE
:102D900052734FEAC2025FEA1C1CC0D111F4801FBB
:102DA0000BD141EA00014FF000004FF0004CB6E7B4
:102DB00011F4801F04BF01430020B4F1FD0C88BF53
:102DC000BCF5E06F3FF6AFAEB5EB030C04BFB6EB5E
:102DD000020C5FEA500C50F1000041EB045170BD51
:102DE0000EF0004E4EEA113114EB5C04C2BFD4EB7E
:102DF0000C0541EA045170BD41F480114FF0000E02
:102E0000013C90E645EA060E8DE60CEA135594EA7D
:102E10000C0F08BF95EA0C0F3FF43BAF94EA0C0F80
:102E20000AD150EA01347FF434AF95EA0C0F7FF4F5
:102E300025AF104619462CE795EA0C0F06D152EA49
:102E400003353FF4FDAE1046194622E750EA41062D
:102E500018BF52EA43067FF4C5AE50EA41047FF43E
:102E60000DAF52EA43057FF4EBAE12E74FF0FF3CA3
:102E700006E000BF4FF0010C02E000BF4FF0010C74
:102E80004DF804CD4FEA410C7FEA6C5C4FEA430CED
:102E900018BF7FEA6C5C1BD001B050EA410C0CBF3C
:102EA00052EA430C91EA030F02BF90EA020F00209E
:102EB000704710F1000F91EA030F58BF994208BF05
:102EC00090422CBFD8176FEAE37040F001007047C2
:102ED0004FEA410C7FEA6C5C02D150EA013C07D119
:102EE0004FEA430C7FEA6C5CD6D152EA033CD3D064
:102EF0005DF8040B704700BF8446104662468C465E
:102F00001946634600E000BF01B5FFF7B7FF002890
:102F100048BF10F1000F01BD4DF808EDFFF7F4FFB9
:102F20000CBF012000205DF808FB00BF4DF808ED44
:102F3000FFF7EAFF34BF012000205DF808FB00BF67
:102F40004DF808EDFFF7E0FF94BF012000205DF889
:102F500008FB00BF4DF808EDFFF7CEFF94BF01203E
:102F600000205DF808FB00BF4DF808EDFFF7C4FF37
:102F700034BF012000205DF808FB00BF4FEA41028A
:102F800012F5001215D211D56FF47873B3EB6252BB
:102F900012D94FEAC12343F0004343EA505311F0E2
:102FA000004F23FA02F018BF404270474FF0000074
:102FB000704750EA013005D111F0004008BF6FF0B2
:102FC000004070474FF00000704700BF4FEA4102D9
:102FD000B2F1E04324BFB3F5001CDCF1FE5C0DD977
:102FE00001F0004C4FEAC0024CEA5070B2F1004FC1
:102FF00040EB830008BF20F00100704711F0804FC4
:1030000021D113F13872BCBF01F00040704741F488
:1030100080114FEA5252C2F11802C2F1200C10FA8C
:103020000CF320FA02F018BF40F001004FEAC12370
:103030004FEAD32303FA0CFC40EA0C0023FA02F314
:103040004FEA4303CCE77FEA625307D150EA0133EA
:103050001EBF4FF0FE4040F44000704701F00040BA
:1030600040F0FE4040F40000704700BF53B94AB939
:10307000002908BF00281CBF4FF0FF314FF0FF3080
:1030800000F06EB9ADF1080C6DE904CE00F006F861
:10309000DDF804E0DDE9022304B070472DE9F047D4
:1030A000089D04468C46002B40F083808A421746D8
:1030B00047D9B2FA82F242B1C2F1200024FA00F0FC
:1030C0009140974040EA010C94404FEA1748230C86
:1030D000BCFBF8F61FFA87FE08FB16C143EA014362
:1030E00006FB0EF1994209D9FB1806F1FF3080F07A
:1030F0001981994240F21681023E3B445B1AA4B208
:10310000B3FBF8F008FB103344EA034400FB0EFE67
:10311000A64509D93C1900F1FF3380F00581A64589
:1031200040F2028102383C4440EA0640A4EB0E041F
:1031300000261DB1D4400023C5E900433146BDE857
:10314000F08702B9FFDEB2FA82F2002A50D1CB1B1F
:103150004FEA174E1FFA87F80126B3FBFEFC210C3D
:103160000EFB1C3341EA034108FB0CF38B4207D9E9
:1031700079180CF1FF3002D28B4200F2E9808446CC
:10318000C91AA3B2B1FBFEF00EFB101143EA0144D1
:1031900008FB00F8A04507D93C1900F1FF3302D223
:1031A000A04500F2D9801846A4EB080440EA0C4080
:1031B000BFE78B4209D9002D00F0B1800026C5E998
:1031C000000130463146BDE8F087B3FA83F6002EA1
:1031D0004AD18B4202D3824200F2B880841A61EB5A
:1031E000030101208C46002DA8D0C5E9004CA5E7BD
:1031F000C2F1200320FA03F6974001FA02F04FEAE9
:10320000174ED9403043030CB1FBFEF61FFA87F886
:103210000EFB161143EA014306FB08F1994204FA3A
:1032200002F409D9FB1806F1FF3C80F08D80994229
:1032300040F28A80023E3B445B1A81B2B3FBFEF04F
:103240000EFB103341EA034100FB08F38B4207D920
:10325000791800F1FF3C73D28B4271D9023839449E
:10326000CB1A40EA064678E7C6F1200C03FA06F4CA
:1032700022FA0CF31C4320FA0CF701FA06F34FEA8A
:10328000144E21FA0CF11F433B0CB1FBFEF91FFA5F
:1032900084F80EFB191143EA014109FB08FA8A453B
:1032A00002FA06F200FA06F308D9611809F1FF30B4
:1032B00048D28A4546D9A9F102092144A1EB0A0165
:1032C000BFB2B1FBFEF00EFB101147EA014700FB55
:1032D00008F8B84507D9E71900F1FF312ED2B845F3
:1032E0002CD90238274440EA0940A7EB0807A0FB85
:1032F00002894F45C64649461AD317D05DB1B3EB94
:103300000E0267EB010707FA0CFCF2404CEA0202DE
:10331000F740C5E9002700263146BDE8F0872E4674
:1033200028460BE70646E9E61846FDE64345E5D2A2
:10333000B8EB020E69EB04010138DFE70846D2E77B
:1033400060468DE78146B9E7664675E730464AE74D
:10335000ACF1020C394413E702383C4424E700BFC7
:10336000704700BF844641EA000313F003036DD1A8
:10337000403A41D351F8043B40F8043B51F8043B38
:1033800040F8043B51F8043B40F8043B51F8043B3F
:1033900040F8043B51F8043B40F8043B51F8043B2F
:1033A00040F8043B51F8043B40F8043B51F8043B1F
:1033B00040F8043B51F8043B40F8043B51F8043B0F
:1033C00040F8043B51F8043B40F8043B51F8043BFF
:1033D00040F8043B51F8043B40F8043B51F8043BEF
:1033E00040F8043B51F8043B40F8043B51F8043BDF
:1033F00040F8043B403ABDD2303211D351F8043B7F
:1034000040F8043B51F8043B40F8043B51F8043BBE
:1034100040F8043B51F8043B40F8043B103AEDD22D
:103420000C3205D351F8043B40F8043B043AF9D27E
:10343000043208D0D2071CBF11F8013B00F8013B51
:1034400001D30B8803806046704700BF082A13D35E
:103450008B078DD010F003038AD0C3F10403D21A76
:10346000DB071CBF11F8013B00F8013B80D331F8AA
:10347000023B20F8023B7BE7043AD9D3013A11F82A
:10348000013B00F8013BF9D20B7803704B78437095
:103490008B78837060467047F0B587B000242FE0CA
:1034A0000421012005F09AF8614D25F8140002214D
:1034B000012005F093F804F10A0325F81300032115
:1034C000012005F08BF804F1140325F81300012105
:1034D000084605F083F804F11E0325F813000521C2
:1034E000012005F07BF804F1280325F813000621DC
:1034F000012005F073F804F1320325F813000134BC
:10350000092CCDDD002325E00246C6F109019142D8
:103510001ADD474C03EB830102EB410134F81150F3
:10352000501C03EB830100EB410134F811108D4274
:10353000EAD903EB830702EB470224F8121000EBF1
:10354000470224F81250DFE70136092E01DC002281
:10355000DBE70133052B01DC0026F6E700210391B0
:103560000491059112E001EB810203EB4202304825
:1035700030F8122006A800EB410030F80C4C224431
:1035800020F80C2C0133072BEDDD0131052901DC7E
:103590000223F8E700220092019202920BE006ABB0
:1035A00003EB420131F80C3C2248A0FB03039B08CB
:1035B00021F8183C0132052AF1DD002315E006AAA6
:1035C00002EB430232F8182C07EE902AF8EE677AE5
:1035D000194A02EB830292ED007A77EEC77A174A16
:1035E00002EB8302C2ED007A0133052BE7DD0023F5
:1035F00019E0124A02EB8302D2ED006A104901EB96
:10360000830191ED007A0C4901EB8301D1ED007A41
:1036100037EE677AC6EE877A9FED0A7A67EE877A89
:10362000C2ED007A0133052BE3DD07B0F0BD00BF2A
:1036300034050020ABAAAAAA000000201C05002027
:10364000180000200000C84238B52DED028B384B21
:1036500093ED017A93ED048A77EE087AF5EEC07A5D
:10366000F1EE10FA18DD9FED337AF4EEC77AF1EE41
:1036700010FAACBF012400244CB32F4B4FF07E5204
:103680001A605A609A60DA601A615A612B4B012203
:103690001A80BDEC028B38BD17EE100AFFF77CF9DB
:1036A00004460D4618EE100AFFF776F902460B465F
:1036B00020462946FFF710F84FF001040022204B66
:1036C000FFF748FC08B94FF00004E4B2D4E71D4B03
:1036D0001B78DBB1022B0DD0012BDAD1164B4FF04A
:1036E0007E521A605A609A604FF07D51D96019611C
:1036F0005A61CEE7104B4FF07E521A604FF07D5169
:1037000059609960DA601A615A61C2E70A4B4FF05A
:103710007E521A605A609A60DA601A615A61002318
:10372000064A1380074A1370074A1380B1E700BFA7
:103730001C0500200000C442AC050020C405002088
:1037400000805840CC050020C605002010B52DEDA6
:10375000048BFFF779FF0023052B0FDC554A02EBA2
:10376000830292ED007A544A02EB8302D2ED007A92
:1037700067EE877AC2ED007A0133EDE74E4C94EDA7
:10378000010A20EE000AD4ED027A67EEA77A30EE45
:10379000270AD4ED007A67EEA77A30EE270A01F007
:1037A000A7F8B0EE408A94ED030A20EE000AD4EDAB
:1037B000047A67EEA77A30EE270AD4ED057A67EE31
:1037C000A77A30EE270A01F093F8B0EE409AB0EEF7
:1037D000480A01F08DF8F0EE408AB0EE490A01F097
:1037E00087F878EEC08A38EE098AC8EE887A9FEDAD
:1037F000337A67EE877A324BC3ED007A94ED017A23
:10380000F0EE087AB4EEE77AF1EE10FA31D594EDE5
:10381000027AB4EEE77AF1EE10FA2AD594ED037A43
:10382000B4EEE77AF1EE10FA23D594ED047AB4EE13
:10383000E77AF1EE10FA1CD594ED007AB4EEE77A4F
:10384000F1EE10FA15D594ED057AB4EEE77AF1EEC3
:1038500010FA0ED51B4B1B68D3ED067AF1EE677A92
:10386000F5EEC07AF1EE10FA16DD154B4FF08342FB
:103870001A60154BB3F9003093B1114BD3ED007AB8
:103880009FED127A67EE877AC3ED007A0C4B93EDC9
:10389000000ABDEC048B10BD094B0D4A1A60E8E725
:1038A000074BD3ED007AB7EE087A67EE877AC3ED5F
:1038B000007AEBE7AC0500201C0500200000C842A0
:1038C0001805002058000020C405002000007042A8
:1038D000000080C108B55E2004F0E4FE08B90120B4
:1038E00008BD5D2004F0DEFE58B15C2004F0DAFE75
:1038F00048B15B2004F0D6FE08B10020F0E70420B8
:10390000EEE70220ECE70320EAE710B5532004F0CD
:10391000C9FE0446542004F0C5FE0346012C14BF22
:103920000022012200280CBF1046002060B9012BA4
:1039300014BF00230123002C0CBF1C4600242CB90B
:103940001A4202D0112000E0012010BD1020FCE737
:1039500038B5FFF7DAFF0446FFF7BCFF0546012C38
:1039600000F08D80112C00F0738104B138BD00206F
:1039700008F082FDA34A0021084608F02BFEA24C65
:103980002068FFF709F80223052241EC100B002103
:10399000322008F071FE9D4A0121002008F01AFE35
:1039A0006068FEF7F9FF0223052241EC100B0121AC
:1039B000322008F061FE964A0221002008F00AFE3B
:1039C000A068FEF7E9FF0223052241EC100B19461F
:1039D000322008F051FE8F4A0321002008F0FAFD42
:1039E000E068FEF7D9FF0223052241EC100B03210A
:1039F000322008F041FE884A0421002008F0EAFD48
:103A00002069FEF7C9FF0223052241EC100B0421B7
:103A1000322008F031FE814A0521002008F0DAFD4D
:103A20006069FEF7B9FF0223052241EC100B114635
:103A3000322008F021FE7A4A0621002008F0CAFD53
:103A4000784B1B68186AFEF7A7FF0223052241EC9A
:103A5000100B0621322008F00FFE734A07210020C8
:103A600008F0B8FD714B1888FEF774FF0223052299
:103A700041EC100B0721322008F0FEFD76E7002014
:103A800008F0FAFC6A4A0021084608F0A3FD654CDC
:103A900023681868FEF780FF0223052241EC100B13
:103AA0000021322008F0E8FD624A0121002008F0E0
:103AB00091FD23685868FEF76FFF0223052241EC51
:103AC000100B0121322008F0D7FD5B4A02210020B3
:103AD00008F080FD23689868FEF75EFF0223052248
:103AE00041EC100B1946322008F0C6FD4C4A032168
:103AF000002008F06FFD2368186AFEF74DFF0223CF
:103B0000052241EC100B0321322008F0B5FD4B4A91
:103B10000421002008F05EFD444B1888FEF71AFFD0
:103B20000223052241EC100B0421322008F0A4FDF1
:103B3000434A0521002008F04DFD424BB3F9000037
:103B4000FEF718FF0223052241EC100B114632202C
:103B500008F092FD3C4A0621002008F03BFD236856
:103B6000D3ED0C7AF5EEC07AF1EE10FA13DD17EE14
:103B7000900AFEF711FF41EC100B022305220621EB
:103B8000322008F079FD681E03283FF6EFAEDFE82B
:103B900000F00D18232E17EE900AFEF7FDFE00EE42
:103BA000100A01F1004300EE903AE6E71D4B1B6856
:103BB000D3ED007A9FED257A77EE877AC3ED007A10
:103BC000D4E6184B1B68D3ED007A9FED207A77EE90
:103BD000C77AC3ED007AC9E6124B1B68D3ED017AB0
:103BE0009FED1A7A77EE877AC3ED017ABEE60D4B28
:103BF0001B68D3ED017A9FED157A77EEC77AC3ED96
:103C0000017AB3E6E8C900701C050020F0C9007015
:103C1000F8C9007000CA007008CA007010CA0070AD
:103C200018CA00705800002028CA00703A0000200E
:103C300038CA007044CA007050CA00705CCA007074
:103C400068CA0070C405002070CA00700AD7233CFF
:103C5000002008F011FC424A0021084608F0BAFC96
:103C6000404A0121002008F0B5FC3F4BB3F9002089
:103C70000021322008F0DEFC3C4BB3F9002001218A
:103C8000322008F0D7FC3A4A0221002008F0A2FCBA
:103C9000384A0321002008F09DFC374BB3F900207F
:103CA0000221322008F0C6FC344BB3F90020032176
:103CB000322008F0BFFC324A0421002008F08AFCC0
:103CC000304C2368186AFEF767FE0223052241EC98
:103CD000100B0421322008F0CFFC2B4A05210020D4
:103CE00008F078FC294BB3F90000FEF743FE0223ED
:103CF000052241EC100B1146322008F0BDFC244A8D
:103D00000621002008F066FC2368D3ED0C7AF5EE5E
:103D1000C07AF1EE10FA14DD17EE900AFEF73CFEC1
:103D200041EC100B022305220621322008F0A4FCEE
:103D3000012D11D0022D7FF419AE144B00221A80F0
:103D400014E617EE900AFEF727FE00EE100A01F1C6
:103D5000004300EE903AE5E70C4B01221A8005E69D
:103D60007CCA007084CA007030000020320000203D
:103D70008CCA007098CA0070C8050020CA050020CF
:103D8000A4CA007058000020ACCA007034000020A3
:103D900070CA007010B40B4C84628C624FF0745483
:103DA000DC60D4604FF07F54046000224260064B18
:103DB00083600C604A608B60044B43624B625DF829
:103DC000044B704700401C460000204000007A442D
:103DD0002DE9F0472DED028B04460D4617461E4691
:103DE000D0ED088AF5EEC08AF1EE10FA78DD764B58
:103DF0001B6893ED088AB5EEC08AF1EE10FA7ADD01
:103E0000724B1B78042B00F08180DFED717AF4EEA9
:103E1000E78AF1EE10FA00F2868018EE900AFEF7BB
:103E2000BBFD8046894664A3D3E90023FEF70CFE60
:103E30000022684BFEF752FCFFF7C8F820604FF0F5
:103E4000000AC4F804A0C4F808A05DA3D3E90023C5
:103E500040464946FEF7F8FD00225F4BFEF73EFC68
:103E6000FFF7B4F82860C5F804A0C5F808A04123FE
:103E70005A4A13805A4A1380F0EE047AB4EEE78A65
:103E8000F1EE10FA40F2BB8007DDF1EE0A7AB4EEF3
:103E9000E78AF1EE10FA40F2B280F1EE0A7AB4EE5F
:103EA000E78AF1EE10FA07DDF2EE037AB4EEE78A64
:103EB000F1EE10FA40F2A380F2EE037AB4EEE78A54
:103EC000F1EE10FA39DDF2EE097AB4EEE78AF1EE9E
:103ED00010FA32D83C23424A1380404A13808EE0C5
:103EE00018EE900AFEF758FD01F10041FFF76EF859
:103EF00008EE900A7BE718EE100AFEF74DFD01F17F
:103F00000041FFF763F808EE100A79E700217520F9
:103F100007F0DAFC0021482007F0D6FC40F6EA3032
:103F200008F056F871E72F4B236000236360A3600D
:103F30002D4A2A606B60AB6099E7F2EE097AB4EE25
:103F4000E78AF1EE10FA0CDDF2EE0F7AB4EEE78AB2
:103F5000F1EE10FA05D83723214A13801F4A138047
:103F60004DE0F2EE0F7AB4EEE78AF1EE10FA0CDDD6
:103F7000DFED1E7AB4EEE78AF1EE10FA05D83723AA
:103F8000174A1380154A138039E0DFED187AB4EE32
:103F9000E78AF1EE10FA2DDDDFED157AB4EEE78A4F
:103FA000F1EE10FA26D837230D4A13800B4A1380FE
:103FB00025E000BFAFF30080333333333333C33FE7
:103FC000EC51B81E85EBC13F58000020CC05002005
:103FD0000000A0420000084000000C403800002013
:103FE000360000200000704133336B4100009441E3
:103FF0000000AC413223BA4A1380BA4A1380F0EE73
:10400000047AB4EEE78AF1EE10FA00F2E580B64BDE
:104010001B68D3ED087AF5EEC07AF1EE10FA40F3A2
:10402000C480AF4B1B8807EE903AF8EE677AC4ED78
:10403000097AAC4B1B8807EE903AF8EE677AC5ED2B
:10404000097AAA4BB3F900308BB1A54B1B881E3BF4
:1040500007EE903AF8EEE77AC4ED097AA14B1B8897
:104060001E3307EE903AF8EEE77AC5ED097AD4ED03
:10407000097AF5EEC07AF1EE10FA40F2C982D5ED78
:10408000097AF5EEC07AF1EE10FA40F2C482984B4C
:10409000B3F9003007EE903AF8EEE77AC4ED087A0B
:1040A000944BB3F9003007EE903AF8EEE77AC5ED9D
:1040B000087A3946204600F03EFBBDEEC00A8E4C21
:1040C000228810EE103A12FA83F2228031462846F6
:1040D00000F031FBFDEEC07A17EE903A874A118866
:1040E00011FA83F39BB21380218844F62062914237
:1040F00002D944F6206121807F4A118840F6B73208
:10410000914203D87C4A40F6B831118044F62062CF
:10411000934201D9794B1A80784B1A8840F6B7330D
:104120009A4203D8754B40F6B8321A80744B93ED1F
:10413000017AF0EE087AB4EEE77AF1EE10FA23D5C0
:1041400093ED027AB4EEE77AF1EE10FA1CD593ED16
:10415000037AB4EEE77AF1EE10FA15D593ED047A0E
:10416000B4EEE77AF1EE10FA0ED593ED007AB4EEE4
:10417000E77AF1EE10FA07D593ED057AB4EEE77A17
:10418000F1EE10FA00F14A825B4B1988752007F0B6
:104190009BFB5A4B1988482007F096FB594B00228D
:1041A0001A80BDEC028BBDE8F087F5EEC07AF1EE27
:1041B00010FA7FF546AF4A4B1B8807EE903AF8EEAF
:1041C000677AC4ED097A474B1B8807EE903AF8EE00
:1041D000677AC5ED097A34E7F0EE047AB4EEE78A3F
:1041E000F1EE10FA39DDF1EE0A7AB4EEE78AF1EE7B
:1041F00010FA32D83C4B1B68D3ED087AF5EEC07A42
:10420000F1EE10FA11DD364B1B8807EE903AF8EE0E
:10421000677AC4ED097A334B1B880A3B07EE903A64
:10422000F8EEE77AC5ED097A0BE7F5EEC07AF1EE24
:1042300010FA7FF506AF2A4B1B880A3B07EE903A2F
:10424000F8EEE77AC4ED097A264B1B8807EE903A20
:10425000F8EE677AC5ED097AF3E6F1EE0A7AB4EE84
:10426000E78AF1EE10FA4FDDF2EE037AB4EEE78A58
:10427000F1EE10FA48D81C4B1B68D3ED087AF5EE26
:10428000C07AF1EE10FA12DD154B1B880A3307EEE7
:10429000903AF8EEE77AC4ED097A124B1B880A3B94
:1042A00007EE903AF8EEE77AC5ED097AC9E6F5EE41
:1042B000C07AF1EE10FA7FF5C4AE094B1B880A3BB9
:1042C00007EE903AF8EEE77AC4ED097A054B1B88C1
:1042D0000A3307EE903AF8EEE77AC5ED097AB0E6D0
:1042E000360000203800002058000020C4050020BF
:1042F000C8050020CA050020300000203200002040
:104300001C05002034000020F2EE037AB4EEE78AA8
:10431000F1EE10FA3BDDF2EE097AB4EEE78AF1EE47
:1043200010FA34D8C24B1B68D3ED087AF5EEC07A88
:10433000F1EE10FA12DDBF4B1B880A3307EE903AFC
:10434000F8EEE77AC4ED097ABB4B1B88143B07EE05
:10435000903AF8EEE77AC5ED097A72E6F5EEC07AA2
:10436000F1EE10FA7FF56DAEB24B1B88143B07EEF1
:10437000903AF8EEE77AC4ED097AAF4B1B880A331E
:1043800007EE903AF8EEE77AC5ED097A59E6F2EED3
:10439000097AB4EEE78AF1EE10FA3BDDF2EE0F7A1D
:1043A000B4EEE78AF1EE10FA34D8A14B1B68D3EDD6
:1043B000087AF5EEC07AF1EE10FA12DD9D4B1B88FB
:1043C000143307EE903AF8EEE77AC4ED097A9A4B87
:1043D0001B88143B07EE903AF8EEE77AC5ED097AB0
:1043E0002FE6F5EEC07AF1EE10FA7FF52AAE914B8A
:1043F0001B88143B07EE903AF8EEE77AC4ED097A91
:104400008D4B1B88143307EE903AF8EEE77AC5ED32
:10441000097A16E6F2EE0F7AB4EEE78AF1EE10FAB8
:104420003BDDDFED867AB4EEE78AF1EE10FA34D8A0
:104430007F4B1B68D3ED087AF5EEC07AF1EE10FAE7
:1044400012DD7C4B1B881E3307EE903AF8EEE77ABC
:10445000C4ED097A784B1B88143B07EE903AF8EECE
:10446000E77AC5ED097AECE5F5EEC07AF1EE10FADF
:104470007FF5E7AD6F4B1B88143B07EE903AF8EEE3
:10448000E77AC4ED097A6C4B1B881E3307EE903A2D
:10449000F8EEE77AC5ED097AD3E5DFED687AB4EE98
:1044A000E78AF1EE10FA3BDDDFED657AB4EEE78ADC
:1044B000F1EE10FA34D85E4B1B68D3ED087AF5EEB6
:1044C000C07AF1EE10FA12DD5A4B1B881E3307EE4C
:1044D000903AF8EEE77AC4ED097A574B1B881E3BF9
:1044E00007EE903AF8EEE77AC5ED097AA9E5F5EE20
:1044F000C07AF1EE10FA7FF5A4AD4E4B1B881E3B3F
:1045000007EE903AF8EEE77AC4ED097A4A4B1B8839
:104510001E3307EE903AF8EEE77AC5ED097A90E59A
:10452000DFED477AB4EEE78AF1EE10FA3BD5DFED26
:10453000457AB4EEE78AF1EE10FA34D83C4B1B68AA
:10454000D3ED087AF5EEC07AF1EE10FA12DD394BB0
:104550001B88283307EE903AF8EEE77AC4ED097A23
:10456000354B1B881E3B07EE903AF8EEE77AC5ED17
:10457000097A66E5F5EEC07AF1EE10FA7FF561ADE5
:104580002C4B1B881E3B07EE903AF8EEE77AC4ED01
:10459000097A294B1B88283307EE903AF8EEE77A20
:1045A000C5ED097A4DE5224B1B68D3ED087AF5EE8F
:1045B000C07AF1EE10FA12DD1E4B1B88283307EE8D
:1045C000903AF8EEE77AC4ED097A1B4B1B88283B3A
:1045D00007EE903AF8EEE77AC5ED097A31E5F5EEA7
:1045E000C07AF1EE10FA7FF52CAD124B1B88283BF8
:1045F00007EE903AF8EEE77AC4ED097A0E4B1B8885
:10460000283307EE903AF8EEE77AC5ED097A18E517
:104610000023636233E500236B6238E500217520D7
:1046200007F052F90021482007F04EF9B9E500BF24
:10463000580000203600002038000020000094417F
:104640000000AC410000C44108B540F6D8615020DC
:1046500007F03AF9054B1988752007F035F9044B36
:104660001988482007F030F908BD00BF300000204D
:104670003200002038B5204D2B684FF07A52DA60B6
:104680001E4C23684FF07852DA602A21032007F08D
:104690002FFC07EE900A2B68F8EEE77AC3ED027A5A
:1046A0000C21012007F024FC4042236807EE900A09
:1046B000F8EEE77AC3ED027A0C21012007F030FC16
:1046C0002A21032007F02CFC286800F01FF8BDEE1B
:1046D000C00A0B4B10EE102A1A80206800F016F862
:1046E000DFED087A20EE270ABDEEC00A064B10EE79
:1046F000102A1A8038BD00BF3C0000204000002076
:10470000C805002017D90E3FCA05002090ED037A96
:1047100090ED020A27EE000AF7EE007A77EEC77AEC
:1047200090ED017A67EE877A30EE270A80ED000A75
:1047300080ED010A70472DE9F0412DED028B044612
:104740000D46D0ED098AD0ED087A78EEE78AC0ED03
:10475000038AC0ED058A90ED048A38EE888AF6EE69
:10476000007A28EE278AD0ED0B7A38EE278A80ED82
:104770000B8AB5EEC08AF1EE10FA3FDD18EE100A92
:10478000FEF70AF906460F46D4F828804046FEF7A1
:1047900003F932463B46FEF7C9FB30B1B5EEC08A9D
:1047A000F1EE10FA32DDC4F82C80C5ED028A2846FD
:1047B000FFF7ACFF84ED050AD4ED067A70EE677A58
:1047C000C4ED0C7A84ED060A94ED000A94ED037AA8
:1047D00020EE070A94ED017AD4ED0B6A27EE267AD3
:1047E00030EE070A94ED027A67EE877A30EE270AF8
:1047F00084ED070ABDEC028BBDE8F08118EE100ACB
:10480000FEF7CAF8064601F10047BDE707EE908AB9
:10481000F1EE677AC4ED0B7AC7E70000074B40F66C
:1048200066521A80064B0360002343608360054A8A
:10483000826243624FF07A53CB6070473A000020A7
:1048400033330F410000C84238B504460D46FEF729
:104850007DFF84ED080AB5EEC00AF1EE10FA2DDDF9
:10486000FDEEC07A17EE903A1BB207EE903AF8EEE2
:10487000E77A9FED1D0A67EE807AB2EE0A7A77EE4C
:10488000877AC4ED007A29462046FFF754FFBDEE33
:10489000C00A10EE103A9BB203F666539BB2134A5D
:1048A0001380B3F5706F15D913464FF470621A80F8
:1048B0000E4B1988502007F007F838BD10EE100A8B
:1048C000FEF76AF801F10041FEF758FB03B207EE6C
:1048D000903ACCE740F6C1329342E9D8034B40F618
:1048E000C2321A80E4E700BF9A99593F3A0000208B
:1048F00010EE102A064B13445B0807EE903A80EE48
:10490000277A77EE877AB6EE000A27EE800A70479C
:1049100062CF763F08B500F017FEBFF34F8F08BD9A
:1049200008B52D4BD3F80C3113F0010F1DD02B4BD4
:10493000B3F90030002B39D0FEF7AEFD284BD3ED94
:10494000017A93ED047A77EE877AB3EE0E7AF4EE7D
:10495000C77AF1EE10FA02DB204B00221A80FFF733
:1049600073FE1D4B0122C3F80C211B4BD3F81C31E5
:1049700013F0010F03D0184B0122C3F81C21164B72
:10498000D3F82C3113F0010F03D0134B0122C3F8DD
:104990002C21114BD3F83C3113F0010F03D00E4BF7
:1049A0000122C3F83C21BFF34F8F08BDFEF774FD11
:1049B0000C4B19680C4B1868FFF746FFFFF75AFEBF
:1049C0000A4B1B680A4A12680A4909680A480068C3
:1049D000FFF7FEF9C5E700BF0040084034000020A3
:1049E0001C05002054000020580000204C0000202E
:1049F00044000020500000204800002008B5EFF3DC
:104A0000108372B602F0D8FF02220421012003F0C5
:104A1000BDFD02221146012003F0B8FD0222032150
:104A2000012003F0B3FD02220121084603F0AEFD90
:104A300002220521012003F0A9FD02220621012006
:104A400003F0A4FD40F6D8623221502006F066FE45
:104A5000002243F2C821752006F060FE002243F2D6
:104A6000C821482006F05AFE002243F2C8217020D7
:104A700006F054FE002243F2C8214D2006F04EFEFF
:104A800000227D21282006F049FE0F220C21012062
:104A900007F0E6F92D222A21032007F0E1F947F279
:104AA0004803012200215E2003F0B4FD47F24803D1
:104AB000012200215D2003F0ADFD47F248030122F1
:104AC00000215C2003F0A6FD47F2480301220021EB
:104AD0005B2003F09FFD47F248030022114653205C
:104AE00003F098FD47F2480300221146542003F0DA
:104AF00091FD07F0DFFC47F248030122114629200F
:104B000003F088FD22231F224FF41651082007F0DE
:104B1000D5FB06F061FB042000F06AFC8400850FE1
:104B20004FF47A720023201845F10001FEF79EFA37
:104B30000146002006F066FB104B102283F87A2312
:104B40000F4B1B680F4A12680F4909680F4800682D
:104B5000FFF720F90E4B19680E4B1868FFF75EFE41
:104B60004FF4967007F034FA002383F31088FEF7B1
:104B7000EFFE322007F02CFAF9E700BF00E100E079
:104B8000440000204C00002050000020480000207D
:104B900054000020580000207047000010B5454A1E
:104BA000D2F8883043F47003C2F88830424A13893F
:104BB0009BB223F001039BB2138140490B899BB246
:104BC00023F001039BB20B81138813F0040F05D06F
:104BD00013889BB223F004039BB21380374B1B88CE
:104BE00013F0040F06D0354A13889BB223F0040358
:104BF0009BB21380324A334B53604FF6FF7393607E
:104C0000136823F0A00343F0200313602E4B1B68AE
:104C100013F0010F04D02C4A136823F00103136032
:104C2000244B5B6913F4003F13D1BFF34F8FBFF3E5
:104C30006F8F204B0022C3F85022BFF34F8FBFF37A
:104C40006F8F5A6942F400325A61BFF34F8FBFF33E
:104C50006F8F184B5B6913F4803F02D0FFF79CFF06
:104C600010BD144B0022C3F88420BFF34F8FD3F83C
:104C70008040C4F34E3100E01946C4F3C90243F644
:104C8000E07303EA411343EA82730A48C0F86032D2
:104C90001346013A002BF2D14B1E0029ECD1BFF391
:104CA0004F8F436943F480334361BFF34F8FBFF3AA
:104CB0006F8FD3E700ED00E000800B4000000D4057
:104CC00000C00B4020C528D910E000E008B503461D
:104CD000002000E00130022804D8074A52F82020C2
:104CE0009A42F7D1022800D808BD044B044A352166
:104CF000044802F043FD00BF4CCC0070B4CA007001
:104D000000CC0070D8CA007070B500294FD005469D
:104D10000C46FFF7DBFF2C4B33F91010080A01F0AB
:104D20001F06B1F5006F48D2284951F82030032200
:104D3000B24023EA0203134341F82030696C01F4C6
:104D40006041A379DB0203F4C053E279120202F45A
:104D500040721343227A02F003021343627A520133
:104D600002F060021343A27A920002F00C02134395
:104D70000B4322780AB143F4803322790AB143F01D
:104D80001003E2780AB143F08003A2780AB143F439
:104D900080636B64AB6C23F0410362780AB143F02B
:104DA000400362790AB143F00103AB6470BD084B64
:104DB000084A4221084802F0E1FC084B084A4FF437
:104DC0007571084802F0DAFC58CC007068C00F40DA
:104DD00044CB007010CC0070D8CA007054CB007067
:104DE000ECCB007060CB007008B578B10122427145
:104DF0000022027042708270C27002718271C271B0
:104E00000321017242720222827208BD024B034AE0
:104E10009021034802F0B2FC44CB00701CCC00701F
:104E2000D8CA007010B55AB107290FD8136803F01B
:104E30001F0312790AB143F0800340F8213010BDFE
:104E4000054B064ABF21064802F098FC054B034A71
:104E5000C021034802F092FC44CB007034CC0070B7
:104E6000D8CA0070D0CB00700346426C12F4005FC9
:104E700014D0426C22F40052426401210222DA640E
:104E80009A6C42F080029A649A6C12F0800F07D0FC
:104E9000DA6C12F0020FF7D0012002E00021EDE7FA
:104EA00000201A6A12F0010F00D10120DA6C12F012
:104EB000020F00D001205A6A19B15A6C42F4005214
:104EC0005A64704708B5D8B9104B4FF08042C3F808
:104ED00058210E4BD3F8703213F4803FF9D00B4BAE
:104EE0004FF48032C3F85421084BD3F8503113F4F7
:104EF000004FF9D0054B4FF48032C3F8582108BD5C
:104F0000034B044A9A21044802F038FC00800D400B
:104F100060CC0070E0CC007070CC007020B9054B04
:104F20001022C3F874227047024B1022C3F8782273
:104F3000704700BF00800D40034AD2F8703243F042
:104F40000103C2F87032704700800D400F490B68B2
:104F500023F4E0330279920392B2134343F4803393
:104F60000B600A680A4B1340026802F07F02134389
:104F700043F400530B60054B1B68002BFBDA034A1C
:104F8000136823F480331360704700BF00800D4026
:104F900080CFFFFF014B00221A62704700800D4056
:104FA000024B4FF480521A67704700BF00800D40DB
:104FB000024B4FF48052C3F8A020704700800D4090
:104FC000024B4FF48052C3F8E020704700800D4040
:104FD00070B584B004467A4B0FCB04AD05E90F00E1
:104FE000C4F30B41774A8D5804F01F00012383401E
:104FF0001D401ED08B5813F4404F07D1D2F87032A9
:1050000013F0100F18D1704B1D6800E000258B586D
:1050100013F480330DD16D4A94425ED00ED96C4AA0
:10502000944200F0B58036D96A4A944240F0C58077
:10503000694D284604B070BD684DE8E7A2F5A002AE
:10504000944200F0AF8013D9654A944221D15D4C5F
:10505000206D226E0023A5FB0001FEF707F8236BED
:1050600013F0010F33D0162303FB05F50544E0E7E9
:105070000D2C24D0A2F58012944208D1514B1B690B
:1050800013F0020F27D0162303FB05F5D1E71D46C9
:10509000CFE71D46CDE7534A94424DD002F580023A
:1050A00094420AD1474BD3F8E03003F0030304AA3B
:1050B00002EB830353F8105CBBE71D46B9E7414B95
:1050C0001B6803F07F0305FB03F56D08B1E705EBF3
:1050D0008505AD00CAE71423D6E73A4C266F06F0E3
:1050E0007F06D4F88000D4F890200023A5FB0001AF
:1050F000FDF7BCFF05FB0605236F13F4C01315D0A5
:10510000B3F5002F14D02F4BD3F8703123F07F4329
:1051100023F4FE0323F4FF4323F07F03B3F5004F92
:1051200008D0314A934284D1AD0882E7AD08EAE75E
:105130006D08E8E76D087CE7224CD4F8A06006F023
:105140007F06D4F8B000D4F8C0200023A5FB0001EE
:10515000FDF78CFF05FB0605D4F8A03013F4C0134F
:1051600010D0B3F5002F0FD0164BD3F8703103F0E9
:105170004043B3F1804F09D0B3F1404F7FF459AFB2
:10518000AD0856E7AD08EFE76D08EDE76D0850E7AD
:105190000C4BD3F8E03003F00C0304AA134453F88B
:1051A000105C46E7074B1B6A13F0020F03D016236F
:1051B00003FB05F53DE71423FAE71D4639E700BF79
:1051C000D8C9007000800D40C00600200D0070009E
:1051D0001400E0001500E00040787D0100366E010B
:1051E0000D0030000D00A0000080800010B50446C6
:1051F0001648FFF7EDFE032C26D8DFE804F0020D79
:10520000151D134BD3F8003103F03F03B0FBF3F04F
:1052100000EBC000400010BD0D4BD3F80031C3F3CC
:105220000523B0FBF3F0F3E7094BD3F80031C3F3E8
:105230000543B0FBF3F0EBE7054BD3F80031C3F3C4
:105240000563B0FBF3F0E3E70020E1E70D00300079
:1052500000800D4008B5284B586910F0007025D02B
:105260009B6903F44053B3F5805F10D0B3F5005F42
:1052700016D043B10020204B5B69C3F3C2630133F6
:10528000B0FBF3F008BD1D48FFF7A2FEF3E71C4B8F
:10529000D3F8703213F0100F06D11A4B1868EAE7F2
:1052A0001948FFF795FEE6E71848E4E7124B9B69BB
:1052B00003F44023B3F5002F1AD007D8A3B1B3F5F8
:1052C000802FDFD10220FFF791FFDBE7B3F5402FFE
:1052D000D8D10D20FFF77CFE074B1B6903F00703B5
:1052E0000133B0FBF3F0CDE70748FFF771FEC9E7E4
:1052F0000020FFF77BFFC5E700C00F400D00100046
:1053000000800D40C00600200D00300000366E0108
:1053100008B5FFF79FFF044B5B69C3F3822301339A
:10532000B0FBF3F008BD00BF00C00F4008B5FFF7A9
:10533000EFFF044B5B69C3F301230133B0FBF3F0D0
:1053400008BD00BF00C00F4010B504461648FFF767
:105350003FFE032C26D8DFE804F0020D151D134B89
:10536000D3F8F03003F03F03B0FBF3F000EBC000E4
:10537000400010BD0D4BD3F8F030C3F30523B0FB54
:10538000F3F0F3E7094BD3F8F030C3F30543B0FB78
:10539000F3F0EBE7054BD3F8F030C3F30563B0FB54
:1053A000F3F0E3E70020E1E70D00100000800D407E
:1053B00008B50E4B5B6913F0400F13D00B4B5B69C4
:1053C00013F0800F0AD00120FFF7BEFF074B5B6987
:1053D000C3F302430133B0FBF3F008BD0220FFF733
:1053E00005FFF3E7FFF736FFF0E700BF00C00F400F
:1053F00008B5172869D8DFE800F00F0F1215181B41
:105400000C24282C3034383C4044484C5054585CD0
:1054100060644FF4004001E0FFF77AFF08BDFFF73A
:10542000C7FFFBE7FFF782FFF8E700F069F8F5E751
:10543000284BD3F8703213F0100F48D1264B186860
:10544000ECE70D20FFF7C4FDE8E72448FFF7C0FDB7
:10545000E4E70020FFF778FFE0E70120FFF774FFA3
:10546000DCE70220FFF770FFD8E70320FFF76CFFAF
:10547000D4E71B48FFF7ACFDD0E71A48FFF7A8FDBB
:10548000CCE70020FFF7B2FEC8E70120FFF7AEFE31
:10549000C4E70220FFF7AAFEC0E70320FFF7A6FE3D
:1054A000BCE71148FFF794FDB8E71048FFF790FDFF
:1054B000B4E70F48FFF78CFDB0E70E48FFF788FD13
:1054C000ACE70D48FFF784FDA8E70020A6E70B48EE
:1054D000A4E700BF00800D40C00600200D001000B2
:1054E0000D0020000D0030000D00E0001400E00071
:1054F0001500E0000D0070000D00A00000366E01E8
:1055000008B50D4BDB6913F0400F0FD00B4BD3F8F0
:10551000703213F0100F0DD1094B1868064BDB6980
:1055200003F03F030133B0FBF3F008BD0320FFF7A6
:105530005FFFF3E70348F1E700C00F4000800D4034
:10554000C006002000366E0108B5034B1B68034AF5
:1055500011680348984708BDC8060020C40600200B
:1055600000C02B4008B51F2914D800EB411241F2AE
:105570001C03D25AC2F3C013C26ACA40520002F0DE
:1055800002021A43436ACB409B0003F0040342EA41
:10559000030008BD034B044A40F2AD21034802F06A
:1055A000EDF800BF8CCD0070F4CD00701CCD007004
:1055B00070B5002834D004468368027CDA77C0686E
:1055C000002834D0A36803EB421341F21802995823
:1055D00041F21C029D5A05F08005002D14BF0122E6
:1055E0000022A1EB00034FEA531129D0C9B2637C1A
:1055F0005BB299422ED0637C5BB2CB1A35D449B2F0
:105600006174E17C49B2C91A49B2E174266816B1E5
:1056100061682046B04715B1A368227C1A7770BD37
:10562000144B154A40F2BE41144802F0A7F8256811
:10563000002DC7D00023012261682046A847EEE76D
:105640001F2B03D9C9B20139C9B2D0E7217D013975
:10565000C9B2CCE7E07C40B2237D5BB2984201D076
:105660000023CCE7E37C5BB2C9E7207D43FA80F3FB
:10567000C5E700BFE4CD007010CE00701CCD0070F7
:1056800008B500210B48FFF76DFF10F0040F07D19C
:1056900010210848FFF766FF10F0040F05D108BD80
:1056A000054B1868FFF784FFF2E7034B186CFFF710
:1056B0007FFFF4E700800E40CC06002008B50121F2
:1056C0000B48FFF74FFF10F0040F07D111210848D6
:1056D000FFF748FF10F0040F05D108BD054B5868CF
:1056E000FFF766FFF2E7034B586CFFF761FFF4E743
:1056F00000800E40CC06002008B502210B48FFF7C1
:1057000031FF10F0040F07D112210848FFF72AFFDC
:1057100010F0040F05D108BD054B9868FFF748FF4E
:10572000F2E7034B986CFFF743FFF4E700800E406D
:10573000CC06002008B503210B48FFF713FF10F03B
:10574000040F07D113210848FFF70CFF10F0040FD6
:1057500005D108BD054BD868FFF72AFFF2E7034BD8
:10576000D86CFFF725FFF4E700800E40CC06002040
:1057700008B504210B48FFF7F5FE10F0040F07D120
:1057800014210848FFF7EEFE10F0040F05D108BD04
:10579000054B1869FFF70CFFF2E7034B186DFFF795
:1057A00007FFF4E700800E40CC06002008B5052175
:1057B0000B48FFF7D7FE10F0040F07D1152108485A
:1057C000FFF7D0FE10F0040F05D108BD054B586956
:1057D000FFF7EEFEF2E7034B586DFFF7E9FEF4E743
:1057E00000800E40CC06002008B506210B48FFF7CC
:1057F000B9FE10F0040F07D116210848FFF7B2FEDA
:1058000010F0040F05D108BD054B9869FFF7D0FED5
:10581000F2E7034B986DFFF7CBFEF4E700800E40F4
:10582000CC06002008B507210B48FFF79BFE10F0BF
:10583000040F07D117210848FFF794FE10F0040F5A
:1058400005D108BD054BD869FFF7B2FEF2E7034B5F
:10585000D86DFFF7ADFEF4E700800E40CC060020C7
:1058600008B508210B48FFF77DFE10F0040F07D1A3
:1058700018210848FFF776FE10F0040F05D108BD87
:10588000054B186AFFF794FEF2E7034B186EFFF71B
:105890008FFEF4E700800E40CC06002008B50921F9
:1058A0000B48FFF75FFE10F0040F07D119210848DD
:1058B000FFF758FE10F0040F05D108BD054B586ADC
:1058C000FFF776FEF2E7034B586EFFF771FEF4E741
:1058D00000800E40CC06002008B50A210B48FFF7D7
:1058E00041FE10F0040F07D11A210848FFF73AFED5
:1058F00010F0040F05D108BD054B986AFFF758FE5C
:10590000F2E7034B986EFFF753FEF4E700800E407A
:10591000CC06002008B50B210B48FFF723FE10F042
:10592000040F07D11B210848FFF71CFE10F0040FDD
:1059300005D108BD054BD86AFFF73AFEF2E7034BE5
:10594000D86EFFF735FEF4E700800E40CC0600204D
:1059500008B50C210B48FFF705FE10F0040F07D126
:105960001C210848FFF7FEFD10F0040F05D108BD0B
:10597000054B186BFFF71CFEF2E7034B186FFFF7A0
:1059800017FEF4E700800E40CC06002008B50D217C
:105990000B48FFF7E7FD10F0040F07D11D21084861
:1059A000FFF7E0FD10F0040F05D108BD054B586B63
:1059B000FFF7FEFDF2E7034B586FFFF7F9FDF4E741
:1059C00000800E40CC06002008B50E210B48FFF7E2
:1059D000C9FD10F0040F07D11E210848FFF7C2FDD2
:1059E00010F0040F05D108BD054B986BFFF7E0FDE3
:1059F000F2E7034B986FFFF7DBFDF4E700800E4002
:105A0000CC06002008B50F210B48FFF7ABFD10F0C6
:105A1000040F07D11F210848FFF7A4FD10F0040F61
:105A200005D108BD054BD86BFFF7C2FDF2E7034B6C
:105A3000D86FFFF7BDFDF4E700800E40CC060020D4
:105A400008B50346002000E00130022804D8074AC8
:105A500052F820209A42F7D1022800D808BD044B02
:105A6000044A4FF49D71044801F088FED8CE0070BE
:105A7000A0CE0070C4CE007020CE007070B5044679
:105A80004668FFF7DDFF054616F0406F06D0124B63
:105A90001B68124A52F820102046984716F0407FA3
:105AA00006D00F4B1B680D4A52F825102046984728
:105AB00016F4C03F05D0094B53F8251020460023AB
:105AC0009847084B1E4206D0074B1B68034A52F802
:105AD00025102046984770BD5C0700204C07002029
:105AE0005807002000007C605407002008B5034BD5
:105AF000196803480023984708BD00BF4C070020E1
:105B000000802D4008B50248FFF7B8FF08BD00BF70
:105B100000802D4008B50248FFF7B0FF08BD00BF68
:105B200000402D4008B5074B596821B1064B1B6852
:105B30000648984708BD064B064A40F66A210648C3
:105B400001F01CFE600700207007002000001D40CF
:105B500078CF0070B4CF007008CF007008B5074B45
:105B6000996821B1064B1B680648984708BD064B4B
:105B7000064A40F67821064801F000FE6007002042
:105B80007007002000401D408CCF0070CCCF00700B
:105B900008CF007008B5074BD96821B1064B1B68C8
:105BA0000648984708BD064B064A40F68621064837
:105BB00001F0E4FD600700207007002000801D4018
:105BC000A0CF0070E4CF007008CF007010B50024A3
:105BD00001E00134E4B2012C0CD8074B53F8241037
:105BE0000029F6D0054B53F82430054A52F824001A
:105BF0009847EEE710BD00BF740700207C07002027
:105C00008407002008B5FFF7E1FF08BD08B5FFF7DE
:105C1000DDFF08BD08B5FFF7D9FF08BD08B502468E
:105C20000020092806D8084B53F82030934201D0B1
:105C30000130F6E7092800D808BD044B044A392191
:105C4000044801F09BFD00BFD4D00070FCCF007071
:105C5000B0D0007020D0007008B51F2908D86AB9EC
:105C60000368012202FA01F123EA0101016008BD83
:105C7000064B074A6B21074801F080FD03680122AB
:105C800002FA01F119430160F1E700BF90D0007002
:105C9000C4D0007020D0007010B4C46901238B40C0
:105CA00024EA0304C4610F2909D800F10C04013A65
:105CB000042A0FD8DFE802F007111C272F0000F19B
:105CC00010041039F3E723684A000321914023EAC6
:105CD000010121605DF8044B7047236848000322EE
:105CE000824023EA02030121814019432160F1E748
:105CF000236848000322824023EA020302218140F4
:105D000019432160E6E723684900032202FA01F102
:105D100019432160DEE7C2691343C361DAE700007B
:105D2000F8B504460E461746FFF778FF1A4B33F9CD
:105D30001010B1F5006F1ED2080A01F01F051749B7
:105D400051F820300322AA4023EA0203134341F80A
:105D5000203063690125B540EA4323EA0503636106
:105D60003B787BB963681A406260BA783146204656
:105D7000FFF792FFF8BD0A4B0A4A4FF475710A48C3
:105D800001F0FCFC7A7831462046FFF765FF636836
:105D90001D436560E9E700BFFCD0007068C00F409C
:105DA00054CB00709CD0007060CB007008B50346E7
:105DB000002000E00130022804D8074A52F82020D1
:105DC0009A42F7D1022800D808BD044B044A2F217B
:105DD000044801F0D3FC00BF94D2007008D10070D9
:105DE00060D200702CD1007070B5002956D00446E6
:105DF0000D46FFF7DBFF3D4B33F91010080A01F0A9
:105E00001F06B1F5006F4FD2394951F820300322F7
:105E1000B24023EA0203134341F8203000232360F9
:105E2000236843F400432360236813F40043FBD149
:105E30002A7A002A3FD04FF40072697A00293CD0B8
:105E400008210A43A97A002939D020210A43E97A96
:105E5000002936D010210A43297B002933D00421A0
:105E60000A43697B01B10223134323602B78052B7E
:105E70002BD0226822F4B8629B0103F4E073134331
:105E800023606B68013BB3F5805F29D26168194AD2
:105E90000A40C3F30B031343636070BD164B174AEC
:105EA0003C21174801F06AFC164B174A4FF47571F4
:105EB000164801F063FC1A46BFE71946C1E71946C8
:105EC000C4E71946C7E71946CAE7226822F4B86250
:105ED0009B0103F4E073134343F480632360D0E732
:105EE0000B4B0C4ADB210C4801F048FCA0D200709F
:105EF00068C00F4000F0FFFF98D1007070D20070B2
:105F00002CD1007054CB007038D2007060CB007080
:105F1000A4D100704CD20070CCD1007010B500221A
:105F20000260FFF743FF0D4B33F91030B3F5006FFC
:105F30000CD2190A03F01F04094850F8213003223B
:105F4000A24023EA020340F8213010BD054B064A67
:105F50004FF47571054801F011FC00BFA0D200702C
:105F600068C00F4054CB007038D2007060CB007016
:105F700008B560B100210160C16001220270426079
:105F800082724272C17201730172427308BD034B87
:105F9000034A7221034801F0F1FB00BF4CCB0070B3
:105FA0007CD200702CD1007038B504460D460369D0
:105FB00013F0010F06D00A4B1B681BB1094A52F8B7
:105FC00021109847D4F8103113F0010F07D0064B79
:105FD0001B6823B1054A52F825102046984738BD62
:105FE000A00700208C070020B8070020A40700208D
:105FF00008B501210148FFF7D7FF08BD00003F4069
:1060000008B502210148FFF7CFFF08BD00403F401F
:1060100008B503210148FFF7C7FF08BD00803F40D6
:1060200008B504210148FFF7BFFF08BD00C03F408D
:1060300008B5436A13F0010F03D0044B1B6898475F
:1060400008BD034B1B689847FAE700BFD007002044
:10605000D407002008B5074B596819B10648FFF767
:10606000E7FF08BD054B064A40F2D371054801F031
:1060700085FB00BFBC0700200040394028D30070DA
:1060800078D30070B0D2007008B5074B996819B189
:106090000648FFF7CDFF08BD054B064A40F2DB710D
:1060A000054801F06BFB00BFBC07002000803940B1
:1060B0003CD3007090D30070B0D2007008B5074B8D
:1060C000D96819B10648FFF7B3FF08BD054B064A6A
:1060D00040F2E371054801F051FB00BFBC0700200E
:1060E00000C0394050D30070A8D30070B0D2007007
:1060F00008B5074B196919B10648FFF799FF08BDA4
:10610000054B064A40F2EB71054801F037FB00BF32
:10611000BC07002000003A4064D30070C0D3007078
:10612000B0D2007008B502460020082806D8084BF7
:1061300053F82030934201D00130F6E7082800D808
:1061400008BD044B044A7A21044801F017FB00BF44
:106150005CD5007050D4007024D50070E0D300707E
:106160002DE9F04179B1054696460F460A6882B19D
:106170000B7A042B13D84B7A042B16D890460420A4
:10618000002426461DE0714B714AEE21714801F052
:10619000F5FA714B6E4AEF216E4801F0EFFA6F4B42
:1061A0006B4AF1216B4801F0E9FA6D4B684AF22124
:1061B000684801F0E3FA414502D8884604461E4685
:1061C0000130202817D800FB02F3BEFBF3F39BB28B
:1061D00003B9012300FB03F1BEFBF1F1891A03FBB4
:1061E000000CBEFBFCFCA2EB0C0C8C45E3D2013393
:1061F0009BB26146DFE75B4BA3FB0232520902EB25
:1062000042024245C0F09E802846FFF78BFF564B66
:1062100033F91010080A01F01F0CB1F5006F80F07F
:106220008180524951F82030032202FA0CF223EA0D
:106230000203134341F82030AB6843F00203AB6024
:10624000AB6823F00203AB602B69221F032A01D83D
:1062500043F4003323F0F852631E1B0603F0F85397
:106260001343434A1A40C6F30C0616432E612B69AA
:1062700023F000532B61AB693E4919403879FB7B11
:106280001B0203F4E0630343BA7B920002F00402B2
:1062900013430B437A79012A4BD008B143F0100322
:1062A000AB612A6922F40052FB795B0303F40053CB
:1062B00013432B617A7A3B7A43EA0243EB62AB6A7F
:1062C00043F08803AB62AB6A43F44043AB62696A54
:1062D0007B7B1B0103F010033A7B520102F020028A
:1062E00013430B436B62BB7A1BB16B6A43F0080329
:1062F0006B62FB7A1BB16B6A43F001036B62BB7983
:10630000F3B11D4A6B6913436B61AB693A7C0AB107
:1063100043F400237A7C0AB143F48023AB6100206C
:10632000BDE8F081154B164A4FF47571154801F020
:1063300025FA10B123F40063B2E743F40063AFE73A
:10634000114ADFE740F22150EAE700BF4CCB007072
:1063500038D50070E0D3007078D4007090D400700D
:10636000D0D400701F85EB5180D5007068C00F40FD
:1063700000E0FFFFE8F8FFFF00C01FE054CB007013
:1063800010D5007060CB007000C01FC010B5C36A8C
:1063900013F4E06FFBD1436913F4800FFBD0426923
:1063A000104B1343436100238361FFF7BBFE0E4B89
:1063B00033F91010080A01F01F04B1F5006F09D27B
:1063C0000A4951F820300322A24023EA020341F88F
:1063D000203010BD064B074A4FF47571064801F096
:1063E000CDF900BF00C01FC080D5007068C00F404D
:1063F00054CB007010D5007060CB007008B598B118
:10640000002242824FF4E1310160027142718271D7
:10641000C271027242728272C272427302738273DA
:10642000C2730274427408BD034B044A40F2062151
:10643000034801F0A3F900BF4CCB007044D50070B5
:10644000E0D3007008B5034B1B68034A516803484A
:10645000984708BDFC070020D807002000401840DE
:1064600008B5034B1B68034A91680348984708BD69
:10647000FC070020D80700200080184008B5034B17
:106480001B68034AD1680348984708BDFC070020F1
:10649000D807002000C0184008B5034B1B68034A0A
:1064A00011690348984708BDFC070020D807002061
:1064B0000000194008B5034B1B68034A51690348A3
:1064C000984708BDFC070020D8070020004019406D
:1064D00008B5034B1B68034A91690348984708BDF8
:1064E000FC070020D80700200080194008B5034BA6
:1064F0001B68034AD1690348984708BDFC07002080
:10650000D807002000C0194008B5034B1B68034A98
:10651000116A0348984708BDFC070020D8070020EF
:1065200000001A4008B50346002008B128B908BD8C
:10653000054A9342FAD00130F7E7044B044A372169
:10654000044801F01BF900BF0040084094D50070DA
:1065500024D60070B8D5007038B571B104460D4628
:10656000FFF7E0FF144A136843F4405313602368B5
:1065700023F00203236000230FE0104B104A462152
:10658000104801F0FBF804EB0311D1F8082122F0C8
:106590000102C1F808210133DBB2032BF3D92B78B8
:1065A00023B1236823F00103236038BD236843F03F
:1065B00001032360F9E700BF6CC00F404CCB0070B3
:1065C00034D60070B8D5007008B5026842F00202F7
:1065D0000260FFF7A7FF034A136823F440531360D8
:1065E00008BD00BF6CC00F4008B50246002004285B
:1065F00006D8084B53F82030934201D00130F6E71B
:10660000042800D808BD044B044A3721044801F08F
:10661000B5F800BFB0D7007040D6007054D70070F6
:1066200064D60070F8B5002A6CD005460E461446B4
:106630005379022B6CD0637A012B02D1002E00F02B
:10664000C6802846FFF7D0FF06EB8000624B33F987
:106650001010080A01F01F07B1F5006F5CD25F4906
:1066600051F820300322BA4023EA0203134341F8D1
:106670002030B5F88E319BB243F00F03A5F88E3170
:1066800006EB460305EB43139B8803F4E65163795D
:1066900003F00303E27AD20002F0380213432279B6
:1066A000120202F4407213432278D20392B21343CF
:1066B0006278920302F480421343627A920002F0FD
:1066C000040213430B43E279012A2FD0022A39D066
:1066D0004AB306EB460205EB42129380D38840F69C
:1066E0008B711940A3791B0103F07003A27A120386
:1066F00092B213430B43227A032A31D8DFE802F027
:106700002E585E64364B374A4921374801F036F837
:10671000002990D101204AE0344B354A4FF475717D
:10672000344801F02BF843F40053D2E7B5F8882140
:1067300092B206F10C000121814022EA0102A5F883
:106740008821C6E7B5F8882192B206F10C00012134
:1067500081400A4392B2A5F88821BAE743F00403C6
:1067600006EB460205EB4212D380B5F89031DBB25E
:106770002BB1B5F8903103F47F43A5F89031A3789D
:106780001B0203F4E063E2781343A5F89031E37A47
:10679000FBB906EB460305EB43139B889BB243F022
:1067A000400306EB460605EB4615AB800020F8BD1E
:1067B00023F480639BB243F40063D1E723F40063C6
:1067C0009BB243F48063CBE743F44063C8E7012006
:1067D000EDE70020EBE700BFC4D7007068C00F40B2
:1067E0004CCB007064D7007064D6007054CB00703E
:1067F00040D7007060CB007038B50C46B0F88831D7
:106800009BB201F108050121A94023EA0103A0F888
:106810008831FFF7E9FE04EB80040D4B33F91430A7
:10682000B3F5006F0CD2190A03F01F04094850F8A1
:1068300021300322A24023EA020340F8213038BD70
:10684000054B064A4FF47571054800F097FF00BFED
:10685000C4D7007068C00F4054CB007040D70070A0
:1068600060CB007008B568B10022027042704272BD
:106870008270C270427182710271C272827202723F
:10688000C27108BD024B034AD521034800F076FFD0
:106890004CCB007070D7007064D600702DE9F04FBB
:1068A00083B005469DF830A00D9F0E98F2B1984632
:1068B000164617B343B370B353684CF25032934249
:1068C00030D8B8F1020F00F245810C4601EB4101CE
:1068D00005EB4111CB88C3F3021320FA03F3B3FB9A
:1068E000F7F301931FFA83FB00276BE09A4B9B4A57
:1068F00040F211119A4800F041FF9A4B974A4FF429
:106900008971974800F03AFF974B944A40F213116F
:10691000934800F033FF954B904A4FF48A719048AA
:1069200000F02CFF924B8D4A40F215118C4800F07C
:1069300025FF4FF6FF73984255D0013080B252E0E8
:106940004FEA5B014A4292B204EB440305EB431366
:106950005A8000225A81D9813378012B52D04008C5
:10696000424292B204EB440305EB43135A83D883AB
:106970003378012B00F0D380728904EB440305EBDC
:1069800043135A8604220920337A002B40F0D0802A
:1069900004EB440105EB41114B8C9BB24FF0010C11
:1069A0000CFA00F023EA00034B84B5F880319BB267
:1069B000111901228A4013439BB2A5F880310C368D
:1069C0000137FFB2474580F0C180D6F804904CF201
:1069D00050320023ABFB0901FCF748FB80B24CF2BC
:1069E00050339945A5D0BAF1030FC1D801A353F88C
:1069F0002AF000BF41690070196A00709D6A00703A
:106A0000E36A00704008424292B204EB440305EB93
:106A100043135A82D882ABE704EB440305EB4313DC
:106A200000225A804FEA5B025A81A3F80EB03378F5
:106A3000012B15D0BDF804300146181A2AD4C0F332
:106A40004F0004EB440205EB421250835B1823D441
:106A5000C3F34F0304EB440205EB4212D38387E7F1
:106A6000BDF804300146181A10D4C0F34F0004EBEF
:106A7000440205EB421250825B1809D4C3F34F0362
:106A800004EB440205EB4212D38271E70130ECE7DC
:106A90000133F3E70130D2E70133D9E74FEA5B0373
:106AA000594289B204EB440205EB421251804FF087
:106AB000000CA2F80AC0D3813278012A08D004EB76
:106AC000440205EB42125183C01A80B2D0834FE7D3
:106AD00004EB440205EB42125182C31A9BB2D382EB
:106AE00046E704EB440305EB431300225A804FEAC8
:106AF0005B025A81A3F80EB03378012B07D004EB68
:106B0000440305EB431300225A83D88330E704EB98
:106B1000440305EB431300225A82D88228E7728986
:106B200004EB440305EB43131A8608220A202BE7E3
:106B300004EB440105EB41114B8C9BB24FF0010C6F
:106B40000CFA00F003439BB24B842EE7002003B005
:106B5000BDE8F08F0120FAE7D0D6007088D700702A
:106B600064D60070DCD60070E8D60070F4D60070F1
:106B700000D700702DE9F0411646069F4CF25032C6
:106B8000974209D805460C46012E0CD8032B2CD869
:106B9000DFE803F010378CBA714B724A40F2C11132
:106BA000714800F0EBFD714B6E4A4FF4E1716E4895
:106BB00000F0E4FD01EB410300EB4313D88980B200
:106BC000400080B2A7FB00014CF250320023FCF7DA
:106BD0004DFA80B2012E0AD04008424292B204EB34
:106BE000440305EB43135A83D883BDE8F081400882
:106BF000424292B204EB440305EB43135A82D8821B
:106C0000F3E701EB410300EB4313D8891FFA80F847
:106C100080B2A7FB00014CF250320023FCF726FAA9
:106C200080B24CF250339F4218D0012E1DD0024644
:106C3000B8EB000035D4C0F34F0004EB440305EB80
:106C40004313588318EB02082DD4C8F34F0804EB04
:106C5000440405EB4414A4F81E80C6E74FF6FF7306
:106C60009842E2D0013080B2DFE70346B8EB000083
:106C700012D4C0F34F0004EB440205EB42125082E1
:106C800018EB03080AD4C8F34F0804EB440405EBDF
:106C90004414A4F81680A8E70130EAE708F10108D7
:106CA000F1E70130C7E708F10108CEE701EB410346
:106CB00000EB4313D8891FFA80F84FEA480080B2EE
:106CC000A7FB00014CF250320023FCF7CFF980B251
:106CD000012E0CD0C8F1000292B204EB440305EB84
:106CE00043135A83A0EB080080B2D8837DE7C8F134
:106CF000000292B204EB440305EB43135A82A0EB6B
:106D0000080080B2D88270E701EB410300EB431327
:106D1000D88980B2A7FB00014CF250320023FCF767
:106D2000A5F980B24CF250339F4209D0012E0ED00B
:106D300004EB440305EB431300225A83D88354E742
:106D40004FF6FF739842F1D0013080B2EEE704EBCA
:106D5000440305EB431300225A82D88245E700BF63
:106D60000CD7007098D7007064D6007030D70070D0
:106D700008B502460020042806D8084B53F82030F6
:106D8000934201D00130F6E7042800D808BD044B37
:106D9000044A3621044800F0F1FC00BFCCD8007052
:106DA000ECD7007094D8007010D80070F8B5002AA5
:106DB0003DD005460E461446FFF7DAFF224B33F965
:106DC0001010080A01F01F07B1F5006F35D21F49F6
:106DD00051F820300322BA4023EA0203134341F85A
:106DE000203023785B0203F4F0536278D20102F47E
:106DF000C072134305EB46108381E3781B0103F057
:106E00001003A278520102F020021343C381A37938
:106E10009B039BB28382C38A03F47843C3822379A2
:106E20001B0203F4E06362791343C382F8BD084B8D
:106E3000084A4621084800F0A1FC084B084A4FF4D4
:106E40007571084800F09AFCE0D8007068C00F40E7
:106E50004CCB0070A8D8007010D8007054CB0070D4
:106E600080D8007060CB007010B500EB41118B89A9
:106E7000C3F30C038B81FFF77BFF0D4B33F910300D
:106E8000B3F5006F0CD2190A03F01F04094850F83B
:106E900021300322A24023EA020340F8213010BD32
:106EA000054B064A4FF47571054800F067FC00BFBA
:106EB000E0D8007068C00F4054CB007080D80070DC
:106EC00060CB007008B548B100228271C270827038
:106ED0000271427109210170427008BD024B034AE0
:106EE0007F21034800F04AFC4CCB0070B4D80070FE
:106EF00010D8007008B51D4BD968D9B11C4BD3F818
:106F0000883013F4803F05D1194BD3F8883013F43F
:106F1000802F0FD0164BD3F8883013F4807F05D123
:106F2000134BD3F8883013F4806F03D0114B1B68D8
:106F30000F4898470D4B9968B9B10D4B9B6813F4F6
:106F4000803F04D10A4B9B6813F4802F0DD0084B6F
:106F50009B6813F4807F04D1054B9B6813F4806F0A
:106F600003D0054B1B680248984708BD0008002065
:106F700000403840200800202408002008B51D4BA0
:106F80005969D9B11C4BD3F8883013F4803F05D12F
:106F9000194BD3F8883013F4802F0FD0164BD3F849
:106FA000883013F4807F05D1134BD3F8883013F465
:106FB000806F03D0114B1B680F4898470D4B196920
:106FC000B9B10D4B9B6813F4803F04D10A4B9B6809
:106FD00013F4802F0DD0084B9B6813F4807F04D1ED
:106FE000054B9B6813F4806F03D0054B1B68024868
:106FF000984708BD00080020008038402008002085
:107000002408002008B5074B996921B1064B1B687D
:107010000648984708BD064B064A40F61531064813
:1070200000F0ACFB000800202408002000C038401D
:107030007CD90070A4D9007010D9007008B5074B36
:10704000D96921B1064B1B680648984708BD064B15
:10705000064A4FF43261064800F090FB0008002019
:107060002008002000C0384090D90070C0D90070BE
:1070700010D9007008B5084B196821B1074B1B687F
:107080000BB107489847044B596821B1054B1B6861
:107090000BB10348984708BD280800203408002099
:1070A000000038403008002008B5034B1B68034A35
:1070B00051680348984708BD44080020380800205C
:1070C00000002C4008B5034B1B68034A9168034835
:1070D000984708BD440800203808002000402C4094
:1070E00018B1012803D103487047034870470020B6
:1070F000704700BF4808002050080020024A13686B
:1071000001331360704700BF4C08002008B5FFF73B
:10711000E7FF18B103460120186008BD0020FCE716
:1071200008B548B90A4B00221A7021B1CB6813B1D7
:1071300009691046984708BD054B01221A700029BD
:10714000F9D08B68002BF6D0096910469847F2E712
:107150007C08002008B50D4B9B6913F0100F07D178
:107160000A4B4FF0FF329A610120FFF7CFFF08BDB5
:10717000064B1A68064B5B6A12F0100F19680CBFB9
:1071800001200020FFF7CCFFEAE700BF00001C4011
:107190005408002038B10346406830B110B5446946
:1071A0001868A04710BD032070470620704710B52F
:1071B0000446012380F86F3000220E21FFF7EAFF1A
:1071C000022384F86E30002284F86C2008E002EB81
:1071D000420304EB83030021D96019611975013260
:1071E000072AF4D9A36800220121204698470020ED
:1071F00084F86F0010BD10B584B00A7A102A22D02E
:1072000002F00F04D30912F00C0F26D143EA440315
:1072100003EB430200EB8202D2680AB30A680192D0
:107220004A6802924A7A8DF80C207AB100220275DF
:1072300080F8202003EB430200EB8202D46812693D
:1072400001A9A0470AE0FFF7B2FF07E003EB430202
:1072500000EB820200211175ECE7012004B010BDA3
:107260000120FBE7B0FA80F35B09002908BF012386
:107270002BB910B5836823B1FFF7BDFF10BD032004
:1072800070470120FAE710B44C00E4B242680123D1
:1072900003FA01F1C2F8AC114268D2F8403143F46C
:1072A0000053C2F84031836803EB84139A6A1A636F
:1072B000836803EB8413DA6A5A634368D3F8403176
:1072C00013F4005FE8D04268D2F8403123F4005351
:1072D000C2F840315DF8044B70474368D3F8AC21E5
:1072E000C3F8AC214368D3F8BC21C3F8BC21436880
:1072F0004FF0FF12C3F8B4214368D3F8B02112F065
:10730000FF1FF4D1D3F8843113F4807F03D001231D
:1073100080F85630704700B585B0002301931022E5
:107320008DF80C2002938DF80D3001A90068FFF74D
:1073300099FF05B05DF804FB2DE9F04385B00546E3
:107340008846174602EB4106002301930293331D42
:1073500000EB83035C6824F01F0443E0A268A3F5FC
:1073600080531340A28BC2F30B02134301933DE001
:107370004FF0FF33029347E0331D05EB83030022F8
:107380005A6006F10C0305EB83035A60AB6803EB0C
:10739000861301219960AB6803EB8613DA6043E042
:1073A000FB01DBB243EA08038DF80C304FF0000913
:1073B0008DF80D9001A92868FFF754FFCDF80490CF
:1073C000CDF80890002363602B6923602C6195F948
:1073D0005430013385F85430331D05EB83035C686A
:1073E00024F01F0464B3019B002BB7D0636813F033
:1073F000800FBDD1E369C3F312336268C2F30E425A
:107400009B1A029A13440293331D05EB83035A68B7
:1074100006F10C0305EB83035B689A42ACD012685B
:10742000331D05EB83035A60636813F4004FB7D133
:10743000331D05EB83035B6833F01F03C2D1AFE755
:1074400005B0BDE8F0832DE9F04F87B005464368ED
:10745000D3F8AC61002E3AD16B68D3F8BC2101920D
:10746000C3F8BC21002A40F03A8107B0BDE8F08F94
:107470000134E4B2032CEFD80123A3403342F7D008
