:0200000470008A
:10000000464346420004015600000000010303007D
:1000100000000000000000000000000000000000E0
:1000200000000000000000000000000000000000D0
:1000300000000000000000000000000000000000C0
:1000400000000000000408000000000000000000A4
:100050000000400000000000000000000000000060
:100060000000000000000000000000000000000090
:100070000000000000000000000000000000000080
:10008000EB04180A063204260000000000000000FD
:100090000000000000000000000000000000000060
:1000A0000000000000000000000000000000000050
:1000B0000000000000000000000000000000000040
:1000C0000000000000000000000000000000000030
:1000D0000000000000000000000000000000000020
:1000E0000000000000000000000000000000000010
:1000F0000000000000000000000000000000000000
:1001000000000000000000000000000000000000EF
:1001100000000000000000000000000000000000DF
:1001200000000000000000000000000000000000CF
:1001300000000000000000000000000000000000BF
:1001400000000000000000000000000000000000AF
:10015000000000000000000000000000000000009F
:10016000000000000000000000000000000000008F
:10017000000000000000000000000000000000007F
:10018000000000000000000000000000000000006F
:10019000000000000000000000000000000000005F
:1001A000000000000000000000000000000000004F
:1001B000000000000000000000000000000000003F
:1001C000000100000010000000000000000000001E
:1001D000000001000000000000000000000000001E
:1001E000000000000000000000000000000000000F
:1001F00000000000000000000000000000000000FF
:10100000D10020410020007000000000301000706E
:1010100020100070001000700000000000000000B0
:10102000000000700000400000000000FFFFFFFF14
:10103000D2043041CC03AC04400FC068FFFFFFFF77
:10104000400FC06CFFFFFFFF400FC070FFFFFFFFAE
:10105000400FC074FFFFFFFF400FC078FFFFFFFF8E
:10106000400FC07CFFFFFFFF400FC080FFFFFFFF6E
:10107000400D803000002001400D8100001D000067
:10108000400FC01400010D40401F801400000000FC
:10109000401F801800000000401F801C000000005E
:1010A000401F802000000000401F8024000000003E
:1010B000401F802800000000401F802C000000001E
:1010C000401F803000000000401F803400000000FE
:1010D000401F803800000000401F803C00000000DE
:1010E000401F804000000000401F804400000000BE
:1010F000401F804800000000401F804C000000009E
:10110000401F805000000000401F8054000000007D
:10111000401F805800000000401F805C000000005D
:10112000401F806000000000401F8064000000003D
:10113000401F806800000000401F806C000000001D
:10114000401F807000000000401F807400000000FD
:10115000401F807800000000401F807C00000000DD
:10116000401F808000000000401F808400000000BD
:10117000401F808800000000401F808C000000009D
:10118000401F809000000000401F8094000000007D
:10119000401F809800000000401F809C000000005D
:1011A000401F80A000000000401F80A4000000003D
:1011B000401F80A800000000401F80AC000000001D
:1011C000401F80B000000010401F80B400000000ED
:1011D000401F80B800000000401F8204000110F989
:1011E000401F8208000110F9401F820C000110F915
:1011F000401F8210000110F9401F8214000110F9F5
:10120000401F8218000110F9401F821C000110F9D4
:10121000401F8220000110F9401F8224000110F9B4
:10122000401F8228000110F9401F822C000110F994
:10123000401F8230000110F9401F8234000110F974
:10124000401F8238000110F9401F823C000110F954
:10125000401F8240000110F9401F8244000110F934
:10126000401F8248000110F9401F824C000110F914
:10127000401F8250000110F9401F8254000110F9F4
:10128000401F8258000110F9401F825C000110F9D4
:10129000401F8260000110F9401F8264000110F9B4
:1012A000401F8268000110F9401F826C000110F994
:1012B000401F8270000110F9401F8274000110F974
:1012C000401F8278000110F9401F827C000110F954
:1012D000401F8280000110F9401F8284000110F934
:1012E000401F8288000110F9401F828C000110F914
:1012F000401F8290000110F9401F8294000110F9F4
:10130000401F8298000110F9401F829C000110F9D3
:10131000401F82A0000110F9401F82A4000110F9B3
:10132000401F82A8000110F9402F000010000004A7
:10133000402F000800030524402F000C060305245D
:10134000402F00108000001B402F00148200001B63
:10135000402F00188400001B402F001C8600001B3B
:10136000402F002090000021402F0024A0000019F1
:10137000402F0028A8000017402F002CA900001BB8
:10138000402F003000000021402F0004000079A809
:10139000402F004000000F31402F004400652922FB
:1013A000402F004800010920402F004C50210A081E
:1013B000402F008000000021402F00840088888892
:1013C000402F009400000002402F00980000000011
:1013D000402F009080000000402F009CA55A000F75
:1013E000CF000C1C402F003C00000001CC00140476
:1013F000402F009080000000402F009CA55A000C58
:10140000CF000C1C402F003C00000001CC00140455
:10141000402F009080000000402F009CA55A000C37
:10142000CF000C1C402F003C00000001CC001C042D
:10143000402F00A000000033402F009080000000EB
:10144000402F009CA55A000ACF000C1C402F003CE6
:1014500000000001CC000C04402F004C50210A0970
:1020000000000220BD240070A15A0070A35A007085
:10201000A55A0070A75A0070A95A0070000000006D
:10202000000000000000000000000000AB5A00703B
:10203000AD5A007000000000AF5A0070914B007064
:102040001D250070212500702525007029250070B0
:102050002D25007031250070352500703925007060
:102060003D25007041250070452500704925007010
:102070004D250070512500705525007059250070C0
:102080005D25007005250070052500700525007090
:102090006125007065250070692500706D25007050
:1020A0007125007075250070792500707D25007000
:1020B0008125007085250070892500708D250070B0
:1020C0009125007095250070992500709D25007060
:1020D000A1250070A525007005250070052500705C
:1020E000052500700525007005250070C9290070C0
:1020F0000525007005250070052500700525007078
:102100000525007005250070052500700525007067
:102110000525007005250070052500700525007057
:10212000A9250070AD250070B1250070B52500709F
:10213000B925007005250070052500700525007083
:102140000525007005250070052500700525007027
:102150000525007005250070052500700525007017
:102160000525007005250070052500700525007007
:1021700005250070052500700525007005250070F7
:1021800005250070052500700525007005250070E7
:10219000E94B0070052500700525007005250070CD
:1021A0000525007005250070BD250070C125007053
:1021B00005250070052500700525007005250070B7
:1021C00005250070052500700525007005250070A7
:1021D0000525007005250070052500700525007097
:1021E000052500700525007005250070C5250070C7
:1021F000C925007005250070CD250070D12500701F
:10220000FD960070ED960070D52500703D3A007087
:102210000525007005250070052500700525007056
:102220000525007005250070D52900700525007072
:102230000525007005250070052500700525007036
:102240000525007005250070052500700525007026
:102250000525007005250070052500700525007016
:102260000525007005250070052500700525007006
:1022700005250070052500700525007005250070F6
:1022800005250070052500700525007005250070E6
:1022900005250070052500700525007005250070D6
:1022A000DD250070E1250070E52500700525007032
:1022B000E9250070052500700525007005250070D2
:1022C00005250070052500700525007005250070A6
:1022D0000525007005250070052500700525007096
:1022E0000525007005250070052500700525007086
:1022F0000525007005250070052500700525007076
:102300000525007005250070052500700525007065
:102310000525007005250070052500700525007055
:102320000525007005250070052500700525007045
:102330000525007005250070052500700525007035
:102340000525007005250070052500700525007025
:102350000525007005250070052500700525007015
:102360000525007005250070052500700525007005
:1023700005250070052500700525007005250070F5
:1023800005250070052500700525007005250070E5
:1023900005250070052500700525007005250070D5
:1023A00005250070052500700525007005250070C5
:1023B00005250070052500700525007005250070B5
:1023C00005250070052500700525007005250070A5
:1023D0000525007005250070052500700525007095
:1023E0000525007005250070052500700525007085
:1023F000052500700525007005250070FFFFFFFF13
:1024000010B5054C237833B9044B13B10448AFF32E
:1024100000800123237010BD9C04002000000000F8
:10242000A0A6007008B5034B1BB103490348AFF3E6
:10243000008008BD00000000A0040020A0A60070DD
:10244000A3F5803A704700BF174B002B08BF134B12
:102450009D46FFF7F5FF00218B460F461348144AAF
:10246000121A07F087F90E4B002B00D098470D4B3E
:10247000002B00D098470020002104000D000D48DB
:10248000002802D00C4807F035FA07F04FF9200079
:10249000290000F0CDFA07F039F900BF000008006C
:1024A0000000000000000000000002209C0400204A
:1024B000B0060020F59800700199007072B60A48C5
:1024C0000A4901600A6882F3088809488047094977
:1024D000094A0A4B9A42BEBF51F8040B42F8040B5A
:1024E000F8E762B60648804708ED00E0002000707B
:1024F000312B0070CCA60070000000209C0400204E
:1025000049240070FFF7FEBF3848004738480047AD
:10251000384800473848004738480047384800479F
:10252000384800473848004738480047384800478F
:10253000384800473848004738480047384800477F
:10254000384800473848004738480047384800476F
:10255000384800473848004738480047384800475F
:10256000384800473848004738480047384800474F
:10257000384800473848004738480047384800473F
:10258000384800473848004738480047384800472F
:10259000384800473848004738480047384800471F
:1025A000384800473848004738480047384800470F
:1025B00038480047384800473848004738480047FF
:1025C00038480047384800473848004738480047EF
:1025D00038480047384800473848004738480047DF
:1025E000384800473848004738480047A15A00702B
:1025F000A35A0070AB5A0070AF5A0070914B007034
:10260000D13500700D360070493600708536007087
:10261000C1360070FD3600703937007075370070B4
:10262000B1370070ED3700702938007065380070E0
:10263000A1380070DD38007019390070553900700C
:102640000525007099410070B5410070D1410070BE
:10265000ED41007009420070254200704142007057
:102660005D420070453D0070553D0070653D007055
:10267000753D0070A93D0070DD3D0070113E007099
:10268000453E0070753A0070AD3A0070894900709F
:10269000114A0070D14A0070994A0070094B0070CD
:1026A000553B00705D3B00700525007005250070EE
:1026B0003D4B0070594B0070553A00700525007075
:1026C000653A007005250070E53A0070653B0070C2
:1026D00053B94AB9002908BF00281CBF4FF0FF3189
:1026E0004FF0FF3000F06EB9ADF1080C6DE904CE8B
:1026F00000F006F8DDF804E0DDE9022304B07047DD
:102700002DE9F047089D04468C46002B40F083805D
:102710008A42174647D9B2FA82F242B1C2F120008A
:1027200024FA00F09140974040EA010C94404FEAAF
:102730001748230CBCFBF8F61FFA87FE08FB16C1EE
:1027400043EA014306FB0EF1994209D9FB1806F151
:10275000FF3080F01981994240F21681023E3B44DD
:102760005B1AA4B2B3FBF8F008FB103344EA03444D
:1027700000FB0EFEA64509D93C1900F1FF3380F09D
:102780000581A64540F2028102383C4440EA0640F9
:10279000A4EB0E0400261DB1D4400023C5E900437C
:1027A0003146BDE8F08702B9FFDEB2FA82F2002AB4
:1027B00050D1CB1B4FEA174E1FFA87F80126B3FB07
:1027C000FEFC210C0EFB1C3341EA034108FB0CF319
:1027D0008B4207D979180CF1FF3002D28B4200F2FC
:1027E000E9808446C91AA3B2B1FBFEF00EFB1011BA
:1027F00043EA014408FB00F8A04507D93C1900F161
:10280000FF3302D2A04500F2D9801846A4EB080499
:1028100040EA0C40BFE78B4209D9002D00F0B1809F
:102820000026C5E9000130463146BDE8F087B3FA1D
:1028300083F6002E4AD18B4202D3824200F2B88046
:10284000841A61EB030101208C46002DA8D0C5E954
:10285000004CA5E7C2F1200320FA03F6974001FAE5
:1028600002F04FEA174ED9403043030CB1FBFEF69D
:102870001FFA87F80EFB161143EA014306FB08F125
:10288000994204FA02F409D9FB1806F1FF3C80F0E2
:102890008D80994240F28A80023E3B445B1A81B2AD
:1028A000B3FBFEF00EFB103341EA034100FB08F3DB
:1028B0008B4207D9791800F1FF3C73D28B4271D952
:1028C00002383944CB1A40EA064678E7C6F1200CB4
:1028D00003FA06F422FA0CF31C4320FA0CF701FA6F
:1028E00006F34FEA144E21FA0CF11F433B0CB1FBE7
:1028F000FEF91FFA84F80EFB191143EA014109FBA6
:1029000008FA8A4502FA06F200FA06F308D96118B5
:1029100009F1FF3048D28A4546D9A9F1020921447C
:10292000A1EB0A01BFB2B1FBFEF00EFB101147EAAA
:10293000014700FB08F8B84507D9E71900F1FF3156
:102940002ED2B8452CD90238274440EA0940A7EBDB
:102950000807A0FB02894F45C64649461AD317D03F
:102960005DB1B3EB0E0267EB010707FA0CFCF24016
:102970004CEA0202F740C5E9002700263146BDE8CF
:10298000F0872E4628460BE70646E9E61846FDE6A0
:102990004345E5D2B8EB020E69EB04010138DFE7ED
:1029A0000846D2E760468DE78146B9E7664675E797
:1029B00030464AE7ACF1020C394413E702383C4494
:1029C00024E700BF704700BF08B500F065FDBFF306
:1029D0004F8F08BD154BD3F80C3113F0010F03D006
:1029E000124B0122C3F80C21104BD3F81C3113F009
:1029F000010F03D00D4B0122C3F81C210B4BD3F860
:102A00002C3113F0010F03D0084B0122C3F82C2105
:102A1000064BD3F83C3113F0010F03D0034B0122D6
:102A2000C3F83C21BFF34F8F704700BF0040084000
:102A300008B5EFF3108372B602F008FD02220321FD
:102A4000012003F0CFF802220421012003F0CAF88C
:102A500002220521012003F0C5F8022206210120EF
:102A600003F0C0F802220921012003F0BBF8002284
:102A70003221C32006F0FEF8002243F2C821702064
:102A800006F0F8F8002243F2C821482006F0F2F8D8
:102A9000002243F2C821752006F0ECF8002243F230
:102AA000C8214D2006F0E6F80F220C21012006F087
:102AB00047FC2D222A21032006F042FC47F248035E
:102AC000002211465E2003F0B5F847F248030022C9
:102AD00011465D2003F0AEF847F24803002211468C
:102AE0005C2003F0A7F847F24803002211465B2060
:102AF00003F0A0F847F2480300221146532003F0E8
:102B000099F847F2480300221146542003F092F846
:102B1000182316224FF41651062006F0BDFD22237D
:102B20001F224FF41651082006F0B6FDFEE770474D
:102B300010B5454AD2F8883043F47003C2F88830A3
:102B4000424A13899BB223F001039BB2138140498F
:102B50000B899BB223F001039BB20B81138813F006
:102B6000040F05D013889BB223F004039BB213809B
:102B7000374B1B8813F0040F06D0354A13889BB2DD
:102B800023F004039BB21380324A334B53604FF659
:102B9000FF739360136823F0A00343F020031360D6
:102BA0002E4B1B6813F0010F04D02C4A136823F03E
:102BB00001031360244B5B6913F4003F13D1BFF38F
:102BC0004F8FBFF36F8F204B0022C3F85022BFF30B
:102BD0004F8FBFF36F8F5A6942F400325A61BFF3CF
:102BE0004F8FBFF36F8F184B5B6913F4803F02D098
:102BF000FFF79DFF10BD144B0022C3F88420BFF3E4
:102C00004F8FD3F88040C4F34E3100E01946C4F32F
:102C1000C90243F6E07303EA411343EA82730A48A8
:102C2000C0F860321346013A002BF2D14B1E002946
:102C3000ECD1BFF34F8F436943F480334361BFF35B
:102C40004F8FBFF36F8FD3E700ED00E000800B40A4
:102C500000000D4000C00B4020C528D910E000E066
:102C600008B50346002000E00130022804D8074AD6
:102C700052F820209A42F7D1022800D808BD044B10
:102C8000044A3521044802F0C3FA00BFF09A0070EC
:102C9000D0990070BC9A0070F499007070B500294A
:102CA0004FD005460C46FFF7DBFF2C4B33F91010D5
:102CB000080A01F01F06B1F5006F48D2284951F803
:102CC00020300322B24023EA0203134341F82030AC
:102CD000696C01F46041A379DB0203F4C053E2792B
:102CE000120202F440721343227A02F003021343E9
:102CF000627A520102F060021343A27A920002F05B
:102D00000C0213430B4322780AB143F48033227937
:102D10000AB143F01003E2780AB143F08003A278CD
:102D20000AB143F480636B64AB6C23F041036278B7
:102D30000AB143F0400362790AB143F00103AB6486
:102D400070BD084B084A4221084802F061FA084B5E
:102D5000084A4FF47571084802F05AFAFC9A00705C
:102D600068C00F40409A0070CC9A0070F4990070CF
:102D7000509A0070A89A00705C9A007008B578B1FB
:102D8000012242710022027042708270C270027190
:102D90008271C2710321017242720222827208BDE5
:102DA000024B034A9021034802F032FA409A007025
:102DB000D89A0070F49900700346426C12F4005FD8
:102DC00014D0426C22F40052426401210222DA64DF
:102DD0009A6C42F080029A649A6C12F0800F07D0CD
:102DE000DA6C12F0020FF7D0012002E00021EDE7CB
:102DF00000201A6A12F0010F00D10120DA6C12F0E3
:102E0000020F00D001205A6A19B15A6C42F40052E4
:102E10005A64704708B5D8B9104B4FF08042C3F8D8
:102E200058210E4BD3F8703213F4803FF9D00B4B7E
:102E30004FF48032C3F85421084BD3F8503113F4C7
:102E4000004FF9D0054B4FF48032C3F8582108BD2C
:102E5000034B044A9A21044802F0DAF900800D403D
:102E6000049B0070609B0070149B007020B9054BA0
:102E70001022C3F874227047024B1022C3F8782244
:102E8000704700BF00800D40034AD2F8703243F013
:102E90000103C2F87032704700800D400F490B6883
:102EA00023F4E0330279920392B2134343F4803364
:102EB0000B600A680A4B1340026802F07F0213435A
:102EC00043F400530B60054B1B68002BFBDA034AED
:102ED000136823F480331360704700BF00800D40F7
:102EE00080CFFFFF014B00221A62704700800D4027
:102EF000024B4FF480521A67704700BF00800D40AC
:102F0000024B4FF48052C3F8A020704700800D4060
:102F1000024B4FF48052C3F8E020704700800D4010
:102F200070B584B004467A4B0FCB04AD05E90F00B1
:102F3000C4F30B41774A8D5804F01F0001238340EE
:102F40001D401ED08B5813F4404F07D1D2F8703279
:102F500013F0100F18D1704B1D6800E000258B583E
:102F600013F480330DD16D4A94425ED00ED96C4A71
:102F7000944200F0B58036D96A4A944240F0C58048
:102F8000694D284604B070BD684DE8E7A2F5A0027F
:102F9000944200F0AF8013D9654A944221D15D4C30
:102FA000206D226E0023A5FB0001FFF791FB236B30
:102FB00013F0010F33D0162303FB05F50544E0E7BA
:102FC0000D2C24D0A2F58012944208D1514B1B69DC
:102FD00013F0020F27D0162303FB05F5D1E71D469A
:102FE000CFE71D46CDE7534A94424DD002F580020B
:102FF00094420AD1474BD3F8E03003F0030304AA0C
:1030000002EB830353F8105CBBE71D46B9E7414B65
:103010001B6803F07F0305FB03F56D08B1E705EBC3
:103020008505AD00CAE71423D6E73A4C266F06F0B3
:103030007F06D4F88000D4F890200023A5FB00017F
:10304000FFF746FB05FB0605236F13F4C01315D0ED
:10305000B3F5002F14D02F4BD3F8703123F07F43FA
:1030600023F4FE0323F4FF4323F07F03B3F5004F63
:1030700008D0314A934284D1AD0882E7AD08EAE72F
:103080006D08E8E76D087CE7224CD4F8A06006F0F4
:103090007F06D4F8B000D4F8C0200023A5FB0001BF
:1030A000FFF716FB05FB0605D4F8A03013F4C01398
:1030B00010D0B3F5002F0FD0164BD3F8703103F0BA
:1030C0004043B3F1804F09D0B3F1404F7FF459AF83
:1030D000AD0856E7AD08EFE76D08EDE76D0850E77E
:1030E0000C4BD3F8E03003F00C0304AA134453F85C
:1030F000105C46E7074B1B6A13F0020F03D0162340
:1031000003FB05F53DE71423FAE71D4639E700BF49
:10311000C099007000800D40BC0400200D007000BC
:103120001400E0001500E00040787D0100366E01DB
:103130000D0030000D00A0000080800010B5044696
:103140001648FFF7EDFE032C26D8DFE804F0020D49
:10315000151D134BD3F8003103F03F03B0FBF3F020
:1031600000EBC000400010BD0D4BD3F80031C3F39D
:103170000523B0FBF3F0F3E7094BD3F80031C3F3B9
:103180000543B0FBF3F0EBE7054BD3F80031C3F395
:103190000563B0FBF3F0E3E70020E1E70D0030004A
:1031A00000800D4008B5284B586910F0007025D0FC
:1031B0009B6903F44053B3F5805F10D0B3F5005F13
:1031C00016D043B10020204B5B69C3F3C2630133C7
:1031D000B0FBF3F008BD1D48FFF7A2FEF3E71C4B60
:1031E000D3F8703213F0100F06D11A4B1868EAE7C3
:1031F0001948FFF795FEE6E71848E4E7124B9B698C
:1032000003F44023B3F5002F1AD007D8A3B1B3F5C8
:10321000802FDFD10220FFF791FFDBE7B3F5402FCE
:10322000D8D10D20FFF77CFE074B1B6903F0070385
:103230000133B0FBF3F0CDE70748FFF771FEC9E7B4
:103240000020FFF77BFFC5E700C00F400D00100016
:1032500000800D40BC0400200D00300000366E01DF
:1032600008B5FFF79FFF044B5B69C3F3822301336B
:10327000B0FBF3F008BD00BF00C00F4008B5FFF77A
:10328000EFFF044B5B69C3F301230133B0FBF3F0A1
:1032900008BD00BF00C00F4010B504461648FFF738
:1032A0003FFE032C26D8DFE804F0020D151D134B5A
:1032B000D3F8F03003F03F03B0FBF3F000EBC000B5
:1032C000400010BD0D4BD3F8F030C3F30523B0FB25
:1032D000F3F0F3E7094BD3F8F030C3F30543B0FB49
:1032E000F3F0EBE7054BD3F8F030C3F30563B0FB25
:1032F000F3F0E3E70020E1E70D00100000800D404F
:1033000008B50E4B5B6913F0400F13D00B4B5B6994
:1033100013F0800F0AD00120FFF7BEFF074B5B6957
:10332000C3F302430133B0FBF3F008BD0220FFF703
:1033300005FFF3E7FFF736FFF0E700BF00C00F40DF
:1033400008B5172869D8DFE800F00F0F1215181B11
:103350000C24282C3034383C4044484C5054585CA1
:1033600060644FF4004001E0FFF77AFF08BDFFF70B
:10337000C7FFFBE7FFF782FFF8E700F069F8F5E722
:10338000284BD3F8703213F0100F48D1264B186831
:10339000ECE70D20FFF7C4FDE8E72448FFF7C0FD88
:1033A000E4E70020FFF778FFE0E70120FFF774FF74
:1033B000DCE70220FFF770FFD8E70320FFF76CFF80
:1033C000D4E71B48FFF7ACFDD0E71A48FFF7A8FD8C
:1033D000CCE70020FFF7B2FEC8E70120FFF7AEFE02
:1033E000C4E70220FFF7AAFEC0E70320FFF7A6FE0E
:1033F000BCE71148FFF794FDB8E71048FFF790FDD0
:10340000B4E70F48FFF78CFDB0E70E48FFF788FDE3
:10341000ACE70D48FFF784FDA8E70020A6E70B48BE
:10342000A4E700BF00800D40BC0400200D00100088
:103430000D0020000D0030000D00E0001400E00041
:103440001500E0000D0070000D00A00000366E01B8
:1034500008B50D4BDB6913F0400F0FD00B4BD3F8C1
:10346000703213F0100F0DD1094B1868064BDB6951
:1034700003F03F030133B0FBF3F008BD0320FFF777
:103480005FFFF3E70348F1E700C00F4000800D4005
:10349000BC04002000366E0108B5034B1B68034ACC
:1034A00011680348984708BDC4040020C0040020E8
:1034B00000C02B4008B51F2914D800EB411241F27F
:1034C0001C03D25AC2F3C013C26ACA40520002F0AF
:1034D00002021A43436ACB409B0003F0040342EA12
:1034E000030008BD034B044A40F2AD21034801F03C
:1034F0008FFE00BFE89B0070509C00709C9B00708A
:1035000070B5002834D004468368027CDA77C0683E
:10351000002834D0A36803EB421341F218029958F3
:1035200041F21C029D5A05F08005002D14BF0122B6
:103530000022A1EB00034FEA531129D0C9B2637CEA
:103540005BB299422ED0637C5BB2CB1A35D449B2C0
:103550006174E17C49B2C91A49B2E174266816B1B6
:1035600061682046B04715B1A368227C1A7770BD08
:10357000144B154A40F2BE41144801F049FE25683B
:10358000002DC7D00023012261682046A847EEE73E
:103590001F2B03D9C9B20139C9B2D0E7217D013946
:1035A000C9B2CCE7E07C40B2237D5BB2984201D047
:1035B0000023CCE7E37C5BB2C9E7207D43FA80F3CC
:1035C000C5E700BF409C00706C9C00709C9B007025
:1035D00008B500210B48FFF76DFF10F0040F07D16D
:1035E00010210848FFF766FF10F0040F05D108BD51
:1035F000054B1868FFF784FFF2E7034B186CFFF7E1
:103600007FFFF4E700800E40C804002008B50121C8
:103610000B48FFF74FFF10F0040F07D111210848A6
:10362000FFF748FF10F0040F05D108BD054B58689F
:10363000FFF766FFF2E7034B586CFFF761FFF4E713
:1036400000800E40C804002008B502210B48FFF797
:1036500031FF10F0040F07D112210848FFF72AFFAD
:1036600010F0040F05D108BD054B9868FFF748FF1F
:10367000F2E7034B986CFFF743FFF4E700800E403E
:10368000C804002008B503210B48FFF713FF10F012
:10369000040F07D113210848FFF70CFF10F0040FA7
:1036A00005D108BD054BD868FFF72AFFF2E7034BA9
:1036B000D86CFFF725FFF4E700800E40C804002017
:1036C00008B504210B48FFF7F5FE10F0040F07D1F1
:1036D00014210848FFF7EEFE10F0040F05D108BDD5
:1036E000054B1869FFF70CFFF2E7034B186DFFF766
:1036F00007FFF4E700800E40C804002008B505214C
:103700000B48FFF7D7FE10F0040F07D1152108482A
:10371000FFF7D0FE10F0040F05D108BD054B586926
:10372000FFF7EEFEF2E7034B586DFFF7E9FEF4E713
:1037300000800E40C804002008B506210B48FFF7A2
:10374000B9FE10F0040F07D116210848FFF7B2FEAA
:1037500010F0040F05D108BD054B9869FFF7D0FEA6
:10376000F2E7034B986DFFF7CBFEF4E700800E40C5
:10377000C804002008B507210B48FFF79BFE10F096
:10378000040F07D117210848FFF794FE10F0040F2B
:1037900005D108BD054BD869FFF7B2FEF2E7034B30
:1037A000D86DFFF7ADFEF4E700800E40C80400209E
:1037B00008B508210B48FFF77DFE10F0040F07D174
:1037C00018210848FFF776FE10F0040F05D108BD58
:1037D000054B186AFFF794FEF2E7034B186EFFF7EC
:1037E0008FFEF4E700800E40C804002008B50921D0
:1037F0000B48FFF75FFE10F0040F07D119210848AE
:10380000FFF758FE10F0040F05D108BD054B586AAC
:10381000FFF776FEF2E7034B586EFFF771FEF4E711
:1038200000800E40C804002008B50A210B48FFF7AD
:1038300041FE10F0040F07D11A210848FFF73AFEA5
:1038400010F0040F05D108BD054B986AFFF758FE2C
:10385000F2E7034B986EFFF753FEF4E700800E404B
:10386000C804002008B50B210B48FFF723FE10F019
:10387000040F07D11B210848FFF71CFE10F0040FAE
:1038800005D108BD054BD86AFFF73AFEF2E7034BB6
:10389000D86EFFF735FEF4E700800E40C804002024
:1038A00008B50C210B48FFF705FE10F0040F07D1F7
:1038B0001C210848FFF7FEFD10F0040F05D108BDDC
:1038C000054B186BFFF71CFEF2E7034B186FFFF771
:1038D00017FEF4E700800E40C804002008B50D2153
:1038E0000B48FFF7E7FD10F0040F07D11D21084832
:1038F000FFF7E0FD10F0040F05D108BD054B586B34
:10390000FFF7FEFDF2E7034B586FFFF7F9FDF4E711
:1039100000800E40C804002008B50E210B48FFF7B8
:10392000C9FD10F0040F07D11E210848FFF7C2FDA2
:1039300010F0040F05D108BD054B986BFFF7E0FDB3
:10394000F2E7034B986FFFF7DBFDF4E700800E40D2
:10395000C804002008B50F210B48FFF7ABFD10F09D
:10396000040F07D11F210848FFF7A4FD10F0040F32
:1039700005D108BD054BD86BFFF7C2FDF2E7034B3D
:10398000D86FFFF7BDFDF4E700800E40C8040020AB
:1039900008B50346002000E00130022804D8074A99
:1039A00052F820209A42F7D1022800D808BD044BD3
:1039B000044A4FF49D71044801F02AFC109D0070E8
:1039C000D89C0070FC9C00707C9C007070B5044614
:1039D0004668FFF7DDFF054616F0406F06D0124B34
:1039E0001B68124A52F820102046984716F0407F74
:1039F00006D00F4B1B680D4A52F8251020469847F9
:103A000016F4C03F05D0094B53F82510204600237B
:103A10009847084B1E4206D0074B1B68034A52F8D2
:103A200025102046984770BD580500204805002005
:103A30005405002000007C605005002008B5034BB1
:103A4000196803480023984708BD00BF48050020B7
:103A500000802D4008B50248FFF7B8FF08BD00BF41
:103A600000802D4008B50248FFF7B0FF08BD00BF39
:103A700000402D4008B5074B596821B1064B1B6823
:103A80000648984708BD064B064A40F66A21064894
:103A900001F0BEFB5C0500206C05002000001D400D
:103AA000909D0070CC9D0070409D007008B5074B44
:103AB000996821B1064B1B680648984708BD064B1C
:103AC000064A40F67821064801F0A2FB5C0500207A
:103AD0006C05002000401D40A49D0070E49D007016
:103AE000409D007008B5074BD96821B1064B1B6893
:103AF0000648984708BD064B064A40F68621064808
:103B000001F086FB5C0500206C05002000801D4054
:103B1000B89D0070FC9D0070409D007010B50024A1
:103B200001E00134E4B2012C0CD8074B53F8241007
:103B30000029F6D0054B53F82430054A52F82400EA
:103B40009847EEE710BD00BF700500207805002003
:103B50008005002008B5FFF7E1FF08BD08B5FFF7B5
:103B6000DDFF08BD08B5FFF7D9FF08BD08B502465F
:103B70000020092806D8084B53F82030934201D082
:103B80000130F6E7092800D808BD044B044A392162
:103B9000044801F03DFB00BFC89E0070149E0070F9
:103BA000A49E0070389E007008B51F2908D86AB915
:103BB0000368012202FA01F123EA0101016008BD54
:103BC000064B074A6B21074801F022FB03680122DC
:103BD00002FA01F119430160F1E700BF849E007011
:103BE000B89E0070389E007010B4C46901238B40E9
:103BF00024EA0304C4610F2909D800F10C04013A36
:103C0000042A0FD8DFE802F007111C272F0000F16B
:103C100010041039F3E723684A000321914023EA96
:103C2000010121605DF8044B7047236848000322BE
:103C3000824023EA02030121814019432160F1E718
:103C4000236848000322824023EA020302218140C4
:103C500019432160E6E723684900032202FA01F1D3
:103C600019432160DEE7C2691343C361DAE700004C
:103C7000F8B504460E461746FFF778FF1A4B33F99E
:103C80001010B1F5006F1ED2080A01F01F05174988
:103C900051F820300322AA4023EA0203134341F8DB
:103CA000203063690125B540EA4323EA05036361D7
:103CB0003B787BB963681A406260BA783146204627
:103CC000FFF792FFF8BD0A4B0A4A4FF475710A4894
:103CD00001F09EFA7A7831462046FFF765FF636867
:103CE0001D436560E9E700BFF09E007068C00F40AB
:103CF000509A0070909E00705C9A007038B504462F
:103D00000D46036913F0010F06D00A4B1B681BB167
:103D1000094A52F821109847D4F8103113F0010FD6
:103D200007D0064B1B6823B1054A52F825102046E0
:103D3000984738BD9C05002088050020B405002068
:103D4000A005002008B501210148FFF7D7FF08BDF5
:103D500000003F4008B502210148FFF7CFFF08BD32
:103D600000403F4008B503210148FFF7C7FF08BDE9
:103D700000803F4008B504210148FFF7BFFF08BDA0
:103D800000C03F4008B5436A13F0010F03D0044B55
:103D90001B68984708BD034B1B689847FAE700BFAC
:103DA000CC050020D005002008B5074B596819B193
:103DB0000648FFF7E7FF08BD054B064A40F2D371FE
:103DC000054801F025FA00BFB80500200040394041
:103DD000589F0070A89F0070049F007008B5074BA3
:103DE000996819B10648FFF7CDFF08BD054B064A93
:103DF00040F2DB71054801F00BFA00BFB805002066
:103E0000008039406C9F0070C09F0070049F00705C
:103E100008B5074BD96819B10648FFF7B3FF08BDCD
:103E2000054B064A40F2E371054801F0F1F900BF85
:103E3000B805002000C03940809F0070D89F0070F6
:103E4000049F007008B5074B196919B10648FFF7C0
:103E500099FF08BD054B064A40F2EB71054801F099
:103E6000D7F900BFB805002000003A40949F0070C9
:103E7000F09F0070049F007008B5024600200828DB
:103E800006D8084B53F82030934201D00130F6E7B2
:103E9000082800D808BD044B044A7A21044801F0E0
:103EA000B7F900BF68A100705CA0007030A100707D
:103EB00010A000702DE9F04179B1054696460F46F5
:103EC0000A6882B10B7A042B13D84B7A042B16D8CC
:103ED00090460420002426461DE0714B714AEE21D5
:103EE000714801F095F9714B6E4AEF216E4801F06F
:103EF0008FF96F4B6B4AF1216B4801F089F96D4BDB
:103F0000684AF221684801F083F9414502D88846A1
:103F100004461E460130202817D800FB02F3BEFBE2
:103F2000F3F39BB203B9012300FB03F1BEFBF1F1F4
:103F3000891A03FB000CBEFBFCFCA2EB0C0C8C45AD
:103F4000E3D201339BB26146DFE75B4BA3FB023256
:103F5000520902EB42024245C0F09E802846FFF71C
:103F60008BFF564B33F91010080A01F01F0CB1F506
:103F7000006F80F08180524951F82030032202FA0C
:103F80000CF223EA0203134341F82030AB6843F0FC
:103F90000203AB60AB6823F00203AB602B69221F06
:103FA000032A01D843F4003323F0F852631E1B06A2
:103FB00003F0F8531343434A1A40C6F30C06164362
:103FC0002E612B6923F000532B61AB693E491940E8
:103FD0003879FB7B1B0203F4E0630343BA7B920056
:103FE00002F0040213430B437A79012A4BD008B143
:103FF00043F01003AB612A6922F40052FB795B03A2
:1040000003F4005313432B617A7A3B7A43EA024369
:10401000EB62AB6A43F08803AB62AB6A43F44043A4
:10402000AB62696A7B7B1B0103F010033A7B520190
:1040300002F0200213430B436B62BB7A1BB16B6A25
:1040400043F008036B62FB7A1BB16B6A43F0010318
:104050006B62BB79F3B11D4A6B6913436B61AB694A
:104060003A7C0AB143F400237A7C0AB143F48023FA
:10407000AB610020BDE8F081154B164A4FF4757115
:10408000154801F0C5F810B123F40063B2E743F41A
:104090000063AFE7114ADFE740F22150EAE700BFD3
:1040A000489A007044A1007010A0007084A00070B5
:1040B0009CA00070DCA000701F85EB518CA10070EB
:1040C00068C00F4000E0FFFFE8F8FFFF00C01FE0FE
:1040D000509A00701CA100705C9A007000C01FC054
:1040E00010B5C36A13F4E06FFBD1436913F4800F7A
:1040F000FBD04269104B1343436100238361FFF7F8
:10410000BBFE0E4B33F91010080A01F01F04B1F585
:10411000006F09D20A4951F820300322A24023EA55
:10412000020341F8203010BD064B074A4FF4757169
:10413000064801F06DF800BF00C01FC08CA10070E0
:1041400068C00F40509A00701CA100705C9A00700B
:1041500008B598B1002242824FF4E131016002714A
:1041600042718271C271027242728272C272427371
:1041700002738273C2730274427408BD034B044A13
:1041800040F20621034801F043F800BF489A00704E
:1041900050A1007010A0007008B5034B1B68034AC3
:1041A00051680348984708BDF8050020D405002051
:1041B0000040184008B5034B1B68034A9168034848
:1041C000984708BDF8050020D4050020008018405D
:1041D00008B5034B1B68034AD1680348984708BDDC
:1041E000F8050020D405002000C0184008B5034B96
:1041F0001B68034A11690348984708BDF805002069
:10420000D40500200000194008B5034B1B68034A81
:1042100051690348984708BDF8050020D4050020DF
:104220000040194008B5034B1B68034A91690348D5
:10423000984708BDF8050020D405002000801940EB
:1042400008B5034B1B68034AD1690348984708BD6A
:10425000F8050020D405002000C0194008B5034B24
:104260001B68034A116A0348984708BDF8050020F7
:10427000D405002000001A4008B50246002004289A
:1042800006D8084B53F82030934201D00130F6E7AE
:10429000042800D808BD044B044A3721044800F024
:1042A000B7FF00BFC8A20070A0A1007084A2007078
:1042B000C4A10070F8B5002A6CD005460E4614461D
:1042C0005379022B6CD0637A012B02D1002E00F0BF
:1042D000C6802846FFF7D0FF06EB8000624B33F91B
:1042E0001010080A01F01F07B1F5006F5CD25F499A
:1042F00051F820300322BA4023EA0203134341F865
:104300002030B5F88E319BB243F00F03A5F88E3103
:1043100006EB460305EB43139B8803F4E6516379F0
:1043200003F00303E27AD20002F038021343227949
:10433000120202F4407213432278D20392B2134362
:104340006278920302F480421343627A920002F090
:10435000040213430B43E279012A2FD0022A39D0F9
:104360004AB306EB460205EB42129380D38840F62F
:104370008B711940A3791B0103F07003A27A120319
:1043800092B213430B43227A032A31D8DFE802F0BA
:104390002E585E64364B374A4921374800F038FFC3
:1043A000002990D101204AE0344B354A4FF4757111
:1043B000344800F02DFF43F40053D2E7B5F88821CC
:1043C00092B206F10C000121814022EA0102A5F817
:1043D0008821C6E7B5F8882192B206F10C000121C8
:1043E00081400A4392B2A5F88821BAE743F004035A
:1043F00006EB460205EB4212D380B5F89031DBB2F2
:104400002BB1B5F8903103F47F43A5F89031A37830
:104410001B0203F4E063E2781343A5F89031E37ADA
:10442000FBB906EB460305EB43139B889BB243F0B5
:10443000400306EB460605EB4615AB800020F8BDB1
:1044400023F480639BB243F40063D1E723F4006359
:104450009BB243F48063CBE743F44063C8E7012099
:10446000EDE70020EBE700BFDCA2007068C00F4062
:10447000489A007094A20070C4A10070509A007015
:1044800070A200705C9A007038B50C46B0F88831A4
:104490009BB201F108050121A94023EA0103A0F81C
:1044A0008831FFF7E9FE04EB80040D4B33F914303B
:1044B000B3F5006F0CD2190A03F01F04094850F835
:1044C00021300322A24023EA020340F8213038BD04
:1044D000054B064A4FF47571054800F099FE00BF80
:1044E000DCA2007068C00F40509A007070A200708B
:1044F0005C9A007008B568B1002202704270427286
:104500008270C270427182710271C27282720272D2
:10451000C27108BD024B034AD521034800F078FE62
:10452000489A0070A0A20070C4A100702DE9F04F5D
:1045300083B005469DF830A00D9F0E98F2B19846C5
:10454000164617B343B370B353684CF250329342DC
:1045500030D8B8F1020F00F245810C4601EB410161
:1045600005EB4111CB88C3F3021320FA03F3B3FB2D
:10457000F7F301931FFA83FB00276BE09A4B9B4AEA
:1045800040F211119A4800F043FE9A4B974A4FF4BB
:104590008971974800F03CFE974B944A40F2131102
:1045A000934800F035FE954B904A4FF48A7190483D
:1045B00000F02EFE924B8D4A40F215118C4800F00F
:1045C00027FE4FF6FF73984255D0013080B252E07B
:1045D0004FEA5B014A4292B204EB440305EB4313FA
:1045E0005A8000225A81D9813378012B52D0400859
:1045F000424292B204EB440305EB43135A83D8833F
:104600003378012B00F0D380728904EB440305EB6F
:1046100043135A8604220920337A002B40F0D080BD
:1046200004EB440105EB41114B8C9BB24FF0010CA4
:104630000CFA00F023EA00034B84B5F880319BB2FA
:10464000111901228A4013439BB2A5F880310C3620
:104650000137FFB2474580F0C180D6F804904CF294
:1046600050320023ABFB0901FEF732F880B24CF266
:1046700050339945A5D0BAF1030FC1D801A353F81F
:104680002AF000BFD1450070A94600702D47007088
:10469000734700704008424292B204EB440305EBBA
:1046A00043135A82D882ABE704EB440305EB431370
:1046B00000225A804FEA5B025A81A3F80EB0337889
:1046C000012B15D0BDF804300146181A2AD4C0F3C6
:1046D0004F0004EB440205EB421250835B1823D4D5
:1046E000C3F34F0304EB440205EB4212D38387E785
:1046F000BDF804300146181A10D4C0F34F0004EB83
:10470000440205EB421250825B1809D4C3F34F03F5
:1047100004EB440205EB4212D38271E70130ECE76F
:104720000133F3E70130D2E70133D9E74FEA5B0306
:10473000594289B204EB440205EB421251804FF01A
:10474000000CA2F80AC0D3813278012A08D004EB09
:10475000440205EB42125183C01A80B2D0834FE766
:1047600004EB440205EB42125182C31A9BB2D3827E
:1047700046E704EB440305EB431300225A804FEA5B
:104780005B025A81A3F80EB03378012B07D004EBFB
:10479000440305EB431300225A83D88330E704EB2C
:1047A000440305EB431300225A82D88228E772891A
:1047B00004EB440305EB43131A8608220A202BE777
:1047C00004EB440105EB41114B8C9BB24FF0010C03
:1047D0000CFA00F003439BB24B842EE7002003B099
:1047E000BDE8F08F0120FAE710A20070B8A20070B7
:1047F000C4A100701CA2007028A2007034A2007036
:1048000040A2007008B502460020042806D8084BD4
:1048100053F82030934201D00130F6E7042800D845
:1048200008BD044B044A3621044800F0F1FC00BFE7
:10483000C0A3007004A3007088A3007028A30070B8
:10484000F8B5002A3DD005460E461446FFF7DAFFBC
:10485000224B33F91010080A01F01F07B1F5006F61
:1048600035D21F4951F820300322BA4023EA02030F
:10487000134341F8203023785B0203F4F05362784D
:10488000D20102F4C072134305EB46108381E37832
:104890001B0103F01003A278520102F0200213431F
:1048A000C381A3799B039BB28382C38A03F47843B9
:1048B000C38223791B0203F4E06362791343C3824A
:1048C000F8BD084B084A4621084800F0A1FC084BF7
:1048D000084A4FF47571084800F09AFCD4A30070A0
:1048E00068C00F40489A00709CA3007028A3007015
:1048F000509A007074A300705C9A007010B500EBC1
:1049000041118B89C3F30C038B81FFF77BFF0D4BA8
:1049100033F91030B3F5006F0CD2190A03F01F04FD
:10492000094850F821300322A24023EA020340F84C
:10493000213010BD054B064A4FF47571054800F053
:1049400067FC00BFD4A3007068C00F40509A00708D
:1049500074A300705C9A007008B548B1002282719F
:10496000C27082700271427109210170427008BDEB
:10497000024B034A7F21034800F04AFC489A00702A
:10498000A8A3007028A3007008B51D4BD968D9B141
:104990001C4BD3F8883013F4803F05D1194BD3F862
:1049A000883013F4802F0FD0164BD3F8883013F4CF
:1049B000807F05D1134BD3F8883013F4806F03D078
:1049C000114B1B680F4898470D4B9968B9B10D4BB7
:1049D0009B6813F4803F04D10A4B9B6813F4802F2B
:1049E0000DD0084B9B6813F4807F04D1054B9B6866
:1049F00013F4806F03D0054B1B680248984708BD2D
:104A0000FC050020004038401C0600202006002045
:104A100008B51D4B5969D9B11C4BD3F8883013F434
:104A2000803F05D1194BD3F8883013F4802F0FD075
:104A3000164BD3F8883013F4807F05D1134BD3F88D
:104A4000883013F4806F03D0114B1B680F489847D0
:104A50000D4B1969B9B10D4B9B6813F4803F04D11C
:104A60000A4B9B6813F4802F0DD0084B9B6813F4FE
:104A7000807F04D1054B9B6813F4806F03D0054BF6
:104A80001B680248984708BDFC050020008038409C
:104A90001C0600202006002008B5074B996921B1AB
:104AA000064B1B680648984708BD064B064A40F669
:104AB0001531064800F0ACFBFC0500202006002064
:104AC00000C0384050A4007078A4007004A40070A6
:104AD00008B5074BD96921B1064B1B6806489847B2
:104AE00008BD064B064A4FF43261064800F090FBC1
:104AF000FC0500201C06002000C0384064A40070A3
:104B000094A4007004A4007008B5084B196821B182
:104B1000074B1B680BB107489847044B596821B1F4
:104B2000054B1B680BB10348984708BD24060020BD
:104B300030060020000038402C06002008B5034B4A
:104B40001B68034A51680348984708BD4006002087
:104B50003406002000002C4008B5034B1B68034AB4
:104B600091680348984708BD40060020340600209D
:104B700000402C4018B1012803D103487047034876
:104B800070470020704700BF440600204C060020FC
:104B9000024A136801331360704700BF48060020C3
:104BA00008B5FFF7E7FF18B103460120186008BDFC
:104BB0000020FCE708B548B90A4B00221A7021B161
:104BC000CB6813B109691046984708BD054B01220F
:104BD0001A700029F9D08B68002BF6D009691046AD
:104BE0009847F2E77806002008B50D4B9B6913F053
:104BF000100F07D10A4B4FF0FF329A610120FFF7E7
:104C0000CFFF08BD064B1A68064B5B6A12F0100F07
:104C100019680CBF01200020FFF7CCFFEAE700BFB6
:104C200000001C405006002038B10346406830B1F7
:104C300010B544691868A04710BD032070470620CE
:104C4000704710B50446012380F86F3000220E2112
:104C5000FFF7EAFF022384F86E30002284F86C200C
:104C600008E002EB420304EB83030021D9601961E1
:104C700019750132072AF4D9A368002201212046C0
:104C80009847002084F86F0010BD10B584B00A7AF0
:104C9000102A22D002F00F04D30912F00C0F26D1F3
:104CA00043EA440303EB430200EB8202D2680AB3F7
:104CB0000A6801924A6802924A7A8DF80C207AB109
:104CC0000022027580F8202003EB430200EB8202F1
:104CD000D468126901A9A0470AE0FFF7B2FF07E014
:104CE00003EB430200EB820200211175ECE7012087
:104CF00004B010BD0120FBE7B0FA80F35B09002986
:104D000008BF01232BB910B5836823B1FFF7BDFF9E
:104D100010BD032070470120FAE710B44C00E4B244
:104D20004268012303FA01F1C2F8AC114268D2F8DB
:104D3000403143F40053C2F84031836803EB8413DD
:104D40009A6A1A63836803EB8413DA6A5A634368C6
:104D5000D3F8403113F4005FE8D04268D2F8403114
:104D600023F40053C2F840315DF8044B70474368A8
:104D7000D3F8AC21C3F8AC214368D3F8BC21C3F805
:104D8000BC2143684FF0FF12C3F8B4214368D3F845
:104D9000B02112F0FF1FF4D1D3F8843113F4807FD7
:104DA00003D0012380F85630704700B585B000234A
:104DB000019310228DF80C2002938DF80D3001A97B
:104DC0000068FFF799FF05B05DF804FB2DE9F0439B
:104DD00085B005468846174602EB4106002301933D
:104DE0000293331D00EB83035C6824F01F0443E04F
:104DF000A268A3F580531340A28BC2F30B021343A6
:104E000001933DE04FF0FF33029347E0331D05EB84
:104E1000830300225A6006F10C0305EB83035A60FA
:104E2000AB6803EB861301219960AB6803EB861333
:104E3000DA6043E0FB01DBB243EA08038DF80C3093
:104E40004FF000098DF80D9001A92868FFF754FF75
:104E5000CDF80490CDF80890002363602B6923609F
:104E60002C6195F95430013385F85430331D05EB2E
:104E700083035C6824F01F0464B3019B002BB7D04C
:104E8000636813F0800FBDD1E369C3F31233626826
:104E9000C2F30E429B1A029A13440293331D05EB90
:104EA00083035A6806F10C0305EB83035B689A429F
:104EB000ACD01268331D05EB83035A60636813F4AA
:104EC000004FB7D1331D05EB83035B6833F01F033D
:104ED000C2D1AFE705B0BDE8F0832DE9F04F87B050
:104EE00005464368D3F8AC61002E3AD16B68D3F81D
:104EF000BC210192C3F8BC21002A40F03A8107B0DE
:104F0000BDE8F08F0134E4B2032CEFD80123A340B5
:104F10003342F7D0AB686200D2B203EB821303F1E5
:104F2000300893F83070FF093A4621462846FFF7CB
:104F30004DFF87F0010221462846FFF747FF8DF815
:104F40001440CDF80C800823049301238DF815300C
:104F500021462846FFF7E1FE03A92868FFF7CCFEAB
:104F6000D0E70024D0E7D8464FF00009B8F1030F8E
:104F700016D90BF1010B5FFA8BFBBBF11F0FBED8EB
:104F8000012303FA0BF3019A1342F2D0BBF10F0F86
:104F9000E9D9ABF110085FFA88F84FF00109E5E7AD
:104FA0004FEA480A5FFA8AFACA445FFA8AFA00238B
:104FB00003930493984508BF4B468BB1AB684FEA07
:104FC0008A1103EB8A1292F8382012F0020F07D0F0
:104FD0005A5812F0005F03D15A5842F000525A500A
:104FE00056460AF1040305EB83035C6824F01F04B2
:104FF000002CBED0331D05EB83035C6824F01F0436
:105000002346BBB15A6812F0800F07D15A6812F4D8
:10501000004F03D11B6823F01F03F2E75A6812F018
:10502000800F40F084805A6812F4004F40F0818075
:10503000002200E0002282F00102002B14BF134680
:105040000023002B95D1002CD2D0636813F0800F81
:10505000CED1039B002B6ED0E369C3F31233626899
:10506000C2F30E429B1A049A13440493331D05EBBA
:1050700083035A6806F10C0305EB83035B689A42CD
:1050800063D01268331D05EB83035A60636813F421
:10509000004F06D1331D05EB83035B6833F01F031C
:1050A0000CD148EAC9138DF8143000278DF815701B
:1050B00003A92868FFF720FE039704970023636085
:1050C0002B6923602C6195F95430013385F85430F5
:1050D000331D05EB83035C6824F01F042246002C7B
:1050E000B1D0636813F0800FADD008EB0913012134
:1050F00001FA03F36968C1F8B0316868D0F8B811F3
:105100001942A0D1D0F8B0111942FBD1D0F8B81192
:10511000194298D1A96801EB8A118A60AA6802EB4A
:105120008A120021D1606A68C2F8B0318BE7002290
:1051300081E701227FE7A268A3F580531340A28B89
:10514000C2F30B021343039386E7331D05EB83037E
:1051500000225A6006F10C0305EB83035A60AB682A
:1051600003EB8A1301219960AB6803EB8A13DA60C1
:105170008CE74FF0000B00E710B584B000230193DB
:1051800002938DF80D304368D3F8842112F4807FA8
:105190000BD10446D3F8843113F4007F07D00223E7
:1051A00080F8583094F856302BB904B010BD002365
:1051B00080F85830F6E710238DF80C3001A92068EC
:1051C000FFF79AFD002384F85630EEE7F8B138B5C2
:1051D00005686B68D3F84441D3F848211440C3F8FC
:1051E000444114F0400F06D114F0010F07D114F020
:1051F000040F08D138BD2846FFF7B9FDF4E728466B
:10520000FFF76BFEF3E72846FFF7B6FFF2E77047BC
:1052100000BEFDE708B5134B1B6813F0400F0FD01D
:10522000114BD3F8703213F0100F18D10F4B1868D0
:105230000C4B1B6803F03F030133B0FBF3F008BDD8
:105240000B48FDF76DFE0B4BA3FB00308008054BB0
:105250001B6803F03F030133B0FBF3F0EFE70648B0
:10526000E6E700BF24C00F4000800D40BC040020D2
:105270000D001000ABAAAAAA00366E0108B5FFF710
:10528000C9FF08BD10B45F4B5B6913F4003F0FD03A
:10529000BFF34F8FBFF36F8F5A4B5A6922F400321E
:1052A0005A610022C3F85022BFF34F8FBFF36F8FB4
:1052B000544B5B6913F4803F47D1BFF34F8FBFF36B
:1052C0006F8F504A536A23F4803353624E4B5968B0
:1052D00021F0010159604D49D9604D4919614D498D
:1052E000D9604D4919614D48D8604D481861132067
:1052F000D86019611421D9604A4919614A49D960B5
:105300004A4919614A48D86019614A49D9604A49ED
:1053100019614A49D9604A4919614A49D9604A49DB
:105320001961BFF34F8FBFF36F8F05215960536A27
:1053300043F4803353620023C2F88430BFF34F8FAD
:10534000D2F88000C0F34E3229E02E4B0022C3F881
:105350008420BFF34F8F5A6922F480325A61BFF321
:105360004F8FD3F88040C4F34E3100E01946C4F3A8
:10537000C90243F6E07303EA411343EA827321480A
:10538000C0F874321346013A002BF2D14B1E0029AB
:10539000ECD1BFF34F8FBFF36F8F8EE71A46C0F388
:1053A000C90143F6E07303EA421343EA8173154CE3
:1053B000C4F860320B460139002BF2D1531E002A8B
:1053C000ECD1BFF34F8F626942F480326261BFF368
:1053D0004F8FBFF36F8FBFF34F8FBFF36F8F0022DD
:1053E000C4F85022BFF34F8FBFF36F8F626942F44E
:1053F00000326261BFF34F8FBFF36F8F5DF8044BD4
:10540000704700BF00ED00E090ED00E0100000C02C
:1054100039001003110000803B00100312000070DF
:105420002B0003061F0003031500002025000303C3
:105430001600202017002820090003031800008010
:10544000310003031900E0812900080308B5FFF7C4
:1054500019FF00F013F800F01FFBFFF70FFF0549DD
:10546000CA6822F4E0621204120C034B1343CB60AF
:1054700008BD00BF00ED00E00003FA052DE9F04192
:10548000BC4B4FF400421A60BB4BD3F8C02242F42D
:105490008032C3F8C022D3F8C02222F40032C3F80D
:1054A000C022B64BB64A1A600020FDF7B3FCFDF7E8
:1054B000EBFC0120FDF7DAFCB24A136823F0FF038E
:1054C00043F07F0313601832136823F4405343F40E
:1054D00080531360043A136843F000731360A94BC0
:1054E0009B6C13F0200FFAD1A74AD36823F01F0357
:1054F00043F01303D360A44B1B68002BFBDAA348D3
:10550000FDF7CCFCFDF7F4FC4FF48035A04B1D609B
:10551000994CD4F8703123F40043C4F87031D4F8B6
:10552000703123F40003C4F87031236F43F4005347
:105530002367FDF7E5FCD4F8A0302B43C4F8A03076
:10554000D4F8703123F04043C4F87031D4F8A0305F
:1055500043F40053C4F8A030FDF7DAFC8D4B1D6016
:10556000D4F8E03023F0030343F00103C4F8E03043
:10557000D4F8E03043F40053C4F8E030D4F8E0301D
:1055800023F00C03C4F8E030D4F8E03043F4801387
:10559000C4F8E030D4F8E03043F40013C4F8E0304D
:1055A000FDF7A0FC7C4B1D60236A43F4005323628B
:1055B0007A4A136823F4E0531360724B9B6C13F028
:1055C000020FFAD1764B1A6822F440321A601A6838
:1055D00022F440721A6004331A6822F440021A60FE
:1055E0001A6822F040721A606C4A136843F44073E0
:1055F0001360043A136823F0070343F001031360B8
:10560000604B9B6C13F4803FFAD1664A136843F4F5
:1056100040231360043A136823F000731360594B5E
:105620009B6C13F0200FFAD15C4A136823F060538F
:1056300013605C4D2B6823F440532B6058490B6872
:1056400023F440130B600B6823F440030B60564BAC
:105650001A6822F040721A601A6822F040621A60DA
:105660000A6822F440520A60504A106820F03F0055
:1056700040F001001060106820F040001060DFF87A
:1056800044C1DCF8000020F00C00CCF80000484ECB
:10569000306820F4605040F400603060106820F4FE
:1056A00080301060DCF8000020F03000CCF8000002
:1056B000306820F4E02040F480303060106820F43E
:1056C00000301060DCF8000020F44060CCF80000EE
:1056D000106820F060701060106840F0C0401060EA
:1056E000344F386820F00C003860334C206820F4C8
:1056F000605040F400602060206820F4C0602060AA
:10570000086820F003000860086820F00C000860BA
:10571000086820F030000860086820F0C0000860C9
:10572000286820F0E05040F080502860286820F081
:10573000300040F020002860186820F44000186015
:10574000306820F0C06040F080603060286820F44D
:10575000404040F4004028601848046824F4402485
:105760000460174CD4F800E02EF4E07E4EF0C00E3A
:105770002AE000BFB804002000800D40BC040020D7
:1057800000366E0100C00F4000000840B0A4007059
:1057900074800D40E4800D4024800D4014C00F4003
:1057A0006CC00F4018C00F4068C00F401CC00F40B5
:1057B00024C00F4070C00F403CC00F407CC00F4061
:1057C00028C00F4080C00F40C4F800E0D4F800E0CB
:1057D0002EF03F0E4EF0010EC4F800E0D2F800E0CB
:1057E0002EF4406EC2F800E0D0F800E02EF4401E27
:1057F000C0F800E0DFF86C82D8F800E02EF4E07E1C
:105800004EF0C00EC8F800E0D8F800E02EF03F0ED1
:105810004EF0010EC8F800E0D2F800E02EF4405E31
:10582000C2F800E0D0F800E02EF4400EC0F800E02E
:10583000D4F800E02EF0E07E4EF4400EC4F800E014
:10584000D4F800E02EF47C1E4EF4803EC4F800E054
:10585000D2F800E02EF4404EC2F800E03A6822F0A0
:10586000C0023A603A6822F440723A603A6822F420
:1058700040623A60383F3A6822F0FC723A603A6817
:1058800022F480223A601A6822F440421A601A68B0
:1058900022F440221A606C4AD2F800E02EF0C00ECA
:1058A000C2F800E0D3F800E02EF4403EC3F800E078
:1058B000D3F800E02EF4401EC3F800E0D2F800E078
:1058C0002EF4407EC2F800E0DFF89CE1DEF8002014
:1058D00022F0FC0242F00402CEF80020DEF80020A4
:1058E00022F4407242F40072CEF80020026822F0E6
:1058F000407202601A6822F040521A601A6822F45C
:1059000040521A600B6823F040730B604F4A1368D3
:1059100023F00C031360136823F0C00313600368C3
:1059200023F040630360DCF8003023F44043CCF8FC
:105930000030336823F03F033360336823F04003C3
:105940003360136823F4406313603B6823F4E0433F
:1059500043F480533B602B6823F0607343F0C073C3
:105960002B603B6823F4603343F420333B600368CF
:1059700023F440430360364B196821F0606141F025
:1059800000711960196841F0E0711960196841F4FB
:1059900040111960016821F00C010160196821F4BF
:1059A000E04141F480511960196841F46061196067
:1059B000196841F4C0711960136823F00303136080
:1059C000236823F4606343F400732360236823F0A7
:1059D000606343F000732360DEF8003043F4C013CB
:1059E000CEF80030683A136823F001031360194AB7
:1059F000D2F8603123F01F03C2F86031164B1A6EE3
:105A000022F070021A661A6E22F00F0242F00102B2
:105A10001A661A6E22F460021A661A6E22F4F812DE
:105A200042F490121A661A6E22F480721A661A6E86
:105A300022F080021A661A6E22F080721A66074BF4
:105A4000074A1A60BDE8F08184C00F4074C00F405F
:105A500030C00F4000800D4000C00F40000000200B
:105A60000046C3232CC00F4020C00F40094A1368D2
:105A700043F00C031360022302F57C22743213609E
:105A80000432136041F2B00302F5F672136004327F
:105A90001360704778C00F4008B5FFF7E7FF08BDF7
:105AA000FEE7FEE7FEE7FEE7FEE7FEE7FEE7FEE7CE
:105AB00008B51F2800F28A80DFE800F010161C22CB
:105AC000282E343A40464C52585E646A1070767CF8
:105AD000822E343A40464C52585E646A7022052148
:105AE0003B2000F0D3F808BD702205212C2000F0E7
:105AF000CDF8F8E7702205212D2000F0C7F8F2E775
:105B0000702205212E2000F0C1F8ECE7702205215B
:105B10002F2000F0BBF8E6E770220521302000F0CE
:105B2000B5F8E0E770220521312000F0AFF8DAE7A0
:105B300070220521322000F0A9F8D4E77022052157
:105B4000332000F0A3F8CEE770220521342000F0C6
:105B50009DF8C8E770220521352000F097F8C2E7CC
:105B600070220521362000F091F8BCE77022052153
:105B7000372000F08BF8B6E770220521382000F0BE
:105B800085F8B0E770220521392000F07FF8AAE7F8
:105B9000702205213A2000F079F8A4E7702205214F
:105BA0003C2000F073F89EE7702205213D2000F0B4
:105BB0006DF898E7702205213E2000F067F892E723
:105BC000702205213F2000F061F88CE7024B034A68
:105BD0007A210348FFF71CFBB8A4007004A50070ED
:105BE000BCA4007030B585B0044615460846FFF7E2
:105BF0005FFF01A8FDF7C2F88DF80E50094D01A90D
:105C000055F82400FDF74AF855F82400FDF7D4F8BC
:105C100008B905B030BD044B044AA1210448FFF780
:105C2000F7FA00BF04000020B8A4007010A50070AF
:105C3000BCA4007010B582B0044610461A46012973
:105C400004D031B900238DF8043002E001238DF82F
:105C50000430A0B101238DF8053000238DF8063003
:105C60000521204600F012F8600901AA04F01F0186
:105C7000054B53F82000FDF7FBFF02B010BD0023D9
:105C80008DF80530E9E700BF1000002010B5964CF4
:105C9000236843F00C032360A0F120039BB21F2B69
:105CA00001F29E8020381F2800F29381DFE810F077
:105CB00020006200A400E200910191019101910194
:105CC000910140018B01D60126027F02BB02FA023C
:105CD00046039403FD034E04A30408055105A305E0
:105CE000F6055506A606F8064607AE07FC074E0859
:105CF00059B97E4B196003F56E7302211960002AB1
:105D000000F067817A4B1A6063E1012912D0022901
:105D100017D0032918D004291DD005291ED0062923
:105D20001FD0072920D1714B196003F25443002181
:105D30001960E4E76D4B196003F5B1630021196048
:105D4000DDE76A4B1960DAE7684B196003F54F73BA
:105D500000211960D3E7654B1960D0E7634B1960E8
:105D6000CDE7624B1960CAE7624B634A3E21634844
:105D7000FFF74EFA59B9624B196003F571730221AE
:105D80001960002A00F025815E4B1A6021E101298B
:105D900012D0022917D0032918D004291DD00529B3
:105DA0001ED006291FD0072920D1554B196003F5B5
:105DB0008B6300211960E4E7514B196003F5B1636F
:105DC00000211960DDE74E4B1960DAE74C4B196092
:105DD00003F54D7300211960D3E7494B1960D0E7F3
:105DE000474B1960CDE7464B1960CAE7414B424A21
:105DF00057214248FFF70CFA39B9434B1960002A82
:105E000000F0E780414B1A60E3E0012912D002293B
:105E100017D003291CD004291DD005291ED006291E
:105E20001FD0072920D1384B196003F58A63002160
:105E30001960E4E7344B196003F5B1630021196080
:105E4000DDE7314B196003F5926301211960D6E754
:105E50002D4B1960D3E72C4B1960D0E72A4B196002
:105E6000CDE7294B1960CAE7224B234A702123480A
:105E7000FFF7CEF959B9264B196003F5627301217A
:105E80001960002A00F0A580224B1A60A1E00129C8
:105E900012D0022917D003291CD0042921D00529AA
:105EA0003AD006293BD007293CD1194B196003F29F
:105EB000444300211960E4E7012315490B6001F216
:105EC00064510B60DDE7124B196003F5916301210A
:105ED0001960D6E70E4B196003F5A1630021196024
:105EE000CFE70B4B1960CCE778C00F40BC801F4058
:105EF000AC821F40B8A4007068A500701CA500709B
:105F0000C0801F40B0821F40C4801F40B4821F4029
:105F1000C8801F40B8821F40954B1960B1E7944B71
:105F20001960AEE7934B944A89219448FFF770F9C2
:105F300031B9934B1960002A4BD0924B1A6048E05C
:105F4000012914D0022919D003291AD004291BD001
:105F5000052920D0062921D0072926D009292BD1AF
:105F6000874B196003F5D56302211960E3E7844B81
:105F7000196003F5657303211960DCE7804B196034
:105F8000D9E77F4B1960D6E77D4B196003F54A735B
:105F900001211960CFE77A4B1960CCE7784B196083
:105FA00003F5AF6301211960C5E7754B196003F272
:105FB0008C6300211960BEE76E4B6F4A40F22911D5
:105FC0006E48FFF725F929B96F4B19600AB16F4B7D
:105FD0001A6010BD012912D0022917D0032918D048
:105FE00004291DD0052922D0062923D0072928D02D
:105FF000082929D009292AD1634B1960E6E7624BA9
:10600000196003F55C7303211960DFE75E4B1960CB
:10601000DCE75D4B196003F2CC4301211960D5E741
:10602000594B196003F5487301211960CEE7564BAF
:106030001960CBE7544B196003F2545301211960E6
:10604000C4E7514B1960C1E74F4B1960BEE7494B9C
:10605000494A4FF4A3714948FFF7DAF831B94C4B7C
:106060001960002AB5D04B4B1A60B2E7012912D053
:10607000022917D0032918D0042919D005291ED0C8
:1060800006291FD0072924D0082929D009292ED173
:106090003F4B1960E5E73E4B196003F55F73032141
:1060A0001960DEE73A4B1960DBE7394B1960D8E736
:1060B000374B196003F5467301211960D1E7344B62
:1060C0001960CEE7324B196003F254530121196075
:1060D000C7E72F4B196003F5577301211960C0E71B
:1060E0002B4B196003F2A46302211960B9E7214B1D
:1060F000214A40F263112148FFF78AF861B9264B23
:106100001021196003F57E7301211960002A3FF404
:1061100060AF224B1A605CE7012912D0022917D028
:10612000032918D0042919D005291AD006291BD013
:10613000072935D1184B196003F27C4300211960FF
:10614000E4E7012314490B6001F544710B60DDE7BE
:10615000114B1960DAE7104B1960D7E70E4B196045
:10616000D4E70D4B1960D1E70B4B1960CEE700BFA8
:10617000C8801F40B8A4007068A500701CA50070FE
:10618000E0801F40D0821F40E4801F40D4821F4027
:10619000E8801F40D8821F40EC801F40DC821F40F7
:1061A000924B934A4FF4BE719248FFF731F861B9B0
:1061B000914B1021196003F57E7301211960002AAB
:1061C0003FF407AF8D4B1A6003E701290ED0022977
:1061D00013D0032914D0042915D0052916D0062977
:1061E00017D0072918D1844B1960E8E7824B196052
:1061F00003F5CE6300211960E1E77F4B1960DEE70C
:106200007D4B1960DBE77C4B1960D8E77A4B19604E
:10621000D5E7794B1960D2E7744B754A40F2951176
:106220007448FEF7F5FF59B9002375490B6001F575
:106230009B610B60002A3FF4CCAE724B1A60C8E63B
:1062400001290ED0022913D0032914D0042915D016
:1062500005291AD006291BD008291CD1684B1960C2
:10626000E8E7012366490B6001F24C510B60E1E75E
:10627000634B1960DEE7624B1960DBE7604B196026
:1062800003F54D7300211960D4E75D4B1960D1E728
:106290005B4B1960CEE7554B554A4FF4D7715548C3
:1062A000FEF7B6FF39B9584B1960002A3FF491AE9A
:1062B000564B1A608DE6012914D0022919D0032902
:1062C0001AD004291FD0052924D0062925D0072952
:1062D0002AD008292BD14C4B196003F29463012179
:1062E0001960E2E7484B196003F5AB6300211960C0
:1062F000DBE7454B1960D8E7434B196003F553734F
:1063000000211960D1E7404B196003F54A73002161
:106310001960CAE73C4B1960C7E73B4B196003F5AE
:10632000567302211960C0E7374B1960BDE72F4B48
:106330002F4A40F2C9112F48FEF76AFF59B9344B72
:10634000196003F53F7301211960002A3FF441AE43
:10635000304B1A603DE6012912D0022917D00329DB
:1063600018D004291ED005291FD0062920D00729BE
:1063700025D0082926D0092927D1254B1960E4E723
:10638000012323490B6001F590610B60DDE7204B91
:106390001960DAE71E4B1321196003F574730121AC
:1063A0001960D2E71A4B1960CFE7194B1960CCE797
:1063B000174B196003F2DC4302211960C5E7144B47
:1063C0001960C2E7124B1960BFE7084B084A4FF447
:1063D000F3710848FEF71CFF11BB0F4B1960002A30
:1063E0003FF4F7AD0D4B1A60F3E500BFB8A40070A1
:1063F00068A500701CA50070F0801F40E0821F405F
:10640000F4801F40E4821F40F8801F40E8821F4054
:10641000FC801F40EC821F4000811F40F0821F4023
:10642000012912D0022917D0032918D004291ED01F
:10643000052923D0062924D0072925D0082926D0CC
:1064400009292BD1944B1960C9E7934B196003F5C7
:10645000906300211960C2E78F4B1960BFE78E4B34
:106460001321196003F5747301211960B7E78A4B92
:10647000196003F53F7302211960B0E7864B19607C
:10648000ADE7854B1960AAE7834B1960A7E7824BFC
:10649000196003F2246300211960A0E77F4B804A52
:1064A00040F203217F48FEF7B3FE59B97E4B1960D5
:1064B00003F53C7301211960002A3FF48AAD7B4B40
:1064C0001A6086E5012912D0022917D003291CD0B1
:1064D00004291DD005291ED006291FD0072924D044
:1064E000082925D009292AD16F4B1960E4E7012337
:1064F0006D490B6001F590610B60DDE76A4B196037
:1065000003F22C4301211960D6E7674B1960D3E7EA
:10651000654B1960D0E7644B1960CDE7624B196099
:1065200003F59A6301211960C6E75F4B1960C3E761
:106530005D4B196003F5CD6301211960BCE7574B32
:10654000574A4FF408715748FEF762FE59B9584B45
:10655000196003F5996301211960002A3FF439ADF0
:10656000544B1A6035E5012912D0022917D00329AE
:106570001CD0042921D0052922D0062923D007299F
:1065800028D0082929D009292ED1494B1960E4E7E0
:10659000012347490B6001F590610B60DDE7444B37
:1065A000196003F2244301211960D6E7404B1960BA
:1065B00003F5986300211960CFE73D4B1960CCE7E4
:1065C0003B4B1960C9E73A4B196003F59B63002107
:1065D0001960C2E7364B1960BFE7354B196003F20B
:1065E0005C6301211960B8E72C4B2D4A40F23D2134
:1065F0002C48FEF70DFE59B92F4B196003F56E7349
:1066000001211960002A3FF4E4AC2C4B1A60E0E44D
:10661000012912D0022913D0032918D0042919D036
:1066200005291ED006291FD0072924D0082925D0E6
:1066300009292AD1204B1960E4E71F4B1960E1E7D3
:106640001D4B196003F5856301211960DAE71A4BC8
:106650001960D7E7184B196003F5467300211960DC
:10666000D0E7154B1960CDE7134B196003F2DC43FB
:1066700001211960C6E7104B1960C3E70E4B196082
:1066800003F25C6301211960BCE7044B044A40F249
:106690005A210448FEF7BCFD00811F40B8A40070D9
:1066A00068A500701CA5007004811F40F4821F4083
:1066B00008811F40F8821F400C811F40FC821F4050
:1066C00059B9974B196003F56C7301211960002AC1
:1066D0003FF47FAC934B1A607BE4012912D002296E
:1066E00017D0032918D0042919D005291AD0062952
:1066F0001BD0072920D0082921D0092922D1884B75
:106700001960E4E7864B196003F5487300211960AE
:10671000DDE7834B1960DAE7814B1960D7E7804BDF
:106720001960D4E77E4B1960D1E77D4B196003F205
:10673000DC4301211960CAE7794B1960C7E7784B40
:106740001960C4E7784B794A40F277217848FEF720
:106750005FFD59B9774B196003F56A730121196020
:10676000002A3FF436AC744B1A6032E4012912D08F
:10677000022918D003291DD004291ED0052923D0B1
:10678000062924D0072929D008292AD009292BD164
:10679000684B1960E4E7674B1121196003F57373C7
:1067A00002211960DCE7634B196003F58563002162
:1067B0001960D5E75F4B1960D2E75E4B196003F5AE
:1067C000457301211960CBE75A4B1960C8E7594B53
:1067D000196003F2DC4301211960C1E7554B1960D0
:1067E000BEE7544B1960BBE74F4B504A4FF425713D
:1067F0004F48FEF70DFD61B9504B196003F5687302
:1068000001211960002A3FF4E4AB4D4B1A60FFF7F9
:10681000E0BB012912D0022918D003291DD0042978
:106820001ED0052923D0062924D0072929D00829DC
:106830002AD009292BD1414B1960E3E73F4B1121A5
:10684000196003F5717302211960DBE73B4B196096
:1068500003F5846300211960D4E7384B1960D1E750
:10686000364B196003F5427301211960CAE7334BB7
:106870001960C7E7314B196003F2DC43012119604D
:10688000C0E72E4B1960BDE72C4B1960BAE7264BC9
:10689000264A40F2B1212648FEF7BAFC41B9294BFD
:1068A0001960002A3FF495AB274B1A60FFF791BBA4
:1068B000012910D0022915D0032916D004291BD094
:1068C000052920D0062921D0072926D009293DD124
:1068D0001C4B1960E5E701231A490B6001F55E7155
:1068E0000B60DEE7174B1960DBE7032315490B60EC
:1068F00001F538710B60D4E7124B196003F5407352
:1069000000211960CDE70F4B1960CAE70D4B1960E4
:1069100003F5996301211960C3E70A4B1960C0E7C9
:1069200010811F4000831F40B8A4007068A500704C
:106930001CA5007014811F4004831F4018811F4054
:1069400008831F401C811F400C831F409A4B9B4AA9
:106950004FF433719A48FEF75BFC61B9994B1960AB
:1069600003F5617301211960002A3FF432AB964BA5
:106970001A60FFF72EBB012910D0022915D0032978
:106980001AD004291FD0052924D0062925D007298B
:106990002AD009292BD18B4B1960E5E701238949BE
:1069A0000B6001F55E710B60DEE7022385490B6029
:1069B00001F54B710B60D7E7824B196003F26C4312
:1069C00001211960D0E77F4B196003F53E73002168
:1069D0001960C9E77B4B1960C6E77A4B196003F26F
:1069E000BC4301211960BFE7764B1960BCE7724BCD
:1069F000724A40F2E7217248FEF70AFC61B9734B14
:106A0000196003F5647301211960002A3FF4E1AABB
:106A10006F4B1A60FFF7DDBA012912D0022913D09B
:106A2000032918D004291DD0052922D0062923D0F6
:106A3000072928D0082929D009292AD1634B1960B0
:106A4000E3E7624B1960E0E7604B196003F5886388
:106A500001211960D9E75D4B196003F590630121AD
:106A60001960D2E7594B196003F53C730021196096
:106A7000CBE7564B1960C8E7544B196003F2E44367
:106A800001211960C1E7514B1960BEE74F4B1960F6
:106A9000BBE7494B494A4FF441714948FEF7B8FBFF
:106AA00061B94C4B196003F5627301211960002A2A
:106AB0003FF48FAA484B1A60FFF78BBA012912D016
:106AC000022913D0032918D004291DD0052922D06A
:106AD000062923D0072924D0082925D0092926D121
:106AE0003C4B1960E3E73B4B1960E0E7394B196019
:106AF00003F5876301211960D9E7364B196003F567
:106B00008D6301211960D2E7324B196003F53A73A6
:106B100000211960CBE72F4B1960C8E72D4B196096
:106B2000C5E72C4B1960C2E72A4B1960BFE7224B1F
:106B3000224A40F221312248FEF76AFB61B9274B15
:106B4000196003F5607301211960002A3FF441AA1E
:106B5000234B1A60FFF73DBA012912D0022913D046
:106B6000032918D004291DD0052922D0062939D09F
:106B700007293ED008293FD0092940D1174B196079
:106B8000E3E7164B1960E0E7144B196003F57873DF
:106B900001211960D9E7114B196003F58D630121BB
:106BA0001960D2E70D4B196003F5387300211960A5
:106BB000CBE70A4B1960C8E7B8A4007068A500705D
:106BC0001CA5007020811F4010831F4024811F409E
:106BD00014831F4028811F4018831F402C811F40B1
:106BE0001C831F40944B196003F2CC4301211960B0
:106BF000ABE7914B1960A8E78F4B1960A5E78F4B66
:106C00008F4A40F23E318F48FEF702FB61B98E4B4E
:106C1000196003F55E7301211960002A3FF4D9A9B8
:106C20008A4B1A60FFF7D5B9012912D0022913D077
:106C3000032918D0042919D005291ED006291FD0F0
:106C4000072924D0082925D0092926D17E4B19608F
:106C5000E3E77D4B1960E0E77B4B196003F579733F
:106C600001211960D9E7784B1960D6E7764B196096
:106C700003F5367300211960CFE7734B1960CCE739
:106C8000714B196003F2CC4301211960C5E76E4BCB
:106C90001960C2E76C4B1960BFE7684B684A40F265
:106CA0005B316848FEF7B4FA61B9694B196003F5C6
:106CB000657301211960002A3FF48BA9654B1A60A6
:106CC000FFF787B9012912D0022913D0032918D060
:106CD00004291DD0052922D0062923D0072928D030
:106CE000082929D009292AD1594B1960E3E7584BC3
:106CF0001960E0E7564B196003F5797301211960BB
:106D0000D9E7534B196003F2744301211960D2E7AC
:106D10004F4B196003F5347300211960CBE74C4BDE
:106D20001960C8E74A4B196003F2CC43012119608E
:106D3000C1E7474B1960BEE7454B1960BBE73F4BC6
:106D40003F4A4FF45E713F48FEF762FA41B9424B49
:106D50001960002A3FF43DA9404B1A60FFF739B98A
:106D6000012912D0022913D0032914D0042919D0E3
:106D700005291ED006291FD0072924D0082925D08F
:106D8000092926D1344B1960E3E7334B1960E0E75A
:106D9000314B1960DDE7304B196003F27443012178
:106DA0001960D6E72C4B196003F532730021196086
:106DB000CFE7294B1960CCE7274B196003F2CC438E
:106DC00001211960C5E7244B1960C2E7224B196005
:106DD000BFE71A4B1A4A40F295311A48FEF718FAE3
:106DE000A0F140039BB21F2B01F2C78040381F283F
:106DF0003FF6EFA8DFE810F034006C00A800E000D8
:106E000024017C01B901F50131027102C8020403B9
:106E100040037803B003E8034B049804E1042A0517
:106E20008C05CC050C064C068406D9061A075A07B1
:106E30009207D20737087C082C811F40B8A4007045
:106E400068A500701CA5007030811F4020831F4082
:106E500034811F4024831F4038811F4028831F40F6
:106E600041B9964B1960002A3FF4B3A8944B1A60BD
:106E7000FFF7AFB801290ED002290FD0032910D097
:106E8000042915D0052916D0062917D0082918D1AC
:106E90008A4B1960E7E7894B1960E4E7874B196073
:106EA000E1E7864B196003F5787300211960DAE792
:106EB000824B1960D7E7814B1960D4E77F4B19608B
:106EC000D1E7804B804A40F2B6318048FEF7A0F906
:106ED00041B97F4B1960002A3FF47BA87D4B1A60B3
:106EE000FFF777B8012912D0022913D0032914D053
:106EF000042919D005291AD006291BD008291CD12C
:106F0000734B196003F5BA6301211960E3E7704B15
:106F10001960E0E76E4B1960DDE76D4B196003F512
:106F2000797300211960D6E7694B1960D3E7684B84
:106F30001960D0E7664B1960CDE7624B624A40F2B8
:106F4000CF316248FEF764F941B9634B1960002AFA
:106F50003FF43FA8614B1A60FFF73BB801290ED000
:106F600002290FD0032910D0042915D0052916D0E5
:106F7000062917D0082918D1574B1960E7E7564B57
:106F80001960E4E7544B1960E1E7534B196003F5CE
:106F9000797300211960DAE74F4B1960D7E74E4B40
:106FA0001960D4E74C4B1960D1E7464B464A4FF481
:106FB0007A714648FEF72CF941B9494B1960002A0D
:106FC0003FF407A8474B1A60FFF703B8012912D016
:106FD000022917D003291CD0042921D0052922D049
:106FE000062923D0082924D13D4B196003F2DC5334
:106FF00001211960E3E7012339490B6001F22441C3
:107000000B60DCE7364B196003F54173032119600F
:10701000D5E7334B196003F5767300211960CEE78D
:107020002F4B1960CBE72E4B1960C8E72C4B19602A
:10703000C5E7244B244A40F201412448FEF7E8F812
:1070400041B9294B1960002A3EF4C3AF274B1A609F
:10705000FEF7BFBF01290ED0022913D0032919D092
:1070600004291AD005291BD006291CD008291DD1B6
:107070001D4B1960E7E701231B490B6001F2244116
:107080000B60E0E7184B1221196003F562730121D0
:107090001960D8E7144B1960D5E7134B1960D2E794
:1070A000114B1960CFE7104B1960CCE7054B064A2E
:1070B00040F21A410548FEF7ABF800BF3C811F4083
:1070C0002C831F40B8A4007068A500701CA5007038
:1070D00040811F4030831F4044811F4034831F4044
:1070E00048811F4038831F404C811F403C831F4014
:1070F00041B9984B1960002A3EF46BAF964B1A6069
:10710000FEF767BF01290ED0022913D0032919D039
:1071100004291AD005291BD006291CD008291DD105
:107120008C4B1960E7E701238A490B6001F2244187
:107130000B60E0E7874B1221196003F562730121B0
:107140001960D8E7834B1960D5E7824B1960D2E705
:10715000804B1960CFE77F4B1960CCE77F4B804AAB
:1071600040F233417F48FEF753F841B97E4B196036
:10717000002A3EF42EAF7D4B1A60FEF72ABF01298C
:107180000ED0022913D0032918D0042919D00529BB
:107190001AD006291BD008291CD1734B1960E7E7C8
:1071A000714B196003F5856302211960E0E76E4BAE
:1071B000196003F5497301211960D9E76A4B196019
:1071C000D6E7694B1960D3E7674B1960D0E7664B88
:1071D0001960CDE7614B624A40F24C416148FEF7CD
:1071E00017F841B9624B1960002A3EF4F2AE614BC8
:1071F0001A60FEF7EEBE01290ED0022913D0032932
:1072000018D0042919D005291AD006291BD008291D
:107210001CD1574B1960E7E7554B196003F585639F
:1072200002211960E0E7524B196003F54C7301210C
:107230001960D9E74E4B1960D6E74D4B1960D3E77B
:107240004B4B1960D0E74A4B1960CDE7434B444A9A
:1072500040F265414348FDF7DBFF41B9464B1960F9
:10726000002A3EF4B6AE454B1A60FEF7B2BE0129C5
:107270000ED0022913D0032918D004291DD00529C6
:107280001ED006291FD0082920D13B4B1960E7E703
:10729000394B196003F5856302211960E0E7364B2D
:1072A000196003F5487301211960D9E7324B196061
:1072B00003F5787302211960D2E72F4B1960CFE7ED
:1072C0002D4B1960CCE72C4B1960C9E7234B244A9E
:1072D00040F27E412348FDF79BFF41B9284B1960DE
:1072E000002A3EF476AE274B1A60FEF772BE0129E3
:1072F0000ED002290FD0032914D0042919D0052952
:107300001AD006291BD008291CD11D4B1960E7E7AC
:107310001B4B1960E4E71A4B196003F54B7301210D
:107320001960DDE7164B196003F5767302211960C9
:10733000D6E7134B1960D3E7114B1960D0E7104B18
:107340001960CDE7054B064A40F297410548FDF725
:107350005FFF00BF50811F4040831F40B8A40070F2
:1073600068A500701CA5007054811F4044831F4015
:1073700058811F4048831F405C811F404C831F4041
:1073800060811F4050831F4041B9944B1960002A0F
:107390003EF41FAE924B1A60FEF71BBE01290ED0C1
:1073A00002290FD0032914D0042919D005291AD095
:1073B00006291BD008291CD1884B1960E7E7874BA9
:1073C0001960E4E7854B196003F5477301211960E3
:1073D000DDE7824B196003F2344301211960D6E7DF
:1073E0007E4B1960D3E77D4B1960D0E77B4B19606A
:1073F000CDE77C4B7C4A4FF496617C48FDF708FF53
:1074000041B97B4B1960002A3EF4E3AD794B1A6019
:10741000FEF7DFBD01290ED002290FD0032914D0B9
:10742000042919D005291AD006291BD008291CD1F6
:107430006F4B1960E7E76E4B1960E4E76C4B19601E
:1074400003F54A7301211960DDE7694B196003F206
:10745000344301211960D6E7654B1960D3E7644BCB
:107460001960D0E7624B1960CDE75E4B5E4A40F28F
:10747000C9415E48FDF7CCFE41B95F4B1960002A57
